:020000040000FA
:04000000803116280D
:100008007E1480312E00961E0A280B2814288C1E78
:100018000E280F281428843103248031142814282A
:100028007E10090080311828F701F801F901FA015A
:10003800FB01FC012000A001A101A201A301A40170
:10004800A501A6017E10200080312A2883313023A3
:1000580080312E282E00961231288231D322803109
:100068005E288331132380316B2881310E21803142
:100078006B288131E02180316B2882311A2280314E
:100088006B288031782080316B288131A121803123
:100098006B288131582180316B288231812280314F
:1000A8006B2882314E2280316B288031C420803108
:1000B8006B286B287C08FF3E031C6B2884000A30E1
:1000C800040203186B2883310435B93E82007B088B
:1000D80003196F287028312884311324803131287E
:1000E80031283128803116287A08031D7C287D287C
:1000F80086287E28200096018128F701F70AFA0150
:10010800FA0A86287A03031D8A288B28BC2800301F
:100118008331782380317208F50075082000A40027
:10012800D030890B952800009E285330890B9A28D7
:1001380000009E2801302000A402240A031DA528DF
:10014800A6289928A7287708F5000330F535FF3E3B
:10015800031DAA28753596000310F70D1030770691
:10016800031DB728B828BC28F701F70ABC28BC2803
:100178007B080319C028C128C328FA01C32808002E
:100188007A08031DC828C928D028CA282000960143
:10019800CD28FA01FA0AD0287A03031DD428D528D5
:1001A8000629003083317823803171082000AB00A4
:1001B8007208AC002C0E0F39AB00AC012B08AD0057
:1001C8002D08A3000030F1007030F2002308AB00C6
:1001D8002B08F3008231F42280310030F1007030B6
:1001E800F20084314C2480312000AB002B08A2009F
:1001F8002208AB000330AB35FF3E031DFF282B352B
:10020800960006297B0803190A290B290D29FA01EA
:100218000D2908007A08031D122913291D291429FC
:10022800200096011729843195248131FA01FA0AB0
:100238001D297A03031D212922294D29252925292C
:10024800252984317F248131003A03192C292D294D
:1002580025292E0010108431622481310130F300E9
:1002680073082000A60703302606031D3C293D29F4
:100278004D293E290310161E031403184429472943
:10028800200016164929200016124A29A6014D29D0
:100298004D297B0803195129522957298431922461
:1002A8008131FA01572908007A08031D5C295D2964
:1002B8006C295E2920009601622962291616642994
:1002C800F801F80A843195248131FA01FA0A6C2977
:1002D8007A03031D702971299629742974297429B0
:1002E80084317F248131003A03197B297C297429C0
:1002F8002E0010108431622481310310F80D103063
:100308007806031D882989298C29F801F80A8C297F
:100318007808F3000330F335FF3E031D8F2973354A
:10032800200096007B0803199A299B29A02984316B
:1003380092248131FA01A02908007A08031DA52911
:10034800A629B329A72920009601AA298331F323D6
:100358008131843188248131FA01FA0AB3297A0378
:10036800031DB729B829D229003083317823813178
:100378007108F5007208F6000630F636F50C890BA0
:10038800C12975082000A0007608A1002108F20004
:100398002008F100833162238131D2297B080319B7
:1003A800D629D729DF298431842481318431222434
:1003B8008131FA01DF2908007A08031DE429E529BB
:1003C800F129E62920009601EA29EA291616EC29DE
:1003D800F801F80AFA01FA0AF1297A03031DF52946
:1003E800F629122A5230F1002A30890BF929F10B2B
:1003F800F9290310F80D10307806031D042A052A80
:10040800082AF801F80A082A7808F1000330F135BB
:10041800FF3E031D0B2A7135200096007B08031947
:10042800162A172A192AFA01192A08007A08031D18
:100438001E2A1F2A262A202A20009601232AFA018A
:10044800FA0A262A7A03031D2A2A2B2A462A00306A
:1004580083317823823171082000AB007208AC0028
:100468002C0E0F39AB00AC012B08AD002D08A500F0
:100478002508AB000330AB35FF3E031D3F2A2B3563
:100488009600462A7B0803194A2A4B2A4D2AFA0164
:100498004D2A08007A08031D522A532A652A20008B
:1004A8001617161B582A5B2A200016165D2A2000EC
:1004B80016129613961230000C146300FA01FA0A09
:1004C800652A7A03031D692A6A2A792A20001613E5
:1004D80016129617961B712A742A20009616762AE9
:1004E8002000961230000C10792A7B0803197D2A07
:1004F8007E2A802AFA01802A08007A08031D852AA4
:10050800862AA12A872A200096018B2A8B2A16166A
:100518008D2AF801F80A8B170B17922A2E009616C7
:10052800952A8E30F1000330F2008431792482312B
:10053800FA01FA0AA12AA12AA12A7B080319A52AE5
:10054800A62AAC2A2E0096128B130B13FA01AC2A9A
:10055800080020009A019901960197019801073037
:1005680095000F309100FF309200FF309300FF306C
:100578009400FF303E00D900FF30CE00EF30C300BA
:100588000730E4000F30B800DA01E501C401B90111
:10059800CF01E601BA01C501D001DB0108007908E5
:1005A800031DD72AD82AE92A20000D1ADC2ADD2AB9
:1005B800F32A1130F1003A30890BE02AF10BE02AD6
:1005C8000032F901F90AF32AF32A20000D1EED2A58
:1005D800EE2AF32AF901FB01FB0AF32AF32A0800A1
:1005E80000308B1B0130F400720830009B0071084A
:1005F8009A0073089C001E171E158B1355309F0018
:10060800AA309F009E14082B9E180B2B0C2B082B2E
:100618001E11740C031C8B1303188B1708007A081F
:10062800031D172B182B1F2B192B200096011C2B91
:10063800FA01FA0A1F2B7A03031D232B242B282BDC
:1006480020001616282B282B7B0803192C2B2D2B62
:100658002F2BFA012F2B080084316B248331823130
:10066800AD22833184315924833184317324833119
:1006780084313F2483318331A4238331843131246D
:10068800833183314C2383318331CD238331080077
:1006980024008F019001013091000B308D00DC3077
:1006A8008C000D082000A80024000C082000A700DA
:1006B8002E001010013024008E0008007208F4008B
:1006C8007108F300F436F30CF436F30C73082700C2
:1006D8008D0071080339F3000530F335FF3E031D23
:1006E800712B73358C000800F400740821009E00FB
:1006F8009317131313140000822B6400210013189E
:10070800862B872B812B882B0D08F2000C08F10013
:100718008D2B08007803031D922B932B972B1030F9
:10072800F0007008F8000310F80C7808F0000330A7
:10073800F035FF3E031D9C2B703520009600080005
:1007480022008E018F0190019101920193018D0188
:1007580021009E019B0194019501960197019A0140
:100768009901980180309300080080313528803144
:10077800392880313D288031412880314528803111
:10078800492880314D2880315128803155288031C1
:100798005928483020009F00F3309D009C012E000E
:1007A8008C1296169830F1000430F20084317924C6
:1007B8008331803020009E00080024000E1DE52BA8
:1007C800E62BED2B0E1072088D0071088C000E14AC
:1007D800F22B72088D0071088C00F22B080055303E
:1007E8003D008F00AA308F000F100E303E0097009A
:1007F80055303D008F00AA308F000F1408002E00DE
:100808008C12200029082A0403190B2C0C2C122CFA
:100818002A088A0029080A008431122C0800FB01E2
:100828000130F1007108FC070B307C02031C1D2C01
:100838001E2C212CFC01FC0A212C080055303D00FF
:100848008F00AA308F000F103E00970155303D00F1
:100858008F00AA308F000F14080001302500900087
:100868008F019101FF308D008C012E009010803097
:1008780025008E000800803027008E00CC308D00C7
:1008880080308C0024001F08F33904389F000800CA
:10089800720830009B0071089A001E171E14000091
:1008A800000030001C08582C0800623031008D0010
:1008B8008F0191010130930092010800200028085F
:1008C800F2002708F1008331E123843108002F006A
:1008D80096019701980199019A019B010800183027
:1008E80030008C0017308D00080072082000AA0024
:1008F8007108A90008002E0010080139832C08008F
:1009080084318C248431080084318F248431080098
:1009180025008E13080025008E17080024000E10ED
:0A092800080024000E140800080067
:020000040001F9
:0A000E00EC3FFF37AC0FFF3FFF3F50
:00000001FF
