:020000040000FA
:040000008031222801
:100008007E1480310B1F09280A2820282E00991CED
:100018000E280F2815288F1C122813281528202889
:100028002028191C1828192820280F0820282028DB
:1000380020282028202820287E1009008031242804
:10004800F601F701F801F9017E1020008231292A12
:100058002E282E2823000F0C890C0139F2001108D4
:100068001F397204031D39283A282E2811143C28F8
:1000780011183F2840283C284328432843280F0CC0
:10008800890C0139F20011081F397204031D4D282B
:100098004E2843284F289A308131722180315528C3
:1000A800552823000F0C890C0139F20011081F395B
:1000B8007204031D602861285528622801308131A7
:1000C800722180316828682823000F0C890C0139B7
:1000D800F20011081F397204031D73287428682858
:1000E80091147628911879287A2876287D287D28F1
:1000F8007D280F0C890C0139F20011081F39720490
:10010800031D872888287D2889289B308131722102
:1001180080318F288F2823000F0C890C0139F200B9
:1001280011081F397204031D9A289B288F289C28C0
:1001380082310B228031F2007208F300A428A4282F
:1001480023000F0C890C0139F20011081F397204C1
:10015800031DAF28B028A42891161116B328111A28
:10016800B628B728B328BA28BA28BA280F0C890C99
:100178000139F20011081F397204031DC428C5286B
:10018800BA281115C7281119CA28CB28C728731FE0
:10019800CE28CF282C28D228D228D2280F0C890C78
:1001A8000139F20011081F397204031DDC28DD280B
:1001B800D2281114DF281118E228E328DF28E628BE
:1001C800E628E6280F0C890C0139F20011081F39BE
:1001D8007204031DF028F128E628F2289A308131AC
:1001E80072218031F828F82823000F0C890C013976
:1001F800F20011081F397204031D03290429F82885
:10020800052900308131722180310B290B29230007
:100218000F0C890C0139F20011081F397204031DF3
:10022800162917290B299114192991181C291D29F8
:1002380019292029202920290F0C890C0139F200BD
:1002480011081F397204031D2A292B2920292C295A
:100258009B308131722180313229322923000F0CE1
:10026800890C0139F20011081F397204031D3D2958
:100278003E2932293F2982310B228031F20072084F
:10028800F3004729472923000F0C890C0139F20094
:1002980011081F397204031D522953294729911641
:1002A80011165629111A59295A2956295D295D29E5
:1002B8005D290F0C890C0139F20011081F397204ED
:1002C800031D672968295D2911156A2911196D29E6
:1002D8006E296A296F29730871290800F1007108CD
:1002E80023008C00901F79297A297D29CF29CF29CD
:1002F800CF290F301005F000083070060319852942
:100308008629A1290F301005F0000B30700603195B
:100318008E298F29A129101691292E000F1C9529A5
:100328009629912923000F199A299B29CF290F086B
:10033800CF29CF29CF29CF29CF290F301005F00099
:10034800083070060319A929AA29B5290F30100504
:10035800F0000B307006031DB229B329CF29B52947
:10036800B5290F18B829B929B529BC29BC29BC2930
:100378000F0C890C0139F00011081F397004031D96
:10038800C629C729BC291108CF29CF29CF29CF29A8
:10039800CF29CF29CF29080020009A019901960179
:1003A8009701980107309500FF309100FF309200C7
:1003B800FF309300FF309400FF303E00D900E73053
:1003C800CE00FF30C3000730E400FF30B800DA0188
:1003D800E501C401B901CF01E601BA01C501D001A7
:1003E800DB01FF30BB00FF30C600FF30D100FF301B
:1003F800DC000730E70013303D00C50014303E0034
:10040800A3001530A40014303D00C60008000F30CA
:1004180023001005F000083070060319142A152A65
:100428001E2A0F301005F0000B307006031D1D2A20
:100438001E2A212A9115212A212A0F1C242A252A1D
:10044800212A262A0C08282A0800823152228231C1
:100458008231422282312000931513163E00CF15B7
:100468004F16362A000080312C208231F40074089F
:10047800F5000000362A362A803122282300901AF7
:10048800462A472A512A8F012830900091010330CB
:100498008D00512A512A512A512A08008231652299
:1004A80082318131D021823182315C22823108004F
:1004B800623031008D008F0191010230930092016A
:1004C80008002F0096019701980199019A019B0154
:0204D80008001A
:020000040001F9
:0A000E00EC3FFF3F9F3FFF3FFF3F25
:00000001FF
