:020000040000FA
:0400000080315228D1
:1000060008007E1480312E00161C0A280B2813289F
:100016000C1C0E280F2813289E31EE2680315028FE
:100026000B1F162817285028191E1A281B282628A1
:100036000F1E1E281F282628220060088A005F0837
:100046000A0080315028991E29282A2835288F1E13
:100056002D282E28352822005E088A005D080A0011
:10006600803150281A1C382839284128101C3C2871
:100076003D2841289F31D22780315028991C442899
:1000860045284A288F1C482849284A285028191CE0
:100096004D284E2850280F0850287E100900803120
:1000A60054288731FE278031FD00503084009F3070
:1000B6008500CE308600003087000A308831002067
:1000C6008031F901FA01FB01FC015A30840000304D
:1000D60085000B309E31F4268031A030840000303C
:1000E60085001C309E31F42680314030840001307A
:1000F600850019309E31F4268031A030840001300D
:10010600850040309E31F426803120308400023054
:10011600850040309E31F42680317E1020008031EB
:10012600942890316920803100302000A700A80073
:100136009031002080319E31E62680319E31DC26CA
:10014600803113302000A7000A30A8009F313E27D7
:10015600803111302000A7001F30A8009F312C27C6
:1001660080312200B601B701B70AB801003020007D
:10017600AD007030AE009F319C278031533A031D8D
:10018600C528C62801292200B7010130B900003070
:10019600BA0022003908003E2000AD00703022006F
:1001A6003A3D2000AE009F319C2780312000D900C7
:1001B60059082200B6070130B9070030BA3D3A089F
:1001C600803A2000D90080305902031DED280D30F9
:1001D60022003902031CF028F128CC280D3020001B
:1001E600AD007030AE009F319C278031220036066C
:1001F6000319FE28FF280129B801B80A220037088A
:10020600031D062907290C29380803190B290C296F
:10021600A52900302000AD007030AE005330D90063
:100226005908AF009131A421803101302000AD0082
:100236007030AE001930D9005908AF009131A421B1
:10024600803102302000AD007030AE000330D9009E
:100256005908AF009131A421803103302000AD0050
:100266007030AE000530D9005908AF009131A42195
:10027600803104302000AD007030AE000C30D90063
:100286005908AF009131A421803105302000AD001E
:100296007030AE00AF019131A421803106302000CC
:1002A600AD007030AE00AF019131A421803107302E
:1002B6002000AD007030AE001C30D9005908AF00E8
:1002C6009131A421803108302000AD007030AE009D
:1002D6000430D9005908AF009131A421803109308A
:1002E6002000AD007030AE006130D9005908AF0073
:1002F6009131A42180310A302000AD007030AE006B
:10030600AF019131A42180310B302000AD00703057
:10031600AE00AF019131A42180310C302000AD0038
:100326007030AE00AF019131A42180310D30200034
:10033600AD007030AE00AE30D9005908AF00913133
:10034600A421803101302000AD007030AE009F3115
:100356009C2780312000D9005908FD000230AD00ED
:100366007030AE009F319C2780312000D90059089B
:100376002100D70003302000AD007030AE009F3161
:100386009C2780312000D90059082100D60004306E
:100396002000AD007030AE009F319C2780312000D8
:1003A600D90059082100A00005302000AD007030AA
:1003B600AE009F319C2780312000D90059082100CA
:1003C600A10006302000AD007030AE009F319C27A2
:1003D60080312000D90059082100A20007302000F2
:1003E600AD007030AE009F319C2780312000D900CF
:1003F60059082100A70008302000AD007030AE007B
:100406009F319C2780312000D90059082100A40083
:1004160009302000AD007030AE009F319C2780313E
:100426002000D9005908FC000A30AD007030AE003B
:100436009F319C2780312000D9005908DA000B3003
:10044600AD007030AE009F319C2780312000D9006E
:100456005908DB000C30AD007030AE009F319C2790
:1004660080312000D9005908FA002100A801A9010D
:10047600A501A601A3019F315A27803120009315BB
:1004860013163E00CF154F169731122780318B1762
:100496000B17203086000130870014302000D90069
:1004A60000301E00D90B542A2200BE01BF01B22A19
:1004B6009E31EA2680312000D90059082200BB006F
:1004C600FD303B060319682A692A6F2AFD3020068B
:1004D600031D6E2A6F2AAB2AFD303B06031D742AC4
:1004E600752A842A00302000A700A8001430A9002D
:1004F6000030AA00203091311F2180312200BE0138
:10050600BF013B082000D90022003E08203E86009D
:100516000130870020005908810001302200BE0703
:100526000030BF3D14303E063F04031D9B2A9C2A23
:10053600AB2A00302000A700A8001430A900003024
:10054600AA00203091311F2180312200BE01BF0157
:10055600FE303B06031DB02AB12AB22ABA2A9E31C2
:10056600D3268031003A031DB92ABA2A5B2A220013
:100576003E08FF3E203E860001308700FE30010621
:10058600031DC62AC72A312BBC01BD013D08200028
:10059600A80022003C082000A7000330A900003074
:1005A600AA009031FF208031200028088500270806
:1005B6008400023084079830853D00082200210619
:1005C600031DE62AE72A152B3D082000A800220075
:1005D6003C082000A7000330A9000030AA00903193
:1005E600FF2080312000280885002708840000307D
:1005F60084079830853D003F2200B400013FB500D6
:100606003F082000B70022003E082000B600203038
:10061600D9005908B800220035088A0034080A00B3
:100626008331222B0130BC070030BD3D00303D0236
:100636000D3003193C02031C212B222BC92A003042
:100646002000A700A8001430A9000030AA0020301E
:1006560091311F2180312200BE01BF0120005D08BB
:100666005E04031D372B382B3C2B87314A278031FC
:10067600B22A5D035E04031D412B422B462B9631A5
:10068600A5268031B22A02305D065E04031D4C2B7E
:100696004D2B512B9331AD238031B22A03305D06A9
:1006A6005E04031D572B582B5C2B93317823803126
:1006B600B22A04305D065E04031D622B632B672B92
:1006C6009231E0228031B22A5E08803AD900803029
:1006D6005902031D702B05305D02031C732B742B0E
:1006E600B22A2000DD01DE01B22A80315228210023
:1006F600300803197F2B802B892BC8309F3109279F
:1007060083314D309F3147278331912BC8309F313C
:100716000927833120309F314727833120005F0826
:1007260060040319972B982BBC2B2730B500983003
:10073600B600210020082000CA00CB014A08B700F5
:100746004B08B800210021082000CC00CD014C0840
:10075600B9004D08BA00210022082000CE00CF01C2
:100766004E08BB004F08BC00BC308531AC25833138
:10077600D92B2730B5009830B6005A08CA00CB01ED
:100786004A08B7004B08B8005B08CC00CD014C08FE
:10079600B9004D08BA005C08CE00CF014E08BB0078
:1007A6004F08BC00BC308531AC25833180309F3189
:1007B60009278331BC302000B0000030B1009031F1
:1007C6004E20833121002303031DEA2BEB2BF42B50
:1007D6008B309F310927833143309F31472783313F
:1007E600032C20005D085E04031DFA2BFB2B032C53
:1007F6008B309F310927833120309F314727833142
:1008060021002803031D082C092C122C8C309F3143
:100816000927833154309F3147278331212C20000B
:100826005D085E04031D182C192C212C8C309F3179
:100836000927833120309F31472783312100250343
:10084600031D262C272C302C8D309F310927833110
:100856004C309F31472783313F2C20005D085E04D2
:10086600031D362C372C3F2C8D309F3109278331C1
:1008760020309F31472783318F309F3109278331BD
:100886007C089F314727833141307C06031D4C2C61
:100896004D2CBF2C21002308031D522C532C5D2CFC
:1008A6002808031D572C582C5D2C250803195C2C91
:1008B6005D2CB92C4E0A031D612C622C742C200071
:1008C6005A08CA004A082100CE0020005B08CA0068
:1008D6004A082100CF0020005C08CA004A0821000F
:1008E600D000220054082100CB0022005508210028
:1008F600CC00220056082100CD0020005A08A7008F
:100906005B08A8005C08A90021004E082000AA0088
:1009160021004F082000AB00210050082000AC0049
:10092600CB30CA004A08AD0093310E238331210033
:100936004D085602031CA02CA12CA42CB501B50A07
:10094600BF2C27008E1FA82CA92CBF2C2100B50177
:1009560000302000A700A8009031002083319E318E
:10096600E62683319E31DC268331BF2C27008E1F7D
:10097600BD2CBE2CBF2CA92CC0309F31092783313A
:10098600210037080319C82CC92CDC2C4030200064
:10099600B5009830B600210027082000CA00CB0118
:1009A6004A08B7004B08B800C4308531AC258331FE
:1009B600EC2C40302000B5009830B6006208CA0022
:1009C600CB014A08B7004B08B800C4308531AC25C6
:1009D6008331C4302000B0000030B10090314E2089
:1009E6008331CD309F310927833121003608031921
:1009F600FD2CFE2C112D47302000B5009830B60096
:100A0600210024082000CA00CB014A08B7004B0881
:100A1600B800C8308531AC258331212D4730200000
:100A2600B5009830B6006108CA00CB014A08B70085
:100A36004B08B800C8308531AC258331C83020005A
:100A4600B0000030B10090314E20833120005D08A7
:100A56005E0403192F2D302D3C2D8B309F31092735
:100A660083314C302000B0009830B10090314E20D8
:100A7600833120005D035E04031D422D432D722D3C
:100A86005F086004031D482D492D4E2D8B309F3184
:100A960009278331AB2D5F036004031D532D542DAD
:100AA600592D81309F3109278331AB2D02305F06E6
:100AB6006004031D5F2D602D652D84309F3109274D
:100AC6008331AB2D03305F066004031D6B2D6C2D47
:100AD600712D87309F3109278331AB2DAB2D023025
:100AE6005D065E04031D782D792D892D21003708BA
:100AF600031D7E2D7F2D842D8C309F310927833158
:100B0600AB2DC1309F3109278331AB2D03305D06F4
:100B16005E04031D8F2D902DA02D21003608031D88
:100B2600952D962D9B2D8D309F3109278331AB2D29
:100B3600CF309F3109278331AB2D04305D065E042B
:100B4600031DA62DA72DAB2D8F309F31092783318D
:100B560008002000C9003730BD003D08C100312F14
:100B6600253048060319B82DB92DC52D4808BD00F6
:100B76004908860087013D0881000130BD003D0817
:100B8600C907312FC601C701C501CE2D4515013054
:100B9600B5070030B63D35088400360885000008E4
:100BA600303A0319C92DD72D35088400360885003B
:100BB60000088731EB278531031CE22DE32D162E25
:100BC6002000C601C7010A302000A7000030A80097
:100BD6004708AA004608A9009031FF208531200069
:100BE6002808C7002708C60035088400360885008F
:100BF6000008D03EBD00FF3003180030BE003D089F
:100C0600C6073E08C73D0130B5070030B63D35087A
:100C160084003608850000088731EB2785310318E4
:100C2600152E162EE62D20003608BE003508BD000E
:100C3600B50A0319B60A3D0884003E088500000877
:100C4600C800003A0319452F643A03192E2E0D3AAF
:100C560003192E2E312F410886008701403FC3001D
:100C6600413FC4000230BD003D08C107C41F3C2EF1
:100C76003D2E462E0330BD003D08C504C309C409F8
:100C8600C30A0319C40AC801C80A4808BD00BE0140
:100C9600BD35BE0D36303D07840098303E3D85009B
:100CA600003FBF00013FC00040084402031D5D2E07
:100CB6003F0843020318602E612E622E6C2E01300F
:100CC600BD003D08C80705304806031D6B2E6C2E77
:100CD600482E460847040319712E722E7C2E4508AD
:100CE60003390319772E782E7C2EFF30C607FF3086
:100CF600C73D4708803A803C031D832E46084802BC
:100D06000318862E872E902E20004808BD00BE01AF
:100D16003D08C6023E08C73B932E2000C601C70108
:100D2600451D962E972EC42E4508033903199C2E71
:100D36009D2EA82E2D30BD004908860087013D084E
:100D460081000130BD003D08C90746084704031964
:100D5600AD2EAE2EF02E3030BD004908860087013C
:100D66003D0881000130BD003D08C907FF30C607B8
:100D7600FF30C73D46084704031DC22EC32EAE2EC4
:100D8600F02E460847040319C92ECA2EDF2E20303E
:100D9600BD004908860087013D0881000130BD007D
:100DA6003D08C907FF30C607FF30C73D4608470460
:100DB600031DDE2EDF2ECA2E450803390319E42E45
:100DC600E52EF02E2D30BD004908860087013D082E
:100DD60081000130BD003D08C9074808BD003D0837
:100DE600C200282F0A30AF000030B0004208BD0014
:100DF600BE01BD35BE0D36303D07840098303E3D00
:100E06008500003FA700013FA8004408AA00430848
:100E1600A90094311C24853120002808B200270837
:100E2600B10093314323853120002F08303EBF00A7
:100E36003F08C8004808BD004908860087013D08EC
:100E460081000130BD003D08C907FF30BD003D08E7
:100E5600C207420A031D302F312FF52E3608BE0079
:100E66003508BD00B50A0319B60A3D0884003E08D8
:100E760085000008BF003F08C8004808031D442F2E
:100E8600452FB32D490886008701810108002100FE
:100E9600310803194F2F502F552F88318320873162
:100EA6002100B10134080319592F5A2F642F9531A7
:100EB6008B2587312100B40183317A2387312100C4
:100EC600D50133080319682F692F6E2F8E317F26BF
:100ED60087312100B30155080319722F732F782F1C
:100EE60083317A2387312100D501300803197C2FFD
:100EF6007D2FAD2F2E08031D812F822FAD2FFD30A4
:100F06002000D0005008D100CD30D0005008D200CB
:100F16007D08D0005008D3007908D0005008D400CE
:100F26007B08D0005008D5007A08D0005008D600BB
:100F3600FE30D0005008D7000730AA000030AB00C2
:100F46005130D0005008AC00913181218731210009
:100F5600AE01AE0A3008031DB12FB22FB32FAE017A
:100F660035080319B72FB82FEA2F27008E1BBC2F81
:100F7600BD2FC32F9E31E22687319E31D62687317B
:100F860021002B08803A2000D00084305002031D37
:100F9600CF2F003021002A020318D22FD32FD92FAA
:100FA60001302100AA070030AB3DDC2F2100AA0149
:100FB600AB012B082000A80021002A082000A7006A
:100FC6009031002087315330890BE72F000008004D
:100FD6002000A800A7013A3028020318F32FF42FA7
:100FE600FC2F30302802031CF92FFA2FFC2FA70103
:100FF600A70A270C080019340800FE0012001E007C
:10100600FE0B0128003420003808023E860001301D
:1010160087000108B900BA013908BB003A08BC00CC
:101026003808033E8600013087000108B900BA017E
:101036003908BD003A08BE003808043E8600013073
:1010460087000108B900BA013908BF003A08C00094
:10105600BC1B2E282F287E283C08803AB9008030F9
:101066003902031D382818303B0203183B283C2858
:101076007E282000BE1B402841287E283E08803A54
:10108600B90080303902031D4A283C303D0203185E
:101096004D284E287E282000C01B522853287E2823
:1010A6004008803AB90080303902031D5C283C3084
:1010B6003F0203185F2860287E2806302000360687
:1010C6003704031D672868287E283B08B9003908BD
:1010D6002100A00020003D08B90039082100A10028
:1010E60020003F08B90039082100A200C73090311E
:1010F600332088318228C730903185208831080016
:1011060001302000AD007030AE007D08B10031081E
:10111600AF009131A421883102302000AD0070303B
:10112600AE00210057082000B1003108AF00913110
:10113600A421883103302000AD007030AE002100BC
:1011460056082000B1003108AF009131A421883142
:1011560004302000AD007030AE00210020082000D1
:10116600B1003108AF009131A4218831053020004B
:10117600AD007030AE00210021082000B10031081A
:10118600AF009131A421883106302000AD007030C7
:10119600AE00210022082000B1003108AF009131D5
:1011A600A421883107302000AD007030AE00210048
:1011B60027082000B1003108AF009131A421883101
:1011C60008302000AD007030AE0021002408200059
:1011D600B1003108AF009131A421883109302000D7
:1011E600AD007030AE007C08B1003108AF0091311F
:1011F600A42188310A302000AD007030AE005A08B4
:10120600B1003108AF009131A42188310B302000A4
:10121600AD007030AE005B08B1003108AF0091310F
:10122600A42188310C302000AD007030AE007A0861
:10123600B1003108AF009131A42188310D30200072
:10124600AD007030AE0021002108220720005B07A8
:10125600210020072707240720005A077D072100C1
:10126600570756077C077A072000B1003108AF0000
:101276009131A421883108002000AC002C08F039F7
:10128600AA002A08AD002C08AA000330AA35FF3EA2
:10129600031D49292A35F039AB002B08AE0023007F
:1012A6000F0C890C01392000AA00230011081F39F0
:1012B60020002A04031D60296129522923001114E4
:1012C600111866296729632923000F0C890C013937
:1012D6002000AA00230011081F3920002A04031D3C
:1012E6007529762967294E309531312589312300B4
:1012F6000F0C890C01392000AA00230011081F39A0
:1013060020002A04031D882989297A292D08290401
:10131600083895313125893123000F0C890C0139A4
:101326002000AA00230011081F3920002A04031DEB
:101336009D299E298F292D0829040C3895313125A0
:10134600893123000F0C890C01392000AA002300E3
:1013560011081F3920002A04031DB229B329A42924
:1013660020002D08290408389531312589312300BC
:101376000F0C890C01392000AA00230011081F391F
:1013860020002A04031DC829C929BA292E082904C0
:10139600083895313125893123000F0C890C013924
:1013A6002000AA00230011081F3920002A04031D6B
:1013B600DD29DE29CF292E0829040C38953131255F
:1013C600893123000F0C890C01392000AA00230063
:1013D60011081F3920002A04031DF229F329E429E4
:1013E60020002E082904083895313125893123003B
:1013F6000F0C890C01392000AA00230011081F399F
:1014060020002A04031D082A092AFA292300111597
:1014160011190E2A0F2A0B2A0430890B102A0800EC
:1014260001302000A0002008DC073C305C06031DCC
:101436001D2A1E2A262A0130A0002008DB07DC010F
:101446002100B101B10A3C3020005B06031D2C2AA5
:101456002D2A322A0130A0002008DA07DB011830D5
:101466005A06031D372A382A392ADA0141307C0602
:10147600031D3E2A3F2A6A2A2100220820005C0218
:10148600031C462A472A6A2A2100210820005B02FB
:10149600031C4E2A4F2A6A2A2100200820005A02DD
:1014A600031C562A572A6A2A5F086004031D5C2A11
:1014B6005D2A6A2AFF30A00020082100CE00A30181
:1014C600A30A19302000A00020082100A0007B08F4
:1014D6007A02031C6F2A702AAF2A0230F00000300D
:1014E600F1007D082000A000A1012008F2002108DB
:1014F600F3009531E7258A317A082000A200A3017E
:101506002308A5007B082202A400031CA5032508C6
:10151600803AA6007108803A2602031D942A7008B4
:1015260024020318972A982ADF2A7A082000A000A6
:10153600A1012108A3007B082002A200031CA3032B
:1015460022082304031DA82AA92AAF2A79087D06A2
:101556000319AE2AAF2ADF2A7B087A020318B42AB7
:10156600B52AE32A0230F0000030F1007D082000A1
:10157600A000A1012008F2002108F3009531E7251B
:101586008A317A087D072000A200A301A30D230853
:10159600A5007B082202A400031CA5032508803AA7
:1015A600A6007108803A2602031DDB2A7008240271
:1015B600031CDE2ADF2AE32A2100B001B00AE52A4D
:1015C6002100B00103102000961F03140318EC2A13
:1015D600EF2A20009617F12A200096132100D50144
:1015E600D50A01302000A00020082100B2075708C4
:1015F6003202031CFF2A002B032BB201B301B30AEC
:1016060008000430200036063704031D0B2B0C2B74
:10161600002C3808023E8600013087000108B90018
:10162600BA013908CE003A08CF007B087A02CC000E
:10163600CD01031CCD03CD1F212B222B302B7B0884
:10164600B900BA017A087D07BB00BC01BC0D390898
:101656003B02CC003A083C3BCD004C084D04031D30
:10166600352B362B432B79087D06031D3B2B3C2B54
:10167600432B7908B900BA013908CC003A08CD00E5
:101686004F08803A803C031D4A2B4E087902031C02
:101696004D2B4E2B5D2B20004D08803AB9004F088C
:1016A600803A3902031D592B4E084C0203185C2B55
:1016B6005D2B622BCB30903185208B31042CFD3095
:1016C6002000B9003908C400CB30B9003908C5007C
:1016D6004E08B9003908C6000330AA000030AB0036
:1016E6004430B9003908AC00913181218B3120009A
:1016F600C701C801E12B2000D0015008B900BA018A
:101706007B08BB00BC013B08A7003C08A8000530CD
:10171600A9000030AA009031FF208B312000390843
:101726002707BD003A08283DBE003D08123EC90005
:1017360070303E3DCA004A08AE004908AD009F31F0
:101746009C278B312000B90050083F3E8600870158
:10175600390881000130B9003908D0070530500238
:10176600031CB62BB72B802B0530AA000030AB002C
:101776003F30B9003908AC00913181218B310130FD
:101786002000B9003908FB077D08FF3EB900FF308D
:1017960003180030BA003A08803ABB0080303B029A
:1017A600031DD72B7B0839020318DA2BDB2BDC2B26
:1017B600FB0101302000C7070030C83D4808803AC9
:1017C600B9004F08803A3902031DEB2B4E08470239
:1017D600031CEE2BEF2B7E2BFE302000B9003908C0
:1017E600CB000130AA000030AB004B30B9003908FD
:1017F600AC00913181218B31042CCB309031852086
:101806008B3108000530200036063704031D0C2CEA
:101816000D2C2A2D38088600013087000130423F02
:10182600CD0038088600013087000130433FCC00E8
:101836007A084C07CF00D001D00D5008803AB90085
:1018460080303902031D292C7D084F02031C2C2CE5
:101856002D2C3C2C7D082000B900BA014C087A07D3
:10186600BB00BC01BC0D39083B02CF003A083C3B2B
:10187600D00079087D060319412C422C4A2C200001
:101886004C08B900BA013908CF003A08D0007A08E6
:101896002000B9004F083902C80050090318890A08
:1018A600C900C91F572C582C632C7A087D07B9002C
:1018B600BA01BA0D4F083902C80050083A3BC900B0
:1018C60048084904031D682C692C762C79087D0686
:1018D600031D6E2C6F2C762C7908B900BA013908D5
:1018E600C8003A08C9004D087902031C7B2C7C2CE1
:1018F600892C4908803AB90080303902031D852CAD
:101906004D0848020318882C892C8E2CCC30903137
:1019160085208C312E2DFD302000B9003908C300FA
:10192600CC30B9003908C4004D08B9003908C500E3
:101936004C08B9003908C6000430AA000030AB00D4
:101946004330B9003908AC00913181218C31200037
:101956005008CB004F08CA00142DCE014E08B9001E
:10196600BA014B08A8004A08A7000530A9000030B4
:10197600AA009031FF208C31200039082707BB00D0
:101986003A08283DBC003B08123EAD0070303C3D95
:10199600AE009F319C278C312000BD004E083E3E94
:1019A600860087013D0881000130B9003908CE075D
:1019B60005304E02031CE02CE12CB12C0530AA00A8
:1019C6000030AB003E30B9003908AC0091318121BE
:1019D6008C317B082000B900BA014B083A06031D7A
:1019E600F62C4A083906031DF92CFA2CFE2C013078
:1019F600B9003908FB070130CA070030CB3D01307A
:101A0600CD024B08803AB90080303902031D0D2DF6
:101A16007D084A02031C102D112D142D2000CA0129
:101A2600CB0120004D08031D192D1A2DB02CFE30B8
:101A3600B9003908C7000130AA000030AB004730B2
:101A4600B9003908AC00913181218C312E2DCC3072
:101A5600903185208C31080023000F0C890C013948
:101A66002000A900230011081F3920002904031DA6
:101A76003D2D3E2D2F2D230011141118432D442DDD
:101A8600402D23000F0C890C01392000A9002300EA
:101A960011081F3920002904031D522D532D442DF2
:101AA6009A30953131258D3123000F0C890C01397F
:101AB6002000A900230011081F3920002904031D56
:101AC600652D662D572D0130953131258D31230039
:101AD6000F0C890C01392000A900230011081F39B9
:101AE60020002904031D782D792D6A2D23009114D9
:101AF60091187E2D7F2D7B2D23000F0C890C01392B
:101B06002000A900230011081F3920002904031D05
:101B16008D2D8E2D7F2D9B30953131258D312300D6
:101B26000F0C890C01392000A900230011081F3968
:101B360020002904031DA02DA12D922D9031E02017
:101B46008D312000A9002908AA0023000F0C890C5A
:101B560001392000A900230011081F39200029049B
:101B6600031DB62DB72DA82D230091161116111A97
:101B7600BD2DBE2DBA2D23000F0C890C0139200076
:101B8600A900230011081F3920002904031DCC2DAC
:101B9600CD2DBE2D230011151119D22DD32DCF2DEC
:101BA60020002A1FD72DD82D2F2D23000F0C890C8E
:101BB60001392000A900230011081F39200029043B
:101BC600031DE62DE72DD82D230011141118EC2D39
:101BD600ED2DE92D23000F0C890C01392000A900F9
:101BE600230011081F3920002904031DFB2DFC2D9D
:101BF600ED2D9A30953131258D3123000F0C890C4E
:101C060001392000A900230011081F3920002904EA
:101C1600031D0E2E0F2E002E0030953131258D31ED
:101C260023000F0C890C01392000A900230011089C
:101C36001F3920002904031D212E222E132E2300D6
:101C460091149118272E282E242E23000F0C890C70
:101C560001392000A900230011081F39200029049A
:101C6600031D362E372E282E9B30953131258D318A
:101C760023000F0C890C01392000A900230011084C
:101C86001F3920002904031D492E4A2E3B2E903170
:101C9600E0208D312000A9002908AA0023000F0C9E
:101CA600890C01392000A900230011081F392000E2
:101CB6002904031D5F2E602E512E23009116111646
:101CC600111A662E672E632E23000F0C890C01391C
:101CD6002000A900230011081F3920002904031D34
:101CE600752E762E672E2300111511197B2E7C2E4C
:101CF600782E20002A0808008D312F258E312000ED
:101D0600B1003108E20000309F31BC278E3120003F
:101D16002708B1002808B2000D30B236B10C890B85
:101D2600902E3108B3003308E1006208B100B20119
:101D36002100540820003206031DA52E2100530859
:101D460020003106031DA82EA92EBA2E6108B10067
:101D5600B2012100520820003206031DB62E2100D2
:101D66005108200031060319B92EBA2EB42F7A086D
:101D7600B100B2013108A7003208A8000530A90059
:101D86000030AA009031FF208E3120002708123E35
:101D9600AD007030283DAE005A08B3003308AF00DE
:101DA6009131A4218E317A082000B100B2013108A8
:101DB600A7003208A8000530A9000030AA0090311B
:101DC600FF208E3120002708133EAD007030283DDD
:101DD600AE005B08B3003308AF009131A4218E3109
:101DE6007A082000B100B2013108A7003208A80025
:101DF6000530A9000030AA009031FF208E31200066
:101E06002708143EAD007030283DAE005C08B300D4
:101E16003308AF009131A4218E317A082000B10039
:101E2600B2013108A7003208A8000530A900003029
:101E3600AA009031FF208E3120002708153EAD0004
:101E46007030283DAE006208B3003308AF00913110
:101E5600A4218E317A082000B100B2013108A70012
:101E66003208A8000530A9000030AA009031FF20F2
:101E76008E3120002708163EAD007030283DAE009A
:101E86006108B3003308AF009131A4218E3179087F
:101E96007D06031D4F2F502F5B2F7B087A06031DEF
:101EA600552F562F5B2F01302000B1003108FB075C
:101EB60001302000B1003108FA077D08FF3EB1006D
:101EC600FF3003180030B2003208803AB300803089
:101ED6003302031D702F7A0831020318732F742FF3
:101EE600782F2100AF01AF0AFA0121002F0803194C
:101EF6007D2F7E2F842F7D082000B1003108F90048
:101F0600892F01302000B1003108F9077D08FF3E16
:101F1600B100FF3003180030B2003208803AB30037
:101F260080303302031D992F7B08310203189C2F42
:101F36009D2F9E2FFB0120006208B100B2013108DF
:101F46002100D300200032082100D40020006108BF
:101F5600B100B20131082100D10020003208210071
:101F6600D20041307C06031DB92FBA2FFF2F210066
:101F76002408200061020318C12FC22FDA2F210086
:101F86003608031DC72FC82FDA2F2608031DCC2FAE
:101F9600CD2FD32FFF302000B10031082100CE0015
:101FA600A601A60AA501A50A20001616DE2F210005
:101FB600A601200016126208210027020318E42F4A
:101FC600E52FFC2F3708031DE92FEA2FFC2F2908E0
:101FD600031DEE2FEF2FF52FFF302000B100310843
:101FE6002100CE00A901A90AA801A80A2000961678
:101FF600FF2FA90120009612080020002808AA0039
:102006002708A900AA36A90CAA36A90C2908270070
:102016008D00200027080339A9000530A935FF3EA9
:10202600031D1128293527008C00080004302000E4
:1020360036063704031D202821282E283808860056
:10204600013087000130423F2100D700C430903173
:10205600332090313228C4309031852090310800E9
:102066002000B100FD30B0003008B2003108B000E9
:102076003008B300B401FE30B0003008B5000430BB
:10208600AA000030AB003230B0003008AC0091310D
:10209600812190310800532835089F314727903118
:1020A60020003108B3003008B200B00A0319B10AA3
:1020B60032088400330885000008B4003408B500EF
:1020C6003508031D672868284F2808009F31012717
:1020D600903194319B2490319F31352790319F3137
:1020E600732790319F31E92790319F318E279031A8
:1020F6009031C12090319F318027903192318622D4
:10210600903108002000B100FD30B0003008B20068
:102116003108B0003008B300FF30B0003008B4001A
:10212600FE30B0003008B5000430AA000030AB0025
:102136003230B0003008AC00913181219031080076
:1021460020003808023E8600013087003C3001023C
:102156000318AE28AF28BC2838088600013087004F
:102166000130423F2100D600C530903133209031F6
:10217600C028C530903185209031080024008F0199
:1021860090010430910086308D00E8308C000D08F7
:102196002100D90024000C082100D8002E001010C0
:1021A6001A14FF302000A7000730A8009F313E27F1
:1021B6009031053024008E0008000F3023001005F2
:1021C6002000A700083027060319EA28EB28F6287E
:1021D6000F30230010052000A7000B302706031D33
:1021E600F528F628F8282300911523000F1CFC2853
:1021F600FD28F8280C0808002000AB01AC01271CBC
:10220600052906290A292908AB072A08AC3D013009
:10221600A935AA0D890B0B290130A836A70C890B05
:10222600102927082804031D19291A2902292C0810
:10223600A8002B08A70008002000AD002D08AB0061
:102246002B08AC0032292708AB002C088600013089
:1022560087002B0881000130AB002B08AC0701304A
:10226600A9020030AA3B290A031D3D292A0A031D9B
:102276003D293E292629080022009D1C4329442980
:1022860046291D121D161908F00021003B08203EA4
:10229600860002308700700881000130F000700867
:1022A600BB0740303B02031C59295A295B29BB0155
:1022B6000130F0007008B9070800FD302000B900B1
:1022C6003908BA00C230B9003908BB006208B90043
:1022D6003908BC006108B9003908BD00FE30B900F4
:1022E6003908BE000530AA000030AB003A30B9000C
:1022F6003908AC0091318121913108002000AE01EE
:10230600AF01952920002E082C07AD002D08860068
:10231600870101089E31FA26913101302000AE076F
:102326000030AF3D2F08803AAD002B08803A2D02D1
:10233600031D9F292A082E02031CA229A3298529E9
:10234600080000308B1B01302000B0002E08300042
:102356009B0020002D0830009A0020002F08300036
:102366009C001E171E158B1355309F00AA309F0028
:102376009E149E18BF29C029BC291E112000300CAE
:10238600031C8B1303188B170800403021005A02D8
:102396000318CE29CF29EA2920006308A03E86002B
:1023A60001308700010822009A000130F000700811
:1023B6002000E30740306302031CE229E329E429F5
:1023C600E3010130F00070082100DA07EC292E0045
:1023D60019120800FD302000B9003908BA00C030D3
:1023E600B9003908BB005A08B9003908BC005B08B7
:1023F600B9003908BD005C08B9003908BE00FE30D6
:10240600B9003908BF000630AA000030AB003A30E8
:10241600B9003908AC009131812191310800FD30B5
:102426002000B9003908BA00C330B9003908BB002A
:10243600210057082000B9003908BC0021005608C1
:102446002000B9003908BD00FE30B9003908BE00C9
:102456000530AA000030AB003A30B9003908AC00AC
:1024660091318121923108002100390803193C2A53
:102476003D2A372A3A08203E8600023087000108A6
:102486002000A7002708A8000130A7002708210080
:10249600BA0740303A02031C512A522A532ABA017B
:1024A6002E00991201302100B9022E009916200043
:1024B60028080800FD302000B9003908BA00CA30E3
:1024C600B9003908BB007D08B9003908BC00790895
:1024D600B9003908BD007B08B9003908BE007A0882
:1024E600B9003908BF00FE30B9003908C00007300E
:1024F600AA000030AB003A30B9003908AC0091317F
:102506008121923108002E0099123F302000A70049
:102516001130A8009F311A2792312E001912C830A7
:102526002000A7001130A8009F31232792310830E0
:1025360022009F0090309D0024309E0019309B00A1
:102546009C012000E401E3014030A9002908210094
:10255600DA00BB01BA01B9012E0099160800200065
:10256600A80021005A080319B92ABA2AB42A2E004B
:10257600191ABE2ABF2AC42A2000280822009A0057
:10258600DD2A191220002808A7006408A03E86004C
:1025960001308700270881000130A7002708E407DB
:1025A60040306402031CD82AD92ADA2AE401013011
:1025B6002100DA022E001916080020008E1AE42ADD
:1025C600E52A002B41307C06031DEA2AEB2AF02A75
:1025D6006130D8005808FC00F42A4130D800580869
:1025E600FC0021302000D8007630890BF82AD80B61
:1025F600F82A000083317A23923187314A279231B3
:10260600043020005D065E0403190A2B0B2BE02A1A
:10261600DD01DE010800152B0130A8023C30AE00BA
:102626002E08A90720002C082902031C1B2B1C2B93
:102636000F2B2C082902AE002D08023E86008701CA
:102646002E0881002C2B0130A7023C30AE002E084C
:10265600A8072B082802031C312B322B262B2B080C
:102666002802AE002D0A860087012E0881002A085E
:102676002702AE002D08860087012E08810008007B
:1026860020002F0830040319492B4A2B732BB40161
:10269600B40A562B0130AF35B00D890B4E2B0130E5
:1026A600B3003308B407B01F592B5A2B4D2B3008F3
:1026B6003202031D602B2F083102031C632B642B8F
:1026C600682B2F08B1023008B23B0130B036AF0C90
:1026D600890B692B0130B402031D722B732B5A2B05
:1026E6003208B0003108AF00080020008E1A7C2B9B
:1026F6007D2B9F2B21003608031D822B832B862BD7
:10270600B601B60A932B01302000D80058082100E4
:10271600A40708302402031C912B922B932BA401AF
:1027260021302000D8007630890B972BD80B972BB9
:10273600000083317A23933187314A27933103305E
:1027460020005D065E040319A92BAA2B782B210015
:10275600B601080020008E1AB12BB22BD42B210013
:102766003708031DB72BB82BBB2BB701B70AC82BED
:1027760001302000D80058082100A707333027026F
:10278600031CC62BC72BC82BA70121302000D8005D
:102796007630890BCC2BD80BCC2B000083317A23D7
:1027A600933187314A279331023020005D065E045B
:1027B6000319DE2BDF2BAD2B2100B701080020000B
:1027C6003808023E8600013087000108031DEC2B05
:1027D600ED2BFD2B043036063704031DF32BF42BAB
:1027E600FD2B6130B9003908FC00C9309031332027
:1027F60093311B2C3808023E860001308700010306
:10280600031D062C072C172C043036063704031D2F
:102816000D2C0E2C172C4130B9003908FC00C9309C
:102826009031332093311B2CC93090318520933160
:1028360008002000AD01AE01270828040319242C46
:10284600252C542CAC01AC0A312C0130A735A80D2F
:10285600890B292C0130AB002B08AC07A81F342CA0
:10286600352C282C0130AD35AE0D890B362C2808B9
:102876002A02031D402C27082902031C432C442C42
:10288600492C2708A9022808AA3B2D140130A8368E
:10289600A70C890B4A2C0130AC02031D532C542C77
:1028A600352C2E08A8002D08A7000800FD302000B2
:1028B600B9003908BA00C630B9003908BB00210092
:1028C60020082000B9003908BC002100210820009A
:1028D600B9003908BD00210022082000B9003908D6
:1028E600BE00210027082000B9003908BF002100DA
:1028F60024082000B9003908C00041307C060319BD
:10290600852C872C0130882C0030B9003908C1008D
:10291600FE30B9003908C2000930AA000030AB0009
:102926003A30B9003908AC00913181219431080060
:1029360020009A01990196019701980107309500A8
:102946000F309100FF309200BF309300FF309400AB
:10295600FF303E00D9004730CE00EF30C3000730CD
:10296600E4004F30B800DA01E501C401B901CF0136
:10297600E601BA01C501D001DB01FF30BB00FF3023
:10298600C600FF30D100FF30DC000730E7000C3016
:102996003D0090001730CB001330C50014303E00C8
:1029A600A3001530A4000E3096001030A600143097
:1029B6003D00C60008002000AA0023000F0C890C69
:1029C60001392000A900230011081F39200029041D
:1029D600031DEE2CEF2CE02C230011141118F42CFF
:1029E600F52CF12C23000F0C890C01392000A900CD
:1029F600230011081F3920002904031D032D042D6F
:102A0600F52C4E3095313125943123000F0C890C6D
:102A160001392000A900230011081F3920002904CC
:102A2600031D162D172D082D2A08953131259431B1
:102A360023000F0C890C01392000A900230011087E
:102A46001F3920002904031D292D2A2D1B2D2300A3
:102A5600111511192F2D302D2C2D08002000A8003E
:102A6600280823008C00901F392D3A2D3B2D8A2DE6
:102A76000F3010052000A700083027060319442D43
:102A8600452D5E2D0F30230010052000A7000B30CA
:102A9600270603194F2D502D5E2D230010162E00EC
:102AA6000F1C562D572D522D23000F195B2D5C2D13
:102AB6008A2D0F088A2D0F30230010052000A7004D
:102AC600083027060319682D692D742D0F30230051
:102AD60010052000A7000B302706031D732D742D4B
:102AE6008A2D23000F18782D792D742D23000F0CB5
:102AF600890C01392000A700230011081F39200086
:102B06002704031D872D882D792D23001108080021
:102B160020005D085E04031D912D922DA82D210035
:102B26002308031D972D982DA22D2808031D9C2DE3
:102B36009D2DA22D25080319A12DA22DA82DA30197
:102B4600A801A501D501D50ADD2D20005D035E048F
:102B5600031DAE2DAF2DD22D6008803AA700803020
:102B66002702031DB82D01305F02031CBB2DBC2DAF
:102B7600C12D01302000DF070030E03D2000600855
:102B8600803AA70080302702031DCB2D04305F0258
:102B9600031CCE2DCF2DD22D2000DF01E001200019
:102BA6005F086004031DD82DD92DDD2D0130DD070A
:102BB6000030DE3D11302000A7003A30890BE12DB0
:102BC600A70BE12D00000800F601F11FEB2DEC2DFF
:102BD600F32DF009F109F00A0319F10AF601F60AD4
:102BE600F31FF62DF72D002EF209F309F20A031949
:102BF600F30A0130F4007408F606F701F8017008CC
:102C060071040319072E082E372EF501F50A142E26
:102C16000130F035F10D890B0C2E0130F4007408EB
:102C2600F507F11F172E182E0B2E0130F735F80D6C
:102C3600890B192E71087302031D232E7008720268
:102C4600031C262E272E2C2E7008F2027108F33B49
:102C560077140130F136F00C890B2D2E0130F50278
:102C6600031D362E372E182E760803193B2E3C2EC2
:102C7600412EF709F809F70A0319F80A7808F1004E
:102C86007708F000080020003808023E8600013070
:102C960087000108B900BA013908BB003A08BC0030
:102CA6003808033E8600013087000108B900BA01E2
:102CB6003908BD003A08BE00BC1B622E632EA02E4A
:102CC6003C08803AB90080303902031D6C2E323040
:102CD6003B0203186F2E702EA02E2000BE1B742EF2
:102CE600752EA02E3E08803AB90080303902031DA9
:102CF6007E2E08303D020318812E822EA02E05302E
:102D0600200036063704031D892E8A2EA02E380889
:102D16008600013087000130423F2100A7002000D5
:102D260038088600013087000130433F2100A400A7
:102D3600C830903133209631A42EC830903185208A
:102D46009631080020008E1AA92EAA2E052F5F089C
:102D56006004031DAF2EB02EB52E0130DF0000300B
:102D6600E000F92E5F036004031DBA2EBB2ECB2EA6
:102D7600173021002002031CC12EC22EC42EA00132
:102D8600F92E01302000D80058082100A007F92E9E
:102D960002305F066004031DD12ED22EE22E3B3098
:102DA60021002106031DD82ED92EDB2EA101F92ED6
:102DB60001302000D80058082100A107F92E033061
:102DC6005F066004031DE82EE92EF92E3B30210034
:102DD6002206031DEF2EF02EF22EA201F92E01304F
:102DE6002000D80058082100A207F92E2130200023
:102DF600D8007630890BFD2ED80BFD2E00008331CE
:102E06007A23963187314A27963120005D035E0486
:102E160003190E2F0F2FA52EDF01E0010800113038
:102E26002000AF003A30890B162FAF0B162F00008B
:102E360030309431DE24973134309431DE249731AA
:102E46002930890B242F003230309431DE2497311B
:102E5600FA300032890B2C2F30309431DE24973132
:102E660034309431DE2497312930890B382F0032E3
:102E760030309431DE2497310830890B402F000022
:102E860030309431DE24973134309431DE2497315A
:102E96002930890B4C2F003230309431DE249731A3
:102EA6000830890B542F000020309431DE249731EE
:102EB60024309431DE2497312930890B602F00327B
:102EC60020309431DE249731FA300032890B682F96
:102ED6002000A901283089313F2197312000A9011E
:102EE600063089313F2197312000A9010F30893101
:102EF6003F2197312000A901013089313F219731C7
:102F0600A630890B842F0032080020003808023EC4
:102F16008600013087000108B900BA013908BB00F4
:102F26003A08BC003808033E8600013087000108D5
:102F3600B900BA013908BD003A08BE003808043E97
:102F46008600013087000108B900BA013908BF00C0
:102F56003A08C000BC1BB02FB12FFB2F3C08803AAB
:102F6600B90080303902031DBA2F18303B0203180E
:102F7600BD2FBE2FFB2F2000BE1BC22FC32FFB2F42
:102F86003E08803AB90080303902031DCC2F3C3010
:102F96003D020318CF2FD02FFB2F2000C01BD42FAC
:102FA600D52FFB2F4008803AB90080303902031D27
:102FB600DE2F3C303F020318E12FE22FFB2F0630B5
:102FC600200036063704031DE92FEA2FFB2F3B08A6
:102FD600B9003908DA003D08B9003908DB003F08B6
:102FE600B9003908DC00C130903133209731FF2F0A
:102FF600C1309031852097310800ED341134C0344A
:1030060088341734C13460341134C2341234123463
:10301600C33419341034C434A3341034C534593489
:103026001434C63406340834C73446341634C83427
:10303600E2341334C9345D341234CA3404340B34E4
:10304600CB3405340C34CC34253430343234643447
:103056003A3425343034323464343A342534303416
:10306600323464340034013400340A3400346434B5
:103076000034E83403341034273425343034323401
:1030860064342034433400344C34203425346434DE
:0A3096000034433454344C34003449
:103DA60021003908080027008E17080025008E1705
:103DB600080027008E13080025008E1308009E3188
:103DC600D9269E3108009E31DF269E3108009231A9
:103DD60037229E3108002E000C109F3166279E3137
:103DE6000800640080010131890BF52E00342000A3
:103DF600A90029089231B2229E3108002F009601AF
:103E06009701980199019A019B0108002000AF00D3
:103E1600A9012F0889313F219F3108002E00161075
:103E26002100B401B40A2E000C101614080020005C
:103E360028082200DE00200027082200DD000800F6
:103E4600200028082200E000200027082200DF00CA
:103E56000800200028082200DA0020002708220097
:103E6600D9000800623031008D008F0191010230C7
:103E7600930092010800200028082200DC002000A0
:103E860027082200DB0008002000AF00A901A90ACC
:103E96002F0889313F219F310800FF34FF34FF345A
:103EA600FF34FF34FF34FF34013405340334230078
:103EB600901A5E2F5F2F652F8F0128309000910199
:103EC60003308D000800220059085A0403196C2F8C
:103ED6006D2F722F5A088A0059080A009F31080070
:103EE600803027008E00FF308D00C0308C0024000B
:103EF6001F08F33904389F0008002E000C100B141D
:103F060003302000A7000030A8009F312C279F31E6
:103F16002E00161408000130250090008F01910133
:103F2600FF308D008C012E009010803025008E0011
:103F3600080020002E0830009B0020002D083000CD
:103F46009A001E171E140000000030001C0808000E
:103F560024000E1DAF2FB02FB72F0E1071088D0045
:103F660070088C000E14BB2F71088D0070088C0031
:103F760008002000AA002A0821009E0093171313A8
:103F86001314000021001318C92FCA2FC52F0D08BE
:103F96002000A80021000C082000A70008002E0021
:103FA600101021005908F1005808F0009F31AB2786
:103FB6009F3122005B085C040319E22FE32FE82FF0
:103FC6005C088A005B080A009F31080022008E0107
:103FD6008F0190019101920193018D0121009E01B3
:103FE6009B0194019501960197019A019901980107
:0A3FF60080309300FF309D000800AA
:020000040001F9
:0A000E00EC3FFF3F9F3FFF3FFF3F25
:00000001FF
