:020000040000FA
:1000000080316A28080008007E1480312E00161CFA
:100010000A280B2813280C1C0E280F2813289531AA
:100020001225803168280B1F162817286828191EEA
:100030001A281B2826280F1E1E281F2826282200C3
:1000400033088A0032080A0080316828991E29285E
:100050002A2835288F1E2D282E28352822003108E1
:100060008A0030080A00803168281A1E382839288A
:100070004128101E3C283D284128963157268031C2
:1000800068281A1D442845284D28101D482849284D
:100090004D2896314026803168281A1C5028512856
:1000A0005928101C54285528592896312926803162
:1000B0006828991C5C285D2862288F1C60286128AC
:1000C00062286828191C6528662868280F0868288F
:1000D0007E10090080316C284A30840095308500FC
:1000E0006730860000308700073095313625803133
:1000F0004D308400003085001A3095313025803134
:10010000D3308400003085001030953130258031A7
:100110002030840001308500103095313025803149
:100120007E1020008031942897319727803100304D
:100130002100A000A10096316E26803195310A255C
:1001400080319431FC248031F2302100A0000D3048
:10015000A10095311E25803109302100A000033017
:10016000A100953124258031D1302100A000063036
:10017000A10095312A25803135302100A0000B30B7
:10018000A1009531182580312100CB01CC01CC0A8A
:10019000CD010030A0007030A1009531BE25803126
:1001A000533A031DD428D52814292100CC0101304D
:1001B000CE000030CF0021004F08B3004E08B2003F
:1001C000B235B30DB235B30DB235B30D3208003EC2
:1001D000A0007030333DA1009531BE258031210053
:1001E000B4003408CB070130CE070030CF3D4F08B4
:1001F000803AB20080303202031D00290D304E02D9
:10020000031C03290429DB2868302100A00070307A
:10021000A1009531BE25803121004B06031911291B
:1002200012291429CD01CD0A21004C08031D1929DA
:100230001A291F294D0803191E291F29B729003023
:10024000A0007030A1005330B2003208A2009731F4
:10025000DC27803108302100A0007030A100193067
:10026000B2003208A2009731DC2780311030210023
:10027000A0007030A1000330B2003208A200973114
:10028000DC27803118302100A0007030A10005303B
:10029000B2003208A2009731DC27803120302100E3
:1002A000A0007030A1000C30B2003208A2009731DB
:1002B000DC27803128302100A0007030A100A2018D
:1002C0009731DC27803130302100A0007030A10050
:1002D000A2019731DC27803138302100A000703036
:1002E000A1001C30B2003208A2009731DC27803117
:1002F00040302100A0007030A1000430B20032086C
:10030000A2009731DC27803148302100A0007030F6
:10031000A1006130B2003208A2009731DC278031A1
:1003200050302100A0007030A100A2019731DC27DD
:10033000803158302100A0007030A100A201973117
:10034000DC27803160302100A0007030A100A201C4
:100350009731DC27803168302100A0007030A10087
:10036000AE30B2003208A2009731DC27803108306D
:100370002100A0007030A1009531BE258031210000
:10038000B2003208E2001030A0007030A1009531B8
:10039000BE2580312100B2003208E1001830A000F3
:1003A0007030A1009531BE2580312100B2003208A5
:1003B0002000E60020302100A0007030A10095311F
:1003C000BE2580312100B20032082000CD00283047
:1003D0002100A0007030A1009531BE2580312100A0
:1003E000B20032082000CE0030302100A000703072
:1003F000A1009531BE2580312100B20032082000D5
:10040000CF0038302100A0007030A1009531BE250A
:1004100080312100B20032082000D4004030210099
:10042000A0007030A1009531BE2580312100B200BE
:1004300032082000D10048302100A0007030A10017
:100440009531BE2580312100B20032082000E50040
:1004500050302100A0007030A1009531BE258031C0
:100460002100B20032082000D70058302100A0003F
:100470007030A1009531BE2580312100B2003208D4
:100480002000D80060302100A0007030A10095311C
:10049000BE2580312100B2003208E0002000D501E5
:1004A000D601D201D301D00195317C2580312000C5
:1004B000931513163E00CF154F168B31F52380315F
:1004C0008B170B172100C901CA019431F92480311F
:1004D000003A03196C2A6D2AF02A95310E258031D5
:1004E0002100B2003208D000FD3050060319792AED
:1004F0007A2A802AFD303506031D7F2A802AF02AB9
:100500005008B2004908B53E8600870132088100D4
:100510000130C9070030CA3DFE305006031D912A44
:10052000922AF02AB501B50AC901CA01D101D20146
:100530005208A1005108A0000330A2000030A3001F
:10054000973156278031210021088500200884003A
:100550002B3084079830853D00083606031DB12AEC
:10056000B22ACF2A0030A600A700A8015208A10095
:100570005108A0000330A2000030A3009731562795
:10058000803121002108850020088400293084075B
:100590009830853D013F8A00003F0A0082310130DA
:1005A0002100D1070030D23D510852040319D92A45
:1005B000DA2A982AF02A21005F080319E02AE12AA2
:1005C000E22A652A00008B31912380318831EB20AB
:1005D00080318831BE208031883192208031652A77
:1005E00020005B08003A0319F62A652A5A08003AE7
:1005F0000319DB2A013A0319E32A033A0319E62A0D
:10060000013A0319E92A073A0319EC2A652A8031CD
:100610006A2820005C085D0403190F2B102B2E2B79
:100620000030A0009830A1004D08B500B601350893
:10063000A2003608A3004E08B700B8013708A4008E
:100640003808A5004F08B900BA013908A6003A08D1
:10065000A7003B308531342583314B2B0030A0007F
:100660009830A1005708B500B6013508A200360839
:10067000A3005808B700B8013708A4003808A5003F
:100680005908B900BA013908A6003A08A7003B305A
:10069000853134258331803095313C2583313B30A1
:1006A000F9000030FA009631A12683314130200054
:1006B0006506031D5C2B5D2B4B2C8F3095313C2543
:1006C0008331200065089531512583312000500386
:1006D000031D6B2B6C2B752B8B3095313C25833197
:1006E0004330953151258331832B5A085B04031D18
:1006F0007A2B7B2B832B8B3095313C25833120301B
:1007000095315125833120005503031D882B892BFA
:10071000922B8C3095313C258331543095315125C5
:100720008331A02B5A085B04031D972B982BA02B19
:100730008C3095313C2583312030953151258331E2
:1007400020005203031DA52BA62BAF2B8D30953116
:100750003C2583314C30953151258331BD2B5A08CE
:100760005B04031DB42BB52BBD2B8D3095313C257F
:100770008331203095315125833120005008031DED
:10078000C22BC32BCD2B5508031DC72BC82BCD2B3C
:1007900052080319CC2BCD2B452C670A031DD12BF6
:1007A000D22BDE2B5708B5003508E7005808B500F6
:1007B0003508E8005908B5003508E900210053085C
:1007C0002000CA00210054082000CB002100550859
:1007D0002000CC005708F0005808F1005908F2003A
:1007E0006708F3006808F4006908F5004A30B500AE
:1007F0003508F60089311821833120004C08660243
:10080000031C032C042C312C2100DF01DF0A2700FC
:100810008E1B0B2C0C2C122C95310225833194311C
:10082000ED24833120005F08803AB5008130350225
:10083000031D1C2C4B305E0203181F2C202C262C71
:100840001E302000DE070030DF3D292C2000DE01B5
:10085000DF015F08F1005E08F00096311326833156
:10086000542C27008E1F352C362C542C2100DF01F0
:100870000030F000F10096311326833195310625C2
:1008800083319431F3248331542C27008E1F492C5B
:100890004A2C542C362C8F3095313C258331200046
:1008A0006508953151258331C03095313C25833120
:1008B0002000610803195D2C5E2C6E2C1930A000FD
:1008C0009830A1005408B500B6013508A2003608DA
:1008D000A30043308531342583317D2C1930A000AD
:1008E0009830A1006308B500B6013508A2003608AB
:1008F000A30043308531342583314330F900003083
:10090000FA009631A1268331CD3095313C258331D3
:100910002000600803198D2C8E2C9E2C2030A00006
:100920009830A1005108B500B6013508A20036087C
:10093000A3004730853134258331AD2C2030A00011
:100940009830A1006208B500B6013508A20036084B
:10095000A30047308531342583314730F90000301A
:10096000FA009631A126833120005A085B0403194E
:10097000BA2CBB2CC62C8B3095313C2583312530CD
:10098000F9009830FA009631A126833120005A03ED
:100990005B04031DCC2CCD2CFC2C5C085D04031DDA
:1009A000D22CD32CD82C8B3095313C258331332D50
:1009B0005C035D04031DDD2CDE2CE32C81309531BE
:1009C0003C258331332D02305C065D04031DE92C88
:1009D000EA2CEF2C843095313C258331332D0330C4
:1009E0005C065D04031DF52CF62CFB2C873095313D
:1009F0003C258331332D332D02305A065B04031D11
:100A0000022D032D122D6108031D072D082D0D2D1C
:100A10008C3095313C258331332DC13095313C25C7
:100A20008331332D03305A065B04031D182D192D15
:100A3000282D6008031D1D2D1E2D232D8D30953171
:100A40003C258331332DCF3095313C258331332DF7
:100A500004305A065B04031D2E2D2F2D332D8F30AD
:100A600095313C25833108002000B4002230A800D5
:100A70002808AC00B82E253033060319402D412D2F
:100A80004D2D3308A800340886008701280881000E
:100A90000130A8002808B407B82EB101B201B00196
:100AA000562D30150130A0070030A13D20088400EC
:100AB000210885000008303A0319512D5F2D2008C8
:100AC00084002108850000089531EF258531031C3D
:100AD0006A2D6B2D9E2D2000B101B2010A30F0006D
:100AE0000030F10020003208F3003108F2009631A6
:100AF000DA26853171082000B2007008B1002008A4
:100B00008400210885000008D03EA800FF300318AB
:100B10000030A9002808B1072908B23D0130A0071C
:100B20000030A13D2008840021088500000895318F
:100B3000EF25853103189D2D9E2D6E2D2000210857
:100B4000A9002008A800A00A0319A10A2808840007
:100B5000290885000008B300003A0319CC2E643A36
:100B60000319B62D0D3A0319B62DB82E2C088600A0
:100B70008701403FAE00413FAF000230A800280887
:100B8000AC07AF1FC42DC52DCE2D0330A8002808FB
:100B9000B004AE09AF09AE0A0319AF0AB301B30A34
:100BA0003308A800A901A835A90D0F302807840033
:100BB0009830293D8500003FAA00013FAB002B087B
:100BC0002F02031DE52D2A082E020318E82DE92D1A
:100BD000EA2DF42D0130A8002808B30705303306AC
:100BE000031DF32DF42DD02D310832040319F92DF6
:100BF000FA2D042E300803390319FF2D002E042E80
:100C0000FF30B107FF30B23D3208803A803C031D0F
:100C10000B2E3108330203180E2E0F2E182E200033
:100C20003308A800A9012808B1022908B23B1B2EED
:100C30002000B101B201301D1E2E1F2E4C2E300897
:100C400003390319242E252E302E2D30A800340808
:100C500086008701280881000130A8002808B40711
:100C6000310832040319352E362E782E3030A80084
:100C7000340886008701280881000130A800280870
:100C8000B407FF30B107FF30B23D31083204031D15
:100C90004A2E4B2E362E782E310832040319512E4F
:100CA000522E672E2030A8003408860087012808BD
:100CB00081000130A8002808B407FF30B107FF30D9
:100CC000B23D31083204031D662E672E522E3008C5
:100CD000033903196C2E6D2E782E2D30A8003408A0
:100CE00086008701280881000130A8002808B40781
:100CF0003308A8002808AD00AF2E0A30F8000030F5
:100D0000F9002D08A800A901A835A90D0F30280762
:100D100084009830293D8500003FF000013FF1003C
:100D20002F08F3002E08F2008931802185317108E7
:100D3000FB007008FA0089314C2185317808303E7B
:100D40002000AA002A08B3003308A800340886004F
:100D50008701280881000130A8002808B407FF3067
:100D6000A8002808AD072D0A031DB72EB82E7D2E2A
:100D70002108A9002008A800A00A0319A10A280830
:100D80008400290885000008AA002A08B300330857
:100D9000031DCB2ECC2E3B2D34088600870181010C
:100DA00008008E31F3268631FA007A082000E3002D
:100DB00000309631012686317008FA007108FB0078
:100DC0000D30FB36FA0C890BE12E7A08FC007C080A
:100DD0002000E2006308FA00FB016D087B06031D9A
:100DE000F32E6C087A06031DF62EF72E042F6208E8
:100DF000FA00FB016B087B06031D002F6A087A06C8
:100E00000319032F042FB02F21006008FA00FB0103
:100E10007A08F0007B08F1000530F2000030F300A2
:100E20009631DA2686317008143EF6007030713D36
:100E3000F70020005708FC007C08F8009631BC261B
:100E4000863121006008FA00FB017A08F0007B0877
:100E5000F1000530F2000030F3009631DA268631D9
:100E600070081C3EF6007030713DF70020005808F5
:100E7000FC007C08F8009631BC2686312100600811
:100E8000FA00FB017A08F0007B08F1000530F2005F
:100E90000030F3009631DA2686317008243EF600E1
:100EA0007030713DF70020005908FC007C08F80004
:100EB0009631BC26863121006008FA00FB017A08D1
:100EC000F0007B08F1000530F2000030F3009631AD
:100ED000DA26863170082C3EF6007030713DF7003E
:100EE00020006308FC007C08F8009631BC2686319F
:100EF00021006008FA00FB017A08F0007B08F1008D
:100F00000530F2000030F3009631DA2686317008A1
:100F1000343EF6007030713DF70020006208FC009E
:100F20007C08F8009631BC2686310130FA007A0838
:100F30002100E0076008620203189F2FA02FA12F55
:100F4000E00120006308FA00FB017A08EC007B084E
:100F5000ED006208FA00FB017A08EA007B08EB006A
:100F600041306506031DB52FB62FEE2F51086202E2
:100F70000318BB2FBC2FD02F6008031DC02FC12F1B
:100F8000D02F5308031DC52FC62FCA2FFF30FA00DC
:100F90007A08E700D301D30AD201D20A1616D22F5B
:100FA000D3011612630854020318D72FD82FEC2F41
:100FB0006108031DDC2FDD2FEC2F5608031DE12FE8
:100FC000E22FE62FFF30FA007A08E700D601D60AB2
:100FD000D501D50A9616EE2FD601961208002400E8
:100FE0001A1DF32FF42FFB2F1A10710899007008A7
:100FF00098001A14FF2F71089900700898000800D3
:1010000022008E018F0190019101920193018D01C7
:1010100021009E019B0194019501960197019A017F
:101020009901980180309300FF309D000800210055
:101030005A0803191C281D2817285B08203E860023
:10104000013087000108A0002008A1000130A000A5
:101050002008DB0708305B02031C2F2830283128CA
:10106000DB012E00991201302100DA022E009916C0
:101070002100210808002E00991276302100A000DE
:101080001730A1009531612588312E001912B93031
:101090002100A0001730A10095316A258831083061
:1010A00022009F0090309D0024309E0019309B004C
:1010B0009C012100DE01DD010830A2002208EF00C2
:1010C000DC01DB01DA012E00991608002100A100E5
:1010D0006F0803196C286D2868282E00191A7128CA
:1010E000722877282100210822009A008F281912DF
:1010F00021002108A0005E08283E860001308700FC
:10110000200881000130A0002008DE0708305E02C0
:10111000031C8B288C288D28DE010130EF022E0065
:101120001916080020008E1A96289728B3284130F7
:101130006506031D9C289D28A42861302100A0007D
:1011400020082000E500AA2841302100A000200846
:101150002000E50021302100A0007630890BAE2868
:10116000A00BAE280000043020005A065B040319CF
:10117000BA28BB289228DA01DB01080020008E1A69
:10118000C228C328E1286008031DC728C828CB2827
:10119000E001E00AD82801302100A000200820004A
:1011A000D10708305102031CD628D728D828D101EE
:1011B00021302100A0007630890BDC28A00BDC2830
:1011C0000000033020005A065B040319E828E928D0
:1011D000BE28E001080020008E1AEF28F0280E2912
:1011E0006108031DF428F528F828E101E10A052922
:1011F00001302100A00020082000D4073330540221
:10120000031C032904290529D40121302100A00051
:101210007630890B0929A00B092900000230200033
:101220005A065B04031915291629EB28E101080069
:101230001F290130F1023C30F7007708F2077508EA
:101240007202031C24292529192975087202F70046
:101250007608023E86008701770881003529013033
:10126000F0023C30F7007708F10774087102031CA4
:101270003A293B292F2974087102F700760A860063
:1012800087017708810073087002F70076088600EE
:10129000870177088100080078087904031951292B
:1012A00052297B29FD01FD0A5E290130F835F90D2F
:1012B000890B56290130FC007C08FD07F91F6129C4
:1012C0006229552979087B02031D682978087A026A
:1012D000031C6B296C2970297808FA027908FB3BFA
:1012E0000130F936F80C890B71290130FD02031D1C
:1012F0007A297B2962297B08F9007A08F80008001E
:10130000F501F60170087104031987298829B729A6
:10131000F701F70A94290130F035F10D890B8C297A
:101320000130F4007408F707F11F972998298B29D9
:101330000130F535F60D890B992971087302031DEB
:10134000A32970087202031CA629A729AC297008DA
:10135000F2027108F33B75140130F136F00C890B81
:10136000AD290130F702031DB629B729982976085F
:10137000F1007508F0000800FD302100A9002908DF
:10138000AA00C030A9002908AB002000570821009E
:10139000A9002908AC00200058082100A90029084C
:1013A000AD00200059082100A9002908AE00FE3038
:1013B000A9002908AF00B001B101EC2921003008D3
:1013C000AA3E860087010108953143258931013005
:1013D0002100B0070030B13D3108803AA9008030CB
:1013E0002902031DF52906303002031CF829F929CA
:1013F000DE29080020009A019901960197019801C1
:10140000073095000F309100FF309200BF309300FD
:10141000FF309400FF303E00D9004730CE00EF305F
:10142000C3000730E4004F30B800DA01E501C40121
:10143000B901CF01E601BA01C501D001DB01FF30DE
:10144000BB00FF30C600FF30D100FF30DC000730AA
:10145000E7000C303D0090001730CB001330C50082
:1014600014303E00A3001530A4000E30960010305A
:10147000A60014303D00C6000800F10071082300EA
:101480008C00901F442A452A462A872A0F301005CF
:10149000F0000830700603194E2A4F2A652A0F30D3
:1014A0001005F0000B3070060319572A582A652AD8
:1014B00010162E000F1C5D2A5E2A592A23000F19D0
:1014C000622A632A872A0F08872A0F301005F00046
:1014D0000830700603196D2A6E2A772A0F3010051E
:1014E000F0000B307006031D762A772A872A0F1822
:1014F0007A2A7B2A772A0F0C890C0139F00011080F
:101500001F397004031D852A862A7B2A11080800CA
:101510002100A30023000F0C890C01392100A20037
:10152000230011081F3921002204031D982A992A3B
:101530008A2A2300111411189E2A9F2A9B2A23000D
:101540000F0C890C01392100A200230011081F395A
:1015500021002204031DAD2AAE2A9F2A4E308A3173
:10156000DB228A3123000F0C890C01392100A200F3
:10157000230011081F3921002204031DC02AC12A9B
:10158000B22A23088A31DB228A3123000F0C890C0E
:1015900001392100A200230011081F392100220473
:1015A000031DD32AD42AC52A230011151119D92ABB
:1015B000DA2AD62A08002100A100210823008C0085
:1015C000901FE32AE42AE52A342B0F30100521006E
:1015D000A000083020060319EE2AEF2A082B0F304E
:1015E000230010052100A0000B3020060319F92A62
:1015F000FA2A082B230010162E000F1C002B012B9B
:10160000FC2A23000F19052B062B342B0F08342B33
:101610000F30230010052100A00008302006031918
:10162000122B132B1E2B0F30230010052100A000BE
:101630000B302006031D1D2B1E2B342B23000F18EF
:10164000222B232B1E2B23000F0C890C0139210088
:10165000A000230011081F3921002004031D312B95
:10166000322B232B2300110808002E0016104130C6
:10167000F000EE30890B3A2BF00B3A2B00322000B1
:101680005A085B04031D452B462B592B5008031D9C
:101690004A2B4B2B552B5508031D4F2B502B552BED
:1016A00052080319542B552B592BD001D501D201C7
:1016B0008D2B5A035B04031D5E2B5F2B822B5D0871
:1016C000803AF00080307002031D682B01305C020C
:1016D000031C6B2B6C2B712B01302000DC070030BE
:1016E000DD3D20005D08803AF00080307002031D6F
:1016F0007B2B04305C02031C7E2B7F2B822B200073
:10170000DC01DD0120005C085D04031D882B892BB2
:101710008D2B0130DA070030DB3D2E000C10161443
:10172000080020008E1A952B962BEB2B5C085D048D
:10173000031D9B2B9C2BA12B0130DC000030DD0016
:10174000E22B5C035D04031DA62BA72BB62B1730E1
:101750004D02031CAC2BAD2BAF2BCD01E22B013086
:101760002100A00020082000CD07E22B02305C06FB
:101770005D04031DBC2BBD2BCC2B3B304E06031D43
:10178000C22BC32BC52BCE01E22B01302100A000C0
:1017900020082000CE07E22B03305C065D04031D09
:1017A000D22BD32BE22B3B304F06031DD82BD92B4A
:1017B000DB2BCF01E22B01302100A000200820000C
:1017C000CF07E22B21302100A0007630890BE62BD9
:1017D000A00BE62B000020005A035B040319F12B39
:1017E000F22B912BDC01DD01080011302100A80053
:1017F0003A30890BF92BA80BF92B000030308A31D5
:1018000088228B3134308A3188228B312930890B00
:10181000072C003230308A3188228B31FA30003286
:10182000890B0F2C30308A3188228B3134308A3149
:1018300088228B312930890B1B2C003230308A31C1
:1018400088228B310830890B232C000030308A31FC
:1018500088228B3134308A3188228B312930890BB0
:101860002F2C003230308A3188228B310830890B9E
:10187000372C000020308A3188228B3124308A3185
:1018800088228B312930890B432C003220308A3159
:1018900088228B31FA300032890B4B2C2100A201B7
:1018A00028308D311E258B312100A20106308D316B
:1018B0001E258B312100A2010F308D311E258B3169
:1018C0002100A20101308D311E258B31A630890BFC
:1018D000672C00320800F5007508F039F300730832
:1018E000F6007508F3000330F335FF3E031D742C3A
:1018F0007335F039F4007408F70023000F0C890CDD
:101900000139F30011081F397304031D882C892C39
:101910007D2C111411188D2C8E2C8A2C0F0C890CF7
:101920000139F30011081F397304031D982C992CF9
:101930008E2C4E308A313D228C3123000F0C890CC5
:101940000139F30011081F397304031DA82CA92CB9
:101950009D2C7608720408388A313D228C31230090
:101960000F0C890C0139F30011081F397304031D92
:10197000BA2CBB2CAF2C760872040C388A313D226D
:101980008C3123000F0C890C0139F30011081F3929
:101990007304031DCC2CCD2CC12C7608720408389E
:1019A0008A313D228C3123000F0C890C0139F30060
:1019B00011081F397304031DDE2CDF2CD32C77088C
:1019C000720408388A313D228C3123000F0C890CB7
:1019D0000139F30011081F397304031DF02CF12C99
:1019E000E52C770872040C388A313D228C312300B3
:1019F0000F0C890C0139F30011081F397304031D02
:101A0000022D032DF72C7708720408388A313D2205
:101A10008C3123000F0C890C0139F30011081F3998
:101A20007304031D142D152D092D11151119192DD0
:101A30001A2D162D0430890B1B2D08002100A5003E
:101A40002508F039A3002308A6002508A3000330C9
:101A5000A335FF3E031D282D2335F039A4002408AB
:101A6000A70023000F0C890C01392100A3002300DB
:101A700011081F3921002304031D3F2D402D312D56
:101A8000230011141118452D462D422D23000F0C53
:101A9000890C01392100A300230011081F392100FE
:101AA0002304031D542D552D462D4E308A31DB2243
:101AB0008D3123000F0C890C01392100A300230074
:101AC00011081F3921002304031D672D682D592D8E
:101AD0002608220408388A31DB228D3123000F0CBE
:101AE000890C01392100A300230011081F392100AE
:101AF0002304031D7C2D7D2D6E2D260822040C3819
:101B00008A31DB228D3123000F0C890C0139210031
:101B1000A300230011081F3921002304031D912D68
:101B2000922D832D21002608220408388A31DB22D9
:101B30008D3123000F0C890C01392100A3002300F3
:101B400011081F3921002304031DA72DA82D992D4D
:101B50002708220408388A31DB228D3123000F0C3C
:101B6000890C01392100A300230011081F3921002D
:101B70002304031DBC2DBD2DAE2D270822040C38D7
:101B80008A31DB228D3123000F0C890C01392100B1
:101B9000A300230011081F3921002304031DD12DA8
:101BA000D22DC32D21002708220408388A31DB22D8
:101BB0008D3123000F0C890C01392100A300230073
:101BC00011081F3921002304031DE72DE82DD92D0D
:101BD000230011151119ED2DEE2DEA2D0430890B7E
:101BE000EF2D08000130FA007A082000D9073C30B8
:101BF0005906031DFC2DFD2DAC2E0130FA007A088C
:101C0000D807D9010830F6007030F70021006208CB
:101C1000FA007A08F8009631BC268D311030F600B3
:101C20007030F70021006108FA007A08F800963158
:101C3000BC268D311830F6007030F70020006608A1
:101C4000FA007A08F8009631BC268D312030F60073
:101C50007030F70020004D08FA007A08F80096313D
:101C6000BC268D312830F6007030F70020004E0879
:101C7000FA007A08F8009631BC268D313030F60033
:101C80007030F70020004F08FA007A08F80096310B
:101C9000BC268D313830F6007030F7002000540833
:101CA000FA007A08F8009631BC268D314030F600F3
:101CB0007030F70020005108FA007A08F8009631D9
:101CC000BC268D314830F6007030F70020006508E2
:101CD000FA007A08F8009631BC268D315030F600B3
:101CE0007030F70020005708FA007A08F8009631A3
:101CF000BC268D315830F6007030F70020005808AF
:101D0000FA007A08F8009631BC268D316030F60072
:101D10007030F70021006008FA007A08F800963168
:101D2000BC268D316830F6007030F70020004E0878
:101D30004F0758074D0754075107570721006207FF
:101D4000610720006607650721006007FA007A082E
:101D5000F8009631BC268D313C3020005806031D1A
:101D6000B22EB32EB82E0130FA007A08D707D80168
:101D700018305706031DBD2EBE2EBF2ED701413091
:101D80006506031DC42EC52EE72E4F085902031CFD
:101D9000CA2ECB2EE72E4E085802031CD02ED12E71
:101DA000E72E4D085702031CD62ED72EE72E5C08CF
:101DB0005D04031DDC2EDD2EE72EFF30FA007A08CD
:101DC000E700D001D00A1930FA007A08CD000310DC
:101DD000961F03140318ED2EF02E20009617F22EF6
:101DE00020009613080023000F0C890C0139F20023
:101DF00011081F397204031DFE2EFF2EF32E11143D
:101E00001118032F042F002F0F0C890C0139F20039
:101E100011081F397204031D0E2F0F2F042F9A3043
:101E20008A313D228E3123000F0C890C0139F200DA
:101E300011081F397204031D1E2F1F2F132F01308D
:101E40008A313D228E3123000F0C890C0139F200BA
:101E500011081F397204031D2E2F2F2F232F9114C9
:101E60009118332F342F302F0F0C890C0139F200C9
:101E700011081F397204031D3E2F3F2F342F9B3052
:101E80008A313D228E3123000F0C890C0139F2007A
:101E900011081F397204031D4E2F4F2F432F963107
:101EA00087268E31F2007208F30023000F0C890C94
:101EB0000139F20011081F397204031D602F612FD0
:101EC000552F91161116111A662F672F632F0F0CBD
:101ED000890C0139F20011081F397204031D712F9A
:101EE000722F672F11151119762F772F732F731FEC
:101EF0007A2F7B2FF32E0F0C890C0139F200110879
:101F00001F397204031D852F862F7B2F1114111882
:101F10008A2F8B2F872F0F0C890C0139F2001108A3
:101F20001F397204031D952F962F8B2F9A308A31FB
:101F30003D228E3123000F0C890C0139F20011086B
:101F40001F397204031DA52FA62F9A2F00308A3146
:101F50003D228E3123000F0C890C0139F20011084B
:101F60001F397204031DB52FB62FAA2F9114911893
:101F7000BA2FBB2FB72F0F0C890C0139F2001108B3
:101F80001F397204031DC52FC62FBB2F9B308A310A
:101F90003D228E3123000F0C890C0139F20011080B
:101FA0001F397204031DD52FD62FCA2F96318726CD
:101FB0008E31F2007208F30023000F0C890C0139F6
:101FC000F20011081F397204031DE72FE82FDC2FE0
:101FD00091161116111AED2FEE2FEA2F0F0C890C06
:101FE0000139F20011081F397204031DF82FF92F6F
:101FF000EE2F11151119FD2FFE2FFA2F730808006F
:1029D6000800080027008E17080025008E1708003B
:1029E60027008E13080025008E13080021005A08C0
:1029F600080027008E13080025008E130800943166
:102A0600F024953108009431F6249531080094316C
:102A1600FF249531080088311720953108002E00D3
:102A26000C10953188259531080021002108E40015
:102A36002008E300080021002108EC002008EB0034
:102A4600080021002108EA002008E900080021000A
:102A56002108E6002008E500080064008001013135
:102A6600890B312D0034FE0012001E00FE0B372D9F
:102A76000034F800F20178088C316B249531080097
:102A86002100A20022088831662095310800FF3413
:102A9600FF34FF34FF34FF34FF34FF34F800F20113
:102AA600F20A78088C316B24953108002F009601C4
:102AB6009701980199019A019B01080021002108BC
:102AC6002200B100210020082200B00008002100E9
:102AD60021082200B300210020082200B2000800CD
:102AE600623031008D008F01910102309300920116
:102AF60008002300901A802D812D872D8F01283004
:102B06009000910103308D000800210063086404E1
:102B160003198E2D8F2D942D64088A0063080A00F0
:102B260095310800803027008E00FF308D00C030C0
:102B36008C0024001F08F33904389F0008002E007B
:102B46000C100B14EB302100A0001430A1009531BD
:102B5600182595312E001614080001302500900026
:102B66008F019101FF308D008C012E009010803076
:102B760025008E0008002100210830009B0021005E
:102B8600200830009A001E171E14000000003000B6
:102B96001C08080024000E1DD12DD22DD92D0E1093
:102BA60071088D0070088C000E14DD2D71088D00E3
:102BB60070088C0008002400141DE22DE32DEA2D78
:102BC600141071089300700892001414EE2D710809
:102BD6009300700892000800F100F0013A3071028B
:102BE6000318F62DF72DFF2D30307102031CFC2D36
:102BF600FD2DFF2DF001F00A700C0800F30073089C
:102C060021009E00931713131314000021001318BC
:102C16000D2E0E2E092E0D08F1000C08F0000800EE
:102C26007108F3007008F200F336F20CF336F20C7A
:102C3600720827008D0070080339F2000530F2355E
:102C4600FF3E031D222E72358C0008002E00101048
:102C560021006E08F1006D08F0009531CD25963102
:102C660021006B086C040319392E3A2E3F2E6C088E
:102C76008A006B080A00963108002E001011200009
:102C86006F08F1006E08F0009531DE2596312100BF
:102C960069086A040319502E512E562E6A088A00B6
:102CA60069080A00963108002E00101221006808F3
:102CB600F1006708F0008731EF279631210065089B
:102CC60066040319672E682E6D2E66088A0065084D
:102CD6000A009631080021002108A3002008A2005E
:102CE600A336A20CA336A20C220827008D002100D1
:102CF60020080339A2000530A235FF3E031D7F2EB2
:102D0600223527008C0008000F3023001005F00044
:102D1600083070060319902E912E9A2E0F3010054A
:102D2600F0000B307006031D992E9A2E9B2E9115DE
:102D36000F1C9E2E9F2E9B2E0C080800A62E2008E8
:102D46009531512596317A08FC007908FB00F90A7D
:102D56000319FA0A7B0884007C0885000008FD0038
:102D66007D082000A0002008031DBA2EBB2EA22E2F
:102D7600080000308B1B0130F900770830009B00FB
:102D860076089A0078089C001E171E158B1355307E
:102D96009F00AA309F009E149E18D22ED32ECF2EAF
:102DA6001E11790C031C8B1303188B170800F401F2
:102DB600F501701CDF2EE02EE42E7208F40773086E
:102DC600F53D0130F235F30D890BE52E0130F13674
:102DD600F00C890BEA2E70087104031DF32EF42EF5
:102DE600DC2E7508F1007408F000080024008F013D
:102DF60090010430910086308D00E8308C000D087B
:102E06002100EE0024000C082100ED002E00101019
:102E16001A14EC302100A0001430A10095311E25B3
:102E26009631053024008E00080024009501960195
:102E360004309700E7309300C83092001308200052
:102E4600EF00240012082000EE002E0010111A15C3
:102E560002302100A0000030A100953124259731D1
:102E6600053024009400080024009B019C010430D6
:102E76009D004A3099005C30980019082100E8004E
:102E8600240018082100E7002E0010121A1603303D
:102E96002100A0000030A10095312A259731153078
:102EA60024009A0008002100A401A501201C5C2F23
:102EB6005D2F612F2208A4072308A53D0130A23506
:102EC600A30D890B622F0130A136A00C890B672F49
:102ED60020082104031D702F712F592F2508A100EA
:102EE6002408A000080022009D1C7A2F7B2F7D2F2E
:102EF6001D121D161908F00021005C08203E8600F0
:102F060001308700700881000130F0007008DC078E
:102F160008305C02031C902F912F922FDC010130A8
:102F2600F0007008DA070800953159259731893184
:102F3600FA2197319531732597319531952597313A
:102F46008831002097319731182797319531B02570
:102F560097319731372797319531A2259731963199
:102F6600F926973188313B20973108000830210037
:102F76006F020318BF2FC02FD92F5D08283E860089
:102F860001308700010822009A000130F000700825
:102F96002100DD0708305D02031CD22FD32FD42F6A
:102FA600DD010130F0007008EF07DB2F2E0019124B
:102FB600080000308B1B01302100A30021083000DF
:102FC6009B002100200830009A00210022083000D2
:102FD6009C001E171E158B1355309F00AA309F00AC
:102FE6009E149E18F72FF82FF42F1E112100230C84
:102FF600031C8B1303188B17080025343034323426
:1030060064343A3425343034323464343A34253432
:103016003034323464340034013400340A34003439
:1030260064340034E834033410342734253430341F
:10303600323464342034433400344C342034253460
:1030460064340034433454344C340034BC340934CE
:02305600C03484
:020000040001F9
:0A000E00EC3FFF3F9F3FFF3FFF3F25
:00000001FF
