:020000040000FA
:1000000080315228080008007E1480312E00161C12
:100010000A280B2813280C1C0E280F2813289F31A0
:100020007027803150280B1F162817285028191EBA
:100030001A281B2826280F1E1E281F2826282200C3
:100040003C088A003B080A0080315028991E292864
:100050002A2835288F1E2D282E28352822003A08D8
:100060008A0039080A00803150281A1C382839289B
:100070004128101C3C283D28412890315A208031CD
:100080005028991C442845284A288F1C482849286C
:100090004A285028191C4D284E2850280F0850284F
:1000A0007E100900803154288731FF278031FD0000
:1000B000D03084009F308500E1308600003087001A
:1000C0000A309F317C278031FB01FC0165308400C0
:1000D000003085000B309F3176278031A0308400BE
:1000E0000030850021309F31762780312030840018
:1000F0000130850017309F3176278031A030840091
:100100000130850040309F317627803120308400D7
:100110000230850040309F31762780317E102000EC
:100120008031922891310A21803100302000A000D6
:10013000A1009031A02080319F316C2780319F3108
:100140006227803104302000A0000930A1009F31D7
:10015000BE27803191302000A0001F30A1009F31C8
:10016000AC2780312100D701D801D80AD90100304D
:100170002000A6007030A700903124208031533A2F
:10018000031DC328C428FF282100D8010130DA004C
:100190000030DB0021005A08003E2000A60070302D
:1001A00021005B3D2000A7009031242080312000F9
:1001B000E40064082100D7070130DA070030DB3D96
:1001C0005B08803A2000E40080306402031DEB28C5
:1001D0000D3021005A02031CEE28EF28CA280D30EA
:1001E0002000A6007030A70090312420803121002B
:1001F00057060319FC28FD28FF28D901D90A210038
:100200005808031D042905290A2959080319092931
:100210000A29A32900302000A6007030A70053301F
:10022000E4006408A80092314922803101302000A6
:10023000A6007030A7001930E4006408A8009231CD
:100240004922803102302000A6007030A700033020
:10025000E4006408A8009231492280310330200074
:10026000A6007030A7000530E4006408A8009231B1
:100270004922803104302000A6007030A7000C30E5
:10028000E4006408A8009231492280310530200042
:10029000A6007030A700A8019231492280310630B3
:1002A0002000A6007030A700A801923149228031B9
:1002B00007302000A6007030A7001C30E40064085E
:1002C000A80092314922803108302000A600703009
:1002D000A7000430E4006408A8009231492280316C
:1002E00009302000A6007030A7006130E4006408E7
:1002F000A8009231492280310A302000A6007030D7
:10030000A700A8019231492280310B302000A600BD
:100310007030A700A8019231492280310C302000B2
:10032000A6007030A700A8019231492280310D301B
:100330002000A6007030A700AE30E4006408A800DA
:1003400092314922803101302000A6007030A70090
:100350009031242080312000E4006408FD00023048
:10036000A6007030A7009031242080312000E400E6
:1003700064082100EA0003302000A6007030A700C6
:100380009031242080312000E40064082100E9003D
:1003900004302000A6007030A70090312420803166
:1003A0002000E40064082100A00005302000A60021
:1003B0007030A7009031242080312000E4006408D0
:1003C0002100A10006302000A6007030A700903167
:1003D000242080312000E40064082100A2000730BE
:1003E0002000A6007030A70090312420803120002A
:1003F000E40064082100A70008302000A600703047
:10040000A7009031242080312000E40064082100FE
:10041000A40009302000A6007030A70090312420ED
:1004200080312000E4006408EF000A30A60070303C
:10043000A7009031242080312000E4006408E5000A
:100440000B30A6007030A7009031242080312000AE
:10045000E4006408E600EB012100A801A901A50160
:10046000A601A3019F31DA278031200093151316CE
:100470003E00CF154F168831142080318B170B1793
:10048000C13086000030870014302000E4000030C6
:100490001E00E40B482A2100DF01E001A52A873174
:1004A000FB2780312000E40064082100DE00FD30DD
:1004B0005E0603195C2A5D2A632AFD304106031D8E
:1004C000622A632A9E2AFD305E06031D682A692A75
:1004D000782A00302000A000A1001430A2000030D3
:1004E000A300C1309131822180312100DF01E00180
:1004F0005E082000E40021005F08C13E86008701FD
:1005000020006408810001302100DF070030E03D59
:1005100014305F066004031D8E2A8F2A9E2A003045
:100520002000A000A1001430A2000030A300C130C0
:100530009131822180312100DF01E001FE305E0631
:10054000031DA32AA42AA52AAD2A9F315927803149
:10055000003A031DAC2AAD2A4F2A21005F08FF3E56
:10056000C13E86008701FE300106031DB82AB92A64
:10057000232BDC01DD015D082000A10021005C08C7
:100580002000A0000330A2000030A3009131A1217F
:100590008031200021088500200884000230840773
:1005A0009830853D000821004206031DD82AD92A2B
:1005B000072B5D082000A10021005C082000A0009E
:1005C0000330A2000030A3009131A121803120002E
:1005D0002108850020088400003084079830853D7C
:1005E000003F2100D500013FD60060082000B00088
:1005F00021005F082000AF00C130E4006408B100B2
:10060000210056088A0055080A008331142B013056
:10061000DC070030DD3D00305D020D3003195C0267
:10062000031C132B142BBB2A00302000A000A100B8
:100630001430A2000030A300C130913182218031FA
:100640002100DF01E001200068086904031D292B57
:100650002A2B2E2B893196218031A52A6803690423
:10066000031D332B342B382B97311E278031A52ABD
:10067000023068066904031D3E2B3F2B432B943147
:1006800030248031A52A033068066904031D492BF4
:100690004A2B4E2B9331FB238031A52A0430680668
:1006A0006904031D542B552B592B9331332380316F
:1006B000A52A6908803AE40080306402031D622B99
:1006C00005306802031C652B662BA52A2000E80173
:1006D000E901A52A80315228210031080319712B24
:1006E000722B7B2BC8309031002083314D309F31ED
:1006F000C7278331832BC8309031002083312030CD
:100700009F31C72783317B087C040319882B892BF1
:10071000AE2B27302000AE009830AF00210020081B
:100720002000C300C4014308B0004408B100210008
:1007300021082000C500C6014508B2004608B300E4
:10074000210022082000C700C8014708B40048085B
:10075000B50049308531A1258331CC2B27302000CD
:10076000AE009830AF006508C300C4014308B00074
:100770004408B1006608C500C6014508B200460835
:10078000B3006708C700C8014708B4004808B500AF
:1007900049308531A125833180309031002083316B
:1007A00049302000A9000030AA009031EF208331A9
:1007B00021002303031DDD2BDE2BE72B8B30903133
:1007C0000020833143309F31C7278331F62B20002F
:1007D00068086904031DED2BEE2BF62B8B3090314E
:1007E0000020833120309F31C72783312100280327
:1007F000031DFB2BFC2B052C8C309031002083310A
:1008000054309F31C7278331142C200068086904B5
:10081000031D0B2C0C2C142C8C30903100208331B8
:1008200020309F31C727833121002503031D192C58
:100830001A2C232C8D309031002083314C309F3185
:10084000C7278331322C200068086904031D292C36
:100850002A2C322C8D3090310020833120309F3172
:10086000C72783318F3090310020833120006F08FB
:100870009F31C7278331413020006F06031D412C73
:10088000422CB42C21002308031D472C482C522C49
:100890002808031D4C2C4D2C522C25080319512CD3
:1008A000522CAE2C610A031D562C572C692C2000AB
:1008B0006508C30043082100E10020006608C3006A
:1008C00043082100E20020006708C300430821001C
:1008D000E300220034082000D80022003508200060
:1008E000D900220036082000DA006508A00066085A
:1008F000A1006708A200210061082000A3002100D8
:1009000062082000A400210063082000A5005830E0
:10091000C3004308A60093319123833120005A0875
:1009200021006902031C952C962C992CBA01BA0A55
:10093000B42C27008E1F9D2C9E2CB42C2100BA01B4
:1009400000302000A000A1009031A02083319F3111
:100950006C2783319F3162278331B42C27008E1F8F
:10096000B22CB32CB42C9E2CC0309031002083319B
:10097000210039080319BD2CBE2CD12C4030200099
:10098000AE009830AF00210027082000C300C4014A
:100990004308B0004408B10051308531A1258331AE
:1009A000E12C40302000AE009830AF006E08C3004C
:1009B000C4014308B0004408B10051308531A1257D
:1009C000833151302000A9000030AA009031EF207F
:1009D0008331CD3090310020833121003808031954
:1009E000F22CF32C062D47302000AE009830AF00DB
:1009F000210024082000C300C4014308B0004408BB
:100A0000B10055308531A1258331162D47302000A6
:100A1000AE009830AF006D08C300C4014308B000B9
:100A20004408B10055308531A1258331553020006F
:100A3000A9000030AA009031EF208331200068081F
:100A400069040319242D252D312D8B309031002080
:100A500083314C302000A9009830AA009031EF205B
:100A60008331200068036904031D372D382D672D5D
:100A70007B087C04031D3D2D3E2D432D8B30903192
:100A800000208331A02D7B037C04031D482D492DBC
:100A90004E2D8130903100208331A02D02307B0615
:100AA0007C04031D542D552D5A2D84309031002087
:100AB0008331A02D03307B067C04031D602D612D46
:100AC000662D8730903100208331A02DA02D02307B
:100AD00068066904031D6D2D6E2D7E2D21003908D9
:100AE000031D732D742D792D8C30903100208331AE
:100AF000A02DC130903100208331A02D0330680635
:100B00006904031D842D852D952D21003808031DB2
:100B10008A2D8B2D902D8D30903100208331A02D8A
:100B2000CF30903100208331A02D04306806690455
:100B3000031D9B2D9C2DA02D8F30903100208331E3
:100B400008002000C2003030B6003608BA00262F58
:100B5000253041060319AD2DAE2DBA2D4108B60042
:100B6000420886008701360881000130B600360849
:100B7000C207262FBF01C001BE01C32D3E150130A3
:100B8000AE070030AF3D2E0884002F088500000816
:100B9000303A0319BE2DCC2D2E0884002F08850075
:100BA0000008883101208531031CD72DD82D0B2E4C
:100BB0002000BF01C0010A302000A0000030A100C9
:100BC0004008A3003F08A2009131A12185312000F7
:100BD0002108C0002008BF002E0884002F088500CF
:100BE0000008D03EB600FF3003180030B7003608CA
:100BF000BF073708C03D0130AE070030AF3D2E08BB
:100C000084002F08850000088831012085310318F1
:100C10000A2E0B2EDB2D20002F08B7002E08B60061
:100C2000AE0A0319AF0A36088400370885000008A9
:100C3000C100003A03193A2F643A0319232E0D3AE2
:100C40000319232E262F3A0886008701403FBC0057
:100C5000413FBD000230B6003608BA07BD1F312E35
:100C6000322E3B2E0330B6003608BE04BC09BD0947
:100C7000BC0A0319BD0AC101C10A4108B600B70187
:100C8000B635B70D3630360784009830373D8500CD
:100C9000003FB800013FB90039083D02031D522E44
:100CA00038083C020318552E562E572E612E01305F
:100CB000B6003608C10705304106031D602E612EBF
:100CC0003D2E3F0840040319662E672E712E3E0804
:100CD000033903196C2E6D2E712EFF30BF07FF30C4
:100CE000C03D4008803A803C031D782E3F084102F9
:100CF00003187B2E7C2E852E20004108B600B701FC
:100D00003608BF023708C03B882E2000BF01C00153
:100D10003E1D8B2E8C2EB92E3E0803390319912EC1
:100D2000922E9D2E2D30B60042088600870136088F
:100D300081000130B6003608C2073F08400403199D
:100D4000A22EA32EE52E3030B60042088600870181
:100D5000360881000130B6003608C207FF30BF07F1
:100D6000FF30C03D3F084004031DB72EB82EA32E10
:100D7000E52E3F0840040319BE2EBF2ED42E20308E
:100D8000B600420886008701360881000130B600AF
:100D90003608C207FF30BF07FF30C03D3F084004A0
:100DA000031DD32ED42EBF2E3E0803390319D92E8E
:100DB000DA2EE52E2D30B60042088600870136086F
:100DC00081000130B6003608C2074108B600360877
:100DD000BB001D2F0A30A8000030A9003B08B60058
:100DE000B701B635B70D3630360784009830373D39
:100DF0008500003FA000013FA1003D08A3003C0882
:100E0000A20094319D24853120002108AB002008E8
:100E1000AA009331C623853120002808303EB8004F
:100E20003808C1004108B60042088600870136082C
:100E300081000130B6003608C207FF30B600360820
:100E4000BB073B0A031D252F262FEA2E2F08B700CC
:100E50002E08B600AE0A0319AF0A36088400370818
:100E600085000008B8003808C1004108031D392F6B
:100E70003A2FA82D42088600870181010800013021
:100E80002000A6007030A7007D08AA002A08A8004C
:100E900092314922873102302000A6007030A7002D
:100EA00021006A082000AA002A08A80092314922DD
:100EB000873103302000A6007030A70021006908A8
:100EC0002000AA002A08A800923149228731043064
:100ED0002000A6007030A700210020082000AA00F2
:100EE0002A08A80092314922873105302000A60047
:100EF0007030A700210021082000AA002A08A800BD
:100F000092314922873106302000A6007030A700B8
:100F1000210022082000AA002A08A80092314922B4
:100F2000873107302000A6007030A7002100270875
:100F30002000AA002A08A8009231492287310830EF
:100F40002000A6007030A700210024082000AA007D
:100F50002A08A80092314922873109302000A600D2
:100F60007030A7006F08AA002A08A8009231492211
:100F700087310A302000A6007030A7006508AA005B
:100F80002A08A8009231492287310B302000A600A0
:100F90007030A7006608AA002A08A80092314922EA
:100FA00087310C302000A6007030A7006B08AA0023
:100FB0002A08A8009231492287310D302000A6006E
:100FC0007030A700210021082207200066072100B9
:100FD000200727072407200065077D0721006A07EF
:100FE000690720006F076B07AA002A08A800923142
:100FF0004922873108009231B7228731080019341D
:101002002000A100A0013A302102031809280A2871
:10101200122830302102031C0F2810281228A001A8
:10102200A00A200C080011302000A8003A30890BD9
:101032001828A80B18280000303095315F25883118
:10104200343095315F2588312930890B26280032CA
:10105200303095315F258831FA300032890B2E28E5
:10106200303095315F258831343095315F258831B4
:101072002930890B3A280032303095315F2588318A
:101082000830890B42280000303095315F258831C5
:10109200343095315F2588312930890B4E28003252
:1010A200303095315F2588310830890B5628000091
:1010B200203095315F258831243095315F25883184
:1010C2002930890B62280032203095315F25883122
:1010D200FA300032890B6A282000A20128308A31B6
:1010E200372288312000A20106308A313722883126
:1010F2002000A2010F308A31372288312000A2015C
:1011020001308A3137228831A630890B8628003295
:10111200080020003108023E860087010108B20063
:10112200B3013208B4003308B5003108033E86002B
:1011320087010108B200B3013208B6003308B700D4
:101142003108043E860087010108B200B30132086B
:10115200B8003308B900B51BAF28B028FF283508FE
:10116200803AB20080303202031DB92818303402AE
:101172000318BC28BD28FF282000B71BC128C2289D
:10118200FF283708803AB20080303202031DCB2894
:101192003C3036020318CE28CF28FF282000B91B86
:1011A200D328D428FF283908803AB200803032028E
:1011B200031DDD283C3038020318E028E128FF280F
:1011C200063020002F063004031DE828E928FF28F6
:1011D2003408B20032082100A00020003608B20014
:1011E20032082100A10020003808B2003208210094
:1011F200A200C7309031B92088310329C73091311C
:101202002621883108000130F90079082000E7071B
:101212003C306706031D0E290F2917290130F900FA
:101222007908E607E7012100B401B40A3C30200046
:101232006606031D1D291E2923290130F90079089C
:10124200E507E60118306506031D282929292A2900
:10125200E50141306F06031D2F293029592921004C
:10126200220820006702031C372938295929210046
:10127200210820006602031C3F2940295929210028
:10128200200820006502031C4729482959297B08A8
:101292007C04031D4D294E295929FF30F900790894
:1012A2002100E100A301A30A1930F9007908A00086
:1012B2000230F0000030F1007D08F900FA017908EF
:1012C200F2007A08F3009631BF2689317108803A1C
:1012D200803C031D6F29700821003202031C722911
:1012E200732977292100B101B10A79292100B101BD
:1012F20003102000961F031403188029832920005D
:1013020096178529200096132100E801E80A01308A
:10131200F9007908B5076A083502031C9129922958
:101322009529B501B601B60A08002100340803194F
:101332009B299C29A12987313F2789312100B401AA
:1013420037080319A529A629B029963165268931BE
:101352002100B70183316C2389312100E80136086D
:101362000319B429B529BA298E317A268931210087
:10137200B60168080319BE29BF29C42983316C2329
:1013820089312100E80131080319C829C929F9293D
:101392003008031DCD29CE29F929FD302000DB00BC
:1013A2005B08DC00CD30DB005B08DD007D08DB0084
:1013B2005B08DE006A08DB005B08DF006C08DB000C
:1013C2005B08E0006B08DB005B08E100FE30DB003D
:1013D2005B08E2000730A3000030A4005C30DB00B1
:1013E2005B08A5009231262289312100B001B00AA2
:1013F2003108031DFD29FE29FF29B0013A0803190E
:10140200032A042A362A27008E1B082A092A0F2AB1
:101412009F31682789319F315C27893121002B0850
:10142200803A2000DB0084305B02031D1B2A00305F
:1014320021002A0203181E2A1F2A252A0130210010
:10144200AA070030AB3D282A2100AA01AB012B08D4
:101452002000A10021002A082000A0009031A02035
:1014620089315330890B332A000008002000A5007F
:101472002508F039A3002308A6002508A30003309D
:10148200A335FF3E031D412A2335F039A400240869
:10149200A70023000F0C890C01392000A3002300B0
:1014A20011081F3920002304031D582A592A4A2AE9
:1014B2002300111411185E2A5F2A5B2A23000F0CE5
:1014C200890C01392000A300230011081F392000D4
:1014D2002304031D6D2A6E2A5F2A4E3096310B2695
:1014E2008A3123000F0C890C01392000A30023004C
:1014F20011081F3920002304031D802A812A722A21
:1015020026082204083896310B268A3123000F0C54
:10151200890C01392000A300230011081F39200083
:101522002304031D952A962A872A260822040C38AA
:1015320096310B268A3123000F0C890C01392000C9
:10154200A300230011081F3920002304031DAA2A27
:10155200AB2A9C2A200026082204083896310B2642
:101562008A3123000F0C890C01392000A3002300CB
:1015720011081F3920002304031DC02AC12AB22AE0
:1015820027082204083896310B268A3123000F0CD3
:10159200890C01392000A300230011081F39200003
:1015A2002304031DD52AD62AC72A270822040C3869
:1015B20096310B268A3123000F0C890C0139200049
:1015C200A300230011081F3920002304031DEA2A67
:1015D200EB2ADC2A200027082204083896310B2641
:1015E2008A3123000F0C890C01392000A30023004B
:1015F20011081F3920002304031D002B012BF22A9E
:10160200230011151119062B072B032B0430890B0C
:10161200082B0800043020002F063004031D122B73
:10162200132BF22B3108023E860087010108B2001B
:10163200B3013208C5003308C6004608C800450891
:10164200C7004608803A803C031D2A2B450821002A
:10165200320203182D2B2E2B372B210032082000AB
:10166200B200B3013208C7003308C800200048089E
:10167200803AB20080303202031D412B0B30470208
:10168200031C442B452B4A2B0A302000C700003094
:10169200C800FD302000B2003208BD00CB30B200DD
:1016A2003208BE004708B2003208BF000330A30070
:1016B2000030A4003D30B2003208A500923126224B
:1016C2008B312000C001C101CA2B2000C901490889
:1016D200B200B3016C08B400B5013408A0003508AB
:1016E200A1000530A2000030A3009131A1218B316D
:1016F200200032082007B6003308213DB700360823
:10170200123EC2007030373DC3004308A7004208B2
:10171200A600903124208B312000B2004908383EC7
:1017220086008701320881000130B2003208C90701
:1017320005304902031C9E2B9F2B682B0530A3000A
:101742000030A4003830B2003208A50092312622BF
:101752008B3101302000B2003208EC077D08FF3ED9
:10176200B200FF3003180030B3003308803AB400EF
:1017720080303402031DBF2B6C0832020318C22BC7
:10178200C32BC52B2000EC0101302000C007003024
:10179200C13D4108803AB2004808803A3202031D36
:1017A200D42B47084002031CD72BD82B662B2000D2
:1017B2004708210032022000B20032082100B200A4
:1017C200FE302000B2003208C4000130A300003015
:1017D200A4004430B2003208A500923126228B3197
:1017E200F62BCB30913126218B31080005302000B9
:1017F2002F063004031DFE2BFF2B252D31088600FA
:101802008701423FC900310886008701433FC50076
:101812006B084507C600C701C70D4708803AB200EA
:1018220080303202031D172C7D084602031C1A2C3D
:101832001B2C2A2C7D082000B200B30145086B073F
:10184200B400B501B50D32083402C6003308353B89
:10185200C70020006A087D060319302C312C382C71
:101862004508B200B3013208C6003308C7006B084E
:10187200B20046083202C10047090318890AC200B1
:10188200C21F442C452C502C6B087D07B200B301BB
:10189200B30D46083202C1004708333BC20041087B
:1018A2004204031D552C562C632C6A087D06031D29
:1018B2005B2C5C2C632C6A08B200B3013208C100B5
:1018C2003308C20049086A02031C682C692C762C72
:1018D2004208803AB20080303202031D722C49085D
:1018E20041020318752C762C7B2CCC3091312621A9
:1018F2008B31292D0B3020004902031C812C822CB4
:10190200862C0A30B2003208C900FD30B20032081B
:10191200BC00CC30B2003208BD004908B200320827
:10192200BE004508B2003208BF000430A3000030F8
:10193200A4003C30B2003208A500923126228B313D
:1019420020004708C4004608C3000F2DC8014808FC
:10195200B200B3014408A1004308A0000530A20070
:101962000030A3009131A1218B31200032082007E1
:10197200B4003308213DB5003408123EA600703091
:10198200353DA700903124208B312000B600480855
:10199200373E86008701360881000130B2003208E6
:1019A200C80705304802031CD72CD82CA82C0530B8
:1019B200A3000030A4003730B2003208A5009231F3
:1019C20026228B3120006C08B200B3014408330692
:1019D200031DED2C43083206031DF02CF12CF92CCB
:1019E20001302100B20201302000B2003208EC07BF
:1019F2000130C3070030C43D0130C9024408803AB7
:101A0200B20080303202031D082D7D084302031C00
:101A12000B2D0C2D0F2D2000C301C40120004908FD
:101A2200031D142D152DA72CFE30B2003208C00064
:101A32000130A3000030A4004030B2003208A500FB
:101A4200923126228B31292DCC30913126218B31B6
:101A5200080023000F0C890C01392000A20023008A
:101A620011081F3920002204031D382D392D2A2D7B
:101A72002300111411183E2D3F2D3B2D23000F0C76
:101A8200890C01392000A200230011081F3920000F
:101A92002204031D4D2D4E2D3F2D9A3096310B26DB
:101AA2008D3123000F0C890C01392000A200230084
:101AB20011081F3920002204031D602D612D522DB3
:101AC200013096310B268D3123000F0C890C013920
:101AD2002000A200230011081F3920002204031D48
:101AE200732D742D652D230091149118792D7A2D63
:101AF200762D23000F0C890C01392000A20023004F
:101B020011081F3920002204031D882D892D7A2DEA
:101B12009B3096310B268D3123000F0C890C013935
:101B22002000A200230011081F3920002204031DF7
:101B32009B2D9C2D8D2D913163218D312000A20092
:101B42002208A30023000F0C890C01392000A200F7
:101B5200230011081F3920002204031DB12DB22DCC
:101B6200A32D230091161116111AB82DB92DB52DDA
:101B720023000F0C890C01392000A2002300110858
:101B82001F3920002204031DC72DC82DB92D2300A3
:101B920011151119CD2DCE2DCA2D2000231FD22DA6
:101BA200D32D2A2D23000F0C890C01392000A2000D
:101BB200230011081F3920002204031DE12DE22D0C
:101BC200D32D230011141118E72DE82DE42D230045
:101BD2000F0C890C01392000A200230011081F39C3
:101BE20020002204031DF62DF72DE82D9A309631A0
:101BF2000B268D3123000F0C890C01392000A20025
:101C0200230011081F3920002204031D092E0A2E69
:101C1200FB2D003096310B268D3123000F0C890CE1
:101C220001392000A200230011081F3920002204DC
:101C3200031D1C2E1D2E0E2E230091149118222EF0
:101C4200232E1F2E23000F0C890C01392000A20025
:101C5200230011081F3920002204031D312E322EC9
:101C6200232E9B3096310B268D3123000F0C890CCD
:101C720001392000A200230011081F39200022048C
:101C8200031D442E452E362E913163218D312000C5
:101C9200A2002208A30023000F0C890C01392000A6
:101CA200A200230011081F3920002204031D5A2E0E
:101CB2005B2E4C2E230091161116111A612E622EE4
:101CC2005E2E23000F0C890C01392000A200230094
:101CD20011081F3920002204031D702E712E622E5E
:101CE200230011151119762E772E732E200023084A
:101CF20008008D312A258E312000AA002A08EE0024
:101D02000030903144208E3120002008AA002108A2
:101D1200AB000D30AB36AA0C890B8B2E2A08AC0017
:101D22002C08ED006E08AA00AB0121006708200014
:101D32002B06031DA02E2100660820002A06031D83
:101D4200A32EA42EB52E6D08AA00AB0121006508B2
:101D520020002B06031DB12E2100640820002A0654
:101D62000319B42EB52EB32F6B08AA00AB012A08B3
:101D7200A0002B08A1000530A2000030A300913181
:101D8200A1218E3120002008123EA6007030213D94
:101D9200A7006508AC002C08A800923149228E31B8
:101DA20020006B08AA00AB012A08A0002B08A100A2
:101DB2000530A2000030A3009131A1218E31200014
:101DC2002008133EA6007030213DA7006608AC0033
:101DD2002C08A800923149228E3120006B08AA00FB
:101DE200AB012A08A0002B08A1000530A200003098
:101DF200A3009131A1218E3120002008143EA600BB
:101E02007030213DA7006708AC002C08A800923171
:101E120049228E3120006B08AA00AB012A08A000DB
:101E22002B08A1000530A2000030A3009131A121AE
:101E32008E3120002008153EA6007030213DA700FB
:101E42006E08AC002C08A800923149228E31200085
:101E52006B08AA00AB012A08A0002B08A1000530DC
:101E6200A2000030A3009131A1218E312000200870
:101E7200163EA6007030213DA7006D08AC002C086C
:101E8200A800923149228E31210032087D06031DBD
:101E92004B2F4C2F522F01302000AA002A08EC07AA
:101EA200582F01302000AA002A082100B207013071
:101EB2002000AA002A08EB077D08FF3EAA00FF3097
:101EC20003180030AB002B08803AAC0080302C02A3
:101ED200031D6D2F6B082A020318702F712F762FA6
:101EE2002100B301B30A2000EB01210033080319DA
:101EF2007B2F7C2F822F7D082000AA002A08EA006F
:101F0200872F01302000AA002A08EA077D08FF3E39
:101F1200AA00FF3003180030AB002B08803AAC0057
:101F220080302C02031D972F6C082A0203189A2F67
:101F32009B2F9D2F2000EC0120006E08AA00AB0110
:101F42002A082100E60020002B082100E7002000DB
:101F52006D08AA00AB012A082100E40020002B082A
:101F62002100E500413020006F06031DB92FBA2F72
:101F7200FF2F2100240820006D020318C12FC22F59
:101F8200DA2F21003808031DC72FC82FDA2F2608A1
:101F9200031DCC2FCD2FD32FFF302000AA002A08FB
:101FA2002100E100A601A60AA501A50A2000161635
:101FB200DE2F2100A601200016126E082100270242
:101FC2000318E42FE52FFC2F3908031DE92FEA2F10
:101FD200FC2F2908031DEE2FEF2FF52FFF302000D5
:101FE200AA002A082100E100A901A90AA801A80A59
:101FF20020009616FF2FA90120009612080020004B
:10200200A800A20128088A313722903108002E0048
:102012000C100B1402302000A0000030A1009F31F0
:10202200AC2790312E0016140800013025009000D4
:102032008F019101FF308D008C012E0090108030B5
:1020420025008E0008002000270830009B00200099
:10205200260830009A001E171E14000000003000EF
:102062001C08080024000E1D372838283F280E10AF
:1020720071088D0070088C000E14432871088D00C1
:1020820070088C0008002000A300230821009E0095
:102092009317131313140000210013185128522808
:1020A2004D280D082000A10021000C082000A000EE
:1020B20008002E00101021006E08F1006D08F000DB
:1020C20090313320903121006B086C0403196A2887
:1020D2006B2870286C088A006B080A00903108008F
:1020E20022008E018F0190019101920193018D01D5
:1020F20021009E019B0194019501960197019A018D
:102102009901980180309300FF309D00080004304F
:1021120020002F063004031D8F2890289B283108A9
:1021220086008701423F2100EA00C4309031B92085
:1021320090319F28C430913126219031080020002F
:102142002108A3002008A200A336A20CA336A20CE9
:10215200220827008D00200020080339A200053044
:10216200A235FF3E031DB128223527008C0008004E
:102172002000AA00FD30A9002908AB002A08A90006
:102182002908AC00AD01FE30A9002908AE000430D8
:10219200A3000030A4002B30A9002908A500923129
:1021A20026229031080020003108023E8600870175
:1021B2003C3001020318DE28DF28EA2831088600B5
:1021C2008701423F2100E900C5309031B9209031AA
:1021D200EE28C5309131262190310800F4282E08CE
:1021E2009F31C727903120002A08AC002908AB0094
:1021F200A90A0319AA0A2B0884002C0885000008E2
:10220200AD002D08AE002E08031D08290929F0286B
:1022120008009F318927913195311C2591319F31D9
:10222200B52791319F31F32791319031712091314E
:102232009031162091319131442191319031082011
:10224200913193310623913108002000AA00FD301C
:10225200A9002908AB002A08A9002908AC00FF3010
:10226200A9002908AD00FE30A9002908AE000430FB
:10227200A3000030A4002B30A9002908A500923148
:1022820026229131080024008F0190010430910030
:1022920086308D00E8308C000D082100EE0024000D
:1022A2000C082100ED002E0010101A14033020003B
:1022B200A0000030A1009F31BE27913105302400DB
:1022C2008E0008000F30230010052000A000083007
:1022D200200603196D296E2979290F302300100574
:1022E2002000A0000B302006031D782979297B29C4
:1022F2002300911523000F1C7F2980297B290C08BC
:1023020008002000A6002608A4002408A50094299D
:102312002008A400250886008701240881000130D6
:10232200A4002408A5070130A2020030A33B220A20
:10233200031D9F29230A031D9F29A029892908001B
:102342002000A401A501201CA729A829AC29220844
:10235200A4072308A53D0130A235A30D890BAD29A1
:102362000130A136A00C890BB22920082104031DDB
:10237200BB29BC29A4292508A1002408A000080023
:1023820022009D1CC529C629C8291D121D1619081F
:10239200F00021003E08203E8600023087007008CF
:1023A20081000130F0007008BE0740303E02031C7D
:1023B200DB29DC29DD29BE010130F0007008BC07F1
:1023C2000800FD302000B2003208B300C230B20073
:1023D2003208B4006E08B2003208B5006D08B200CF
:1023E2003208B600FE30B2003208B7000530A30052
:1023F2000030A4003330B2003208A5009231262208
:1024020091310800403021006F020318092A0A2A7C
:10241200232A3F08A03E86000130870001082200DF
:102422009A000130F00070082100BF0740303F02DF
:10243200031C1C2A1D2A1E2ABF010130F00070084D
:10244200EF07252A2E00191208002000A701A80173
:102452003A2A200027082507A600260886008701B9
:1024620001089F318227923101302000A7070030F6
:10247200A83D2808803AA6002408803A2602031DB7
:10248200442A23082702031C472A482A2A2A08002A
:1024920000308B1B01302000A900270830009B0070
:1024A2002000260830009A002000280830009C00F6
:1024B2001E171E158B1355309F00AA309F009E14C5
:1024C2009E18642A652A612A1E112000290C031C09
:1024D2008B1303188B170800FD302000B20032085E
:1024E200B300C030B2003208B4006508B20032084E
:1024F200B5006608B2003208B6006708B2003208BA
:10250200B700FE30B2003208B8000630A300003037
:10251200A4003330B2003208A50092312622923153
:102522000800FD302000B2003208B300C330B20010
:102532003208B40021006A082000B2003208B50057
:10254200210069082000B2003208B600FE30B20055
:102552003208B7000530A3000030A4003330B200C7
:102562003208A500923126229231080021003C084F
:102572000319BC2ABD2AB72A3D08203E8600023034
:10258200870001082000A0002008A1000130A0005F
:1025920020082100BD0740303D02031CD12AD22A67
:1025A200D32ABD012E00991201302100BC022E0057
:1025B2009916200021080800FD302000B2003208E0
:1025C200B300CA30B2003208B4007D08B20032084B
:1025D200B5006A08B2003208B6006C08B2003208D0
:1025E200B7006B08B2003208B800FE30B200320801
:1025F200B9000730A3000030A4003330B200320823
:10260200A50092312622923108002E009912C13083
:102612002000A0001130A1009F319A2793312E0093
:10262200191203302000A0001230A1009F31A3270D
:102632009331083022009F0090309D0024309E008C
:1026420019309B009C012100C001BF0140302000D5
:10265200A20022082100EF00BE01BD01BC012E0034
:102662009916080020008E1A372B382B532B413035
:102672006F06031D3D2B3E2B432B6130E3006308A5
:10268200EF00472B4130E3006308EF0021302000C8
:10269200E3007630890B4B2BE30B4B2B000083318D
:1026A2006C239331893196219331043020006806DE
:1026B200690403195D2B5E2B332BE801E901080045
:1026C2002000A10021006F080319682B692B632BDE
:1026D2002E00191A6D2B6E2B732B2000210822005D
:1026E2009A008E2B191220002108A0002100400818
:1026F200A03E8600013087002000200881000130C2
:10270200A00020082100C00740304002031C8A2B91
:102712008B2B8C2BC0010130EF022E001916080002
:10272200982B0130A1023C30A7002708A207200005
:1027320025082202031C9E2B9F2B922B2508220286
:10274200A7002608023E8600870127088100AF2BDA
:102752000130A0023C30A7002708A107240821026B
:10276200031CB42BB52BA92B24082102A700260A8F
:10277200860087012708810023082002A700260877
:102782008600870127088100080020002808290404
:102792000319CC2BCD2BF62BAD01AD0AD92B013071
:1027A200A835A90D890BD12B0130AC002C08AD073F
:1027B200A91FDC2BDD2BD02B29082B02031DE32BB9
:1027C20028082A02031CE62BE72BEB2B2808AA0277
:1027D2002908AB3B0130A936A80C890BEC2B013040
:1027E200AD02031DF52BF62BDD2B2B08A9002A08C1
:1027F200A800080020008E1AFF2B002C222C21009A
:102802003808031D052C062C092CB801B80A162C11
:1028120001302000E30063082100A40708302402ED
:10282200031C142C152C162CA40121302000E300CB
:102832007630890B1A2CE30B1A2C000083316C239F
:10284200933189319621933103302000680669045F
:1028520003192C2C2D2CFB2B2100B8010800200081
:102862008E1A342C352C572C21003908031D3A2C92
:102872003B2C3E2CB901B90A4B2C01302000E3005D
:1028820063082100A70733302702031C492C4A2C76
:102892004B2CA70121302000E3007630890B4F2C0E
:1028A200E30B4F2C000083316C2394318931962144
:1028B200943102302000680669040319612C622CED
:1028C200302C2100B901080020003108023E8600A8
:1028D20087010108031D6E2C6F2C7F2C04302F06FC
:1028E2003004031D752C762C7F2C6130B200320827
:1028F200EF00C9309031B92094319C2C3108023E4E
:10290200860087010103031D872C882C982C043034
:102912002F063004031D8E2C8F2C982C4130B200D0
:102922003208EF00C9309031B92094319C2CC93063
:1029320091312621943108002000A501A60120082A
:1029420021040319A52CA62CD52CA701A70AB22C69
:102952000130A035A10D890BAA2C0130A400240856
:10296200A707A11FB52CB62CA92C0130A535A60DA1
:10297200890BB72C21082302031DC12C2008220237
:10298200031CC42CC52CCA2C2008A2022108A33B7C
:1029920025140130A136A00C890BCB2C0130A702E3
:1029A200031DD42CD52CB62C2608A1002508A00086
:1029B2000800FD302000B2003208B300C630B20079
:1029C2003208B400210020082000B2003208B5000D
:1029D200210021082000B2003208B600210022089E
:1029E2002000B2003208B700210027082000B20000
:1029F2003208B800210024082000B2003208B900D1
:102A020041306F060319062D082D0130092D0030C3
:102A1200B2003208BA00FE30B2003208BB00093000
:102A2200A3000030A4003330B2003208A500923176
:102A320026229431080020009A01990196019701FB
:102A42009801073095000F309100FF309200BF309F
:102A52009300FF309400FF303E00D9004730CE0093
:102A6200EF30C3000730E4004F30B800DA01E5016F
:102A7200C401B901CF01E601BA01C501D001DB01F0
:102A8200FF30BB00FF30C600FF30D100FF30DC005A
:102A92000730E7000C303D0090001730CB001330B8
:102AA200C50014303E00A3001530A4000E3096007D
:102AB2001030A60014303D00C60008002000A3001C
:102AC20023000F0C890C01392000A20023001108F9
:102AD2001F3920002204031D6F2D702D612D23004C
:102AE20011141118752D762D722D23000F0C890CDF
:102AF20001392000A200230011081F3920002204FE
:102B0200031D842D852D762D4E3096310B26953161
:102B120023000F0C890C01392000A20023001108A8
:102B22001F3920002204031D972D982D892D23087B
:102B320096310B26953123000F0C890C01392000A8
:102B4200A200230011081F3920002204031DAA2D10
:102B5200AB2D9C2D230011151119B02DB12DAD2DCA
:102B6200080020003108023E860087010108B200F9
:102B7200B3013208B4003308B5003108033E8600C1
:102B820087010108B200B3013208B6003308B7006A
:102B9200B51BCC2DCD2D062E3508803AB2008030E3
:102BA2003202031DD62D323034020318D92DDA2D0C
:102BB200062E2000B71BDE2DDF2D062E3708803AA9
:102BC200B20080303202031DE82D083036020318AD
:102BD200EB2DEC2D062E053020002F063004031DB0
:102BE200F32DF42D062E310886008701423F210085
:102BF200A7002000310886008701433F2100A4007E
:102C0200C8309031B92095310A2EC8309131262131
:102C1200953108002000A100210823008C00901F9C
:102C2200132E142E152E642E0F3010052000A00036
:102C32000830200603191E2E1F2E382E0F302300B7
:102C420010052000A0000B3020060319292E2A2E81
:102C5200382E230010162E000F1C302E312E2C2E53
:102C620023000F19352E362E642E0F08642E0F30D6
:102C7200230010052000A000083020060319422E70
:102C8200432E4E2E0F30230010052000A0000B30E3
:102C92002006031D4D2E4E2E642E23000F18522E99
:102CA200532E4E2E23000F0C890C01392000A00058
:102CB200230011081F3920002004031D612E622EFB
:102CC200532E230011080800200068086904031D20
:102CD2006B2E6C2E822E21002308031D712E722E64
:102CE2007C2E2808031D762E772E7C2E25080319AC
:102CF2007B2E7C2E822EA301A801A501E801E80A01
:102D0200B52E200068036904031D882E892EAA2E81
:102D12007C08803AA00080302002031D922E0130F0
:102D22007B02031C952E962E9A2E0130FB07003053
:102D3200FC3D7C08803A2000A00080302002031D68
:102D4200A42E04307B02031CA72EA82EAA2EFB0160
:102D5200FC017B087C04031DAF2EB02EB52E013082
:102D62002000E8070030E93D11302000A0003A3091
:102D7200890BB92EA00BB92E00000800F601F11F35
:102D8200C32EC42ECB2EF009F109F00A0319F10A61
:102D9200F601F60AF31FCE2ECF2ED82EF209F30932
:102DA200F20A0319F30A0130F4007408F606F70177
:102DB200F801700871040319DF2EE02E0F2FF501C0
:102DC200F50AEC2E0130F035F10D890BE42E0130BD
:102DD200F4007408F507F11FEF2EF02EE32E0130F8
:102DE200F735F80D890BF12E71087302031DFB2EC6
:102DF20070087202031CFE2EFF2E042F7008F202CE
:102E02007108F33B77140130F136F00C890B052F72
:102E12000130F502031D0E2F0F2FF02E7608031935
:102E2200132F142F192FF709F809F70A0319F80AB3
:102E32007808F1007708F000080020008E1A222F8F
:102E4200232F7E2F7B087C04031D282F292F2E2F52
:102E52000130FB000030FC00722F7B037C04031D59
:102E6200332F342F442F173021002002031C3A2F16
:102E72003B2F3D2FA001722F01302000E300630899
:102E82002100A007722F02307B067C04031D4A2F0B
:102E92004B2F5B2F3B3021002106031D512F522F58
:102EA200542FA101722F01302000E300630821009A
:102EB200A107722F03307B067C04031D612F622F52
:102EC200722F3B3021002206031D682F692F6B2FC2
:102ED200A201722F01302000E30063082100A20743
:102EE200722F21302000E3007630890B762FE30B1E
:102EF200762F000083316C239731893196219731E7
:102F02002000680369040319872F882F1E2FFB01F5
:102F1200FC01080020003108023E860087010108FA
:102F2200B200B3013208B4003308B5003108033EE1
:102F3200860087010108B200B3013208B6003308E7
:102F4200B7003108043E860087010108B200B301D0
:102F52003208B8003308B900B51BB02FB12FFB2FD0
:102F62003508803AB20080303202031DBA2F183081
:102F720034020318BD2FBE2FFB2F2000B71BC22F18
:102F8200C32FFB2F3708803AB20080303202031D74
:102F9200CC2F3C3036020318CF2FD02FFB2F20002E
:102FA200B91BD42FD52FFB2F3908803AB2008030BD
:102FB2003202031DDE2F3C3038020318E12FE22FCC
:102FC200FB2F063020002F063004031DE92FEA2FC5
:102FD200FB2F3408B2003208E5003608B20032088E
:102FE200E6003808B2003208E700C1309031B9205B
:102FF2009731FF2FC13091312621973108006D346E
:103002001234C0348B341734C134E2341134C23434
:1030120092341234C33488341034C434D434103467
:10302200C534DA341434C6348A340834C734B2347A
:103032001534C83465341434C934DD341234CA3416
:103042000B340B34CB34F7340B34CC3425343034DA
:10305200323464343A3425343034323464343A34D9
:1030620025343034323464340034013400340A34C8
:10307200003464340034E834033410342734253403
:103082003034323464342034433400344C34203409
:0E309200253464340034433454344C34003458
:103EB20021003C08080027008E17080025008E17F5
:103EC200080027008E13080025008E1308009F317A
:103ED2005F279F3108009F3165279F3108002E0020
:103EE2000C109F31E6279F310800640080010131E8
:103EF200890B772F0034FE0012001E00FE0B7D2F6F
:103F020000342000A2002208933161239F3108006F
:103F12002F0096019701980199019A019B010800CF
:103F22002E0016102100B701B70A2E000C1016142D
:103F32000800200021082200BA00200020082200E8
:103F4200B9000800200021082200BC00200020083F
:103F52002200BB000800200021082200B800200037
:103F620020082200B7000800623031008D008F0166
:103F720091010230930092010800200021082100E3
:103F8200EC00200020082100EB0008002000A8001F
:103F9200A201A20A28088A3137229F310800FF3481
:103FA200FF34FF34FF34FF34FF34FF34013405346F
:103FB20003342300901ADE2FDF2FE52F8F012830E4
:103FC2009000910103308D00080022003708380468
:103FD2000319EC2FED2FF22F38088A0037080A0058
:103FE2009F310800803027008E00FF308D00C030E6
:0E3FF2008C0024001F08F33904389F000800DB
:020000040001F9
:0A000E00EC3FFF3F9F3FFF3FFF3F25
:00000001FF
