:020000040000FA
:1000000080315228053403347E1480312E00161CB2
:100010000A280B2813280C1C0E280F2813289231AD
:100020000622803150280B1F162817285028191E29
:100030001A281B2826280F1E1E281F2826282100C4
:1000400061088A0060080A0080315028991E29281A
:100050002A2835288F1E2D282E28352821005F08B4
:100060008A005E080A00803150281A1C3828392876
:100070004128101C3C283D2841289231F322803130
:100080005028991C442845284A288F1C482849286C
:100090004A285028191C4D284E2850280F0850284F
:1000A0007E100900803154289131EA218031FB0013
:1000B000803102208031ED00803103208031EE005C
:1000C0004630840092308500E3308600003087009F
:1000D0000830923130228031FA01553084000030EE
:1000E0008500183092312A228031C33084000030DC
:1000F0008500153092312A22803120308400013071
:100100008500143092312A228031A03084000130E1
:100110008500403092312A22803120308400023024
:100120008500403092312A2280317E1020008031BB
:1001300099289331A22380310030F200F3009231EC
:10014000DD2280319131FE2180319131F4218031E5
:100150000430F2000A30F30092311E2280314E301A
:10016000F2001230F3009231182280312100B901DF
:10017000BA01BA0ABB010030F8007030F9009231C0
:1001800069228031533A031DC628C728052921005A
:10019000BA010130BC000030BD0021003D08A100C3
:1001A0003C08A000A035A10DA035A10DA035A10DE2
:1001B0002008003EF8007030213DF900923169229C
:1001C00080312100A2002208B9070130BC070030AD
:1001D000BD3D3D08803AA00080302002031DF2287A
:1001E0000D303C02031CF528F628CD286830F800B5
:1001F0007030F900923169228031210039060319EB
:10020000022903290529BB01BB0A21003A08031D65
:100210000A290B2910293B0803190F291029BB298A
:1002200000302000A0007030A10053302100A00059
:1002300020082000A2009431BD248031013020002C
:10024000A0007030A10019302100A000200820007B
:10025000A2009431BD24803102302000A000703013
:10026000A10003302100A00020082000A20094314A
:10027000BD24803103302000A0007030A100053083
:100280002100A00020082000A2009431BD2480316C
:1002900004302000A0007030A1000C302100A0002C
:1002A00020082000A2009431BD24803105302000B8
:1002B000A0007030A100A2019431BD24803106302D
:1002C0002000A0007030A100A2019431BD24803133
:1002D00007302000A0007030A1001C302100A000D9
:1002E00020082000A2009431BD2480310830200075
:1002F000A0007030A10004302100A00020082000E0
:10030000A2009431BD24803109302000A00070305B
:10031000A10061302100A00020082000A20094313B
:10032000BD2480310A302000A0007030A100A2015D
:100330009431BD2480310B302000A0007030A1002A
:10034000A2019431BD2480310C302000A000703017
:10035000A100A2019431BD2480310D302000A00005
:100360007030A100AE302100A00020082000A200C3
:100370009431BD2480310130F8007030F9009231A1
:10038000692280312100A0002008FB000230F80023
:100390007030F9009231692280312100A0002008DC
:1003A0002000EE000330F8007030F900923169222D
:1003B00080312100A00020082000ED000430F8006A
:1003C0007030F9009231692280312100A0002008AC
:1003D0002000D5000530F8007030F9009231692214
:1003E00080312100A00020082000D6000630F8004F
:1003F0007030F9009231692280312100A00020087C
:100400002000D7000730F8007030F90092316922DF
:1004100080312100A0002008C9000830F8007030A9
:10042000F9009231692280312100A0002008C60025
:100430000930F8007030F9009231692280312100D2
:10044000A00020082000E7000A30F8007030F90012
:100450009231692280312100A00020082000D900BB
:100460000B30F8007030F9009231692280312100A0
:10047000A00020082000DA000C30F8007030F900ED
:100480009231692280312100A0002008FA00CA01BF
:10049000CB01C701C8012000D801923175228031FB
:1004A0002000931513163E00CF154F168A31722285
:1004B00080318B170B17A330860000308700143073
:1004C0002100A00000301E00A00B632AC101C20160
:1004D000B82A9231022280312100A0002008BE00FB
:1004E000FD303E060319752A762A7C2AFD30230644
:1004F000031D7B2A7C2AB12AFD303E06031D812A7A
:10050000822A902A0030F200F3001430F400003008
:10051000F500A3309331FA2380312100C101C201DB
:100520003E08A0004108A33E860087012008810004
:100530000130C1070030C23D143041064204031DA2
:10054000A22AA32AB12A0030F200F3001430F400EA
:100550000030F500A3309331FA2380312100C1012E
:10056000C201FE303E06031DB62AB72AB82AC02AA9
:100570009131EB218031003A031DBF2AC02A692A3C
:1005800021004108FF3EA33E86008701FE300106A0
:10059000031DCB2ACC2A2F2BBF01C0014008F3003A
:1005A0003F08F2000330F4000030F50094311824C5
:1005B0008031730885007208840002308407983007
:1005C000853D000821002406031DE72AE82A142B94
:1005D0004008F3003F08F2000330F4000030F5005B
:1005E000943118248031730885007208840000302B
:1005F00084079830853D003F2100B700013FB800D7
:1006000042082000A800210041082000A700A330D4
:100610002100A00020082000A900210038088A003D
:1006200037080A008331212B0130BF070030C03D5D
:10063000003040020D3003193F02031C202B212BF8
:10064000CE2A0030F200F3001430F4000030F50040
:10065000A3309331FA2380312100C101C20120006F
:100660005C085D04031D352B362B3A2B89313C2168
:100670008031B82A5C035D04031D3F2B402B442BC3
:100680008931A0218031B82A02305C065D04031D47
:100690004A2B4B2B4F2B963102268031B82A033040
:1006A0005C065D04031D552B562B5A2B9531D02526
:1006B0008031B82A04305C065D04031D602B612B79
:1006C000652B9531A2258031B82A5D08803A21003A
:1006D000A00080302002031D702B053020005C023A
:1006E000031C732B742BB82A2000DC01DD01B82A0F
:1006F0008031522820005E085F040319802B812B73
:100700009F2B2730A6009830A7005508BB00BC01DE
:100710003B08A8003C08A9005608BD00BE013D08E2
:10072000AA003E08AB005708BF00C0013F08AC005C
:100730004008AD004130853184258331BC2B273002
:10074000A6009830A7005908BB00BC013B08A800D0
:100750003C08A9005A08BD00BE013D08AA003E0899
:10076000AB005B08BF00C0013F08AC004008AD0013
:100770004130853184258331803092313E2283316E
:1007800041302000A1000030A20093318723833143
:1007900020005803031DCD2BCE2BD72B8B3092314D
:1007A0003E2283314330923160228331E52B5C0855
:1007B0005D04031DDC2BDD2BE52B8B3092313E22BB
:1007C0008331203092316022833121004A03031D9E
:1007D000EA2BEB2BF42B8C3092313E2283315430B8
:1007E000923160228331032C20005C085D04031DDC
:1007F000FA2BFB2B032C8C3092313E22833120309C
:1008000092316022833121004703031D082C092CFB
:10081000122C8D3092313E2283314C309231602245
:100820008331212C20005C085D04031D182C192C39
:10083000212C8D3092313E22833120309231602242
:1008400083318F3092313E2283312000670892310C
:1008500060228331413020006706031D302C312C8B
:100860009D2C5808031D352C362C412C21004A089C
:10087000031D3B2C3C2C412C47080319402C412CD8
:10088000972C2100630A031D462C472C592C20006D
:100890005908BB003B082100E30020005A08BB00B8
:1008A0003B082100E40020005B08BB003B0821005E
:1008B000E50043082000D000210044082000D100BA
:1008C000210045082000D2005908F2005A08F30020
:1008D0005B08F40021006308F5006408F600650871
:1008E000F70050302000BB003B08F800963134265A
:1008F0008331200052086D02031C7F2C802C832C36
:10090000E201E20A9D2C27008E1F872C882C9D2C4B
:100910002000E2010030F200F3009231DD22833149
:100920009131FE2183319131F42183319D2C2700B7
:100930008E1F9B2C9C2C9D2C882CC03092313E22EB
:100940008331200064080319A62CA72CB92C403051
:10095000A6009830A700210049082000BB00BC0178
:100960003B08A8003C08A900493085318425833123
:10097000C82C4030A6009830A7006608BB00BC0118
:100980003B08A8003C08A900493085318425833103
:1009900049302000A1000030A20093318723833129
:1009A000CD3092313E228331200063080319D92CC7
:1009B000DA2CEC2C4730A6009830A700210046081E
:1009C0002000BB00BC013B08A8003C08A9004D303A
:1009D000853184258331FB2C4730A6009830A70051
:1009E0006508BB00BC013B08A8003C08A9004D30CD
:1009F0008531842583314D302000A1000030A200D4
:100A000093318723833120005C085D040319092D8D
:100A10000A2D162D8B3092313E2283314C3020002E
:100A2000A1009830A20093318723833120005C031A
:100A30005D04031D1C2D1D2D4C2D5E085F04031D40
:100A4000222D232D282D8B3092313E228331832D70
:100A50005E035F04031D2D2D2E2D332D8130923129
:100A60003E228331832D02305E065F04031D392D43
:100A70003A2D3F2D843092313E228331832D033035
:100A80005E065F04031D452D462D4B2D87309231A8
:100A90003E228331832D832D02305C065D04031DCD
:100AA000522D532D622D6408031D572D582D5D2D99
:100AB0008C3092313E228331832DC13092313E22DF
:100AC0008331832D03305C065D04031D682D692D81
:100AD000782D6308031D6D2D6E2D732D8D30923191
:100AE0003E228331832DCF3092313E228331832DBC
:100AF00004305C065D04031D7E2D7F2D832D8F3019
:100B000092313E22833108002000BA002830AE0026
:100B10002E08B200092F253039060319902D912D8A
:100B20009D2D3908AE003A08860087012E08810005
:100B30000130AE002E08BA07092FB701B801B6017F
:100B4000A62D36150130A6070030A73D26088400E3
:100B5000270885000008303A0319A12DAF2D26087B
:100B600084002708850000089231CB228531031CC0
:100B7000BA2DBB2DEE2D2000B701B8010A30F200CE
:100B80000030F30020003808F5003708F4009431F5
:100B90001824853173082000B8007208B7002608B1
:100BA0008400270885000008D03EAE00FF300318FF
:100BB0000030AF002E08B7072F08B83D0130A60758
:100BC0000030A73D260884002708850000089231E0
:100BD000CB2285310318ED2DEE2DBE2D20002708E8
:100BE000AF002608AE00A60A0319A70A2E08840043
:100BF0002F0885000008B900003A03191D2F643A38
:100C00000319062E0D3A0319062E092F3208860005
:100C10008701403FB400413FB5000230AE002E08CE
:100C2000B207B51F142E152E1E2E0330AE002E084F
:100C3000B604B409B509B40A0319B50AB901B90A69
:100C40003908AE00AF01AE35AF0D36302E07840047
:100C500098302F3D8500003FB000013FB1003108C2
:100C60003502031D352E300834020318382E392E74
:100C70003A2E442E0130AE002E08B9070530390651
:100C8000031D432E442E202E370838040319492E05
:100C90004A2E542E3608033903194F2E502E542E47
:100CA000FF30B707FF30B83D3808803A803C031D5D
:100CB0005B2E3708390203185E2E5F2E682E200047
:100CC0003908AE00AF012E08B7022F08B83B6B2ED3
:100CD0002000B701B801361D6E2E6F2E9C2E3608EF
:100CE00003390319742E752E802E2D30AE003A086C
:100CF000860087012E0881000130AE002E08BA0759
:100D0000370838040319852E862EC82E3030AE00E1
:100D10003A08860087012E0881000130AE002E08B7
:100D2000BA07FF30B707FF30B83D37083804031D56
:100D30009A2E9B2E862EC82E370838040319A12E12
:100D4000A22EB72E2030AE003A08860087012E086A
:100D500081000130AE002E08BA07FF30B707FF3020
:100D6000B83D37083804031DB62EB72EA22E36081C
:100D700003390319BC2EBD2EC82E2D30AE003A0803
:100D8000860087012E0881000130AE002E08BA07C8
:100D90003908AE002E08B300002F0A30A000003042
:100DA000A1003308AE00AF01AE35AF0D36302E07CF
:100DB000840098302F3D8500003FF200013FF30092
:100DC0003508F5003408F40097314627853173085B
:100DD0002000A3007208A20096319D2685312000D4
:100DE0002008303EB0003008B9003908AE003A089B
:100DF000860087012E0881000130AE002E08BA0758
:100E0000FF30AE002E08B307330A031D082F092F49
:100E1000CD2E2708AF002608AE00A60A0319A70AA0
:100E20002E0884002F0885000008B0003008B900A3
:100E30003908031D1C2F1D2F8B2D3A0886008701B2
:100E400081010800F7007708F039F5007508F8000F
:100E50007708F5000330F535FF3E031D2B2F753560
:100E6000F039F6007608F90023000F0C890C0139DF
:100E7000F50011081F397504031D3F2F402F342F33
:100E800011141118442F452F412F0F0C890C0139D3
:100E9000F50011081F397504031D4F2F502F452FE2
:100EA0004E3088319420873123000F0C890C013992
:100EB000F50011081F397504031D5F2F602F542F93
:100EC00078087404083888319420873123000F0C87
:100ED000890C0139F50011081F397504031D712FA4
:100EE000722F662F780874040C388831942087316B
:100EF00023000F0C890C0139F50011081F39750406
:100F0000031D832F842F782F7808740408388831C4
:100F10009420873123000F0C890C0139F50011084A
:100F20001F397504031D952F962F8A2F7908740495
:100F3000083888319420873123000F0C890C01393F
:100F4000F50011081F397504031DA72FA82F9C2F2A
:100F5000790874040C3888319420873123000F0CF1
:100F6000890C0139F50011081F397504031DB92FCB
:100F7000BA2FAE2F7908740408388831942087314D
:100F800023000F0C890C0139F50011081F39750475
:100F9000031DCB2FCC2FC02F11151119D02FD12FFE
:100FA000CD2F0430890BD22F08002E009912373034
:100FB000F2001430F30092310C2287312E00191206
:100FC0000330F2001530F3009231122287310830DD
:100FD00022009F0090309D0024309E0019309B001D
:100FE0009C012000EC01EB014030F400740821006A
:100FF000E2002000EA01E901E8012E00991608004C
:101000000130250090008F019101FF308D008C018F
:101010002E009010803025008E000800F50023007F
:101020000F0C890C0139F40011081F397404031DD9
:101030001A281B280F28111411181F2820281C28D3
:101040000F0C890C0139F40011081F397404031DB9
:101050002A282B2820284E308831942088312300DC
:101060000F0C890C0139F40011081F397404031D99
:101070003A283B282F28750888319420883123008E
:101080000F0C890C0139F40011081F397404031D79
:101090004A284B283F28111511194F2850284C2851
:1010A000080020009A0199019601970198010730E4
:1010B00095000F309100FF309200BF309300FF3059
:1010C0009400FF303E00D9004730CE00EF30C3001F
:1010D0000730E4004F30B800DA01E501C401B9017E
:1010E000CF01E601BA01C501D001DB01FF30BB0031
:1010F000FF30C600FF30D100FF30DC000730E700D2
:101100000C303D0090001730CB001330C500143078
:101110003E00A3001530A4000E3096001030A6004B
:1011200014303D00C6000800F300730823008C0053
:10113000901F9B289C289D28DE280F301005F20068
:10114000083072060319A528A628BC280F30100500
:10115000F2000B3072060319AE28AF28BC28101617
:101160002E000F1CB428B528B02823000F19B92869
:10117000BA28DE280F08DE280F301005F2000830EC
:1011800072060319C428C528CE280F301005F200B6
:101190000B307206031DCD28CE28DE280F18D1286B
:1011A000D228CE280F0C890C0139F20011081F3902
:1011B0007204031DDC28DD28D22811080800200055
:1011C0005C085D04031DE528E628FE285808031D79
:1011D000EA28EB28F62821004A08031DF028F12808
:1011E000F62847080319F528F628FE282000D8011C
:1011F0002100CA01C701EA01EA0A332920005C0381
:101200005D04031D0429052928295F08803AF2009E
:1012100080307202031D0E2901305E02031C112969
:101220001229172901302000DE070030DF3D2000A1
:101230005F08803AF20080307202031D21290430D9
:101240005E02031C2429252928292000DE01DF0154
:1012500020005E085F04031D2E292F293329013049
:10126000DC070030DD3D1130F2003A30890B3629C1
:10127000F20B3629003208002100530803194129D6
:10128000422947298A31E42289312100D3015608B5
:1012900003194B294C2956298831DF208931210037
:1012A000D60183317A2389312100EA0155080319D7
:1012B0005A295B2960298E31732689312100D50195
:1012C0006A080319642965296A2983317A238931D7
:1012D0002100EA012000620803196F2970299F2963
:1012E00027008E1B742975297B299131FA218931B8
:1012F0009131EE21893121004D08803A2000D30040
:1013000084305302031D8729003021004C0203184A
:101310008A298B29912901302100CC070030CD3D4D
:1013200094292100CC01CD014D08F3004C08F200B6
:101330009231DD2289315330890B9C29000008004D
:1013400020008E1AA429A529F7295E085F04031D31
:10135000AA29AB29B0290130DE000030DF00EB29DB
:101360005E035F04031DB529B629C3291730550252
:10137000031CBB29BC29BE29D501EB290130D400AF
:101380005408D507EB2902305E065F04031DC92906
:10139000CA29D7293B305606031DCF29D029D22987
:1013A000D601EB290130D4005408D607EB290330CD
:1013B0005E065F04031DDD29DE29EB293B3057065D
:1013C000031DE329E429E629D701EB290130D400E4
:1013D0005408D707EB2921302000D4007630890B40
:1013E000EF29D40BEF29000083317A238931893129
:1013F0003C21893120005C035D040319002A012A85
:10140000A029DE01DF0108000130F0007008200093
:10141000DB073C305B06031D0E2A0F2A172A01301A
:10142000F0007008DA07DB012100D301D30A3C3059
:1014300020005A06031D1D2A1E2A232A0130F0000F
:101440007008D907DA0118305906031D282A292AFD
:101450002A2AD90141306706031D2F2A302A542A2F
:1014600057085B02031C352A362A542A56085A02AA
:10147000031C3B2A3C2A542A55085902031C412AC2
:10148000422A542A5E085F04031D472A482A542A28
:10149000FF30F00070082100E3002000D801D80AD6
:1014A0001930F0007008D5000310961F03140318BC
:1014B0005A2A5D2A200096175F2A200096132100E1
:1014C000EA01EA0A0130F0007008D40720006E0833
:1014D00021005402031C6D2A6E2A712AD401D50101
:1014E000D50A080011302000A0003A30890B762A76
:1014F000A00B762A0000303088310E208A3134303B
:1015000088310E208A312930890B842A003230300C
:1015100088310E208A31FA300032890B8C2A303023
:1015200088310E208A31343088310E208A312930BA
:10153000890B982A0032303088310E208A310830E9
:10154000890BA02A0000303088310E208A313430D7
:1015500088310E208A312930890BAC2A0032303094
:1015600088310E208A310830890BB42A00002030DF
:1015700088310E208A31243088310E208A3129307A
:10158000890BC02A0032203088310E208A31FA308F
:101590000032890BC82AF4012830873122278A318A
:1015A000F4010630873122278A31F4010F30873168
:1015B00022278A31F4010130873122278A31A6306F
:1015C000890BE02A0032080001302000A0007030B2
:1015D000A1007B08F9007908A2009431BD248A316A
:1015E00002302000A0007030A1006E08F9007908D8
:1015F000A2009431BD248A3103302000A000703055
:10160000A1006D08F9007908A2009431BD248A3147
:1016100004302000A0007030A1005508F9007908BE
:10162000A2009431BD248A3105302000A000703022
:10163000A1005608F9007908A2009431BD248A312E
:1016400006302000A0007030A1005708F90079088A
:10165000A2009431BD248A3107302000A0007030F0
:10166000A10021004908F90079082000A200943166
:10167000BD248A3108302000A0007030A100210074
:101680004608F90079082000A2009431BD248A316F
:1016900009302000A0007030A1006708F900790827
:1016A000A2009431BD248A310A302000A00070309D
:1016B000A1005908F9007908A2009431BD248A31AB
:1016C0000B302000A0007030A1005A08F900790802
:1016D000A2009431BD248A310C302000A00070306B
:1016E000A1007A08F9007908A2009431BD248A315A
:1016F0000D302000A0007030A100560857075A078F
:101700005507210049074607200059077B076E0748
:101710006D0767077A07F9007908A2009431BD24A4
:101720008A3108000530200027062804031D992B64
:101730009A2B732C290886008701423FBD00290897
:1017400086008701433FBC007A083C07AA002A08AC
:10175000BF007B083F02031CAE2BAF2BB52B7B08D1
:101760003C027A07AA002A08BF0060087B0603191A
:10177000BA2BBB2BBF2B3C08AA002A08BF003F088E
:101780007A02AA002A08B8003D086002031CC92B8F
:10179000CA2BD02B3D0838020318CF2BD02BD52BCA
:1017A000CC309331DC238B31772CFD30AA002A0812
:1017B000B400CC30AA002A08B5003D08AA002A08C7
:1017C000B6003C08AA002A08B7000430F500003033
:1017D000F6003430AA002A08F70094319A248B319D
:1017E00020003F08AA00AB012A08BA002B08BB0062
:1017F0005D2CBE013E08AA00AB013B08F3003A088D
:10180000F2000530F4000030F500943118248B31DB
:1018100020002A087207AC002B08733DAD002C088D
:10182000123EF80070302D3DF900923169228B3163
:101830002000AE003E082F3E860087012E08810062
:101840000130AA002A08BE0705303E02031C292CDD
:101850002A2CFA2B0530F5000030F6002F30AA00B4
:101860002A08F70094319A248B3120006108AA00DD
:10187000AB013B082B06031D3F2C3A082A06031D2B
:10188000422C432C472C0130AA002A08E1070130E2
:10189000BA070030BB3D0130BD023B08803AAA00C8
:1018A00080302A02031D562C7B083A02031C592C57
:1018B0005A2C5D2C2000BA01BB0120003D08031DFD
:1018C000622C632CF92BFE30AA002A08B9000130E3
:1018D000F5000030F6003930AA002A08F7009431EC
:1018E0009A248B31772CCC309331DC238B31080058
:1018F0000430200027062804031D7F2C802C612D36
:101900002908023E860087010108AA00AB012A08C7
:10191000BF002B08C00061087A02BD00BE01031C95
:10192000BE03BE1F942C952CA32C6108AA00AB010A
:101930007A087B07AC00AD01AD0D2A082C02BD0072
:101940002B082D3BBE004008803A803C031DAA2C8A
:101950003F086002031CAD2CAE2CBD2C20003E08BD
:10196000803AAA004008803A2A02031DB92C3F0899
:101970003D020318BC2CBD2CC22CCB309331DC2390
:101980008C31652DFD302000AA002A08B500CB302F
:10199000AA002A08B6003F08AA002A08B7000330A8
:1019A000F5000030F6003530AA002A08F70094311F
:1019B0009A248C312000B801B901422D2000C101C8
:1019C0004108AA00AB016108AC00AD012C08F2008F
:1019D0002D08F3000530F4000030F5009431182490
:1019E0008C3120002A087207AE002B08733DAF002F
:1019F0002E08123EBA0070302F3DBB003B08F900A4
:101A00003A08F800923169228C312000AA0041087E
:101A1000303E860087012A0881000130AA002A088A
:101A2000C10705304102031C162D172DE02C05308F
:101A3000F5000030F6003030AA002A08F700943193
:101A40009A248C3101302000AA002A08E1077B0883
:101A5000FF3EAA00FF3003180030AB002B08803A8D
:101A6000AC0080302C02031D372D61082A020318B8
:101A70003A2D3B2D3D2D2000E10101302000B8071B
:101A80000030B93D3908803AAA004008803A2A025D
:101A9000031D4C2D3F083802031C4F2D502DDE2C0A
:101AA000FE302000AA002A08BC000130F5000030FA
:101AB000F6003C30AA002A08F70094319A248C31B1
:101AC000652DCB309331DC238C31080023000F0CC3
:101AD000890C0139F40011081F397404031D712D9C
:101AE000722D662D11141118762D772D732D0F0C74
:101AF000890C0139F40011081F397404031D812D6C
:101B0000822D772D9A30883194208D3123000F0C4F
:101B1000890C0139F40011081F397404031D912D3B
:101B2000922D862D0130883194208D3123000F0CA9
:101B3000890C0139F40011081F397404031DA12D0B
:101B4000A22D962D91149118A62DA72DA32D0F0C23
:101B5000890C0139F40011081F397404031DB12DDB
:101B6000B22DA72D9B30883194208D3123000F0C8E
:101B7000890C0139F40011081F397404031DC12DAB
:101B8000C22DB62D933152238D31F4007408F50027
:101B900023000F0C890C0139F40011081F3974045B
:101BA000031DD32DD42DC82D91161116111AD92D20
:101BB000DA2DD62D0F0C890C0139F40011081F39CC
:101BC0007404031DE42DE52DDA2D11151119E92DED
:101BD000EA2DE62D751FED2DEE2D662D0F0C890CCF
:101BE0000139F40011081F397404031DF82DF92D73
:101BF000EE2D11141118FD2DFE2DFA2D0F0C890C50
:101C00000139F40011081F397404031D082E092E30
:101C1000FE2D9A30883194208D3123000F0C890CD1
:101C20000139F40011081F397404031D182E192EF0
:101C30000D2E0030883194208D3123000F0C890C3B
:101C40000139F40011081F397404031D282E292EB0
:101C50001D2E911491182D2E2E2E2A2E0F0C890C2C
:101C60000139F40011081F397404031D382E392E70
:101C70002E2E9B30883194208D3123000F0C890C3F
:101C80000139F40011081F397404031D482E492E30
:101C90003D2E933152238D31F4007408F50023005A
:101CA0000F0C890C0139F40011081F397404031D4D
:101CB0005A2E5B2E4F2E91161116111A602E612E80
:101CC0005D2E0F0C890C0139F40011081F397404C2
:101CD000031D6B2E6C2E612E11151119702E712E95
:101CE0006D2E750808008D3166258E312000A30009
:101CF0002308E60000309231B9228E3172082000AC
:101D0000A3007308A4000D30A436A30C890B842E05
:101D10002308A5002508E5006608A300A40121000A
:101D2000690820002406031D992E21006808200060
:101D30002306031D9C2E9D2EAE2E6508A300A40134
:101D40002100670820002406031DAA2E2100660832
:101D5000200023060319AD2EAE2EB02F7A08A30063
:101D6000A4012308F2002408F3000530F400003039
:101D7000F500943118248E317208123E2000A00024
:101D80007030733DA1005908A5002508A2009431C8
:101D9000BD248E317A082000A300A4012308F2009C
:101DA0002408F3000530F4000030F50094311824C5
:101DB0008E317208133E2000A0007030733DA100E8
:101DC0005A08A5002508A2009431BD248E317A0856
:101DD0002000A300A4012308F2002408F30005302A
:101DE000F4000030F500943118248E317208143E4E
:101DF0002000A0007030733DA1005B08A5002508FD
:101E0000A2009431BD248E317A082000A300A401E1
:101E10002308F2002408F3000530F4000030F50038
:101E2000943118248E317208153E2000A0007030C5
:101E3000733DA1006608A5002508A2009431BD24C9
:101E40008E317A082000A300A4012308F2002408A0
:101E5000F3000530F4000030F500943118248E3181
:101E60007208163E2000A0007030733DA100650886
:101E7000A5002508A2009431BD248E312000600801
:101E80007B06031D442F452F572F7A08FF3EA300E2
:101E9000FF3003180030A400610823062404031D4A
:101EA000522F532F572F0130A3002308E107013091
:101EB000A3002308FA077B08FF3EA300FF300318A6
:101EC0000030A4002408803AA50080302502031DBC
:101ED0006B2F7A08230203186E2F6F2F732F2100A8
:101EE000D201D20AFA01210052080319782F792F62
:101EF0007F2F7B082000A3002308E000842F0130FF
:101F00002000A3002308E0077B08FF3EA300FF306A
:101F100003180030A4002408803AA5008030250270
:101F2000031D942F610823020318972F982F9A2FCF
:101F30002000E10120006608A300A401230821007D
:101F4000E800200024082100E90020006508A30023
:101F5000A40123082100E600200024082100E70056
:101F6000413020006706031DB62FB72FFF2F210039
:101F70004608200065020318BE2FBF2FD72F630825
:101F8000031DC32FC42FD72F21004808031DC92FBD
:101F9000CA2FD02FFF302000A30023082100E30028
:101FA000C801C80AC701C70A20001616DB2F210086
:101FB000C801200016126608210049020318E12F0B
:101FC000E22FFB2F20006408031DE72FE82FFB2FD3
:101FD00021004B08031DED2FEE2FF42FFF302000C2
:101FE000A30023082100E300CB01CB0ACA01CA0ADF
:101FF00020009616FF2F2100CB012000961208002A
:1023D00008000800193420006808080027008E173C
:1023E000080025008E17080027008E13080025001E
:1023F0008E1308009131F121913108009131F721BC
:10240000913108009431E024923108002E000C1024
:10241000923181229231080073082100DF00720896
:10242000DE00080073082100E1007208E0000800E7
:1024300073082100D9007208D80008007308210031
:10244000DB007208DA000800F40074089531762584
:1024500092310800640080010131890B2B2A00347D
:10246000FE0012001E00FE0B312A00342F009601E0
:102470009701980199019A019B0108002000A00092
:10248000F40120088731222792310800FF34FF34FD
:10249000FF34FF34FF34FF34FF3401342E001610B4
:1024A0002100D601D60A2E000C1016140800623046
:1024B00031008D008F0191010230930092010800DC
:1024C0002000A000F401F40A20088731222792316D
:1024D0000800790830009B0078089A001E171E1427
:1024E0000000000030001C0808002300901A792A20
:1024F0007A2A802A8F0128309000910103308D00C4
:1025000008002100580859040319872A882A8D2AAF
:1025100059088A0058080A00923108002E000C1051
:102520000B14E830F2001130F3009231182292318E
:102530002E0016140800803027008E00FF308D001A
:10254000C0308C0024001F08F33904389F000800B5
:1025500024000E1DAC2AAD2AB42A0E1071088D007D
:1025600070088C000E14B82A71088D0070088C0059
:102570000800F500750821009E009317131313142B
:10258000000021001318C52AC62AC12A0D08F3002D
:102590000C08F2000800F300F2013A30730203184D
:1025A000D22AD32ADB2A30307302031CD82AD92A34
:1025B000DB2AF201F20A720C08007308F5007208B7
:1025C000F400F536F40CF536F40C740827008D0091
:1025D00072080339F4000530F435FF3E031DEC2A80
:1025E00074358C0008002E00101021005D08F100E9
:1025F0005C08F0009231A822923121005A085B0455
:102600000319032B042B092B5B088A005A080A00C4
:102610009331080022008E018F01900191019201F7
:1026200093018D0121009E019B019401950196016A
:1026300097019A019901980180309300FF309D0025
:1026400008000430200027062804031D282B292B0E
:10265000332B290886008701423FEE00C4309331B6
:102660006C239331372BC4309331DC239331080032
:1026700020002908023E860087013C300102031831
:10268000422B432B4D2B290886008701423FED004A
:10269000C53093316C239331512BC5309331DC23FA
:1026A000933108000F3023001005F2000830720645
:1026B00003195B2B5C2B652B0F301005F2000B30E0
:1026C0007206031D642B652B662B91150F1C692B5D
:1026D0006A2B662B0C0808002000A200FD30F900D0
:1026E0007908A3002208F9007908A400A501FE30AA
:1026F000F9007908A6000430F5000030F600233018
:10270000F9007908F70094319A24933108008C2B52
:10271000260892316022933120002208A40021086B
:10272000A300A10A0319A20A230884002408850033
:102730000008A5002508A6002608031DA02BA12B34
:10274000882B080092313622933188315120933101
:1027500092315722933192319B22933193310A2344
:1027600093318831002093319331BE2393319231DC
:102770008E2293318731D5279331080024008F01B1
:1027800090010430910086308D00E8308C000D08F7
:102790002100DD0024000C082100DC002E001010B8
:1027A0001A14E930F2001130F30092311E229331F5
:1027B000053024008E0008002000A200FD30F90042
:1027C0007908A3002208F9007908A400FF30F90075
:1027D0007908A500FE30F9007908A6000430F5005C
:1027E0000030F6002330F9007908F70094319A247C
:1027F00093310800F8007808F6007608F7000B2CF3
:102800007208F6007708860087017608810001309B
:10281000F6007608F7070130F4020030F53B740A41
:10282000031D162C750A031D162C172C002C0800EE
:10283000F601F701721C1D2C1E2C222C7408F607C1
:102840007508F73D0130F435F50D890B232C013067
:10285000F336F20C890B282C72087304031D312CFB
:10286000322C1A2C7708F3007608F20008002200B8
:102870009D1C3B2C3C2C3E2C1D121D161908F000F3
:1028800020006A08203E8600023087007008810020
:102890000130F0007008EA0740306A02031C512C36
:1028A000522C532CEA010130F0007008E8070800B0
:1028B000FD302000AA002A08AB00C230AA002A0876
:1028C000AC006608AA002A08AD006508AA002A081C
:1028D000AE00FE30AA002A08AF000530F500003037
:1028E000F6002B30AA002A08F70094319A2494317C
:1028F0000800FD302000AA002A08AB00C330AA005F
:102900002A08AC006E08AA002A08AD006D08AA00CB
:102910002A08AE00FE30AA002A08AF000530F500F4
:102920000030F6002B30AA002A08F70094319A24D0
:10293000943108002000A001A101AE2C2000200845
:102940007707F80078088600870101089231242271
:10295000943101302000A0070030A13D2108803AC9
:10296000F8007608803A7802031DB82C750820021A
:10297000031CBB2CBC2C9E2C080000308B1B013090
:10298000F8002000210830009B00200020083000C3
:102990009A002000220830009C001E171E158B1381
:1029A00055309F00AA309F009E149E18D82CD92C19
:1029B000D52C1E11780C031C8B1303188B170800E1
:1029C000200068080319E52CE62CE02C6908203E5D
:1029D0008600023087000108F2007208F30001301F
:1029E000F2007208E90740306902031CF82CF92C48
:1029F000FA2CE9012E00991201302000E8022E0085
:102A00009916730808004030210062020318092D4E
:102A10000A2D252D20006B08A03E8600013087007E
:102A2000010822009A000130F00070082000EB0736
:102A300040306B02031C1D2D1E2D1F2DEB0101309C
:102A4000F00070082100E207272D2E00191208005F
:102A5000FD302000AA002A08AB00C030AA002A08D6
:102A6000AC005908AA002A08AD005A08AA002A0892
:102A7000AE005B08AA002A08AF00FE30AA002A08B0
:102A8000B0000630F5000030F6002B30AA002A080E
:102A9000F70094319A2495310800FD302000AA00F7
:102AA0002A08AB00CA30AA002A08AC007B08AA009A
:102AB0002A08AD006008AA002A08AE006108AA0032
:102AC0002A08AF007A08AA002A08B000FE30AA003F
:102AD0002A08B1000730F5000030F6002B30AA00BC
:102AE0002A08F70094319A2495310800F300210058
:102AF000620803197C2D7D2D772D2E00191A812D4A
:102B0000822D862D730822009A009F2D19127308BA
:102B1000F20020006C08A03E860001308700720899
:102B200081000130F2007208EC0740306C02031C97
:102B30009A2D9B2D9C2DEC0101302100E2022E00EC
:102B40001916080020008E1AA62DA72DC22D41307F
:102B50006706031DAC2DAD2DB22D6130D400540895
:102B6000E700B62D4130D4005408E70021302000A2
:102B7000D4007630890BBA2DD40BBA2D00008331E6
:102B80007A23953189313C219531043020005C064F
:102B90005D040319CC2DCD2DA22DDC01DD01080033
:102BA00020008E1AD42DD52DF52D6308031DD92DA7
:102BB000DA2DDD2DE301E30AE92D0130D4005408BC
:102BC0002100C60708304602031CE72DE82DE92D39
:102BD000C60121302000D4007630890BED2DD40BB6
:102BE000ED2D000083317A23953189313C219531D7
:102BF000033020005C065D040319FF2D002ED02D4C
:102C0000E301080020008E1A062E072E272E6408E6
:102C1000031D0B2E0C2E0F2EE401E40A1B2E013097
:102C2000D40054082100C90733304902031C192E6F
:102C30001A2E1B2EC90121302000D4007630890BBA
:102C40001F2ED40B1F2E000083317A239631893139
:102C50003C219631023020005C065D040319312EC0
:102C6000322E022EE40108003B2E0130F3023C30EC
:102C7000F9007908F40777087402031C402E412EEE
:102C8000352E77087402F9007808023E8600870125
:102C900079088100512E0130F2023C30F9007908A8
:102CA000F30776087302031C562E572E4B2E760818
:102CB0007302F900780A8600870179088100750897
:102CC0007202F900780886008701790881000800FF
:102CD0002000290886008701423FAA0029088600B3
:102CE0008701433FAB0032302A020318782E792E39
:102CF000982E08302B0203187E2E7F2E982E05303A
:102D000027062804031D852E862E982E2908860066
:102D10008701423F2100C900200029088600870161
:102D2000433F2100C600C83093316C2396319C2E5E
:102D3000C8309331DC23963108002000200821049C
:102D40000319A32EA42ECD2EA501A50AB02E013065
:102D5000A035A10D890BA82E0130A4002408A507D9
:102D6000A11FB32EB42EA72E21082302031DBA2EB5
:102D700020082202031CBD2EBE2EC22E2008A20255
:102D80002108A33B0130A136A00C890BC32E0130D2
:102D9000A502031DCC2ECD2EB42E2308A10022089F
:102DA000A000080020002908023E860087010108D3
:102DB000031DDB2EDC2EEC2E043027062804031D19
:102DC000E22EE32EEC2E6130AA002A08E700C9307B
:102DD00093316C239631092F2908023E8600870122
:102DE0000103031DF42EF52E052F043027062804B9
:102DF000031DFB2EFC2E052F4130AA002A08E700F8
:102E0000C93093316C239631092FC9309331DC23BB
:102E100096310800FD302000AA002A08AB00C63019
:102E2000AA002A08AC005508AA002A08AD005608D6
:102E3000AA002A08AE005708AA002A08AF002100FD
:102E400049082000AA002A08B000210046082000F6
:102E5000AA002A08B100413067060319302F322F2B
:102E60000130332F0030AA002A08B200FE30AA0039
:102E70002A08B3000930F5000030F6002B30AA0014
:102E80002A08F70094319A2497310800F701F801D5
:102E90007208730403194D2F4E2F7D2FF901F90A83
:102EA0005A2F0130F235F30D890B522F0130F60005
:102EB0007608F907F31F5D2F5E2F512F0130F7358C
:102EC000F80D890B5F2F73087502031D692F7208B7
:102ED0007402031C6C2F6D2F722F7208F40273089A
:102EE000F53B77140130F336F20C890B732F013068
:102EF000F902031D7C2F7D2F5E2F7808F3007708E1
:102F0000F20008002000290886008701423FAB003C
:102F1000290886008701433FAC0029088600870105
:102F2000443FAD0018302B020318972F982FBC2F69
:102F30003C302C0203189D2F9E2FBC2F3C302D02BD
:102F40000318A32FA42FBC2F063027062804031D27
:102F5000AA2FAB2FBC2F2B08AA002A08D9002C08B7
:102F6000AA002A08DA002D08AA002A08DB00C130CE
:102F700093316C239731C02FC1309331DC239731CB
:102F800008002000290886008701423FAB0029087D
:102F900086008701433FAC00290886008701443F33
:102FA000AD0018302B020318D62FD72FFB2F3C3043
:102FB0002C020318DC2FDD2FFB2F3C302D020318D1
:102FC000E22FE32FFB2F063027062804031DE92FED
:102FD000EA2FFB2F2B08AA002A08D5002C08AA00EC
:102FE0002A08D6002D08AA002A08D700C730933136
:102FF0006C239731FF2FC7309331DC2397310800C2
:1030000028341534C03482341734C134583414345D
:10301000C23479341434C33421341334C4343834CE
:103020001334C5340A341734C634C1341734C734A2
:1030300068341634C834D2341634C9344D34153497
:10304000CA3478340C34CB3492340B34CC34253439
:103050003034323464343A342534303432346434E5
:103060003A3425343034323464340034013400349A
:103070000A34003464340034E83403341034273420
:1030800025343034323464342034433400344C3406
:103090002034253464340034433454344C34003404
:020000040001F9
:0A000E00EC3FFF3F9F3FFF3FFF3F25
:00000001FF
