:020000040000FA
:1000000080316A28080008007E1480312E00161CFA
:100010000A280B2813280C1C0E280F2813289431AB
:100020005E24803168280B1F162817286828191E9F
:100030001A281B2826280F1E1E281F2826282200C3
:1000400036088A0035080A0080316828991E292858
:100050002A2835288F1E2D282E28352822003408DE
:100060008A0033080A00803168281A1E3828392887
:100070004128101E3C283D28412895319925803182
:1000800068281A1D442845284D28101D482849284D
:100090004D2895318225803168281A1C5028512816
:1000A0005928101C54285528592895316B25803122
:1000B0006828991C5C285D2862288F1C60286128AC
:1000C00062286828191C6528662868280F0868288F
:1000D0007E10090080316C289630840094308500B1
:1000E00067308600003087000730943182248031E9
:1000F0004D308400003085001A3094317C248031EA
:10010000E3308400003085000D3094317C24803150
:100110002030840001308500133094317C248031FC
:100120007E102000803194289631F02680310030F6
:100130002100A000A1009531C725803194315624BB
:100140008031943148248031F5302100A000063000
:10015000A10094316A2480312D302100A0000330A9
:10016000A100943170248031E2302100A0000E30D3
:10017000A10094317624803118302100A0000B308A
:10018000A1009431642480312100CC01CD01CD0A3D
:10019000CE010030A0007030A100953101258031E2
:1001A000533A031DD428D52814292100CD0101304C
:1001B000CF000030D00021005008B6004F08B50035
:1001C000B535B60DB535B60DB535B60D3508003EAD
:1001D000A0007030363DA10095310125803121000D
:1001E000B7003708CC070130CF070030D03D5008AA
:1001F000803AB50080303502031D00290D304F02D2
:10020000031C03290429DB2868302100A00070307A
:10021000A10095310125803121004C0603191129D7
:1002200012291429CE01CE0A21004D08031D1929D7
:100230001A291F294E0803191E291F29B729003022
:10024000A0007030A1005330B5003508A2009731EE
:100250003527803108302100A0007030A10019300E
:10026000B5003508A20097313527803110302100C4
:10027000A0007030A1000330B5003508A20097310E
:100280003527803118302100A0007030A1000530E2
:10029000B5003508A2009731352780312030210084
:1002A000A0007030A1000C30B5003508A2009731D5
:1002B0003527803128302100A0007030A100A20134
:1002C00097313527803130302100A0007030A100F7
:1002D000A20197313527803138302100A0007030DD
:1002E000A1001C30B5003508A200973135278031B8
:1002F00040302100A0007030A1000430B500350866
:10030000A20097313527803148302100A00070309D
:10031000A1006130B5003508A20097313527803142
:1003200050302100A0007030A100A2019731352784
:10033000803158302100A0007030A100A201973117
:100340003527803160302100A0007030A100A2016B
:1003500097313527803168302100A0007030A1002E
:10036000AE30B5003508A20097313527803108300E
:100370002100A0007030A1009531012580312100BD
:10038000B5003508EF001030A0007030A1009531A5
:10039000012580312100B5003508EE001830A0009D
:1003A0007030A1009531012580312100B50035085C
:1003B0002000E60020302100A0007030A10095311F
:1003C000012580312100B50035082000CD002830FE
:1003D0002100A0007030A10095310125803121005D
:1003E000B50035082000CE0030302100A00070306C
:1003F000A1009531012580312100B500350820008C
:10040000CF0038302100A0007030A10095310125C7
:1004100080312100B50035082000D4004030210093
:10042000A0007030A1009531012580312100B50078
:1004300035082000D10048302100A0007030A10014
:100440009531012580312100B50035082000E500F7
:1004500050302100A0007030A1009531012580317D
:100460002100B50035082000D70058302100A00039
:100470007030A1009531012580312100B50035088B
:100480002000D80060302100A0007030A10095311C
:10049000012580312100B5003508ED002000D5018F
:1004A000D601D201D301D0019431BF248031200084
:1004B000931513163E00CF154F168B31D82380317C
:1004C0008B170B172100D201D301992A992A943155
:1004D0005A2480312100B5003508D100FD30510685
:1004E0000319732A742A7A2AFD303806031D792AE3
:1004F0007A2A992AFD305106031D7F2A802A822AF2
:10050000D201D3015108B5005208B83E86008701D8
:10051000350881000130D2070030D33D1430520637
:100520005304031D942A952A992AB801B80AD201C6
:10053000D301943145248031003A031DA02AA12A19
:10054000672A21005208B83E86008701FE30010666
:10055000031DAB2AAC2AF82AD401D5015508A10005
:100560005408A0000330A2000030A3009631AF264B
:100570008031210021088500200884001B30840779
:100580009830853D00083906031DC72AC82AE62A87
:100590000030A600A700A8015508A1005408A0003B
:1005A0000330A2000030A3009631AF268031210035
:1005B0002108850020088400193084079830853D83
:1005C000013F8A00003F0A008231F32A0130D4073C
:1005D0000030D53D00305502033003195402031C8E
:1005E000F22AF32AAE2A2100B801B80AD201D301B7
:1005F00020005A085B04031DFE2AFF2A002B992ABB
:100600005A035B04031D052B062B0A2B8B31742325
:100610008031992A02305A065B04031D102B112BDE
:10062000152B88313F208031992A03305A065B040C
:10063000031D1B2B1C2B202B883112208031992A63
:1006400004305A065B04031D262B272B662A97319C
:10065000D4278031992A80316A2820005C085D0403
:100660000319332B342B522B0030A0009830A100FB
:100670004D08B500B6013508A2003608A3004E08A3
:10068000B700B8013708A4003808A5004F08B90022
:10069000BA013908A6003A08A7003B308531582531
:1006A00083316F2B0030A0009830A1005708B500AF
:1006B000B6013508A2003608A3005808B700B801F3
:1006C0003708A4003808A5005908B900BA0139084C
:1006D000A6003A08A7003B30853158258331803089
:1006E0009431882483313B30F9000030FA00953191
:1006F000FA258331413020006506031D802B812BB4
:100700006F2C8F3094318824833120006508943118
:100710009D24833120005003031D8F2B902B992B98
:100720008B30943188248331433094319D2483313C
:10073000A72B5A085B04031D9E2B9F2BA72B8B30E6
:10074000943188248331203094319D2483312000DA
:100750005503031DAC2BAD2BB62B8C309431882464
:100760008331543094319D248331C42B5A085B0467
:10077000031DBB2BBC2BC42B8C30943188248331BC
:10078000203094319D24833120005203031DC92B56
:10079000CA2BD32B8D309431882483314C30943143
:1007A0009D248331E12B5A085B04031DD82BD92BE0
:1007B000E12B8D30943188248331203094319D2475
:1007C000833120005008031DE62BE72BF12B550841
:1007D000031DEB2BEC2BF12B52080319F02BF12B03
:1007E000692C670A031DF52BF62B022C5708B50060
:1007F0003508E7005808B5003508E8005908B50085
:100800003508E900220030082000CA002200310823
:100810002000CB00220032082000CC005708F00056
:100820005808F1005908F2006708F3006808F4005E
:100830006908F5004A30B5003508F60088316C20AB
:10084000833120004C086602031C272C282C552CD1
:100850002100EC01EC0A27008E1B2F2C302C362CAB
:1008600094314E24833194313924833120005F0840
:10087000803AB50081303502031D402C4B305E02BA
:100880000318432C442C4A2C1E302000DE07003075
:10089000DF3D4D2C2000DE01DF015F08F1005E0826
:1008A000F000953155258331782C27008E1F592C67
:1008B0005A2C782C2100EC010030F000F100953129
:1008C0005525833194315224833194313F2483312F
:1008D000782C27008E1F6D2C6E2C782C5A2C8F3084
:1008E0009431882483312000650894319D2483311C
:1008F000C030943188248331200061080319812C91
:10090000822C922C2230A0009830A1005408B5000F
:10091000B6013508A2003608A300433085315825BA
:100920008331A12C2230A0009830A1006308B500CB
:10093000B6013508A2003608A3004330853158259A
:1009400083314330F9000030FA009531FA258331C4
:10095000CD30943188248331200060080319B12CF4
:10096000B22CC22C2930A0009830A1005108B5004B
:10097000B6013508A2003608A30047308531582556
:100980008331D12C2930A0009830A1006208B50035
:10099000B6013508A2003608A30047308531582536
:1009A00083314730F9000030FA009531FA25833160
:1009B00020005A085B040319DE2CDF2CEA2C8B3054
:1009C0009431882483312E30F9009830FA00953123
:1009D000FA25833120005A035B04031DF02CF12C0F
:1009E000202D5C085D04031DF62CF72CFC2C8B30AD
:1009F000943188248331572D5C035D04031D012D40
:100A0000022D072D8130943188248331572D0230F7
:100A10005C065D04031D0D2D0E2D132D84309431C5
:100A200088248331572D03305C065D04031D192D86
:100A30001A2D1F2D8730943188248331572D572D3F
:100A400002305A065B04031D262D272D362D610822
:100A5000031D2B2D2C2D312D8C3094318824833186
:100A6000572DC130943188248331572D03305A06D5
:100A70005B04031D3C2D3D2D4C2D6008031D412DB5
:100A8000422D472D8D30943188248331572DCF301E
:100A9000943188248331572D04305A065B04031D9A
:100AA000522D532D572D8F309431882483310800D7
:100AB0002000B4002230A8002808AC00DC2E25302D
:100AC00033060319642D652D712D3308A8003408F1
:100AD00086008701280881000130A8002808B40793
:100AE000DC2EB101B201B0017A2D30150130A00722
:100AF0000030A13D20088400210885000008303A1C
:100B00000319752D832D2008840021088500000815
:100B1000953143258531031C8E2D8F2DC22D20004C
:100B2000B101B2010A30F0000030F10020003208BB
:100B3000F3003108F2009631332685317108200028
:100B4000B2007008B1002008840021088500000868
:100B5000D03EA800FF3003180030A9002808B107D4
:100B60002908B23D0130A0070030A13D20088400D3
:100B70002108850000089531432585310318C12DD2
:100B8000C22D922D20002108A9002008A800A00A4B
:100B90000319A10A28088400290885000008B30069
:100BA000003A0319F02E643A0319DA2D0D3A0319AD
:100BB000DA2DDC2E2C0886008701403FAE00413F35
:100BC000AF000230A8002808AC07AF1FE82DE92DC0
:100BD000F22D0330A8002808B004AE09AF09AE0A10
:100BE0000319AF0AB301B30A3308A800A901A83555
:100BF000A90D0F30280784009830293D8500003F5B
:100C0000AA00013FAB002B082F02031D092E2A0862
:100C10002E0203180C2E0D2E0E2E182E0130A800B9
:100C20002808B30705303306031D172E182EF42DA0
:100C30003108320403191D2E1E2E282E30080339C8
:100C40000319232E242E282EFF30B107FF30B23D8A
:100C50003208803A803C031D2F2E310833020318DE
:100C6000322E332E3C2E20003308A800A90128087C
:100C7000B1022908B23B3F2E2000B101B201301D64
:100C8000422E432E702E300803390319482E492E68
:100C9000542E2D30A80034088600870128088100D2
:100CA0000130A8002808B407310832040319592E6E
:100CB0005A2E9C2E3030A800340886008701280860
:100CC00081000130A8002808B407FF30B107FF30C9
:100CD000B23D31083204031D6E2E6F2E5A2E9C2E0B
:100CE000310832040319752E762E8B2E2030A80081
:100CF000340886008701280881000130A8002808F0
:100D0000B407FF30B107FF30B23D31083204031D94
:100D10008A2E8B2E762E300803390319902E912EB1
:100D20009C2E2D30A80034088600870128088100F9
:100D30000130A8002808B4073308A8002808AD002F
:100D4000D32E0A30F8000030F9002D08A800A901C0
:100D5000A835A90D0F30280784009830293D85005B
:100D6000003FF000013FF1002F08F3002E08F200D1
:100D700089310C2185317108FB007008FA00883137
:100D8000A02085317808303E2000AA002A08B30050
:100D90003308A80034088600870128088100013044
:100DA000A8002808B407FF30A8002808AD072D0ABE
:100DB000031DDB2EDC2EA12E2108A9002008A8008F
:100DC000A00A0319A10A2808840029088500000840
:100DD000AA002A08B3003308031DEF2EF02E5F2D62
:100DE000340886008701810108000130FA007A0882
:100DF0002000D9073C305906031DFF2E002FAF2FCE
:100E00000130FA007A08D807D9010830F6007030AE
:100E1000F70021006F08FA007A08F80096311526CD
:100E200086311030F6007030F70021006E08FA00AD
:100E30007A08F8009631152686311830F6007030A1
:100E4000F70020006608FA007A08F80096311526A7
:100E500086312030F6007030F70020004D08FA008F
:100E60007A08F8009631152686312830F600703061
:100E7000F70020004E08FA007A08F800963115268F
:100E800086313030F6007030F70020004F08FA004D
:100E90007A08F8009631152686313830F600703021
:100EA000F70020005408FA007A08F8009631152659
:100EB00086314030F6007030F70020005108FA000B
:100EC0007A08F8009631152686314830F6007030E1
:100ED000F70020006508FA007A08F8009631152618
:100EE00086315030F6007030F70020005708FA00C5
:100EF0007A08F8009631152686315830F6007030A1
:100F0000F70020005808FA007A08F80096311526F4
:100F100086316030F6007030F70021006D08FA006D
:100F20007A08F8009631152686316830F600703060
:100F3000F70020004E084F0758074D075407510788
:100F4000570721006F076E0720006607650721001D
:100F50006D07FA007A08F8009631152686313C3084
:100F600020005806031DB52FB62FBB2F0130FA0005
:100F70007A08D707D80118305706031DC02FC12F94
:100F8000C22FD70141306506031DC72FC82FEA2F96
:100F90004F085902031CCD2FCE2FEA2F4E085802BE
:100FA000031CD32FD42FEA2F4D085702031CD92F2F
:100FB000DA2FEA2F5C085D04031DDF2FE02FEA2FF4
:100FC000FF30FA007A08E700D001D00A1930FA00A1
:100FD0007A08CD000310961F03140318F02FF32F87
:100FE00020009617F52F200096130800623031007C
:100FF0008D008F01910102309300920108000800DA
:10100000F300730821009E009317131313140000BC
:10101000210013180C280D2808280D08F1000C08D1
:10102000F000080020008E1A1628172835286008BE
:10103000031D1B281C281F28E001E00A2C28013072
:101040002100A00020082000D10708305102031C15
:101050002A282B282C28D10121302100A00076300D
:10106000890B3028A00B30280000033020005A06DE
:101070005B0403193C283D281228E00108002000E9
:101080008E1A4328442862286108031D48284928ED
:101090004C28E101E10A592801302100A000200874
:1010A0002000D40733305402031C572858285928ED
:1010B000D40121302100A0007630890B5D28A00BDF
:1010C0005D280000023020005A065B0403196928DD
:1010D0006A283F28E101080073280130F1023C3002
:1010E000F7007708F20775087202031C7828792840
:1010F0006D2875087202F7007608023E86008701A7
:101100007708810089280130F0023C30F700770829
:10111000F10774087102031C8E288F288328740835
:101120007102F700760A860087017708810073084C
:101130007002F700760886008701770881000800B2
:10114000780879040319A528A628CF28FD01FD0AEF
:10115000B2280130F835F90D890BAA280130FC00BE
:101160007C08FD07F91FB528B628A92879087B0255
:10117000031DBC2878087A02031CBF28C028C42895
:101180007808FA027908FB3B0130F936F80C890B34
:10119000C5280130FD02031DCE28CF28B6287B08C4
:1011A000F9007A08F8000800FD302100A90029089C
:1011B000AA00C230A9002908AB0020006308210062
:1011C000A9002908AC00200062082100A900290814
:1011D000AD00FE30A9002908AE00AF01B001FE2825
:1011E00021002F08AA3E86008701010894318F2430
:1011F000883101302100AF070030B03D3008803A1F
:10120000A90080302902031D072905302F02031C85
:101210000A290B29F0280800F501F601700871046D
:101220000319132914294329F701F70A202901304A
:10123000F035F10D890B18290130F4007408F70717
:10124000F11F2329242917290130F535F60D890BC3
:10125000252971087302031D2F2970087202031CCF
:101260003229332938297008F2027108F33B7514CA
:101270000130F136F00C890B39290130F702031DDA
:101280004229432924297608F1007508F000080056
:10129000FD302100A9002908AA00C030A9002908B2
:1012A000AB00200057082100A9002908AC0020004D
:1012B00058082100A9002908AD0020005908210084
:1012C000A9002908AE00FE30A9002908AF00B0012E
:1012D000B101782921003008AA3E86008701010863
:1012E00094318F24893101302100B0070030B13DA5
:1012F0003108803AA90080302902031D8129063077
:101300003002031C842985296A29080020009A01DB
:101310009901960197019801073095000F309100CF
:10132000FF309200BF309300FF309400FF303E004A
:10133000D9004730CE00EF30C3000730E4004F3013
:10134000B800DA01E501C401B901CF01E601BA0133
:10135000C501D001DB01FF30BB00FF30C600FF300C
:10136000D100FF30DC000730E7000C303D0090007A
:101370001730CB001330C50014303E00A3001530E9
:10138000A4000E3096001030A60014303D00C600B8
:101390000800F100710823008C00901FD029D1298A
:1013A000D229132A0F301005F000083070060319F7
:1013B000DA29DB29F1290F301005F0000B30700617
:1013C0000319E329E429F12910162E000F1CE9293D
:1013D000EA29E52923000F19EE29EF29132A0F081E
:1013E000132A0F301005F000083070060319F92990
:1013F000FA29032A0F301005F0000B307006031D88
:10140000022A032A132A0F18062A072A032A0F0C76
:10141000890C0139F00011081F397004031D112ACD
:10142000122A072A110808002100A30023000F0C2C
:10143000890C01392100A200230011081F39210065
:101440002204031D242A252A162A23001114111808
:101450002A2A2B2A272A23000F0C890C0139210064
:10146000A200230011081F3921002204031D392A7C
:101470003A2A2B2A4E308A31BE228A3123000F0CA1
:10148000890C01392100A200230011081F39210015
:101490002204031D4C2A4D2A3E2A23088A31BE22EB
:1014A0008A3123000F0C890C01392100A20023008E
:1014B00011081F3921002204031D5F2A602A512AC6
:1014C000230011151119652A662A622A0800FD30C9
:1014D0002100A9002908AA00C630A9002908AB00EC
:1014E00020004D082100A9002908AC0020004E086A
:1014F0002100A9002908AD0020004F082100A90003
:101500002908AE00200054082100A9002908AF00D6
:10151000200051082100A9002908B0004130200016
:1015200065060319942A962A0130972A0030210073
:10153000A9002908B100FE30A9002908B200B301B2
:10154000B401B02A21003308AA3E860087010108B1
:1015500094318F248A3101302100B3070030B43D2B
:101560003408803AA90080302902031DB92A0930C5
:101570003302031CBC2ABD2AA22A08002100A100B4
:10158000210823008C00901FC62AC72AC82A172BBF
:101590000F3010052100A000083020060319D12AC1
:1015A000D22AEB2A0F30230010052100A0000B30B7
:1015B00020060319DC2ADD2AEB2A230010162E0050
:1015C0000F1CE32AE42ADF2A23000F19E82AE92A5C
:1015D000172B0F08172B0F30230010052100A00038
:1015E000083020060319F52AF62A012B0F302300B4
:1015F00010052100A0000B302006031D002B012B3D
:10160000172B23000F18052B062B012B23000F0C83
:10161000890C01392100A000230011081F39210085
:101620002004031D142B152B062B23001108080082
:101630002E0016104130F000EE30890B1D2BF00B00
:101640001D2B003220005A085B04031D282B292B78
:101650003C2B5008031D2D2B2E2B382B5508031D1A
:10166000322B332B382B52080319372B382B3C2BBA
:10167000D001D501D201702B5A035B04031D412B0D
:10168000422B652B5D08803AF00080307002031D0C
:101690004B2B01305C02031C4E2B4F2B542B013083
:1016A0002000DC070030DD3D20005D08803AF000BE
:1016B00080307002031D5E2B04305C02031C612B22
:1016C000622B652B2000DC01DD0120005C085D043D
:1016D000031D6B2B6C2B702B0130DA070030DB3DC8
:1016E0002E000C101614080020008E1A782B792B6F
:1016F000CE2B5C085D04031D7E2B7F2B842B0130D9
:10170000DC000030DD00C52B5C035D04031D892B6C
:101710008A2B992B17304D02031C8F2B902B922B69
:10172000CD01C52B01302100A00020082000CD07ED
:10173000C52B02305C065D04031D9F2BA02BAF2B35
:101740003B304E06031DA52BA62BA82BCE01C52B87
:1017500001302100A00020082000CE07C52B033057
:101760005C065D04031DB52BB62BC52B3B304F0625
:10177000031DBB2BBC2BBE2BCF01C52B0130210081
:10178000A00020082000CF07C52B21302100A00099
:101790007630890BC92BA00BC92B000020005A03FF
:1017A0005B040319D42BD52B742BDC01DD0108005D
:1017B00011302100A8003A30890BDC2BA80BDC2B60
:1017C000000030308A3114228B3134308A311422B7
:1017D0008B312930890BEA2B003230308A311422C8
:1017E0008B31FA300032890BF22B30308A311422DF
:1017F0008B3134308A3114228B312930890BFE2B06
:10180000003230308A3114228B310830890B062C9B
:10181000000030308A3114228B3134308A31142266
:101820008B312930890B122C003230308A3114224E
:101830008B310830890B1A2C000020308A31142299
:101840008B3124308A3114228B312930890B262C9C
:10185000003220308A3114228B31FA300032890B69
:101860002E2C2100A20128308D3101258B31210041
:10187000A20106308D3101258B312100A2010F30EC
:101880008D3101258B312100A20101308D310125DF
:101890008B31A630890B4A2C00320800F500750800
:1018A000F039F3007308F6007508F3000330F335E0
:1018B000FF3E031D572C7335F039F4007408F70010
:1018C00023000F0C890C0139F30011081F39730430
:1018D000031D6B2C6C2C602C11141118702C712CA6
:1018E0006D2C0F0C890C0139F30011081F3973049A
:1018F000031D7B2C7C2C712C4E308931C9218C31FD
:1019000023000F0C890C0139F30011081F397304EF
:10191000031D8B2C8C2C802C76087204083889319E
:10192000C9218C3123000F0C890C0139F3001108F7
:101930001F397304031D9D2C9E2C922C7608720473
:101940000C388931C9218C3123000F0C890C0139E5
:10195000F30011081F397304031DAF2CB02CA42C05
:101960007608720408388931C9218C3123000F0CA4
:10197000890C0139F30011081F397304031DC12CB0
:10198000C22CB62C7708720408388931C9218C31F1
:1019900023000F0C890C0139F30011081F3973045F
:1019A000031DD32CD42CC82C770872040C38893131
:1019B000C9218C3123000F0C890C0139F300110867
:1019C0001F397304031DE52CE62CDA2C770872040A
:1019D00008388931C9218C3123000F0C890C013959
:1019E000F30011081F397304031DF72CF82CEC2C9D
:1019F00011151119FC2CFD2CF92C0430890BFE2C2F
:101A000008002100A5002508F039A3002308A6003E
:101A10002508A3000330A335FF3E031D0B2D2335FE
:101A2000F039A4002408A70023000F0C890C013909
:101A30002100A300230011081F3921002304031DE6
:101A4000222D232D142D230011141118282D292D9A
:101A5000252D23000F0C890C01392100A300230040
:101A600011081F3921002304031D372D382D292D7E
:101A70004E308A31BE228D3123000F0C890C013982
:101A80002100A300230011081F3921002304031D96
:101A90004A2D4B2D3C2D2608220408388A31BE22BF
:101AA0008D3123000F0C890C01392100A300230084
:101AB00011081F3921002304031D5F2D602D512DB6
:101AC000260822040C388A31BE228D3123000F0CE7
:101AD000890C01392100A300230011081F392100BE
:101AE0002304031D742D752D662D21002608220464
:101AF00008388A31BE228D3123000F0C890C013940
:101B00002100A300230011081F3921002304031D15
:101B10008A2D8B2D7C2D2708220408388A31BE227D
:101B20008D3123000F0C890C01392100A300230003
:101B300011081F3921002304031D9F2DA02D912D75
:101B4000270822040C388A31BE228D3123000F0C65
:101B5000890C01392100A300230011081F3921003D
:101B60002304031DB42DB52DA62D21002708220422
:101B700008388A31BE228D3123000F0C890C0139BF
:101B80002100A300230011081F3921002304031D95
:101B9000CA2DCB2DBC2D230011151119D02DD12DFF
:101BA000CD2D0430890BD22D080023000F0C890C99
:101BB0000139F20011081F397204031DE02DE12DD7
:101BC000D52D11141118E52DE62DE22D0F0C890CE1
:101BD0000139F20011081F397204031DF02DF12D97
:101BE000E62D9A308931C9218D3123000F0C890CE3
:101BF0000139F20011081F397204031D002E012E55
:101C0000F52D01308931C9218D3123000F0C890C4C
:101C10000139F20011081F397204031D102E112E14
:101C2000052E91149118152E162E122E0F0C890CBC
:101C30000139F20011081F397204031D202E212ED4
:101C4000162E9B308931C9218D3123000F0C890C50
:101C50000139F20011081F397204031D302E312E94
:101C6000252E9531E0258D31F2007208F300230016
:101C70000F0C890C0139F20011081F397204031D81
:101C8000422E432E372E91161116111A482E492E28
:101C9000452E0F0C890C0139F20011081F3972040E
:101CA000031D532E542E492E11151119582E592E3D
:101CB000552E731F5C2E5D2ED52D0F0C890C01390E
:101CC000F20011081F397204031D672E682E5D2E65
:101CD000111411186C2E6D2E692E0F0C890C013900
:101CE000F20011081F397204031D772E782E6D2E15
:101CF0009A308931C9218D3123000F0C890C0139AB
:101D0000F20011081F397204031D872E882E7C2EC5
:101D100000308931C9218D3123000F0C890C013924
:101D2000F20011081F397204031D972E982E8C2E75
:101D3000911491189C2E9D2E992E0F0C890C01390F
:101D4000F20011081F397204031DA72EA82E9D2E24
:101D50009B308931C9218D3123000F0C890C013949
:101D6000F20011081F397204031DB72EB82EAC2ED5
:101D70009531E0258D31F2007208F30023000F0C3D
:101D8000890C0139F20011081F397204031DC92E94
:101D9000CA2EBE2E91161116111ACF2ED02ECC2E71
:101DA0000F0C890C0139F20011081F397204031D50
:101DB000DA2EDB2ED02E11151119DF2EE02EDC2E9F
:101DC000730808008D31D5258E31FA007A0820007D
:101DD000E3000030883100208E317008FA0071086D
:101DE000FB000D30FB36FA0C890BF22E7A08FC0052
:101DF0007C082000E2006308FA00FB016D087B0606
:101E0000031D042F6C087A06031D072F082F152FBA
:101E10006208FA00FB016B087B06031D112F6A089C
:101E20007A060319142F152FC12F21006D08FA000F
:101E3000FB017A08F0007B08F1000530F200003069
:101E4000F300963133268E317008143EF600703060
:101E5000713DF70020005708FC007C08F80096311F
:101E600015268E3121006D08FA00FB017A08F0007A
:101E70007B08F1000530F2000030F3009631332684
:101E80008E3170081C3EF6007030713DF700200066
:101E90005808FC007C08F800963115268E31210088
:101EA0006D08FA00FB017A08F0007B08F1000530AC
:101EB000F2000030F300963133268E317008243E54
:101EC000F6007030713DF70020005908FC007C08D6
:101ED000F800963115268E3121006D08FA00FB01BD
:101EE0007A08F0007B08F1000530F2000030F300C2
:101EF000963133268E3170082C3EF6007030713DDD
:101F0000F70020006308FC007C08F80096311526D5
:101F10008E3121006D08FA00FB017A08F0007B0881
:101F2000F1000530F2000030F300963133268E3197
:101F30007008343EF6007030713DF70020006208F2
:101F4000FC007C08F800963115268E310130FA002D
:101F50007A082100ED076D086F020318B02FB12F2A
:101F6000B22FED0120006308FA00FB017A08EC00B3
:101F70007B08ED006208FA00FB017A08EA007B08A2
:101F8000EB0041306506031DC62FC72FFF2F5108F8
:101F900062020318CC2FCD2FE12F6008031DD12F33
:101FA000D22FE12F5308031DD62FD72FDB2FFF3061
:101FB000FA007A08E700D301D30AD201D20A161632
:101FC000E32FD3011612630854020318E82FE92FF8
:101FD000FD2F6108031DED2FEE2FFD2F5608031D69
:101FE000F22FF32FF72FFF30FA007A08E700D6011F
:101FF000D60AD501D50A9616FF2FD60196120800EB
:10287000080027008E17080025008E170800270083
:102880008E13080025008E13080021006708080039
:1028900027008E13080025008E13080094313C2475
:1028A00094310800943142249431080094314B242F
:1028B0009431080097315927943108002E000C10EC
:1028C0009431CB249431080021002108D70020083E
:1028D000D600080021002108DF002008DE000800E3
:1028E00021002108DD002008DC000800210021086B
:1028F000D9002008D8000800640080010131890B4C
:102900007D2C0034FE0012001E00FE0B832C0034D0
:10291000F800F20178088C314E249431080021002F
:10292000A20022089731A82794310800FF34FF3411
:10293000FF34FF34FF34FF34FF34F800F201F20AB1
:1029400078088C314E24943108002F0096019701AD
:10295000980199019A019B01080021002108220099
:10296000B400210020082200B30008002100210843
:102970002200B600210020082200B5000800230034
:10298000901AC32CC42CCA2C8F01283090009101BE
:1029900003308D0008002100560857040319D12C7C
:1029A000D22CD72C57088A0056080A009431080008
:1029B000803027008E00FF308D00C0308C00240056
:1029C0001F08F33904389F0008002E000C100B1468
:1029D00038302100A0001430A100943164249431D7
:1029E0002E00161408000130250090008F0191017F
:1029F000FF308D008C012E009010803025008E005D
:102A000008002100210830009B0021002008300030
:102A10009A001E171E140000000030001C08080059
:102A200024000E1D142D152D1C2D0E1071088D0067
:102A300070088C000E14202D71088D0070088C0019
:102A400008002400141D252D262D2D2D141071088D
:102A50009300700892001414312D710893007008CF
:102A60009200080024001A1D362D372D3E2D1A1015
:102A700071089900700898001A14422D7108990085
:102A8000700898000800F100F0013A307102031854
:102A90004A2D4B2D532D30307102031C502D512DDA
:102AA000532DF001F00A700C08007108F300700853
:102AB000F200F336F20CF336F20C720827008D00A8
:102AC00070080339F2000530F235FF3E031D642D16
:102AD00072358C0008002E00101021006108F100F2
:102AE0006008F00095311025953121005E085F04E3
:102AF00003197B2D7C2D812D5F088A005E080A005A
:102B0000953108002E00101120006F08F1006E08AA
:102B1000F00095312125953121005C085D040319F1
:102B2000922D932D982D5D088A005C080A0095313E
:102B300008002E00101221005B08F1005A08F00076
:102B40009531322595312100580859040319A92DD2
:102B5000AA2DAF2D59088A0058080A00953108009F
:102B600022008E018F0190019101920193018D014C
:102B700021009E019B0194019501960197019A0104
:102B80009901980180309300FF309D0008002100DA
:102B90002108A3002008A200A336A20CA336A20C91
:102BA000220827008D00210020080339A2000530EB
:102BB000A235FF3E031DD82D223527008C000800CA
:102BC0000F3023001005F000083070060319E92DBE
:102BD000EA2DF32D0F301005F0000B307006031DA9
:102BE000F22DF32DF42D91150F1CF72DF82DF42D4A
:102BF0000C080800FF2D200894319D2495317A0897
:102C0000FC007908FB00F90A0319FA0A7B08840022
:102C10007C0885000008FD007D082000A000200839
:102C2000031D132E142EFB2D080000308B1B0130CA
:102C3000F900770830009B0076089A0078089C001D
:102C40001E171E158B1355309F00AA309F009E142F
:102C50009E182B2E2C2E282E1E11790C031C8B1344
:102C600003188B170800F401F501701C382E392E5B
:102C70003D2E7208F4077308F53D0130F235F30D6F
:102C8000890B3E2E0130F136F00C890B432E700873
:102C90007104031D4C2E4D2E352E7508F10074085D
:102CA000F000080024008F0190010430910086306C
:102CB0008D00E8308C000D082100E10024000C0894
:102CC0002100E0002E0010101A1402302100A00094
:102CD0000030A10094316A249631053024008E0022
:102CE000080024009501960104309700E730930016
:102CF000C830920013082000EF00240012082000C2
:102D0000EE002E0010111A1503302100A000003033
:102D1000A1009431702496310530240094000800FD
:102D200024009B019C0104309D004A3099005C30D6
:102D3000980019082100DB00240018082100DA009F
:102D40002E0010121A16FF302100A0000730A1003B
:102D5000943176249631153024009A000800210021
:102D6000A401A501201CB52EB62EBA2E2208A40758
:102D70002308A53D0130A235A30D890BBB2E0130E0
:102D8000A136A00C890BC02E20082104031DC92EDA
:102D9000CA2EB22E2508A1002408A0000800220097
:102DA0009D1CD32ED42ED62E1D121D161908F000F0
:102DB00021006908203E86000130870070088100EC
:102DC0000130F0007008E90708306902031CE92EA1
:102DD000EA2EEB2EE9010130F0007008E707080049
:102DE0009431A52496318931862196318731F62791
:102DF00096319431D82496319531B025963196315B
:102E0000712696319431F32496319631902696317D
:102E10009431E524963196315226963197317D27AB
:102E2000963108000830210062020318182F192F6C
:102E3000322F6A08283E86000130870001082200F0
:102E40009A000130F00070082100EA0708306A0299
:102E5000031C2B2F2C2F2D2FEA010130F0007008BE
:102E6000E207342F2E001912080000308B1B0130AE
:102E70002100A300210830009B0021002008300021
:102E80009A002100220830009C001E171E158B138B
:102E900055309F00AA309F009E149E18502F512F2E
:102EA0004D2F1E112100230C031C8B1303188B17AD
:102EB00008002100670803195E2F5F2F592F68084B
:102EC000203E8600013087000108A0002008A100F4
:102ED0000130A0002008E80708306802031C712FA9
:102EE000722F732FE8012E00991201302100E702A2
:102EF0002E0099162100210808002E009912CF30CB
:102F00002100A0001630A1009431AD2497312E008D
:102F1000191212302100A0001730A1009431B624FC
:102F20009731083022009F0090309D0024309E0091
:102F300019309B009C012100EB01EA010830A2003E
:102F40002208E200E901E801E7012E0099160800D5
:102F50002100A10062080319AE2FAF2FAA2F2E0067
:102F6000191AB32FB42FB92F2100210822009A007B
:102F7000D12F191221002108A0006B08283E8600DD
:102F800001308700200881000130A0002008EB07F5
:102F900008306B02031CCD2FCE2FCF2FEB01013059
:102FA000E2022E001916080020008E1AD82FD92F01
:102FB000F52F41306506031DDE2FDF2FE62F613030
:102FC0002100A00020082000E500EC2F4130210066
:102FD000A00020082000E50021302100A00076306C
:102FE000890BF02FA00BF02F0000043020005A06B0
:102FF0005B040319FC2FFD2FD42FDA01DB0108003D
:1030000025343034323464343A3425343034323474
:1030100064343A3425343034323464340034013486
:1030200000340A34003464340034E8340334103497
:10303000273448340934C034D4340834C2346734B3
:103040000A34C634253430343234643420344334C2
:1030500000344C3420342534643400344334543444
:043060004C340034B8
:020000040001F9
:0A000E00EC3FFF3F9F3FFF3FFF3F25
:00000001FF
