:020000040000FA
:1000000080315228080008007E1480312E00161C12
:100010000A280B2813280C1C0E280F2813289F31A0
:100020008C27803150280B1F162817285028191E9E
:100030001A281B2826280F1E1E281F2826282200C3
:100040003C088A003B080A0080315028991E292864
:100050002A2835288F1E2D282E28352822003A08D8
:100060008A0039080A00803150281A1C382839289B
:100070004128101C3C283D28412890318A2080319D
:100080005028991C442845284A288F1C482849286C
:100090004A285028191C4D284E2850280F0850284F
:1000A0007E100900803154288731FF278031FD0000
:1000B0000130840090308500E130860000308700F8
:1000C0000A309F3198278031FB01FC0165308400A4
:1000D000003085000B309F3192278031A0308400A2
:1000E0000030850021309F319227803120308400FC
:1000F0000130850017309F3192278031A030840075
:100100000130850040309F319227803120308400BB
:100110000230850040309F31922780317E102000D0
:100120008031922891313A21803100302000A000A6
:10013000A1009031D02080319F31882780319F31BC
:100140007E27803121302000A0000930A1009F319E
:10015000E2278031B5302000A0001F30A1009F3180
:10016000D02780312100D701D801D80AD901003029
:100170002000A6007030A700903141208031533A12
:10018000031DC328C428FF282100D8010130DA004C
:100190000030DB0021005A08003E2000A60070302D
:1001A00021005B3D2000A7009031412080312000DC
:1001B000E40064082100D7070130DA070030DB3D96
:1001C0005B08803A2000E40080306402031DEB28C5
:1001D0000D3021005A02031CEE28EF28CA280D30EA
:1001E0002000A6007030A70090314120803121000E
:1001F00057060319FC28FD28FF28D901D90A210038
:100200005808031D042905290A2959080319092931
:100210000A29A32900302000A6007030A70053301F
:10022000E4006408A8009231792280310130200076
:10023000A6007030A7001930E4006408A8009231CD
:100240007922803102302000A6007030A7000330F0
:10025000E4006408A8009231792280310330200044
:10026000A6007030A7000530E4006408A8009231B1
:100270007922803104302000A6007030A7000C30B5
:10028000E4006408A8009231792280310530200012
:10029000A6007030A700A801923179228031063083
:1002A0002000A6007030A700A80192317922803189
:1002B00007302000A6007030A7001C30E40064085E
:1002C000A80092317922803108302000A6007030D9
:1002D000A7000430E4006408A8009231792280313C
:1002E00009302000A6007030A7006130E4006408E7
:1002F000A8009231792280310A302000A6007030A7
:10030000A700A8019231792280310B302000A6008D
:100310007030A700A8019231792280310C30200082
:10032000A6007030A700A8019231792280310D30EB
:100330002000A6007030A700AE30E4006408A800DA
:1003400092317922803101302000A6007030A70060
:100350009031412080312000E4006408FD0002302B
:10036000A6007030A7009031412080312000E400C9
:1003700064082100EA0003302000A6007030A700C6
:100380009031412080312000E40064082100E90020
:1003900004302000A6007030A70090314120803149
:1003A0002000E40064082100A00005302000A60021
:1003B0007030A7009031412080312000E4006408B3
:1003C0002100A10006302000A6007030A700903167
:1003D000412080312000E40064082100A2000730A1
:1003E0002000A6007030A70090314120803120000D
:1003F000E40064082100A70008302000A600703047
:10040000A7009031412080312000E40064082100E1
:10041000A40009302000A6007030A70090314120D0
:1004200080312000E4006408EF000A30A60070303C
:10043000A7009031412080312000E4006408E500ED
:100440000B30A6007030A700903141208031200091
:10045000E4006408E600EB012100A801A901A50160
:10046000A601A3019F31F4278031200093151316B4
:100470003E00CF154F168831312080318B170B1776
:10048000C13086000030870014302000E4000030C6
:100490001E00E40B482A2100DF01E001A52A873174
:1004A000FB2780312000E40064082100DE00FD30DD
:1004B0005E0603195C2A5D2A632AFD304106031D8E
:1004C000622A632A9E2AFD305E06031D682A692A75
:1004D000782A00302000A000A1001430A2000030D3
:1004E000A300C1309131B22180312100DF01E00150
:1004F0005E082000E40021005F08C13E86008701FD
:1005000020006408810001302100DF070030E03D59
:1005100014305F066004031D8E2A8F2A9E2A003045
:100520002000A000A1001430A2000030A300C130C0
:100530009131B22180312100DF01E001FE305E0601
:10054000031DA32AA42AA52AAD2A9F31752780312D
:10055000003A031DAC2AAD2A4F2A21005F08FF3E56
:10056000C13E86008701FE300106031DB82AB92A64
:10057000232BDC01DD015D082000A10021005C08C7
:100580002000A0000330A2000030A3009131D1214F
:100590008031200021088500200884000230840773
:1005A0009830853D000821004206031DD82AD92A2B
:1005B000072B5D082000A10021005C082000A0009E
:1005C0000330A2000030A3009131D12180312000FE
:1005D0002108850020088400003084079830853D7C
:1005E000003F2100D500013FD60060082000B00088
:1005F00021005F082000AF00C130E4006408B100B2
:10060000210056088A0055080A008331142B013056
:10061000DC070030DD3D00305D020D3003195C0267
:10062000031C132B142BBB2A00302000A000A100B8
:100630001430A2000030A300C1309131B2218031CA
:100640002100DF01E001200068086904031D292B57
:100650002A2B2E2B8931B3218031A52A6803690406
:10066000031D332B342B382B97311E278031A52ABD
:10067000023068066904031D3E2B3F2B432B943147
:1006800030248031A52A033068066904031D492BF4
:100690004A2B4E2B9331FB238031A52A0430680668
:1006A0006904031D542B552B592B9331632380313F
:1006B000A52A6908803AE40080306402031D622B99
:1006C00005306802031C652B662BA52A2000E80173
:1006D000E901A52A80315228210032080319712B23
:1006E000722B7B2BC8309F31AD2783314D309F312A
:1006F000EB278331832BC8309F31AD2783312030E6
:100700009F31EB2783317B087C040319882B892BCD
:10071000AE2B27302000AE009830AF00210020081B
:100720002000C300C4014308B0004408B100210008
:1007300021082000C500C6014508B2004608B300E4
:10074000210022082000C700C8014708B40048085B
:10075000B50049308531A1258331CC2B27302000CD
:10076000AE009830AF006508C300C4014308B00074
:100770004408B1006608C500C6014508B200460835
:10078000B3006708C700C8014708B4004808B500AF
:1007900049308531A125833180309F31AD278331A8
:1007A00049302000A9000030AA0091311F21833177
:1007B00021002303031DDD2BDE2BE72B8B309F3124
:1007C000AD27833143309F31EB278331F62B200057
:1007D00068086904031DED2BEE2BF62B8B309F313F
:1007E000AD27833120309F31EB278331210028034F
:1007F000031DFB2BFC2B052C8C309F31AD27833147
:1008000054309F31EB278331142C20006808690491
:10081000031D0B2C0C2C142C8C309F31AD278331F5
:1008200020309F31EB27833121002503031D192C34
:100830001A2C232C8D309F31AD2783314C309F31C2
:10084000EB278331322C200068086904031D292C12
:100850002A2C322C8D309F31AD27833120309F31AF
:10086000EB2783318F309F31AD27833120006F0814
:100870009F31EB278331413020006F06031D412C4F
:10088000422CB42C21002308031D472C482C522C49
:100890002808031D4C2C4D2C522C25080319512CD3
:1008A000522CAE2C610A031D562C572C692C2000AB
:1008B0006508C30043082100E10020006608C3006A
:1008C00043082100E20020006708C300430821001C
:1008D000E300220034082000D80022003508200060
:1008E000D900220036082000DA006508A00066085A
:1008F000A1006708A200210061082000A3002100D8
:1009000062082000A400210063082000A5005830E0
:10091000C3004308A60093319123833120005A0875
:1009200021006902031C952C962C992CB801B80A59
:10093000B42C27008E1F9D2C9E2CB42C2100B801B6
:1009400000302000A000A1009031D02083319F31E1
:10095000882783319F317E278331B42C27008E1F57
:10096000B22CB32CB42C9E2CC0309F31AD278331D8
:1009700021003A080319BD2CBE2CD12C4030200098
:10098000AE009830AF00210027082000C300C4014A
:100990004308B0004408B10051308531A1258331AE
:1009A000E12C40302000AE009830AF006E08C3004C
:1009B000C4014308B0004408B10051308531A1257D
:1009C000833151302000A9000030AA0091311F214D
:1009D0008331CD309F31AD27833121003908031990
:1009E000F22CF32C062D47302000AE009830AF00DB
:1009F000210024082000C300C4014308B0004408BB
:100A0000B10055308531A1258331162D47302000A6
:100A1000AE009830AF006D08C300C4014308B000B9
:100A20004408B10055308531A1258331553020006F
:100A3000A9000030AA0091311F21833120006808ED
:100A400069040319242D252D312D8B309F31AD27BD
:100A500083314C302000A9009830AA0091311F2129
:100A60008331200068036904031D372D382D672D5D
:100A70007B087C04031D3D2D3E2D432D8B309F3183
:100A8000AD278331A02D7B037C04031D482D492D08
:100A90004E2D81309F31AD278331A02D02307B0652
:100AA0007C04031D542D552D5A2D84309F31AD27C4
:100AB0008331A02D03307B067C04031D602D612D46
:100AC000662D87309F31AD278331A02DA02D0230B8
:100AD00068066904031D6D2D6E2D7E2D21003A08D8
:100AE000031D732D742D792D8C309F31AD278331EB
:100AF000A02DC1309F31AD278331A02D0330680672
:100B00006904031D842D852D952D21003908031DB1
:100B10008A2D8B2D902D8D309F31AD278331A02DC7
:100B2000CF309F31AD278331A02D04306806690492
:100B3000031D9B2D9C2DA02D8F309F31AD27833120
:100B400008002000C2003030B6003608BA00262F58
:100B5000253041060319AD2DAE2DBA2D4108B60042
:100B6000420886008701360881000130B600360849
:100B7000C207262FBF01C001BE01C32D3E150130A3
:100B8000AE070030AF3D2E0884002F088500000816
:100B9000303A0319BE2DCC2D2E0884002F08850075
:100BA0000008903161208531031CD72DD82D0B2EE4
:100BB0002000BF01C0010A302000A0000030A100C9
:100BC0004008A3003F08A2009131D12185312000C7
:100BD0002108C0002008BF002E0884002F088500CF
:100BE0000008D03EB600FF3003180030B7003608CA
:100BF000BF073708C03D0130AE070030AF3D2E08BB
:100C000084002F0885000008903161208531031889
:100C10000A2E0B2EDB2D20002F08B7002E08B60061
:100C2000AE0A0319AF0A36088400370885000008A9
:100C3000C100003A03193A2F643A0319232E0D3AE2
:100C40000319232E262F3A0886008701403FBC0057
:100C5000413FBD000230B6003608BA07BD1F312E35
:100C6000322E3B2E0330B6003608BE04BC09BD0947
:100C7000BC0A0319BD0AC101C10A4108B600B70187
:100C8000B635B70D3630360784009830373D8500CD
:100C9000003FB800013FB90039083D02031D522E44
:100CA00038083C020318552E562E572E612E01305F
:100CB000B6003608C10705304106031D602E612EBF
:100CC0003D2E3F0840040319662E672E712E3E0804
:100CD000033903196C2E6D2E712EFF30BF07FF30C4
:100CE000C03D4008803A803C031D782E3F084102F9
:100CF00003187B2E7C2E852E20004108B600B701FC
:100D00003608BF023708C03B882E2000BF01C00153
:100D10003E1D8B2E8C2EB92E3E0803390319912EC1
:100D2000922E9D2E2D30B60042088600870136088F
:100D300081000130B6003608C2073F08400403199D
:100D4000A22EA32EE52E3030B60042088600870181
:100D5000360881000130B6003608C207FF30BF07F1
:100D6000FF30C03D3F084004031DB72EB82EA32E10
:100D7000E52E3F0840040319BE2EBF2ED42E20308E
:100D8000B600420886008701360881000130B600AF
:100D90003608C207FF30BF07FF30C03D3F084004A0
:100DA000031DD32ED42EBF2E3E0803390319D92E8E
:100DB000DA2EE52E2D30B60042088600870136086F
:100DC00081000130B6003608C2074108B600360877
:100DD000BB001D2F0A30A8000030A9003B08B60058
:100DE000B701B635B70D3630360784009830373D39
:100DF0008500003FA000013FA1003D08A3003C0882
:100E0000A20094319D24853120002108AB002008E8
:100E1000AA009331C623853120002808303EB8004F
:100E20003808C1004108B60042088600870136082C
:100E300081000130B6003608C207FF30B600360820
:100E4000BB073B0A031D252F262FEA2E2F08B700CC
:100E50002E08B600AE0A0319AF0A36088400370818
:100E600085000008B8003808C1004108031D392F6B
:100E70003A2FA82D42088600870181010800013021
:100E80002000A6007030A7007D08AA002A08A8004C
:100E900092317922873102302000A6007030A700FD
:100EA00021006A082000AA002A08A80092317922AD
:100EB000873103302000A6007030A70021006908A8
:100EC0002000AA002A08A800923179228731043034
:100ED0002000A6007030A700210020082000AA00F2
:100EE0002A08A80092317922873105302000A60017
:100EF0007030A700210021082000AA002A08A800BD
:100F000092317922873106302000A6007030A70088
:100F1000210022082000AA002A08A8009231792284
:100F2000873107302000A6007030A7002100270875
:100F30002000AA002A08A8009231792287310830BF
:100F40002000A6007030A700210024082000AA007D
:100F50002A08A80092317922873109302000A600A2
:100F60007030A7006F08AA002A08A80092317922E1
:100F700087310A302000A6007030A7006508AA005B
:100F80002A08A8009231792287310B302000A60070
:100F90007030A7006608AA002A08A80092317922BA
:100FA00087310C302000A6007030A7006B08AA0023
:100FB0002A08A8009231792287310D302000A6003E
:100FC0007030A700210021082207200066072100B9
:100FD000200727072407200065077D0721006A07EF
:100FE000690720006F076B07AA002A08A800923142
:100FF0007922873108009231E722873108001934BD
:101002002000A10021006F080319082809280328DD
:101012002E00191A0D280E2813282000210822005C
:101022009A002E28191220002108A0002100400851
:10103200A03E860001308700200020088100013098
:10104200A00020082100C00740304002031C2A28CB
:101052002B282C28C0010130EF022E00191608009F
:1010620011302000A8003A30890B3528A80B35280A
:101072000000303095315F258831343095315F255D
:1010820088312930890B43280032303095315F2571
:101092008831FA300032890B4B28303095315F2588
:1010A2008831343095315F2588312930890B5728B2
:1010B2000032303095315F2588310830890B5F2846
:1010C2000000303095315F258831343095315F250D
:1010D20088312930890B6B280032303095315F25F9
:1010E20088310830890B73280000203095315F2544
:1010F2008831243095315F2588312930890B7F284A
:101102000032203095315F258831FA300032890B68
:1011120087282000A20128308A31542288312000F9
:10112200A20106308A31542288312000A2010F30F8
:101132008A31542288312000A20101308A3154229E
:101142008831A630890BA32800320800200031081C
:10115200023E860087010108B200B3013208B400E2
:101162003308B5003108033E860087010108B2004A
:10117200B3013208B6003308B7003108043E8600D6
:1011820087010108B200B3013208B8003308B90080
:10119200B51BCC28CD281C293508803AB2008030F6
:1011A2003202031DD628183034020318D928DA284F
:1011B2001C292000B71BDE28DF281C293708803AAB
:1011C200B20080303202031DE8283C303602031898
:1011D200EB28EC281C292000B91BF028F1281C2937
:1011E2003908803AB20080303202031DFA283C30BE
:1011F20038020318FD28FE281C29063020002F067D
:101202003004031D052906291C293408B2003208BE
:101212002100A00020003608B20032082100A100FF
:1012220020003808B20032082100A200C7309031F5
:10123200E92088312029C7309131562188310800B0
:101242000130F90079082000E7073C306706031DEA
:101252002B292C2934290130F9007908E607E70106
:101262002100B401B40A3C3020006606031D3A296D
:101272003B2940290130F9007908E507E6011830D9
:101282006506031D452946294729E50141306F06B8
:10129200031D4C294D2976292100220820006702CE
:1012A200031C5429552976292100210820006602B1
:1012B200031C5C295D297629210020082000650293
:1012C200031C6429652976297B087C04031D6A298D
:1012D2006B297629FF30F90079082100E100A3018A
:1012E200A30A1930F9007908A0000230F00000309A
:1012F200F1007D08F900FA017908F2007A08F3009A
:101302009631BF2689317108803A803C031D8C29B1
:10131200700821003302031C8F299029942921008F
:10132200B201B20A96292100B20103102000961FD1
:10133200031403189D29A02920009617A229200032
:1013420096132100E801E80A0130F9007908B5078F
:101352006A083502031CAE29AF29B229B501B601CC
:10136200B60A0800210034080319B829B929BE2990
:1013720087313F2789312100B40137080319C22977
:10138200C329CD299631652689312100B7018331E0
:101392006C2389312100E80136080319D129D229A9
:1013A200D7298E317A2689312100B60168080319BE
:1013B200DB29DC29E12983316C2389312100E80111
:1013C20032080319E529E629162A3008031DEA29FD
:1013D200EB29162AFD302000DB005B08DC00CD3053
:1013E200DB005B08DD007D08DB005B08DE006A08CD
:1013F200DB005B08DF006C08DB005B08E0006B08C9
:10140200DB005B08E100FE30DB005B08E200073036
:10141200A3000030A4005C30DB005B08A500923121
:10142200562289312100B001B00A3208031D1A2A5E
:101432001B2A1C2AB00138080319202A212A532A00
:1014420027008E1B252A262A2C2A9F3184278931A0
:101452009F317827893121002B08803A2000DB0058
:1014620084305B02031D382A003021002A0203184F
:101472003B2A3C2A422A01302100AA070030AB3D18
:10148200452A2100AA01AB012B082000A10021005E
:101492002A082000A0009031D02089315330890BD6
:1014A200502A000008002000A5002508F039A300FA
:1014B2002308A6002508A3000330A335FF3E031D21
:1014C2005E2A2335F039A4002408A70023000F0C5C
:1014D200890C01392000A300230011081F392000C4
:1014E2002304031D752A762A672A23001114111872
:1014F2007B2A7C2A782A23000F0C890C01392000D0
:10150200A300230011081F3920002304031D8A2A87
:101512008B2A7C2A4E3096310B268A3123000F0CFF
:10152200890C01392000A300230011081F39200073
:101532002304031D9D2A9E2A8F2A26082204083886
:1015420096310B268A3123000F0C890C01392000B9
:10155200A300230011081F3920002304031DB22A0F
:10156200B32AA42A260822040C3896310B268A3183
:1015720023000F0C890C01392000A300230011085D
:101582001F3920002304031DC72AC82AB92A2000B4
:1015920026082204083896310B268A3123000F0CC4
:1015A200890C01392000A300230011081F392000F3
:1015B2002304031DDD2ADE2ACF2A27082204083845
:1015C20096310B268A3123000F0C890C0139200039
:1015D200A300230011081F3920002304031DF22A4F
:1015E200F32AE42A270822040C3896310B268A3182
:1015F20023000F0C890C01392000A30023001108DD
:101602001F3920002304031D072B082BF92A200071
:1016120027082204083896310B268A3123000F0C42
:10162200890C01392000A300230011081F39200072
:101632002304031D1D2B1E2B0F2B23001115111923
:10164200232B242B202B0430890B252B080004305C
:1016520020002F063004031D2F2B302BFC2B3108CA
:10166200023E860087010108B200B3013208C500BC
:101672003308C6004608C8004508C7004608803A35
:10168200803C031D472B45082100330203184A2BD7
:101692004B2B542B210033082000B200B301320837
:1016A200C7003308C800FD302000B2003208BD0078
:1016B200CB30B2003208BE004708B2003208BF0089
:1016C2000330A3000030A4003D30B2003208A50070
:1016D200923156228B312000C001C101D42B20004F
:1016E200C9014908B200B3016C08B400B50134085D
:1016F200A0003508A1000530A2000030A3009131FE
:10170200D1218B31200032082007B6003308213D59
:10171200B7003608123EC2007030373DC30043089E
:10172200A7004208A600903141208B312000B20070
:101732004908383E86008701320881000130B20034
:101742003208C90705304902031CA82BA92B722BAA
:101752000530A3000030A4003830B2003208A500E2
:10176200923156228B3101302000B2003208EC0750
:101772007D08FF3EB200FF3003180030B30033088B
:10178200803AB40080303402031DC92B6C08320247
:101792000318CC2BCD2BCF2B2000EC0101302000E5
:1017A200C0070030C13D4108803AB2004808803A83
:1017B2003202031DDE2B47084002031CE12BE22B01
:1017C200702B20004708210033022000B2003208AB
:1017D2002100B300FE302000B2003208C400013004
:1017E200A3000030A4004430B2003208A5009231B8
:1017F20056228B31002CCB30913156218B3108008F
:10180200053020002F063004031D082C092C252D3D
:10181200310886008701423FC800310886008701EF
:10182200433FC5006B084507C600C701C70D4708FF
:10183200803AB20080303202031D212C7D0846021C
:10184200031C242C252C342C7D082000B200B3016B
:1018520045086B07B400B501B50D32083402C60065
:101862003308353BC70020006A087D0603193A2C6D
:101872003B2C422C4508B200B3013208C6003308A3
:10188200C7006B08B20046083202C10047090318BC
:10189200890AC200C21F4E2C4F2C5A2C6B087D079E
:1018A200B200B301B30D46083202C1004708333B10
:1018B200C20041084204031D5F2C602C6D2C6A0893
:1018C2007D06031D652C662C6D2C6A08B200B301DF
:1018D2003208C1003308C20048086A02031C722C95
:1018E200732C802C4208803AB20080303202031DF1
:1018F2007C2C4808410203187F2C802C852CCC308C
:10190200913156218C31292DFD302000B200320850
:10191200BC00CC30B2003208BD004808B200320828
:10192200BE004508B2003208BF000430A3000030F8
:10193200A4003C30B2003208A500923156228C310C
:1019420020004708C4004608C3000F2DC9014908FA
:10195200B200B3014408A1004308A0000530A20070
:101962000030A3009131D1218C31200032082007B0
:10197200B4003308213DB5003408123EA600703091
:10198200353DA700903141208C312000B600490836
:10199200373E86008701360881000130B2003208E6
:1019A200C90705304902031CD72CD82CA82C0530B6
:1019B200A3000030A4003730B2003208A5009231F3
:1019C20056228C3120006C08B200B3014408330661
:1019D200031DED2C43083206031DF02CF12CF92CCB
:1019E20001302100B30201302000B2003208EC07BE
:1019F2000130C3070030C43D0130C8024408803AB8
:101A0200B20080303202031D082D7D084302031C00
:101A12000B2D0C2D0F2D2000C301C40120004808FE
:101A2200031D142D152DA72CFE30B2003208C00064
:101A32000130A3000030A4004030B2003208A500FB
:101A4200923156228C31292DCC30913156218C3154
:101A5200080023000F0C890C01392000A20023008A
:101A620011081F3920002204031D382D392D2A2D7B
:101A72002300111411183E2D3F2D3B2D23000F0C76
:101A8200890C01392000A200230011081F3920000F
:101A92002204031D4D2D4E2D3F2D9A3096310B26DB
:101AA2008D3123000F0C890C01392000A200230084
:101AB20011081F3920002204031D602D612D522DB3
:101AC200013096310B268D3123000F0C890C013920
:101AD2002000A200230011081F3920002204031D48
:101AE200732D742D652D230091149118792D7A2D63
:101AF200762D23000F0C890C01392000A20023004F
:101B020011081F3920002204031D882D892D7A2DEA
:101B12009B3096310B268D3123000F0C890C013935
:101B22002000A200230011081F3920002204031DF7
:101B32009B2D9C2D8D2D913193218D312000A20062
:101B42002208A30023000F0C890C01392000A200F7
:101B5200230011081F3920002204031DB12DB22DCC
:101B6200A32D230091161116111AB82DB92DB52DDA
:101B720023000F0C890C01392000A2002300110858
:101B82001F3920002204031DC72DC82DB92D2300A3
:101B920011151119CD2DCE2DCA2D2000231FD22DA6
:101BA200D32D2A2D23000F0C890C01392000A2000D
:101BB200230011081F3920002204031DE12DE22D0C
:101BC200D32D230011141118E72DE82DE42D230045
:101BD2000F0C890C01392000A200230011081F39C3
:101BE20020002204031DF62DF72DE82D9A309631A0
:101BF2000B268D3123000F0C890C01392000A20025
:101C0200230011081F3920002204031D092E0A2E69
:101C1200FB2D003096310B268D3123000F0C890CE1
:101C220001392000A200230011081F3920002204DC
:101C3200031D1C2E1D2E0E2E230091149118222EF0
:101C4200232E1F2E23000F0C890C01392000A20025
:101C5200230011081F3920002204031D312E322EC9
:101C6200232E9B3096310B268D3123000F0C890CCD
:101C720001392000A200230011081F39200022048C
:101C8200031D442E452E362E913193218D31200095
:101C9200A2002208A30023000F0C890C01392000A6
:101CA200A200230011081F3920002204031D5A2E0E
:101CB2005B2E4C2E230091161116111A612E622EE4
:101CC2005E2E23000F0C890C01392000A200230094
:101CD20011081F3920002204031D702E712E622E5E
:101CE200230011151119762E772E732E200023084A
:101CF20008008D312A258E312000AA002A08EE0024
:101D02000030903174208E3120002008AA00210872
:101D1200AB000D30AB36AA0C890B8B2E2A08AC0017
:101D22002C08ED006E08AA00AB0121006708200014
:101D32002B06031DA02E2100660820002A06031D83
:101D4200A32EA42EB52E6D08AA00AB0121006508B2
:101D520020002B06031DB12E2100640820002A0654
:101D62000319B42EB52EB32F6B08AA00AB012A08B3
:101D7200A0002B08A1000530A2000030A300913181
:101D8200D1218E3120002008123EA6007030213D64
:101D9200A7006508AC002C08A800923179228E3188
:101DA20020006B08AA00AB012A08A0002B08A100A2
:101DB2000530A2000030A3009131D1218E312000E4
:101DC2002008133EA6007030213DA7006608AC0033
:101DD2002C08A800923179228E3120006B08AA00CB
:101DE200AB012A08A0002B08A1000530A200003098
:101DF200A3009131D1218E3120002008143EA6008B
:101E02007030213DA7006708AC002C08A800923171
:101E120079228E3120006B08AA00AB012A08A000AB
:101E22002B08A1000530A2000030A3009131D1217E
:101E32008E3120002008153EA6007030213DA700FB
:101E42006E08AC002C08A800923179228E31200055
:101E52006B08AA00AB012A08A0002B08A1000530DC
:101E6200A2000030A3009131D1218E312000200840
:101E7200163EA6007030213DA7006D08AC002C086C
:101E8200A800923179228E31210033087D06031D8C
:101E92004B2F4C2F522F01302000AA002A08EC07AA
:101EA200582F01302000AA002A082100B307013070
:101EB2002000AA002A08EB077D08FF3EAA00FF3097
:101EC20003180030AB002B08803AAC0080302C02A3
:101ED200031D6D2F6B082A020318702F712F762FA6
:101EE2002100B101B10A2000EB01210031080319E0
:101EF2007B2F7C2F822F7D082000AA002A08EA006F
:101F0200872F01302000AA002A08EA077D08FF3E39
:101F1200AA00FF3003180030AB002B08803AAC0057
:101F220080302C02031D972F6C082A0203189A2F67
:101F32009B2F9D2F2000EC0120006E08AA00AB0110
:101F42002A082100E60020002B082100E7002000DB
:101F52006D08AA00AB012A082100E40020002B082A
:101F62002100E500413020006F06031DB92FBA2F72
:101F7200FF2F2100240820006D020318C12FC22F59
:101F8200DA2F21003908031DC72FC82FDA2F2608A0
:101F9200031DCC2FCD2FD32FFF302000AA002A08FB
:101FA2002100E100A601A60AA501A50A2000161635
:101FB200DE2F2100A601200016126E082100270242
:101FC2000318E42FE52FFC2F3A08031DE92FEA2F0F
:101FD200FC2F2908031DEE2FEF2FF52FFF302000D5
:101FE200AA002A082100E100A901A90AA801A80A59
:0E1FF20020009616FF2FA9012000961208006D
:10200200FF34FF34FF34FF34FF34FF34FF34013434
:102012000534033422003708380403191128122822
:10202200172838088A0037080A00903108008030E3
:1020320027008E00FF308D00C0308C0024001F0866
:10204200F33904389F0008002E000C100B140230E4
:102052002000A0000030A1009F31D02790312E0037
:10206200161408000130250090008F019101FF3005
:102072008D008C012E009010803025008E0008000B
:102082002000270830009B002000260830009A001C
:102092001E171E140000000030001C080800240057
:1020A2000E1D542855285C280E1071088D007008EA
:1020B2008C000E14602871088D0070088C000800D6
:1020C2002000A100A0013A302102031869286A28E1
:1020D200722830302102031C6F2870287228A00158
:1020E200A00A200C08002000A300230821009E0063
:1020F2009317131313140000210013188128822848
:102102007D280D082000A10021000C082000A0005D
:1021120008002E00101021006E08F1006D08F0007A
:1021220090315020903121006B086C0403199A28D9
:102132009B28A0286C088A006B080A0090310800CE
:1021420022008E018F0190019101920193018D0174
:1021520021009E019B0194019501960197019A012C
:102162009901980180309300FF309D0008000430EF
:1021720020002F063004031DBF28C028CB283108B9
:1021820086008701423F2100EA00C4309031E920F5
:102192009031CF28C430913156219031080020006F
:1021A2002108A3002008A200A336A20CA336A20C89
:1021B200220827008D00200020080339A2000530E4
:1021C200A235FF3E031DE128223527008C000800BE
:1021D2002000AA00FD30A9002908AB002A08A900A6
:1021E2002908AC00AD01FE30A9002908AE00043078
:1021F200A3000030A4002B30A9002908A5009231C9
:1022020056229031080020003108023E86008701E4
:102212003C30010203180E290F291A2931088600C1
:102222008701423F2100E900C5309031E920913118
:102232001E29C530913156219131080024292E08DA
:102242009F31EB27913120002A08AC002908AB000E
:10225200A90A0319AA0A2B0884002C088500000881
:10226200AD002D08AE002E08031D3829392920297A
:1022720008009F31A527913195311C2591319F315D
:10228200D92791319031182091319031A12091318B
:102292009031332091319131742191319031252047
:1022A200913193313623913108002000AA00FD308C
:1022B200A9002908AB002A08A9002908AC00FF30B0
:1022C200A9002908AD00FE30A9002908AE0004309B
:1022D200A3000030A4002B30A9002908A5009231E8
:1022E20056229131080024008F01900104309100A0
:1022F20086308D00E8308C000D082100EE002400AD
:102302000C082100ED002E0010101A1403302000DA
:10231200A0000030A1009F31E22791310530240056
:102322008E0008000F30230010052000A0000830A6
:10233200200603199D299E29A9290F302300100583
:102342002000A0000B302006031DA829A929AB29D3
:102352002300911523000F1CAF29B029AB290C08CB
:1023620008002000A6002608A4002408A500C4290D
:102372002008A40025088600870124088100013076
:10238200A4002408A5070130A2020030A33B220AC0
:10239200031DCF29230A031DCF29D029B9290800FB
:1023A2002000A401A501201CD729D829DC29220854
:1023B200A4072308A53D0130A235A30D890BDD2911
:1023C2000130A136A00C890BE22920082104031D4B
:1023D200EB29EC29D4292508A1002408A000080033
:1023E20022009D1CF529F629F8291D121D1619082F
:1023F200F00021003E08203E86000230870070086F
:1024020081000130F0007008BE0740303E02031C1C
:102412000B2A0C2A0D2ABE010130F0007008BC07FD
:102422000800FD302000B2003208B300C230B20012
:102432003208B4006E08B2003208B5006D08B2006E
:102442003208B600FE30B2003208B7000530A300F1
:102452000030A4003330B2003208A5009231562277
:1024620092310800403021006F020318392A3A2ABB
:10247200532A3F08A03E860001308700010822004F
:102482009A000130F00070082100BF0740303F027F
:10249200031C4C2A4D2A4E2ABF010130F00070085D
:1024A200EF07552A2E00191208002000A701A801E3
:1024B2006A2A200027082507A60026088600870129
:1024C20001089F319E27923101302000A70700307A
:1024D200A83D2808803AA6002408803A2602031D57
:1024E200742A23082702031C772A782A5A2A08000A
:1024F20000308B1B01302000A900270830009B0010
:102502002000260830009A002000280830009C0095
:102512001E171E158B1355309F00AA309F009E1464
:102522009E18942A952A912A1E112000290C031C18
:102532008B1303188B170800FD302000B2003208FD
:10254200B300C030B2003208B4006508B2003208ED
:10255200B5006608B2003208B6006708B200320859
:10256200B700FE30B2003208B8000630A3000030D7
:10257200A4003330B2003208A500923156229231C3
:102582000800FD302000B2003208B300C330B200B0
:102592003208B40021006A082000B2003208B500F7
:1025A200210069082000B2003208B600FE30B200F5
:1025B2003208B7000530A3000030A4003330B20067
:1025C2003208A500923156229231080021003C08BF
:1025D2000319EC2AED2AE72A3D08203E8600023044
:1025E200870001082000A0002008A1000130A000FF
:1025F20020082100BD0740303D02031C012B022BA5
:10260200032BBD012E00991201302100BC022E00C5
:102612009916200021080800FD302000B20032087F
:10262200B300CA30B2003208B4007D08B2003208EA
:10263200B5006A08B2003208B6006C08B20032086F
:10264200B7006B08B2003208B800FE30B2003208A0
:10265200B9000730A3000030A4003330B2003208C2
:10266200A50092315622933108002E009912F130C2
:102672002000A0001130A1009F31BE2793312E000F
:10268200191233302000A0001230A1009F31C72759
:102692009331083022009F0090309D0024309E002C
:1026A20019309B009C012100C001BF014030200075
:1026B200A20022082100EF00BE01BD01BC012E00D4
:1026C2009916080020008E1A672B682B832B413045
:1026D2006F06031D6D2B6E2B732B6130E3006308B5
:1026E200EF00772B4130E3006308EF002130200038
:1026F200E3007630890B7B2BE30B7B2B00008331CD
:102702006C2393318931B321933104302000680660
:10271200690403198D2B8E2B632BE801E901080054
:10272200982B0130A1023C30A7002708A207200005
:1027320025082202031C9E2B9F2B922B2508220286
:10274200A7002608023E8600870127088100AF2BDA
:102752000130A0023C30A7002708A107240821026B
:10276200031CB42BB52BA92B24082102A700260A8F
:10277200860087012708810023082002A700260877
:102782008600870127088100080020002808290404
:102792000319CC2BCD2BF62BAD01AD0AD92B013071
:1027A200A835A90D890BD12B0130AC002C08AD073F
:1027B200A91FDC2BDD2BD02B29082B02031DE32BB9
:1027C20028082A02031CE62BE72BEB2B2808AA0277
:1027D2002908AB3B0130A936A80C890BEC2B013040
:1027E200AD02031DF52BF62BDD2B2B08A9002A08C1
:1027F200A800080020008E1AFF2B002C222C21009A
:102802003908031D052C062C092CB901B90A162C0E
:1028120001302000E30063082100A40708302402ED
:10282200031C142C152C162CA40121302000E300CB
:102832007630890B1A2CE30B1A2C000083316C239F
:1028420093318931B3219331033020006806690442
:1028520003192C2C2D2CFB2B2100B9010800200080
:102862008E1A342C352C572C21003A08031D3A2C91
:102872003B2C3E2CBA01BA0A4B2C01302000E3005B
:1028820063082100A70733302702031C492C4A2C76
:102892004B2CA70121302000E3007630890B4F2C0E
:1028A200E30B4F2C000083316C2394318931B32127
:1028B200943102302000680669040319612C622CED
:1028C200302C2100BA01080020003108023E8600A7
:1028D20087010108031D6E2C6F2C7F2C04302F06FC
:1028E2003004031D752C762C7F2C6130B200320827
:1028F200EF00C9309031E92094319C2C3108023E1E
:10290200860087010103031D872C882C982C043034
:102912002F063004031D8E2C8F2C982C4130B200D0
:102922003208EF00C9309031E92094319C2CC93033
:1029320091315621943108002000A501A6012008FA
:1029420021040319A52CA62CD52CA701A70AB22C69
:102952000130A035A10D890BAA2C0130A400240856
:10296200A707A11FB52CB62CA92C0130A535A60DA1
:10297200890BB72C21082302031DC12C2008220237
:10298200031CC42CC52CCA2C2008A2022108A33B7C
:1029920025140130A136A00C890BCB2C0130A702E3
:1029A200031DD42CD52CB62C2608A1002508A00086
:1029B2000800FD302000B2003208B300C630B20079
:1029C2003208B400210020082000B2003208B5000D
:1029D200210021082000B2003208B600210022089E
:1029E2002000B2003208B700210027082000B20000
:1029F2003208B800210024082000B2003208B900D1
:102A020041306F060319062D082D0130092D0030C3
:102A1200B2003208BA00FE30B2003208BB00093000
:102A2200A3000030A4003330B2003208A500923176
:102A320056229431080020009A01990196019701CB
:102A42009801073095000F309100FF309200BF309F
:102A52009300FF309400FF303E00D9004730CE0093
:102A6200EF30C3000730E4004F30B800DA01E5016F
:102A7200C401B901CF01E601BA01C501D001DB01F0
:102A8200FF30BB00FF30C600FF30D100FF30DC005A
:102A92000730E7000C303D0090001730CB001330B8
:102AA200C50014303E00A3001530A4000E3096007D
:102AB2001030A60014303D00C60008002000A3001C
:102AC20023000F0C890C01392000A20023001108F9
:102AD2001F3920002204031D6F2D702D612D23004C
:102AE20011141118752D762D722D23000F0C890CDF
:102AF20001392000A200230011081F3920002204FE
:102B0200031D842D852D762D4E3096310B26953161
:102B120023000F0C890C01392000A20023001108A8
:102B22001F3920002204031D972D982D892D23087B
:102B320096310B26953123000F0C890C01392000A8
:102B4200A200230011081F3920002204031DAA2D10
:102B5200AB2D9C2D230011151119B02DB12DAD2DCA
:102B6200080020003108023E860087010108B200F9
:102B7200B3013208B4003308B5003108033E8600C1
:102B820087010108B200B3013208B6003308B7006A
:102B9200B51BCC2DCD2D062E3508803AB2008030E3
:102BA2003202031DD62D323034020318D92DDA2D0C
:102BB200062E2000B71BDE2DDF2D062E3708803AA9
:102BC200B20080303202031DE82D083036020318AD
:102BD200EB2DEC2D062E053020002F063004031DB0
:102BE200F32DF42D062E310886008701423F210085
:102BF200A7002000310886008701433F2100A4007E
:102C0200C8309031E92095310A2EC83091315621D1
:102C1200953108002000A100210823008C00901F9C
:102C2200132E142E152E642E0F3010052000A00036
:102C32000830200603191E2E1F2E382E0F302300B7
:102C420010052000A0000B3020060319292E2A2E81
:102C5200382E230010162E000F1C302E312E2C2E53
:102C620023000F19352E362E642E0F08642E0F30D6
:102C7200230010052000A000083020060319422E70
:102C8200432E4E2E0F30230010052000A0000B30E3
:102C92002006031D4D2E4E2E642E23000F18522E99
:102CA200532E4E2E23000F0C890C01392000A00058
:102CB200230011081F3920002004031D612E622EFB
:102CC200532E230011080800200068086904031D20
:102CD2006B2E6C2E822E21002308031D712E722E64
:102CE2007C2E2808031D762E772E7C2E25080319AC
:102CF2007B2E7C2E822EA301A801A501E801E80A01
:102D0200B52E200068036904031D882E892EAA2E81
:102D12007C08803AA00080302002031D922E0130F0
:102D22007B02031C952E962E9A2E0130FB07003053
:102D3200FC3D7C08803A2000A00080302002031D68
:102D4200A42E04307B02031CA72EA82EAA2EFB0160
:102D5200FC017B087C04031DAF2EB02EB52E013082
:102D62002000E8070030E93D11302000A0003A3091
:102D7200890BB92EA00BB92E00000800F601F11F35
:102D8200C32EC42ECB2EF009F109F00A0319F10A61
:102D9200F601F60AF31FCE2ECF2ED82EF209F30932
:102DA200F20A0319F30A0130F4007408F606F70177
:102DB200F801700871040319DF2EE02E0F2FF501C0
:102DC200F50AEC2E0130F035F10D890BE42E0130BD
:102DD200F4007408F507F11FEF2EF02EE32E0130F8
:102DE200F735F80D890BF12E71087302031DFB2EC6
:102DF20070087202031CFE2EFF2E042F7008F202CE
:102E02007108F33B77140130F136F00C890B052F72
:102E12000130F502031D0E2F0F2FF02E7608031935
:102E2200132F142F192FF709F809F70A0319F80AB3
:102E32007808F1007708F000080020008E1A222F8F
:102E4200232F7E2F7B087C04031D282F292F2E2F52
:102E52000130FB000030FC00722F7B037C04031D59
:102E6200332F342F442F173021002002031C3A2F16
:102E72003B2F3D2FA001722F01302000E300630899
:102E82002100A007722F02307B067C04031D4A2F0B
:102E92004B2F5B2F3B3021002106031D512F522F58
:102EA200542FA101722F01302000E300630821009A
:102EB200A107722F03307B067C04031D612F622F52
:102EC200722F3B3021002206031D682F692F6B2FC2
:102ED200A201722F01302000E30063082100A20743
:102EE200722F21302000E3007630890B762FE30B1E
:102EF200762F000083316C2397318931B3219731CA
:102F02002000680369040319872F882F1E2FFB01F5
:102F1200FC01080020003108023E860087010108FA
:102F2200B200B3013208B4003308B5003108033EE1
:102F3200860087010108B200B3013208B6003308E7
:102F4200B7003108043E860087010108B200B301D0
:102F52003208B8003308B900B51BB02FB12FFB2FD0
:102F62003508803AB20080303202031DBA2F183081
:102F720034020318BD2FBE2FFB2F2000B71BC22F18
:102F8200C32FFB2F3708803AB20080303202031D74
:102F9200CC2F3C3036020318CF2FD02FFB2F20002E
:102FA200B91BD42FD52FFB2F3908803AB2008030BD
:102FB2003202031DDE2F3C3038020318E12FE22FCC
:102FC200FB2F063020002F063004031DE92FEA2FC5
:102FD200FB2F3408B2003208E5003608B20032088E
:102FE200E6003808B2003208E700C1309031E9202B
:102FF2009731FF2FC13091315621973108009D340E
:103002001234C0348B341734C13412341234C23403
:10301200C2341234C334B8341034C43404341134D6
:10302200C534DA341434C634A7340834C734B2345D
:103032001534C83465341434C9340D341334CA34E5
:1030420028340B34CB3401340C34CC3425343034B2
:10305200323464343A3425343034323464343A34D9
:1030620025343034323464340034013400340A34C8
:10307200003464340034E834033410342734253403
:103082003034323464342034433400344C34203409
:0E309200253464340034433454344C34003458
:103EEA0021003C08080027008E17080025008E17BD
:103EFA00080027008E13080025008E1308009F3142
:103F0A007B279F3108009F3181279F3108002E00AF
:103F1A000C1090310B209F310800640080010131A0
:103F2A00890B932F0034FE0012001E00FE0B992FFE
:103F3A0000342000A2002208883101209F310800A5
:103F4A002F0096019701980199019A019B01080097
:103F5A002000A800A20128088A3154229F310800B3
:103F6A002E0016102100B701B70A2E000C101614E5
:103F7A000800200021082200BA00200020082200A0
:103F8A00B9000800200021082200BC0020002008F7
:103F9A002200BB000800200021082200B8002000EF
:103FAA0020082200B7000800623031008D008F011E
:103FBA00910102309300920108002000210821009B
:103FCA00EC00200020082100EB0008002000A800D7
:103FDA00A201A20A28088A3154229F31080023002C
:103FEA00901AF82FF92FFF2F8F0128309000910196
:063FFA0003308D000800F9
:020000040001F9
:0A000E00EC3FFF3F9F3FFF3FFF3F25
:00000001FF
