:020000040000FA
:0400000080312828FB
:100008007E1480310B1F09280A2826282E001A1C66
:100018000E280F281728101C1228132817288F318C
:10002800E92780312628991C1A281B2820288F1C8C
:100038001E281F2820282628191C2328242826287B
:100048000F0826287E10090080312A28873084006E
:100058008F3085001200C5001200C6001200C700CC
:100068001200C8001200C9001200CA00CF01D00156
:10007800D101D2017E1020008331882B2000B300EB
:100088002230A8002808AC00C629253034060319F8
:100098004E284F285B283408A800330886008701BB
:1000A800280881000130A8002808B307C629B10133
:1000B800B201B001642830150130A0070030A13D1D
:1000C80020088400210885000008303A03195F28B9
:1000D8006D28200884002108850000088F31D72763
:1000E8008031031C78287928AC282000B101B2019E
:1000F8000A30F0000030F10020003208F300310827
:10010800F2008731CC27803171082000B2007008D6
:10011800B10020088400210885000008D03EA8000E
:10012800FF3003180030A9002808B1072908B23D9C
:100138000130A0070030A13D200884002108850077
:1001480000088F31D72780310318AB28AC287C28CA
:1001580020002108A9002008A800A00A0319A10A64
:1001680028088400290885000008B400003A03190B
:10017800DA29643A0319C4280D3A0319C428C62990
:100188002C0886008701403FAE00413FAF00023097
:10019800A8002808AC07AF1FD228D328DC280330D2
:1001A800A8002808B004AE09AF09AE0A0319AF0ABF
:1001B800B401B40A3408A800A901A835A90D0F3064
:1001C800280784009030293D8500003FAA00013FA0
:1001D800AB002B082F02031DF3282A082E02031850
:1001E800F628F728F82802290130A8002808B407BB
:1001F80005303406031D01290229DE28310832049E
:1002080003190729082912293008033903190D2968
:100218000E291229FF30B107FF30B23D3208803A6B
:10022800803C031D19293108340203181C291D2993
:10023800262920003408A800A9012808B1022908A5
:10024800B23B29292000B101B201301D2C292D29EA
:100258005A29300803390319322933293E292D3008
:10026800A800330886008701280881000130A8000B
:100278002808B30731083204031943294429862979
:100288003030A80033088600870128088100013033
:10029800A8002808B307FF30B107FF30B23D310886
:1002A8003204031D58295929442986293108320462
:1002B80003195F29602975292030A80033088600B2
:1002C8008701280881000130A8002808B307FF30FB
:1002D800B107FF30B23D31083204031D7429752976
:1002E80060293008033903197A297B2986292D309A
:1002F800A800330886008701280881000130A8007B
:100308002808B3073408A8002808AD00BD290A301A
:10031800F8000030F9002D08A800A901A835A90D9A
:100328000F30280784009030293D8500003FF000F9
:10033800013FF1002F08F3002E08F2008731022751
:1003480080317108FB007008FA0087317927803105
:100358007808303E2000AA002A08B4003408A80013
:10036800330886008701280881000130A800280882
:10037800B307FF30A8002808AD072D0A031DC529BB
:10038800C6298B292108A9002008A800A00A03195A
:10039800A10A28088400290885000008AA002A085C
:1003A800B4003408031DD929DA29492833088600FE
:1003B8008701810108002100A00020080319E52910
:1003C800E629022A2000C01FEA29EB29022A3D0952
:1003D8002100A20020003E092100A30020003F09BF
:1003E8002100A400200040092100A500A20A031949
:1003F800A30A0319A40A0319A50A122A200040080F
:100408002100A50020003F082100A40020003E088C
:100418002100A30020003D082100A2002000400880
:100428003F043E043D04031D1A2A1B2A242A0030D7
:10043800C0000030BF000030BE000030BD00B32A4D
:100448009630C10041082100A100372A0130200060
:10045800C10041082100A1070130A536A40CA30C56
:10046800A20C890B312AFE302505031D3C2A3D2AA2
:100478002A2A532A01302000C10041082100A1077F
:100488000130A2070030A33D0030A43D0030A53D57
:100498000130A536A40CA30CA20C890B4D2AFF3001
:1004A8002505031D582A592A3E2A632A0130A1022C
:1004B8000130A235A30DA40DA50D890B5D2AA41B3F
:1004C800662A672A6D2A0230210203186C2A6D2ACF
:1004D8005A2A2118702A712A792AFF30A205FF307A
:1004E800A3057F30A405FF30A5050310A10C210842
:1004F8002000C100C201C301C4011830C135C20DBA
:10050800C30DC40D890B822A41082100A2042000D2
:1005180042082100A304200043082100A40420006D
:1005280044082100A504200803199B2A9C2AA32A11
:100538002000C01FA02AA12AA32A2100A517210054
:1005480025082000C000210024082000BF00210049
:1005580023082000BE00210022082000BD0008005A
:100568002000C2004208F039C0004008C300420819
:10057800C0000330C035FF3E031DBE2A4035F039A8
:10058800C1004108C40023000F0C890C0139200068
:10059800C000230011081F3920004004031DD52A7C
:1005A800D62AC72A230011141118DB2ADC2AD82AD4
:1005B80023000F0C890C01392000C000230011080A
:1005C8001F3920004004031DEA2AEB2ADC2A4E309A
:1005D80085317625823123000F0C890C01392000E2
:1005E800C000230011081F3920004004031DFD2A04
:1005F800FE2AEF2A43083F040838853176258231E0
:1006080023000F0C890C01392000C00023001108B9
:100618001F3920004004031D122B132B042B430801
:100628003F040C3885317625823123000F0C890C64
:1006380001392000C000230011081F3920004004A0
:10064800031D272B282B192B200043083F040838AB
:1006580085317625823123000F0C890C0139200061
:10066800C000230011081F3920004004031D3D2B42
:100678003E2B2F2B44083F040838853176258231DC
:1006880023000F0C890C01392000C0002300110839
:100698001F3920004004031D522B532B442B4408C0
:1006A8003F040C3885317625823123000F0C890CE4
:1006B80001392000C000230011081F392000400420
:1006C800031D672B682B592B200044083F0408386A
:1006D80085317625823123000F0C890C01392000E1
:1006E800C000230011081F3920004004031D7D2B82
:1006F8007E2B6F2B230011151119832B842B802B34
:100708000430890B852B08008F31B9278331BD3020
:100718002000BD000630BE008F31812783318F3124
:10072800AD2783312000931513163E00CF154F16C1
:100738008531002583318B170B17200016160D0EF7
:1007480001392100B200B301B401B5013508200018
:10075800C000210034082000BF0021003308200019
:10076800BE00210032082000BD0000308131DF21A9
:100778008331200040082100B90020003F082100F3
:10078800B80020003E082100B70020003D082100E5
:10079800B6000130BA000030BB0020000D0E013950
:1007A8002100B200B301B401B50135082000C00032
:1007B800210034082000BF00210033082000BE00BB
:1007C800210032082000BD0000308131DF21833153
:1007D800200040082100A90020003F082100A800AF
:1007E80020003E082100A70020003D082100A600A7
:1007F8003908AD003808AC003708AB003608AA0045
:1008080086312326833103180A2C0B2CD12B210087
:100818003A033B04031D112C122C182C200016122D
:100828002100BA01BB011F2C20001616013021003F
:10083800BA000030BB0020000D0E01392100B200C3
:10084800B301B401B50135082000C0002100340807
:100858002000BF00210033082000BE00210032081C
:100868002000BD0000308131DF21833120004008A5
:100878002100B90020003F082100B80020003E08F0
:100888002100B70020003D082100B600D12B80319F
:100898002828F5007508F039F3007308F600750884
:1008A800F3000330F335FF3E031D562C7335F03942
:1008B800F4007408F70023000F0C890C0139F300C9
:1008C80011081F397304031D6A2C6B2C5F2C11143B
:1008D80011186F2C702C6C2C0F0C890C0139F3003B
:1008E80011081F397304031D7A2C7B2C702C4E3091
:1008F80086317226843123000F0C890C0139F300EC
:1009080011081F397304031D8A2C8B2C7F2C760841
:100918007204083886317226843123000F0C890C42
:100928000139F30011081F397304031D9C2C9D2CF9
:10093800912C760872040C38863172268431230093
:100948000F0C890C0139F30011081F397304031DBA
:10095800AE2CAF2CA32C7608720408388631722688
:10096800843123000F0C890C0139F30011081F3959
:100978007304031DC02CC12CB52C770872040838E9
:1009880086317226843123000F0C890C0139F3005B
:1009980011081F397304031DD22CD32CC72C7708D8
:1009A80072040C3886317226843123000F0C890CAE
:1009B8000139F30011081F397304031DE42CE52CD9
:1009C800D92C7708720408388631722684312300BE
:1009D8000F0C890C0139F30011081F397304031D2A
:1009E800F62CF72CEB2C11151119FB2CFC2CF82CE0
:1009F8000430890BFD2C080011302100A0003A308A
:100A0800890B042DA00B042D000030308531D02532
:100A1800853134308531D02585312930890B122D27
:100A2800003230308531D0258531FA300032890BDB
:100A38001A2D30308531D025853134308531D02597
:100A480085312930890B262D003230308531D0256B
:100A580085310830890B2E2D000030308531D025A6
:100A6800853134308531D02585312930890B3A2DAF
:100A7800003230308531D02585310830890B422D40
:100A8800000020308531D025853124308531D025AE
:100A980085312930890B4E2D003220308531D02503
:100AA8008531FA300032890B562D2000BF012830DD
:100AB8008231B42285312000BF0106308231B42250
:100AC80085312000BF010F308231B42285312000EA
:100AD800BF0101308231B4228531A630890B722DD5
:100AE800003208002000BE003E0823008C00901F42
:100AF8007E2D7F2D802DCF2D0F3010052000BD00BD
:100B080008303D060319892D8A2DA32D0F302300A7
:100B180010052000BD000B303D060319942D952DBE
:100B2800A32D230010162E000F1C9B2D9C2D972DF6
:100B380023000F19A02DA12DCF2D0F08CF2D0F3079
:100B4800230010052000BD0008303D060319AD2D17
:100B5800AE2DB92D0F30230010052000BD000B303D
:100B68003D06031DB82DB92DCF2D23000F18BD2D1F
:100B7800BE2DB92D23000F0C890C01392000BD00B2
:100B8800230011081F3920003D04031DCC2DCD2D55
:100B9800BE2D2300110808002000C00023000F0C00
:100BA800890C01392000BF00230011081F392000DB
:100BB8003F04031DE02DE12DD22D2300111411183F
:100BC800E62DE72DE32D23000F0C890C01392000B9
:100BD800BF00230011081F3920003F04031DF52D15
:100BE800F62DE72D4E3085317625853123000F0C03
:100BF800890C01392000BF00230011081F3920008B
:100C08003F04031D082E092EFA2D4008853176254C
:100C1800853123000F0C890C01392000BF00230007
:100C280011081F3920003F04031D1B2E1C2E0D2EFA
:100C3800230011151119212E222E1E2E0800003016
:100C480021002605AE0000302705AF0080302805BA
:100C5800B0007F302905B100310830042F042E047C
:100C6800031D372E382E402E0030A9000030A80072
:100C78000030A7000030A60000302A05AE00003082
:100C88002B05AF0080302C05B0007F302D05B1005A
:100C9800310830042F042E04031D532E542E5C2ECD
:100CA8000030AD000030AC000030AB000030AA00CE
:100CB8002D082906031D6A2E2C082806031D6A2EF6
:100CC8002B082706031D6A2E2A08260603196D2EEF
:100CD8006E2E702E0310712E03140800F100710897
:100CE80023008C00901F792E7A2E7B2EBC2E0F307D
:100CF8001005F000083070060319832E842E9A2EF2
:100D08000F301005F0000B30700603198C2E8D2E55
:100D18009A2E10162E000F1C922E932E8E2E230024
:100D28000F19972E982EBC2E0F08BC2E0F301005C9
:100D3800F000083070060319A22EA32EAC2E0F3037
:100D48001005F0000B307006031DAB2EAC2EBC2E28
:100D58000F18AF2EB02EAC2E0F0C890C0139F000F5
:100D680011081F397004031DBA2EBB2EB02E1108AE
:100D7800080001302000C5070030C63D3C3045065C
:100D88004604031DC82EC92ECF2E0130C7070030D8
:100D9800C83DC501C6013C3047064804031DD52E91
:100DA800D62EDC2E0130C9070030CA3DC701C80164
:100DB800183049064A04031DE22EE32EE52EC90128
:100DC800CA010030A0009030A1004A08A3004908D9
:100DD800A2004808A5004708A4004608A70045083F
:100DE800A600353080314220863180308F318D2702
:100DF800863135308731EB2786310800F501F60159
:100E0800700871040319092F0A2F392FF701F70AFF
:100E1800162F0130F035F10D890B0E2F0130F4003B
:100E28007408F707F11F192F1A2F0D2F0130F53508
:100E3800F60D890B1B2F71087302031D252F7008EF
:100E48007202031C282F292F2E2F7008F202710816
:100E5800F33B75140130F136F00C890B2F2F01305C
:100E6800F702031D382F392F1A2F7608F10075085D
:100E7800F000080020009A01990196019701980155
:100E880007309500EF309100FF309200FF3093005B
:100E9800FF309400FF303E00D900E730CE00EF303D
:100EA800C3000730E400EF30B800DA01E501C401FF
:100EB800B901CF01E601BA01C501D001DB01FF305C
:100EC800BB00FF30C600FF30D100FF30DC00073028
:100ED800E70013303D00C50014303E00A300153074
:100EE800A40014303D00C6000800780879040319EE
:100EF8007E2F7F2FA82FFD01FD0A8B2F0130F8359B
:100F0800F90D890B832F0130FC007C08FD07F91FC0
:100F18008E2F8F2F822F79087B02031D952F78083B
:100F28007A02031C982F992F9D2F7808FA027908C6
:100F3800FB3B0130F936F80C890B9E2F0130FD027E
:100F4800031DA72FA82F8F2F7B08F9007A08F80018
:100F5800080024008F0190010430910086308D0034
:100F6800E8308C000D082000CE0024000C0820007A
:100F7800CD002E0010101A14FF302000BD000730DD
:100F8800BE008F3181278731013024008E00080090
:100F9800F401F501701CD12FD22FD62F7208F40757
:100FA8007308F53D0130F235F30D890BD72F013069
:100FB800F136F00C890BDC2F70087104031DE52F46
:100FC800E62FCE2F7508F1007408F0000800FB002A
:100FD800F12F7A088F31942787317B0886008701A3
:100FE800FB0A0108F9007908FA007A08031DFD2FA9
:080FF800FE2FED2F0800080098
:101F020020003E08CC003D08CB00080028340034F5
:101F12003B34003417340034F800F201780884317D
:101F22004D248F310800F800F201F20A780884315A
:101F32004D248F3108002F009601970198019901D5
:101F42009A019B010800623031008D008F019101DE
:101F520002309300920108002300901AB12FB22F91
:101F6200B82F8F0128309000910103308D000800B6
:101F72008F319C278F3187313E278F318F31A427B4
:101F82008F318731AD278F31080024000E1DCA2FF3
:101F9200CB2FD22F0E1071088D0070088C000E14FA
:101FA200D62F71088D0070088C000800F100F00136
:101FB2003A3071020318DE2FDF2FE72F3030710223
:101FC200031CE42FE52FE72FF001F00A700C080044
:101FD2002E00101020004E08F1004D08F0008F3145
:101FE200C6278F3120004B084C040319F92FFA2F12
:101FF200FF2F4C088A004B080A008F310800253455
:102002003034323464343A34253430343234643443
:102012003A342534303432346434003401340034F8
:102022000A34003464340034E8340334103427347E
:020000040001F9
:0A000E00EC3FFF3F9F3FFF3FFF3F25
:00000001FF
