:020000040000FA
:0400000080312B28F8
:100008007E1480310B1F09280A2829282E00191E62
:100018000E280F281A280F1E122813281A28200025
:100028004E088A004D080A0080312928991E1D288B
:100038001E2829288F1E21282228292820004C081C
:100048008A004B080A00803129287E100900803177
:100058002D28FB01FC013830840000308500133066
:1000680082311C2280317E10200080313B28813172
:10007800FE2180318B170B17553020008C00B401FE
:10008800B5018231342280312000A8002808B3004D
:100098003308A8003408293E860087012808810013
:1000A8000130B4070030B53D3408FF3E293E8600D4
:1000B8008701FE300106031D622863284528FE30AB
:1000C800A8003408FF3E293E8600870128088100E1
:1000D800B401B501B601B7013708F2003608F100DE
:1000E8000330F3000030F4008131DF2180317208E1
:1000F8008500710884003A3084078230853D000805
:1001080020002A06031D89288A288B289528013073
:10011800B6070030B73D36083704031994289528E8
:10012800702836083704031D9A289B284528003074
:10013800F700F800F9013708F2003608F10003303B
:10014800F3000030F4008131DF218031720885002E
:1001580071088400383084078230853D013F8A0069
:10016800003F0A008031452880312B28FD30FA00F5
:100178007A082000A000C030FA007A08A1000A30EE
:10018800FA007A08A2001430FA007A08A3001E3098
:10019800FA007A08A400FE30FA007A08A500A60141
:1001A800A701E42820002608203E860087010108D0
:1001B80082312222803101302000A6070030A73D7D
:1001C8002708803AFA0080307A02031DED280630AD
:1001D8002602031CF028F128D628080020009A01DE
:1001E8009901960197019801073095000F30910009
:1001F800FF309200BF309300FF309400FF303E0084
:10020800D9007F30CE00FF30C3000730E4000F3044
:10021800B800DA01E501C401B901CF01E601BA016C
:10022800C501D001DB01FF30BB00FF30C600FF3045
:10023800D100FF30DC000730E70017303D00CB006D
:1002480010303E00A6000800F20020004F080319F5
:100258002E292F2929292E00191A3329342938291A
:10026800720822009A004F2919127208F1007C08BE
:10027800403E86008701710881000130F100710855
:10028800FC0708307C02031C4A294B294C29FC0135
:1002980001302000CF022E00191608002E009912F6
:1002A800BF30F1000130F20082312E2281312E0060
:1002B80019129D30F1000130F2008231282281317B
:1002C800083022009F0090309D0024309E00193095
:1002D8009B009C01FC01FB010830F300730820001F
:1002E800CF00CA01C901C8012E00991608002000D4
:1002F80048080319802981297B294908383E860046
:1003080087010108F1007108F2000130F10071085D
:10031800C90708304902031C922993299429C90165
:100328002E00991201302000C8022E00991672087A
:100338000800083020004F020318A329A429BC296B
:100348007B08403E86008701010822009A000130A0
:10035800F0007008FB0708307B02031CB429B5299C
:10036800B629FB010130F00070082000CF07BE2934
:100378002E001912080022009D1CC329C429C62971
:100388001D121D161908F00020004A08383E860084
:100398008701700881000130F0007008CA07083032
:1003A8004A02031CD829D929DA29CA010130F000E8
:1003B8007008C8070800F501F601711CE429E52951
:1003C800E9297308F5077408F63D0130F335F40D93
:1003D800890BEA290130F236F10C890BEF297108F3
:1003E8007204031DF829F929E1297608F200750835
:1003F800F10008008231142281318031F2208131EC
:1004080082310B22813181315221813108006230E1
:1004180031008D008F019101023093009201080094
:100428002F0096019701980199019A019B010800F4
:10043800640080010131890B1D2A0034F300730820
:10044800813128218231080072082000CE0071080D
:10045800CD00080072082000CC007108CB0008000D
:0E04680081317B2182310800BA340034C03467
:020000040001F9
:0A000E00EC3FFF3F9F3FFF3FFF3F25
:00000001FF
