:020000040000FA
:1000000080314028080008007E1480310B1F092829
:100010000A283E282E001A1E0E280F281728101E08
:100020001228132817288831AF2080313E281A1D46
:100030001A281B282328101D1E281F282328883132
:10004000982080313E281A1C262827282F28101C8B
:100050002A282B282F288831812080313E28991C7E
:100060003228332838288F1C3628372838283E284D
:10007000191C3B283C283E280F083E287E1009000A
:1000800080314228AA30840097308500673086008E
:1000900000308700073097319D2780314D30840034
:1000A000003085001A30973197278031BB308400AB
:1000B0000030850009309731972780317E1020006D
:1000C0008031622889311021803100302100A00068
:1000D000A1008831DD2080318731FC2780319731C4
:1000E00077278031F3302100A0000D30A100973137
:1000F0008527803173302100A0000230A1009731A4
:100100008B278031E4302100A0000530A100973119
:10011000912780312100AC01AD01AD0AAE01003064
:10012000A0007030A1009731F1278031533A031DB0
:100130009A289B28DA282100AD010130AF00003059
:10014000B00021003008AA002F08A900A935AA0D87
:10015000A935AA0DA935AA0D2908003EA0007030C6
:100160002A3DA1009731F12780312100AB002B08F7
:10017000AC070130AF070030B03D3008803AA9002D
:1001800080302902031DC6280D302F02031CC92808
:10019000CA28A12868302100A0007030A100973142
:1001A000F127803121002C060319D728D828DA2816
:1001B000AE01AE0A21002D08031DDF28E028E52846
:1001C0002E080319E428E5287D290030A0007030AE
:1001D000A1005330A9002908A2008731D827803117
:1001E00008302100A0007030A1001930A9002908B2
:1001F000A2008731D827803110302100A000703054
:10020000A1000330A9002908A2008731D827803136
:1002100018302100A0007030A1000530A900290885
:10022000A2008731D827803120302100A000703013
:10023000A1000C30A9002908A2008731D8278031FD
:1002400028302100A0007030A100A2018731D827FA
:10025000803130302100A0007030A100A201873130
:10026000D827803138302100A0007030A1001C3028
:10027000A9002908A2008731D82780314030210009
:10028000A0007030A1000430A9002908A200873125
:10029000D827803148302100A0007030A1006130A3
:1002A000A9002908A2008731D827803150302100C9
:1002B000A0007030A100A2018731D82780315830CA
:1002C0002100A0007030A100A2018731D827803121
:1002D00060302100A0007030A100A2018731D82732
:1002E000803168302100A0007030A100AE30A9003C
:1002F0002908A2008731D827803110302100A000C2
:100300007030A1009731F12780312100A900290820
:10031000C3001830A0007030A1009731F127803160
:100320002100A90029082000E50020302100A000BC
:100330007030A1009731F12780312100A9002908F0
:100340002000CD0028302100A0007030A10097319E
:10035000F12780312100A90029082000CE0030308B
:100360002100A0007030A1009731F12780312100D9
:10037000A90029082000CF0038302100A0007030EB
:10038000A1009731F12780312100A9002908200020
:10039000D40040302100A0007030A1009731F12737
:1003A00080312100A90029082000D1004830210017
:1003B000A0007030A1009731F12780312100A90001
:1003C00029082000E40050302100A0007030A10076
:1003D0009731F12780312100A90029082000D7009A
:1003E00058302100A0007030A1009731F1278031F2
:1003F0002100A90029082000D80060302100A000B9
:100400007030A1009731F12780312100A90029081F
:10041000C2002000D501D601D201D301D00197310D
:10042000CA2780312000931513163E00CF154F16B2
:100430008C31472480318B170B1720000D1A212A8D
:10044000222A5B2A11302100A9003A30890B262A82
:10045000A90B262A000020005A085B04031D312A3C
:10046000322A452A5008031D362A372A412A5508C0
:10047000031D3B2A3C2A412A52080319402A412ADB
:10048000452AD001D501D201492A0130DA000030D5
:10049000DB000D1E4C2A4D2A492A5B2A8C31BD24D3
:1004A00080318A31662280318A312E2280318A3130
:1004B0009E2280311D2A5B08003A0319602A1D2AFA
:1004C0005A08003A03191D2A013A03194E2A033A21
:1004D0000319512A013A0319542A073A0319572AD2
:1004E0001D2A8031402820005C085D040319792A08
:1004F0007A2A982A0030A0009030A1004D08B5005B
:10050000B6013508A2003608A3004E08B700B801AE
:100510003708A4003808A5004F08B900BA01390807
:10052000A6003A08A7003B30843147248231B52A1F
:100530000030A0009030A1005708B500B601350882
:10054000A2003608A3005808B700B8013708A40075
:100550003808A5005908B900BA013908A6003A08B8
:10056000A7003B3084314724823180309731A32764
:1005700082313B308831572082314130200064067F
:10058000031DC32AC42A952B8F309731A3278231AC
:10059000200064089731B127823120005003031DE9
:1005A000D22AD32ADC2A8B309731A32782314330D9
:1005B0009731B1278231E42A8B309731A3278231DA
:1005C00020309731B127823120005503031DE92ADD
:1005D000EA2AF32A8C309731A3278231543097319D
:1005E000B1278231FB2A8C309731A327823120300A
:1005F0009731B127823120005203031D002B012BBC
:100600000A2B8D309731A32782314C309731B12797
:100610008231122B8D309731A327823120309731D0
:10062000B127823120005008031D172B182B222BD5
:100630005508031D1C2B1D2B222B52080319212B9F
:10064000222B9E2B670A031D262B272B332B5708A3
:10065000B5003508E7005808B5003508E800590826
:10066000B5003508E90021003B082000CA00210040
:100670003C082000CB0021003D082000CC0057089A
:10068000F0005808F1005908F2006708F300680804
:10069000F4006908F5004A30B5003508F6008931E4
:1006A000C621823120004C086502031C582B592BAF
:1006B000832B27008E1B5D2B5E2B642B97317D27B0
:1006C000823197316B27823120005F08803AB50074
:1006D00084303502031D6E2B00305E020318712B2F
:1006E000722B782BC8302000DE070030DF3D7B2BDB
:1006F0002000DE01DF015F08F1005E08F0008831B4
:100700006B2082319E2B27008E1F872B882B9E2BE0
:100710000030F000F10088316B2082319731812761
:1007200082319731712782319E2B8F309731A327E9
:100730008231200064089731B1278231C03097316F
:10074000A3278231200061080319A72BA82BB82BFF
:100750000A30A0009830A1005408B500B601350851
:10076000A2003608A3004330843147248231C72BCE
:100770000A30A0009830A1006308B500B601350822
:10078000A2003608A300433084314724823143302D
:10079000883157208231CD309731A3278231200014
:1007A00060080319D42BD52BE52B1130A00098300D
:1007B000A1005108B500B6013508A2003608A30013
:1007C0004730843147248231F42B1130A000983017
:1007D000A1006208B500B6013508A2003608A300E2
:1007E0004730843147248231473088315720823165
:1007F00020005A035B04031DFE2BFF2B232C5C03FC
:100800005D04031D042C052C0A2C81309731A3278D
:100810008231462C02305C065D04031D102C112C25
:10082000162C84309731A3278231462C03305C0686
:100830005D04031D1C2C1D2C222C87309731A3270F
:100840008231462C462C02305A065B04031D292CAB
:100850002A2C2F2CC1309731A3278231462C03300C
:100860005A065B04031D352C362C3B2CCF309731B8
:10087000A3278231462C04305A065B04031D412C09
:10088000422C462C8F309731A3278231080020005C
:10089000B4002230A8002808AC00CB2D2530330648
:1008A0000319532C542C602C3308A80034088600FC
:1008B0008701280881000130A8002808B407CB2D43
:1008C000B101B201B001692C30150130A007003030
:1008D000A13D20088400210885000008303A031952
:1008E000642C722C200884002108850000088831BF
:1008F00033208431031C7D2C7E2CB12C2000B101CF
:10090000B2010A30F0000030F10020003208F3009C
:100910003108F20089314A21843171082000B20087
:100920007008B10020088400210885000008D03E2E
:10093000A800FF3003180030A9002808B1072908D3
:10094000B23D0130A0070030A13D200884002108FD
:10095000850000088831332084310318B02CB12C75
:10096000812C20002108A9002008A800A00A031952
:10097000A10A28088400290885000008B300003A6D
:100980000319DF2D643A0319C92C0D3A0319C92C38
:10099000CB2D2C0886008701403FAE00413FAF00C1
:1009A0000230A8002808AC07AF1FD72CD82CE12CA8
:1009B0000330A8002808B004AE09AF09AE0A031935
:1009C000AF0AB301B30A3308A800A901A835A90DDD
:1009D0000030280784009830293D8500003FAA0098
:1009E000013FAB002B082F02031DF82C2A082E0212
:1009F0000318FB2CFC2CFD2C072D0130A800280827
:100A0000B30705303306031D062D072DE32C3108EF
:100A1000320403190C2D0D2D172D3008033903193D
:100A2000122D132D172DFF30B107FF30B23D3208C4
:100A3000803A803C031D1E2D310833020318212DFE
:100A4000222D2B2D20003308A800A9012808B1026F
:100A50002908B23B2E2D2000B101B201301D312DED
:100A6000322D5F2D300803390319372D382D432DD2
:100A70002D30A80034088600870128088100013045
:100A8000A8002808B407310832040319482D492D5D
:100A90008B2D3030A800340886008701280881009B
:100AA0000130A8002808B407FF30B107FF30B23D7D
:100AB00031083204031D5D2D5E2D492D8B2D31082B
:100AC00032040319642D652D7A2D2030A8003408D6
:100AD00086008701280881000130A8002808B40793
:100AE000FF30B107FF30B23D31083204031D792DCC
:100AF0007A2D652D3008033903197F2D802D8B2D1C
:100B00002D30A800340886008701280881000130B4
:100B1000A8002808B4073308A8002808AD00C22D93
:100B20000A30F8000030F9002D08A800A901A83506
:100B3000A90D0030280784009830293D8500003F2A
:100B4000F000013FF1002F08F3002E08F2008A3177
:100B5000D62284317108FB007008FA008931FA212D
:100B600084317808303E2000AA002A08B3003308F8
:100B7000A800340886008701280881000130A800F9
:100B80002808B407FF30A8002808AD072D0A031D68
:100B9000CA2DCB2D902D2108A9002008A800A00A5D
:100BA0000319A10A28088400290885000008AA0062
:100BB0002A08B3003308031DDE2DDF2D4E2C340828
:100BC00086008701810108008E31F3268531FA0005
:100BD0007A082000E3000030883145208531700814
:100BE000FA007108FB000D30FB36FA0C890BF42D6E
:100BF0007A08FC007C082000E2006308FA00FB0190
:100C00006D087B06031D062E6C087A06031D092E4F
:100C10000A2E172E6208FA00FB016B087B06031DE3
:100C2000132E6A087A060319162E172EC52E2100D8
:100C30004208FA00FB017A08F0007B08F100283036
:100C4000F2000030F30089314A2185317008403EBE
:100C5000F6007130713DF70020005708FC007C0859
:100C6000F80089312C21853121004208FA00FB016E
:100C70007A08F0007B08F1002830F2000030F30021
:100C800089314A2185317008483EF6007130713D46
:100C9000F70020005808FC007C08F80089312C215E
:100CA000853121004208FA00FB017A08F0007B0838
:100CB000F1002830F2000030F30089314A218531FB
:100CC0007008503EF6007130713DF7002000590861
:100CD000FC007C08F80089312C2185312100420874
:100CE000FA00FB017A08F0007B08F1002830F200DE
:100CF0000030F30089314A2185317008583EF600F2
:100D00007130713DF70020006308FC007C08F8009A
:100D100089312C21853121004208FA00FB017A0833
:100D2000F0007B08F1002830F2000030F300893138
:100D30004A2185317008603EF6007130713DF70040
:100D400020006208FC007C08F80089312C218531E4
:100D50000130FA007A082100C2074208200066022A
:100D60000318B32EB42EB62E2100C2012000630852
:100D7000FA00FB017A08EC007B08ED006208FA003B
:100D8000FB017A08EA007B08EB0041306406031D92
:100D9000CA2ECB2E032F510862020318D02ED12E5B
:100DA000E52E6008031DD52ED62EE52E5308031D13
:100DB000DA2EDB2EDF2EFF30FA007A08E700D301AF
:100DC000D30AD201D20A1616E72ED30116126308EF
:100DD00054020318EC2EED2E012F6108031DF12E95
:100DE000F22E012F5608031DF62EF72EFB2EFF3094
:100DF000FA007A08E700D601D60AD501D50A961678
:100E0000032FD601961208002100A5002508F0390D
:100E1000A3002308A6002508A3000330A335FF3E46
:100E2000031D0E2F2335F039A4002408A70023004A
:100E30000F0C890C01392100A300230011081F3970
:100E400021002304031D252F262F172F2300111403
:100E500011182B2F2C2F282F23000F0C890C013950
:100E60002100A300230011081F3921002304031DC2
:100E70003A2F3B2F2C2F4E308B31ED23873123001F
:100E80000F0C890C01392100A300230011081F3920
:100E900021002304031D4D2F4E2F3F2F260822042F
:100EA00008388B31ED23873123000F0C890C013971
:100EB0002100A300230011081F3921002304031D72
:100EC000622F632F542F260822040C388B31ED2318
:100ED000873123000F0C890C01392100A300230066
:100EE00011081F3921002304031D772F782F692F44
:100EF00021002608220408388B31ED238731230096
:100F00000F0C890C01392100A300230011081F399F
:100F100021002304031D8D2F8E2F7F2F27082204ED
:100F200008388B31ED23873123000F0C890C0139F0
:100F30002100A300230011081F3921002304031DF1
:100F4000A22FA32F942F270822040C388B31ED23D6
:100F5000873123000F0C890C01392100A3002300E5
:100F600011081F3921002304031DB72FB82FA92F03
:100F700021002708220408388B31ED238731230014
:100F80000F0C890C01392100A300230011081F391F
:100F900021002304031DCD2FCE2FBF2F23001115B9
:100FA0001119D32FD42FD02F0430890BD52F08003F
:100FB00000308B1B01302100A300210830009B0072
:100FC0002100200830009A002100220830009C00F7
:100FD0001E171E158B1355309F00AA309F009E14BC
:100FE0009E18F32FF42FF02F1E112100230C031C49
:100FF0008B1303188B17080097317A278731080065
:1010000024000E1D042805280C280E1071088D00E0
:1010100070088C000E14102871088D0070088C0068
:1010200008002400141D152816281D281410710806
:10103000930070089200141421287108930070081E
:101040009200080024001A1D262827282E281A108E
:1010500071089900700898001A14322871089900D4
:10106000700898000800F100F0013A30710203188E
:101070003A283B28432830307102031C402841287D
:101080004328F001F00A700C0800F30073082100F7
:101090009E009317131313140000210013185128F6
:1010A00052284D280D08F1000C08F0000800FB0044
:1010B0005D287A089731B12788317B08860087013F
:1010C000FB0A0108F9007908FA007A08031D69286B
:1010D0006A28592808007108F3007008F200F336F6
:1010E000F20CF336F20C720827008D0070080339F9
:1010F000F2000530F235FF3E031D7A2872358C0070
:1011000008002E00101021003A08F1003908F00004
:1011100088310020883121003708380403199128CC
:101120009228972838088A0037080A008831080072
:101130002E00101120006F08F1006E08F0008831B9
:10114000112088312100350836040319A828A92860
:10115000AE2836088A0035080A00883108002E00BB
:10116000101221003408F1003308F00088312220E9
:1011700088312100310832040319BF28C028C5284E
:1011800032088A0031080A008831080022008E01E6
:101190008F0190019101920193018D0121009E0127
:1011A0009B0194019501960197019A01990198017B
:1011B00080309300FF309D00080021002108A3002B
:1011C0002008A200A336A20CA336A20C22082700F6
:1011D0008D00210020080339A2000530A235FF3E12
:1011E000031DEE28223527008C0008000F30230055
:1011F0001005F000083070060319FF28002909299E
:101200000F301005F0000B307006031D0829092966
:101210000A2991150F1C0D290E290A290C0808000E
:101220009731B92789318B31122389319731C12701
:1012300089319731D62789318831C6208931893162
:10124000882189318931A72189319731E327893173
:10125000893169218931080000308B1B0130F90088
:10126000770830009B0076089A0078089C001E17CB
:101270001E158B1355309F00AA309F009E149E1898
:10128000422943293F291E11790C031C8B13031893
:101290008B170800F401F501701C4F2950295429BF
:1012A0007208F4077308F53D0130F235F30D890B30
:1012B00055290130F136F00C890B5A297008710458
:1012C000031D632964294C297508F1007408F00096
:1012D000080024008F0190010430910086308D00B9
:1012E000E8308C000D082100BA0024000C08210011
:1012F000B9002E0010101A146A302100A000173017
:10130000A100973185278931013024008E00080023
:1013100024009501960104309700E7309300C8300F
:10132000920013082000EF00240012082000EE00B5
:101330002E0010111A1502302100A0000030A1006B
:1013400097318B2789310130240094000800240054
:101350009B019C0104309D004A3099005C3098004C
:1013600019082100B400240018082100B3002E0041
:1013700010121A1603302100A0000030A10097318E
:1013800091278931113024009A000800CD290130BD
:10139000F1023C30F7007708F20775087202031C6F
:1013A000D229D329C72975087202F7007608023EB0
:1013B0008600870177088100E3290130F0023C3084
:1013C000F7007708F10774087102031CE829E9297E
:1013D000DD2974087102F700760A86008701770814
:1013E000810073087002F70076088600870177088D
:1013F00081000800780879040319FF29002A292AA6
:10140000FD01FD0A0C2A0130F835F90D890B042A7B
:101410000130FC007C08FD07F91F0F2A102A032A5F
:1014200079087B02031D162A78087A02031C192A00
:101430001A2A1E2A7808FA027908FB3B0130F9368D
:10144000F80C890B1F2A0130FD02031D282A292AC6
:10145000102A7B08F9007A08F80008002000E00153
:10146000E00A20000D1A352A362A4A2A11302100B6
:10147000A0003A30890B3A2AA00B3A2A000020003B
:10148000E0010430DA000030DB000D1E482A492A52
:10149000452A652A8E1A4D2A4E2A312A013021000A
:1014A000A00020082000D10708305102031C592A4F
:1014B0005A2A5B2AD10121302100A0007630890B05
:1014C0005F2AA00B5F2A0000312A08002000E101FA
:1014D000E10A20000D1A6D2A6E2A822A113021009D
:1014E000A0003A30890B722AA00B722A000020005B
:1014F000E1010330DA000030DB000D1E802A812A72
:101500007D2A9D2A8E1A852A862A692A0130210081
:10151000A00020082000D40733305402031C912A75
:10152000922A932AD40121302100A0007630890B21
:10153000972AA00B972A0000692A080020000D1A9C
:10154000A22AA32AB42A11302100A0003A30890B24
:10155000A72AA00BA72A00002000DA01DB010D1E3C
:10156000B22AB32AAF2AD52A8E1AB72AB82A9E2AB7
:1015700041306406031DBD2ABE2AC52A6130210000
:10158000A00020082000E400CB2A41302100A00068
:1015900020082000E40021302100A0007630890BD3
:1015A000CF2AA00BCF2A00009E2A0800F501F601E1
:1015B000700871040319DD2ADE2A0D2BF701F70AE2
:1015C000EA2A0130F035F10D890BE22A0130F400EE
:1015D0007408F707F11FED2AEE2AE12A0130F535EC
:1015E000F60D890BEF2A71087302031DF92A7008A2
:1015F0007202031CFC2AFD2A022B7008F2027108F9
:10160000F33B75140130F136F00C890B032B0130DC
:10161000F702031D0C2B0D2BEE2A7608F10075083E
:10162000F000080020009A019901960197019801A5
:10163000073095000F309100FF309200FF3093008B
:10164000FF309400FF303E00D900C730CE00EF30AD
:10165000C3000730E4004F30B800DA01E501C401EF
:10166000B901CF01E601BA01C501D001DB01FF30AC
:10167000BB00FF30C600FF30D100FF30DC00073078
:10168000E70013303D00C50014303E00A3001530C4
:10169000A4000E30960014303D00C6000800F10092
:1016A000710823008C00901F562B572B582B992B19
:1016B0000F301005F000083070060319602B612B05
:1016C000772B0F301005F0000B3070060319692BD3
:1016D0006A2B772B10162E000F1C6F2B702B6B2B89
:1016E00023000F19742B752B992B0F08992B0F3092
:1016F0001005F0000830700603197F2B802B892B12
:101700000F301005F0000B307006031D882B892B5D
:10171000992B0F188C2B8D2B892B0F0C890C0139D1
:10172000F00011081F397004031D972B982B8D2B87
:10173000110808002100A30023000F0C890C0139B7
:101740002100A200230011081F3921002204031DDB
:10175000AA2BAB2B9C2B230011141118B02BB12BEF
:10176000AD2B23000F0C890C01392100A2002300AE
:1017700011081F3921002204031DBF2BC02BB12BE0
:101780004E308B31ED238B3123000F0C890C013946
:101790002100A200230011081F3921002204031D8B
:1017A000D22BD32BC42B23088B31ED238B31230079
:1017B0000F0C890C01392100A200230011081F39E8
:1017C00021002204031DE52BE62BD72B2300111546
:1017D0001119EB2BEC2BE82B08002100A1002108AC
:1017E00023008C00901FF52BF62BF72B462C0F3087
:1017F00010052100A000083020060319002C012C40
:101800001A2C0F30230010052100A0000B302006F9
:1018100003190B2C0C2C1A2C230010162E000F1C55
:10182000122C132C0E2C23000F19172C182C462CBD
:101830000F08462C0F30230010052100A0000830AF
:1018400020060319242C252C302C0F3023001005E2
:101850002100A0000B302006031D2F2C302C462C1D
:1018600023000F18342C352C302C23000F0C890C3E
:1018700001392100A000230011081F392100200494
:10188000031D432C442C352C230011080800113073
:101890002100A8003A30890B4B2CA80B4B2C0000E0
:1018A00030308B319A238C3134308B319A238C3108
:1018B0002930890B592C003230308B319A238C31EE
:1018C000FA300032890B612C30308B319A238C3105
:1018D00034308B319A238C312930890B6D2C0032B6
:1018E00030308B319A238C310830890B752C0000F5
:1018F00030308B319A238C3134308B319A238C31B8
:101900002930890B812C003230308B319A238C3175
:101910000830890B892C000020308B319A238C31C0
:1019200024308B319A238C312930890B952C00324D
:1019300020308B319A238C31FA300032890B9D2C68
:101940002100A2012830873104278C312100A20117
:101950000630873104278C312100A2010F308731F6
:1019600004278C312100A2010130873104278C31FA
:10197000A630890BB92C0032080001302000DC00B1
:101980000030DD0020000D1AC62CC72CF02C1130C1
:101990002100A0003A30890BCB2CA00BCB2C0000EF
:1019A00001302000DC070030DD3D0D1ED82CD92C85
:1019B000D52C5D08803A2100A00080302002031D54
:1019C000E42C043020005C02031CE72CE82CF02CF3
:1019D0002000DC01DD010230DA000030DB003F2DA9
:1019E00020008E1AF42CF52CC22C5C035D04031D20
:1019F000FA2CFB2C0A2D17304D02031C002D012D53
:101A0000032DCD01352D01302100A000200820003C
:101A1000CD07352D02305C065D04031D102D112D00
:101A2000202D3B304E06031D162D172D192DCE01EE
:101A3000352D01302100A00020082000CE07352DD3
:101A400003305C065D04031D262D272D352D3B300C
:101A50004F06031D2C2D2D2D2F2DCF01352D01309F
:101A60002100A00020082000CF0721302100A00085
:101A70007630890B392DA00B392D0000C22C0800BF
:101A8000F5007508F039F3007308F6007508F300E7
:101A90000330F335FF3E031D492D7335F039F40053
:101AA0007408F70023000F0C890C0139F3001108AA
:101AB0001F397304031D5D2D5E2D522D1114111855
:101AC000622D632D5F2D0F0C890C0139F300110875
:101AD0001F397304031D6D2D6E2D632D4E308B3118
:101AE0004F238D3123000F0C890C0139F3001108AD
:101AF0001F397304031D7D2D7E2D722D760872040F
:101B000008388B314F238D3123000F0C890C01399C
:101B1000F30011081F397304031D8F2D902D842DA0
:101B2000760872040C388B314F238D3123000F0C53
:101B3000890C0139F30011081F397304031DA12D0D
:101B4000A22D962D7608720408388B314F238D31E3
:101B500023000F0C890C0139F30011081F3973049D
:101B6000031DB32DB42DA82D7708720408388B31CE
:101B70004F238D3123000F0C890C0139F30011081C
:101B80001F397304031DC52DC62DBA2D77087204A5
:101B90000C388B314F238D3123000F0C890C013908
:101BA000F30011081F397304031DD72DD82DCC2D38
:101BB0007708720408388B314F238D3123000F0CC6
:101BC000890C0139F30011081F397304031DE92D35
:101BD000EA2DDE2D11151119EE2DEF2DEB2D043010
:101BE000890BF02D08000130FA007A082000D9078F
:101BF0003C305906031DFD2DFE2DAC2E0130FA00A0
:101C00007A08D807D9010830F6007030F700660866
:101C1000FA007A08F80089312C218D311030F60055
:101C20007030F70021004308FA007A08F800893183
:101C30002C218D311830F6007030F7002000650837
:101C4000FA007A08F80089312C218D312030F60015
:101C50007030F70020004D08FA007A08F80089314A
:101C60002C218D312830F6007030F70020004E080E
:101C7000FA007A08F80089312C218D313030F600D5
:101C80007030F70020004F08FA007A08F800893118
:101C90002C218D313830F6007030F70020005408C8
:101CA000FA007A08F80089312C218D314030F60095
:101CB0007030F70020005108FA007A08F8008931E6
:101CC0002C218D314830F6007030F7002000640878
:101CD000FA007A08F80089312C218D315030F60055
:101CE0007030F70020005708FA007A08F8008931B0
:101CF0002C218D315830F6007030F7002000580844
:101D0000FA007A08F80089312C218D316030F60014
:101D10007030F70021004208FA007A08F800893193
:101D20002C218D316830F6007030F70020004E080D
:101D30004F0758074D0754075107570766072100FB
:101D4000430720006507640721004207FA007A086C
:101D5000F80089312C218D313C3020005806031DBC
:101D6000B22EB32EB82E0130FA007A08D707D80168
:101D700018305706031DBD2EBE2EBF2ED701413091
:101D80006406031DC42EC52EE72E4F085902031CFE
:101D9000CA2ECB2EE72E4E085802031CD02ED12E71
:101DA000E72E4D085702031CD62ED72EE72E5C08CF
:101DB0005D04031DDC2EDD2EE72EFF30FA007A08CD
:101DC000E700D001D00A1930FA007A08CD000310DC
:101DD000961F03140318ED2EF02E20009617F22EF6
:101DE00020009613080023000F0C890C0139F20023
:101DF00011081F397204031DFE2EFF2EF32E11143D
:101E00001118032F042F002F0F0C890C0139F20039
:101E100011081F397204031D0E2F0F2F042F9A3043
:101E20008B314F238E3123000F0C890C0139F200C6
:101E300011081F397204031D1E2F1F2F132F01308D
:101E40008B314F238E3123000F0C890C0139F200A6
:101E500011081F397204031D2E2F2F2F232F9114C9
:101E60009118332F342F302F0F0C890C0139F200C9
:101E700011081F397204031D3E2F3F2F342F9B3052
:101E80008B314F238E3123000F0C890C0139F20066
:101E900011081F397204031D4E2F4F2F432F883115
:101EA000F6208E31F2007208F30023000F0C890C2B
:101EB0000139F20011081F397204031D602F612FD0
:101EC000552F91161116111A662F672F632F0F0CBD
:101ED000890C0139F20011081F397204031D712F9A
:101EE000722F672F11151119762F772F732F731FEC
:101EF0007A2F7B2FF32E0F0C890C0139F200110879
:101F00001F397204031D852F862F7B2F1114111882
:101F10008A2F8B2F872F0F0C890C0139F2001108A3
:101F20001F397204031D952F962F8B2F9A308B31FA
:101F30004F238E3123000F0C890C0139F200110858
:101F40001F397204031DA52FA62F9A2F00308B3145
:101F50004F238E3123000F0C890C0139F200110838
:101F60001F397204031DB52FB62FAA2F9114911893
:101F7000BA2FBB2FB72F0F0C890C0139F2001108B3
:101F80001F397204031DC52FC62FBB2F9B308B3109
:101F90004F238E3123000F0C890C0139F2001108F8
:101FA0001F397204031DD52FD62FCA2F8831F62072
:101FB0008E31F2007208F30023000F0C890C0139F6
:101FC000F20011081F397204031DE72FE82FDC2FE0
:101FD00091161116111AED2FEE2FEA2F0F0C890C06
:101FE0000139F20011081F397204031DF82FF92F6F
:101FF000EE2F11151119FD2FFE2FFA2F730808006F
:1020000025343034323464343A3425343034323484
:0E20100064343A3425343034323464340034CD
:102ED400080027008E17080025008E170800270019
:102EE4008E13080025008E13080027008E13080097
:102EF40025008E13080097316E279731080097310B
:102F040074279731080021002108B8002008B70071
:102F1400080021002108B6002008B500080021009F
:102F24002108B2002008B1000800640080010131CA
:102F3400890B982F0034FE0012001E00FE0B9E2FFA
:102F44000034F800F20178088D31402597310800EB
:102F5400FF34FF34FF34FF34FF34FF34FF34F80010
:102F6400F201F20A78088D314025973108002F00CC
:102F740096019701980199019A019B01080062301A
:102F840031008D008F0191010230930092010800FD
:102F94002300901ACE2FCF2FD52F8F0128309000E9
:102FA400910103308D000800803027008E00FF302F
:102FB4008D00C0308C0024001F08F33904389F00B2
:102FC40008000130250090008F019101FF308D0031
:102FD4008C012E009010803025008E000800210006
:102FE400210830009B002100200830009A001E17A1
:102FF4001E140000000030001C08080001340034D6
:103004000A34003464340034E8340334103427348C
:1030140025343034323464342034433400344C3472
:0830240020342534643400342B
:020000040001F9
:0A000E00EC3FFF3F9F3FFF3FFF3F25
:00000001FF
