:020000040000FA
:1000000080314C28080008007E1480312E00161C18
:100010000A280B2813280C1C0E280F2813289731A8
:10002000232780314A280B1F162817284A281A1E12
:100030001A281B282328101E1E281F282328883131
:10004000522080314A281A1D262827282F28101DC3
:100050002A282B282F2888313B2080314A281A1C37
:10006000322833283B28101C362837283B28883173
:10007000242080314A28991C3E283F2844288F1C80
:100080004228432844284A28191C472848284A2837
:100090000F084A287E10090080314E285430840011
:1000A0009730850067308600003087000730973131
:1000B000472780314D308400003085001A30973159
:1000C00041278031BD308400003085000B309731EE
:1000D000412780317E1020008231872A20005C0871
:1000E0005D0403197428752893280030A000983007
:1000F000A1004D08B500B6013508A2003608A300DE
:100100004E08B700B8013708A4003808A5004F080A
:10011000B900BA013908A6003A08A7003B3084317B
:1001200084248031B0280030A0009830A100570806
:10013000B500B6013508A2003608A3005808B7007C
:10014000B8013708A4003808A5005908B900BA0159
:100150003908A6003A08A7003B3084318424803156
:10016000803097314D2780313B30F9000030FA0064
:100170008831B3208031413020006506031DC1283D
:10018000C2289E298F3097314D2780312000650885
:1001900097315B27803120005003031DD028D128E0
:1001A000DA288B3097314D278031433097315B27E8
:1001B0008031E2288B3097314D27803120309731C4
:1001C0005B27803120005503031DE728E828F1282C
:1001D0008C3097314D278031543097315B278031F7
:1001E000F9288C3097314D278031203097315B27AB
:1001F000803120005203031DFE28FF2808298D307E
:1002000097314D2780314C3097315B278031102951
:100210008D3097314D278031203097315B278031E9
:1002200020005008031D1529162920295508031DF3
:100230001A291B292029520803191F292029982926
:10024000670A031D2429252931295708B5003508D7
:10025000E7005808B5003508E8005908B50035082A
:10026000E90021003D082000CA0021003E082000CE
:10027000CB0021003F082000CC005708F0005808B0
:10028000F1005908F2006708F3006808F4006908F3
:10029000F5004A30B5003508F6008A312522803154
:1002A00020004C086602031C562957298429210086
:1002B000C401C40A27008E1B5E295F296529973176
:1002C0001727803197310527803120005F08803A59
:1002D000B50081303502031D6F294B305E020318D3
:1002E0007229732979291E302000DE070030DF3D96
:1002F0007C292000DE01DF015F08F1005E08F000CC
:1003000088310E208031A72927008E1F882989294E
:10031000A7292100C4010030F000F10088310E202F
:10032000803197311B27803197310B278031A729E6
:1003300027008E1F9C299D29A72989298F30973155
:100340004D2780312000650897315B278031C03010
:1003500097314D278031200061080319B029B12958
:10036000C1291930A0009830A1005408B500B60189
:100370003508A2003608A30043308431842480313C
:10038000D0291930A0009830A1006308B500B6014B
:100390003508A2003608A30043308431842480311C
:1003A0004330F9000030FA008831B3208031CD307D
:1003B00097314D278031200060080319E029E12999
:1003C000F1292030A0009830A1005108B500B601F5
:1003D0003508A2003608A3004730843184248031D8
:1003E000002A2030A0009830A1006208B500B601B4
:1003F0003508A2003608A3004730843184248031B8
:100400004730F9000030FA008831B32080312000F5
:100410005A085B0403190D2A0E2A192A8B309731CA
:100420004D2780312530F9009830FA008831B3200B
:10043000803120005A035B04031D1F2A202A4F2A03
:100440005C085D04031D252A262A2B2A8B30973150
:100450004D278031862A5C035D04031D302A312A32
:10046000362A813097314D278031862A02305C064A
:100470005D04031D3C2A3D2A422A843097314D27D2
:100480008031862A03305C065D04031D482A492A10
:100490004E2A873097314D278031862A862A0230AE
:1004A0005A065B04031D552A562A652A6108031D56
:1004B0005A2A5B2A602A8C3097314D278031862A50
:1004C000C03097314D278031862A03305A065B04AD
:1004D000031D6B2A6C2A7B2A6108031D702A712A6E
:1004E000762A8D3097314D278031862ACD3097314D
:1004F0004D278031862A04305A065B04031D812A69
:10050000822A862A8F3097314D2780310800893121
:100510006821823100302100A000A10088318020B4
:10052000823197311F278231973111278231F23082
:100530002100A0000D30A10097312F2782316E30AD
:100540002100A0000030A1009731352782312130F1
:100550002100A0000630A10097313B2782315330A3
:100560002100A0000B30A100973129278231210002
:10057000AC01AD01AD0AAE010030A0007030A100A9
:1005800097319A278231533A031DC72AC82A072B6D
:100590002100AD010130AF000030B0002100300873
:1005A000AA002F08A900A935AA0DA935AA0DA935B9
:1005B000AA0D2908003EA00070302A3DA100973105
:1005C0009A2782312100AB002B08AC070130AF071E
:1005D0000030B03D3008803AA90080302902031D68
:1005E000F32A0D302F02031CF62AF72ACE2A683090
:1005F0002100A0007030A10097319A27823121009C
:100600002C060319042B052B072BAE01AE0A210083
:100610002D08031D0C2B0D2B122B2E080319112B4B
:10062000122BAA2B0030A0007030A1005330A9007B
:100630002908A20089318721823108302100A000D9
:100640007030A1001930A9002908A2008931872142
:10065000823110302100A0007030A1000330A900C9
:100660002908A20089318721823118302100A00099
:100670007030A1000530A9002908A2008931872126
:10068000823120302100A0007030A1000C30A90080
:100690002908A20089318721823128302100A00059
:1006A0007030A100A20189318721823130302100D0
:1006B000A0007030A100A201893187218231383039
:1006C0002100A0007030A1001C30A9002908A20060
:1006D00089318721823140302100A0007030A10093
:1006E0000430A9002908A2008931872182314830CD
:1006F0002100A0007030A1006130A9002908A200EB
:1007000089318721823150302100A0007030A10052
:10071000A20189318721823158302100A000703038
:10072000A100A20189318721823160302100A0001F
:100730007030A100A2018931872182316830210007
:10074000A0007030A100AE30A9002908A2008931B4
:100750008721823108302100A0007030A10097313C
:100760009A2782312100A9002908C7001030A00073
:100770007030A10097319A2782312100A900290801
:10078000C6001830A0007030A10097319A2782313E
:100790002100A90029082000E60020302100A00047
:1007A0007030A10097319A2782312100A9002908D1
:1007B0002000CD0028302100A0007030A10097312A
:1007C0009A2782312100A90029082000CE0030306C
:1007D0002100A0007030A10097319A2782312100BA
:1007E000A90029082000CF0038302100A000703077
:1007F000A10097319A2782312100A9002908200001
:10080000D40040302100A0007030A10097319A2719
:1008100082312100A90029082000D10048302100A0
:10082000A0007030A10097319A2782312100A900E1
:1008300029082000E50050302100A0007030A10000
:1008400097319A2782312100A90029082000D7007A
:1008500058302100A0007030A10097319A278231D2
:100860002100A90029082000D80060302100A00044
:100870007030A10097319A2782312100A900290800
:10088000C5002000D501D601D201D301D001973196
:10089000742782312000931513163E00CF154F1692
:1008A0008C31A82482318B170B1763006B2C21002D
:1008B000440803195C2C5D2C5E2C6B2C63008B317F
:1008C000F62382318931D22182318931AB218231C3
:1008D0008931F921823120005B08003A0319712C1B
:1008E0006B2C5A08003A0319572C013A03195F2C54
:1008F000033A0319622C013A0319652C073A0319CC
:10090000682C6B2C80314C282000B4002230A800C9
:100910002808AC00082E253033060319902C912CA2
:100920009D2C3308A8003408860087012808810020
:100930000130A8002808B407082EB101B201B001A7
:10094000A62C30150130A0070030A13D20088400FE
:10095000210885000008303A0319A12CAF2C20088B
:1009600084002108850000089731DC278431031CAE
:10097000BA2CBB2CEE2C2000B101B2010A30F000E1
:100980000030F10020003208F3003108F200883115
:10099000EC20843171082000B2007008B1002008FA
:1009A0008400210885000008D03EA800FF3003180D
:1009B0000030A9002808B1072908B23D0130A0077E
:1009C0000030A13D200884002108850000089731EF
:1009D000DC2784310318ED2CEE2CBE2C20002108DE
:1009E000A9002008A800A00A0319A10A2808840069
:1009F000290885000008B300003A03191C2E643A48
:100A00000319062D0D3A0319062D082E2C08860011
:100A10008701403FAE00413FAF000230A8002808E8
:100A2000AC07AF1F142D152D1E2D0330A80028086C
:100A3000B004AE09AF09AE0A0319AF0AB301B30A95
:100A40003308A800A901A835A90D0F302807840094
:100A50009830293D8500003FAA00013FAB002B08DC
:100A60002F02031D352D2A082E020318382D392D8B
:100A70003A2D442D0130A8002808B307053033066D
:100A8000031D432D442D202D310832040319492D17
:100A90004A2D542D3008033903194F2D502D542D54
:100AA000FF30B107FF30B23D3208803A803C031D71
:100AB0005B2D3108330203185E2D5F2D682D200059
:100AC0003308A800A9012808B1022908B23B6B2D00
:100AD0002000B101B201301D6E2D6F2D9C2D30080C
:100AE00003390319742D752D802D2D30A80034087D
:100AF00086008701280881000130A8002808B40773
:100B0000310832040319852D862DC82D3030A800F8
:100B1000340886008701280881000130A8002808D1
:100B2000B407FF30B107FF30B23D31083204031D76
:100B30009A2D9B2D862DC82D310832040319A12D25
:100B4000A22DB72D2030A800340886008701280880
:100B500081000130A8002808B407FF30B107FF303A
:100B6000B23D31083204031DB62DB72DA22D300839
:100B700003390319BC2DBD2DC82D2D30A800340814
:100B800086008701280881000130A8002808B407E2
:100B90003308A8002808AD00FF2D0A30F800003007
:100BA000F9002D08A800A901A835A90D0F302807C4
:100BB00084009830293D8500003FF000013FF1009E
:100BC0002F08F3002E08F2008A318D22843171083B
:100BD000FB007008FA008A31592284317808303ECF
:100BE0002000AA002A08B3003308A80034088600B1
:100BF0008701280881000130A8002808B407FF30C9
:100C0000A8002808AD072D0A031D072E082ECD2D9C
:100C10002108A9002008A800A00A0319A10A280891
:100C20008400290885000008AA002A08B3003308B8
:100C3000031D1B2E1C2E8B2C34088600870181017E
:100C400008008E31F3268631FA007A082000E3008E
:100C500000309731EE2786317008FA007108FB00EA
:100C60000D30FB36FA0C890B312E7A08FC007C081B
:100C70002000E2006308FA00FB016D087B06031DFB
:100C8000432E6C087A06031D462E472E542E62080A
:100C9000FA00FB016B087B06031D502E6A087A06DA
:100CA0000319532E542E002F21004508FA00FB0192
:100CB0007A08F0007B08F1000530F2000030F30004
:100CC0008831EC2086317008143EF6007030713D9A
:100CD000F70020005708FC007C08F8008831CE207F
:100CE000863121004508FA00FB017A08F0007B08F4
:100CF000F1000530F2000030F3008831EC2086313D
:100D000070081C3EF6007030713DF7002000580856
:100D1000FC007C08F8008831CE208631210045088F
:100D2000FA00FB017A08F0007B08F1000530F200C0
:100D30000030F3008831EC2086317008243EF60044
:100D40007030713DF70020005908FC007C08F80065
:100D50008831CE20863121004508FA00FB017A084F
:100D6000F0007B08F1000530F2000030F30088311C
:100D7000EC20863170082C3EF6007030713DF70093
:100D800020006308FC007C08F8008831CE20863102
:100D900021004508FA00FB017A08F0007B08F10009
:100DA0000530F2000030F3008831EC208631700805
:100DB000343EF6007030713DF70020006208FC0000
:100DC0007C08F8008831CE2086310130FA007A089C
:100DD0002100C507450847020318EF2EF02EF12E1B
:100DE000C50120006308FA00FB017A08EC007B08CB
:100DF000ED006208FA00FB017A08EA007B08EB00CC
:100E000041306506031D052F062F3E2F5108620253
:100E100003180B2F0C2F202F6008031D102F112FEC
:100E2000202F5308031D152F162F1A2FFF30FA00FD
:100E30007A08E700D301D30AD201D20A1616222F6C
:100E4000D3011612630854020318272F282F3C2FB2
:100E50006108031D2C2F2D2F3C2F5608031D312F09
:100E6000322F362FFF30FA007A08E700D601D60A73
:100E7000D501D50A96163E2FD60196120800F50028
:100E80007508F039F3007308F6007508F3000330B5
:100E9000F335FF3E031D482F7335F039F400740815
:100EA000F70023000F0C890C0139F30011081F39DA
:100EB0007304031D5C2F5D2F512F11141118612F26
:100EC000622F5E2F0F0C890C0139F30011081F39B6
:100ED0007304031D6C2F6D2F622F4E308B3108234E
:100EE000873123000F0C890C0139F30011081F39D9
:100EF0007304031D7C2F7D2F712F76087204083830
:100F00008B310823873123000F0C890C0139F30042
:100F100011081F397304031D8E2F8F2F832F76081E
:100F200072040C388B310823873123000F0C890C95
:100F30000139F30011081F397304031DA02FA12FDD
:100F4000952F7608720408388B31082387312300E7
:100F50000F0C890C0139F30011081F397304031DAC
:100F6000B22FB32FA72F7708720408388B310823CC
:100F7000873123000F0C890C0139F30011081F3948
:100F80007304031DC42FC52FB92F770872040C38C2
:100F90008B310823873123000F0C890C0139F300B2
:100FA00011081F397304031DD62FD72FCB2F7708B5
:100FB000720408388B310823873123000F0C890C09
:100FC0000139F30011081F397304031DE82FE92FBD
:100FD000DD2F11151119ED2FEE2FEA2F0430890B9B
:100FE000EF2F08000130250090008F019101FF30A4
:100FF0008D008C012E009010803025008E0008009E
:101000002E000C100B1403302100A0001730A1009B
:101010009731292788312E00161408007108F30033
:101020007008F200F336F20CF336F20C7208270067
:101030008D0070080339F2000530F235FF3E031DC4
:101040001D2872358C0008002E00101021003C086D
:10105000F1003B08F0009731A927883121003908B9
:101060003A040319342835283A283A088A003908FE
:101070000A00883108002E00101120006F08F100CE
:101080006E08F0009731BA278831210037083804FC
:1010900003194B284C28512838088A0037080A00C1
:1010A000883108002E00101221003608F1003508A2
:1010B000F0009731CB27883121003308340403191D
:1010C00062286328682834088A0033080A008831B7
:1010D000080022008E018F0190019101920193017D
:1010E0008D0121009E019B019401950196019701BC
:1010F0009A019901980180309300FF309D0008000B
:1011000021002108A3002008A200A336A20CA336C8
:10111000A20C220827008D00210020080339A2001C
:101120000530A235FF3E031D9128223527008C0093
:1011300008000F3023001005F00008307006031976
:10114000A228A328AC280F301005F0000B30700641
:10115000031DAB28AC28AD2891150F1CB028B12871
:10116000AD280C080800B828200897315B27883183
:101170007A08FC007908FB00F90A0319FA0A7B08CF
:1011800084007C0885000008FD007D082000A00088
:101190002008031DCC28CD28B428080000308B1B64
:1011A0000130F900770830009B0076089A00780833
:1011B0009C001E171E158B1355309F00AA309F00F0
:1011C0009E149E18E428E528E1281E11790C031CC2
:1011D0008B1303188B170800F401F501701CF1281C
:1011E000F228F6287208F4077308F53D0130F2354D
:1011F000F30D890BF7280130F136F00C890BFC2830
:1012000070087104031D05290629EE287508F100F0
:101210007408F000080024008F0190010430910050
:1012200086308D00E8308C000D082100BC002400C1
:101230000C082100BB002E0010101A1404302100ED
:10124000A0001730A10097312F27893105302400E5
:101250008E00080024009501960104309700E730C5
:101260009300C830920013082000EF0024001208F9
:101270002000EE002E0010111A1502302100A000EF
:101280000030A100973135278931053024009400C2
:10129000080024009B019C0104309D004A30990005
:1012A0005C30980019082100B600240018082100BD
:1012B000B5002E0010121A1603302100A0000030D5
:1012C000A10097313B278931153024009A0008008E
:1012D0009731632789318A31C922893197316B2748
:1012E000893197318D278931883169208931893158
:1012F0002A2189318731F227893189314921893180
:1013000088310020893189310B2189310800003072
:101310008B1B01302100A300210830009B0021001D
:10132000200830009A002100220830009C001E177F
:101330001E158B1355309F00AA309F009E149E18D7
:10134000A229A3299F291E112100230C031C8B1302
:1013500003188B1708002000E001E00A8E1AB1295B
:10136000B229C82901302100A00020082000D1079F
:1013700008305102031CBD29BE29BF29D1012130EB
:101380002100A0007630890BC329A00BC3290000DF
:10139000033020005A065B040319CF29D029AE2957
:1013A000E00108002000E101E10A8E1AD829D929BC
:1013B000EF2901302100A00020082000D40733309D
:1013C0005402031CE429E529E629D4012130210037
:1013D000A0007630890BEA29A00BEA290000023030
:1013E00020005A065B040319F629F729D529E101E3
:1013F000080020008E1AFD29FE291A2A41306506B0
:10140000031D032A042A0B2A61302100A0002008B2
:101410002000E500112A41302100A0002008200012
:10142000E50021302100A0007630890B152AA00BA1
:10143000152A0000043020005A065B040319212AF3
:10144000222AF929DA01DB0108002C2A0130F102F5
:101450003C30F7007708F20775087202031C312A46
:10146000322A262A75087202F7007608023E8600A4
:10147000870177088100422A0130F0023C30F700F2
:101480007708F10774087102031C472A482A3C2A8E
:1014900074087102F700760A8600870177088100D8
:1014A00073087002F70076088600870177088100CC
:1014B00008007808790403195E2A5F2A882AFD014A
:1014C000FD0A6B2A0130F835F90D890B632A0130CA
:1014D000FC007C08FD07F91F6E2A6F2A622A790832
:1014E0007B02031D752A78087A02031C782A792A60
:1014F0007D2A7808FA027908FB3B0130F936F80CAE
:10150000890B7E2A0130FD02031D872A882A6F2A53
:101510007B08F9007A08F8000800F501F601700868
:1015200071040319942A952AC42AF701F70AA12AFB
:101530000130F035F10D890B992A0130F40074085F
:10154000F707F11FA42AA52A982A0130F535F60DD0
:10155000890BA62A71087302031DB02A7008720253
:10156000031CB32AB42AB92A7008F2027108F33BAB
:1015700075140130F136F00C890BBA2A0130F702EC
:10158000031DC32AC42AA52A7608F1007508F000B5
:10159000080020009A0199019601970198010730EF
:1015A00095000F309100FF309200FF309300FF3024
:1015B0009400FF303E00D900C730CE00EF30C300AA
:1015C0000730E4004F30B800DA01E501C401B90189
:1015D000CF01E601BA01C501D001DB01FF30BB003C
:1015E000FF30C600FF30D100FF30DC000730E700DD
:1015F0000C303D0090001330C50014303E00A300B5
:101600001530A4000E30960014303D00C6000800CE
:10161000F100710823008C00901F0F2B102B112B51
:10162000522B0F301005F000083070060319192BEB
:101630001A2B302B0F301005F0000B3070060319F9
:10164000222B232B302B10162E000F1C282B292B7E
:10165000242B23000F192D2B2E2B522B0F08522B2E
:101660000F301005F000083070060319382B392BA5
:10167000422B0F301005F0000B307006031D412B7C
:10168000422B522B0F18452B462B422B0F0C890C4B
:101690000139F00011081F397004031D502B512B24
:1016A000462B110808002E0016104130F000EE30D5
:1016B000890B582BF00B582B003220005A085B0482
:1016C000031D632B642B772B5008031D682B692B9C
:1016D000732B5508031D6D2B6E2B732B52080319AA
:1016E000722B732B772BD001D501D2019F2B5A037C
:1016F0005B0403197C2B7D2B812B0130DA07003032
:10170000DB3D5A035B04031D862B872B9F2B013087
:10171000DC070030DD3D5D08803AF000803070026B
:10172000031D942B04305C02031C972B982B9F2BDA
:101730002000DC01DD010130DA070030DB3D2E0046
:101740000C10161408002100A30023000F0C890CB4
:1017500001392100A200230011081F3921002204B1
:10176000031DB32BB42BA52B230011141118B92B77
:10177000BA2BB62B23000F0C890C01392100A200D3
:10178000230011081F3921002204031DC82BC92B77
:10179000BA2B4E308C314E248B3123000F0C890C28
:1017A00001392100A200230011081F392100220461
:1017B000031DDB2BDC2BCD2B23088C314E248B31EE
:1017C00023000F0C890C01392100A200230011080D
:1017D0001F3921002204031DEE2BEF2BE02B2300E9
:1017E00011151119F42BF52BF12B080020008E1A7E
:1017F000FA2BFB2B442C5C035D04031D002C012CF5
:10180000102C17304D02031C062C072C092CCD017F
:101810003B2C01302100A00020082000CD073B2CEC
:1018200002305C065D04031D162C172C262C3B3061
:101830004E06031D1C2C1D2C1F2CCE013B2C0130F1
:101840002100A00020082000CE073B2C03305C06BE
:101850005D04031D2C2C2D2C3B2C3B304F06031D0F
:10186000322C332C352CCF013B2C01302100A00031
:1018700020082000CF0721302100A0007630890BFE
:101880003F2CA00B3F2C000020005A035B040319DF
:101890004A2C4B2CF62BDC01DD0108002100A100B5
:1018A000210823008C00901F562C572C582CA72C55
:1018B0000F3010052100A000083020060319612C0C
:1018C000622C7B2C0F30230010052100A0000B3070
:1018D000200603196C2C6D2C7B2C230010162E0077
:1018E0000F1C732C742C6F2C23000F19782C792C5F
:1018F000A72C0F08A72C0F30230010052100A000F3
:10190000083020060319852C862C912C0F302300DB
:1019100010052100A0000B302006031D902C912CF7
:10192000A72C23000F18952C962C912C23000F0C1C
:10193000890C01392100A000230011081F39210062
:101940002004031DA42CA52C962C230011080800AC
:1019500011302100A8003A30890BAC2CA80BAC2C1C
:10196000000030308B31A3238C3134308B31A323F2
:101970008C312930890BBA2C003230308B31A323C3
:101980008C31FA300032890BC22C30308B31A323DA
:101990008C3134308B31A3238C312930890BCE2C00
:1019A000003230308B31A3238C310830890BD62C98
:1019B000000030308B31A3238C3134308B31A323A2
:1019C0008C312930890BE22C003230308B31A3234B
:1019D0008C310830890BEA2C000020308B31A32396
:1019E0008C3124308B31A3238C312930890BF62C98
:1019F000003220308B31A3238C31FA300032890B36
:101A0000FE2C2100A20128308D311E258C312100B1
:101A1000A20106308D311E258C312100A2010F302C
:101A20008D311E258C312100A20101308D311E2502
:101A30008C31A630890B1A2D003208002100A50038
:101A40002508F039A3002308A6002508A3000330C9
:101A5000A335FF3E031D282D2335F039A4002408AB
:101A6000A70023000F0C890C01392100A3002300DB
:101A700011081F3921002304031D3F2D402D312D56
:101A8000230011141118452D462D422D23000F0C53
:101A9000890C01392100A300230011081F392100FE
:101AA0002304031D542D552D462D4E308C314E24CC
:101AB0008D3123000F0C890C01392100A300230074
:101AC00011081F3921002304031D672D682D592D8E
:101AD0002608220408388C314E248D3123000F0C47
:101AE000890C01392100A300230011081F392100AE
:101AF0002304031D7C2D7D2D6E2D260822040C3819
:101B00008C314E248D3123000F0C890C01392100BA
:101B1000A300230011081F3921002304031D912D68
:101B2000922D832D21002608220408388C314E2462
:101B30008D3123000F0C890C01392100A3002300F3
:101B400011081F3921002304031DA72DA82D992D4D
:101B50002708220408388C314E248D3123000F0CC5
:101B6000890C01392100A300230011081F3921002D
:101B70002304031DBC2DBD2DAE2D270822040C38D7
:101B80008C314E248D3123000F0C890C013921003A
:101B9000A300230011081F3921002304031DD12DA8
:101BA000D22DC32D21002708220408388C314E2461
:101BB0008D3123000F0C890C01392100A300230073
:101BC00011081F3921002304031DE72DE82DD92D0D
:101BD000230011151119ED2DEE2DEA2D0430890B7E
:101BE000EF2D08000130FA007A082000D9073C30B8
:101BF0005906031DFC2DFD2DAC2E0130FA007A088C
:101C0000D807D9010830F6007030F70021004708E6
:101C1000FA007A08F8008831CE208D311030F600B5
:101C20007030F70021004608FA007A08F800883181
:101C3000CE208D311830F6007030F7002000660895
:101C4000FA007A08F8008831CE208D312030F60075
:101C50007030F70020004D08FA007A08F80088314B
:101C6000CE208D312830F6007030F70020004E086D
:101C7000FA007A08F8008831CE208D313030F60035
:101C80007030F70020004F08FA007A08F800883119
:101C9000CE208D313830F6007030F7002000540827
:101CA000FA007A08F8008831CE208D314030F600F5
:101CB0007030F70020005108FA007A08F8008831E7
:101CC000CE208D314830F6007030F70020006508D6
:101CD000FA007A08F8008831CE208D315030F600B5
:101CE0007030F70020005708FA007A08F8008831B1
:101CF000CE208D315830F6007030F70020005808A3
:101D0000FA007A08F8008831CE208D316030F60074
:101D10007030F70021004508FA007A08F800883191
:101D2000CE208D316830F6007030F70020004E086C
:101D30004F0758074D07540751075707210047071A
:101D4000460720006607650721004507FA007A0864
:101D5000F8008831CE208D313C3020005806031D1C
:101D6000B22EB32EB82E0130FA007A08D707D80168
:101D700018305706031DBD2EBE2EBF2ED701413091
:101D80006506031DC42EC52EE72E4F085902031CFD
:101D9000CA2ECB2EE72E4E085802031CD02ED12E71
:101DA000E72E4D085702031CD62ED72EE72E5C08CF
:101DB0005D04031DDC2EDD2EE72EFF30FA007A08CD
:101DC000E700D001D00A1930FA007A08CD000310DC
:101DD000961F03140318ED2EF02E20009617F22EF6
:101DE00020009613080023000F0C890C0139F20023
:101DF00011081F397204031DFE2EFF2EF32E11143D
:101E00001118032F042F002F0F0C890C0139F20039
:101E100011081F397204031D0E2F0F2F042F9A3043
:101E20008B3108238E3123000F0C890C0139F2000D
:101E300011081F397204031D1E2F1F2F132F01308D
:101E40008B3108238E3123000F0C890C0139F200ED
:101E500011081F397204031D2E2F2F2F232F9114C9
:101E60009118332F342F302F0F0C890C0139F200C9
:101E700011081F397204031D3E2F3F2F342F9B3052
:101E80008B3108238E3123000F0C890C0139F200AD
:101E900011081F397204031D4E2F4F2F432F883115
:101EA00099208E31F2007208F30023000F0C890C88
:101EB0000139F20011081F397204031D602F612FD0
:101EC000552F91161116111A662F672F632F0F0CBD
:101ED000890C0139F20011081F397204031D712F9A
:101EE000722F672F11151119762F772F732F731FEC
:101EF0007A2F7B2FF32E0F0C890C0139F200110879
:101F00001F397204031D852F862F7B2F1114111882
:101F10008A2F8B2F872F0F0C890C0139F2001108A3
:101F20001F397204031D952F962F8B2F9A308B31FA
:101F300008238E3123000F0C890C0139F20011089F
:101F40001F397204031DA52FA62F9A2F00308B3145
:101F500008238E3123000F0C890C0139F20011087F
:101F60001F397204031DB52FB62FAA2F9114911893
:101F7000BA2FBB2FB72F0F0C890C0139F2001108B3
:101F80001F397204031DC52FC62FBB2F9B308B3109
:101F900008238E3123000F0C890C0139F20011083F
:101FA0001F397204031DD52FD62FCA2F88319920CF
:101FB0008E31F2007208F30023000F0C890C0139F6
:101FC000F20011081F397204031DE72FE82FDC2FE0
:101FD00091161116111AED2FEE2FEA2F0F0C890C06
:101FE0000139F20011081F397204031DF82FF92F6F
:101FF000EE2F11151119FD2FFE2FFA2F730808006F
:102E06000800080027008E17080025008E17080006
:102E160027008E13080025008E13080027008E1346
:102E2600080025008E1308009731082797310800FF
:102E360097310E27973108009731142797310800EC
:102E46002E000C10973180279731080021002108A9
:102E5600B2002008B100080021002108BA002008AD
:102E6600B900080021002108B8002008B7000800B2
:102E760021002108B4002008B30008006400800186
:102E86000131890B422F0034FE0012001E00FE0B9A
:102E9600482F0034F800F201780887313F27973130
:102EA6000800FF34FF34FF34FF34FF34FF34FF34AF
:102EB600F800F201F20A780887313F2797310800B7
:102EC6002F0096019701980199019A019B0108002C
:102ED600623031008D008F01910102309300920122
:102EE60008002300901A782F792F7F2F8F01283022
:102EF6009000910103308D00080021003108320452
:102F06000319862F872F8C2F32088A0031080A0072
:102F160097310800803027008E00FF308D00C030CA
:102F26008C0024001F08F33904389F000800210094
:102F3600210830009B002100200830009A001E174F
:102F46001E140000000030001C08080024000E1D9E
:102F5600AD2FAE2FB52F0E1071088D0070088C00A6
:102F66000E14B92F71088D0070088C00080024001B
:102F7600141DBE2FBF2FC62F1410710893007008A2
:102F860092001414CA2F710893007008920008006A
:102F960024001A1DCF2FD02FD72F1A107108990091
:102FA600700898001A14DB2F7108990070089800B1
:102FB6000800F100F0013A3071020318E32FE42F04
:102FC600EC2F30307102031CE92FEA2FEC2FF001B1
:102FD600F00A700C0800F300730821009E00931796
:102FE60013131314000021001318FA2FFB2FF62FCA
:102FF6000D08F1000C08F000080025343034323496
:1030060064343A3425343034323464343A34253432
:103016003034323464340034013400340A34003439
:1030260064340034E834033410342734253430341F
:10303600323464342034433400344C342034253460
:0C30460064340034433454344C340034FF
:020000040001F9
:0A000E00EC3FFF3F9F3FFF3FFF3F25
:00000001FF
