:020000040000FA
:1000000080314C28080008007E1480312E00161C18
:100010000A280B2813280C1C0E280F2813289731A8
:10002000762780314A280B1F162817284A281A1EBF
:100030001A281B282328101E1E281F282328883131
:10004000C82080314A281A1D262827282F28101D4D
:100050002A282B282F288831B12080314A281A1CC1
:10006000322833283B28101C362837283B28883173
:100070009A2080314A28991C3E283F2844288F1C0A
:100080004228432844284A28191C472848284A2837
:100090000F084A287E10090080314E28A7308400BE
:1000A0009730850067308600003087000730973131
:1000B0009A2780314D308400003085001A30973106
:1000C00094278031BD308400003085000B3097319B
:1000D000942780317E10200080316E288931C32121
:1000E000803100302100A000A1008831F62080314D
:1000F000973172278031973164278031FF3021009A
:10010000A0000630A1009731822780316B3021009A
:10011000A0000230A100973188278031E130210012
:10012000A0000530A10097318E2780316330210077
:10013000A0000B30A10097317C2780312100AC0159
:10014000AD01AD0AAE010030A0007030A1008831D1
:100150000A208031533A031DAE28AF28EE28210033
:10016000AD010130AF000030B00021003008AA001E
:100170002F08A900A935AA0DA935AA0DA935AA0DE0
:100180002908003EA00070302A3DA10088310A20D5
:1001900080312100AB002B08AC070130AF070030E5
:1001A000B03D3008803AA90080302902031DDA28CA
:1001B0000D302F02031CDD28DE28B5286830210011
:1001C000A0007030A10088310A20803121002C0667
:1001D0000319EB28EC28EE28AE01AE0A21002D0809
:1001E000031DF328F428F9282E080319F828F92804
:1001F00091290030A0007030A1005330A9002908D7
:10020000A2008931E221803108302100A000703045
:10021000A1001930A9002908A2008931E22180310A
:1002200010302100A0007030A1000330A90029087F
:10023000A2008931E221803118302100A000703005
:10024000A1000530A9002908A2008931E2218031EE
:1002500020302100A0007030A1000C30A900290836
:10026000A2008931E221803128302100A0007030C5
:10027000A100A2018931E221803130302100A000AB
:100280007030A100A2018931E22180313830210093
:10029000A0007030A1001C30A9002908A2008931FB
:1002A000E221803140302100A0007030A1000430F4
:1002B000A9002908A2008931E221803148302100BB
:1002C000A0007030A1006130A9002908A200893186
:1002D000E221803150302100A0007030A100A20145
:1002E0008931E221803158302100A0007030A10016
:1002F000A2018931E221803160302100A0007030FC
:10030000A100A2018931E221803168302100A000E2
:100310007030A100AE30A9002908A2008931E22185
:10032000803108302100A0007030A10088310A20FF
:1003300080312100A9002908C7001030A0007030CA
:10034000A10088310A2080312100A9002908C600B7
:100350001830A0007030A10088310A2080312100BF
:10036000A90029082000E60020302100A0007030FC
:10037000A10088310A2080312100A900290820002D
:10038000CD0028302100A0007030A10088310A2063
:1003900080312100A90029082000CE003030210042
:1003A000A0007030A10088310A2080312100A9000E
:1003B00029082000CF0038302100A0007030A100B3
:1003C00088310A2080312100A90029082000D400AA
:1003D00040302100A0007030A10088310A20803117
:1003E0002100A90029082000D10048302100A000E8
:1003F0007030A10088310A2080312100A90029082D
:100400002000E50050302100A0007030A1008831AC
:100410000A2080312100A90029082000D700583087
:100420002100A0007030A10088310A208031210015
:10043000A90029082000D80060302100A0007030F9
:10044000A10088310A2080312100A9002908C500B7
:100450002000D501D601D201D301D0019731BE27AA
:1004600080312000931513163E00CF154F168C31A6
:10047000F62480318B170B176300522A21004408A1
:100480000319432A442A452A522A63008C31442402
:1004900080318A312D2280318A31062280318A31A1
:1004A0005422803120005B08003A0319582A522A4E
:1004B0005A08003A03193E2A013A0319462A033A18
:1004C0000319492A013A03194C2A073A03194F2AFA
:1004D000522A80314C2820005C085D040319712ADF
:1004E000722A902A0030A0009030A1004D08B5007B
:1004F000B6013508A2003608A3004E08B700B801BF
:100500003708A4003808A5004F08B900BA01390817
:10051000A6003A08A7003B30843144248231AD2A3A
:100520000030A0009030A1005708B500B601350892
:10053000A2003608A3005808B700B8013708A40085
:100540003808A5005908B900BA013908A6003A08C8
:10055000A7003B3084314424823180309731A0277A
:1005600082313B3088317020823141302000650675
:10057000031DBB2ABC2A922B8F309731A0278231D2
:10058000200065089731AE27823120005003031DFB
:10059000CA2ACB2AD42A8B309731A0278231433004
:1005A0009731AE278231DC2A8B309731A0278231F8
:1005B00020309731AE27823120005503031DE12AF8
:1005C000E22AEB2A8C309731A027823154309731C0
:1005D000AE278231F32A8C309731A0278231203028
:1005E0009731AE27823120005203031DF82AF92AE1
:1005F000022B8D309731A02782314C309731AE27B6
:1006000082310A2B8D309731A027823120309731EB
:10061000AE27823120005008031D0F2B102B1A2B00
:100620005508031D142B152B1A2B52080319192BCF
:100630001A2B9B2B670A031D1E2B1F2B2B2B5708D6
:10064000B5003508E7005808B5003508E800590836
:10065000B5003508E90021003D082000CA0021004E
:100660003E082000CB0021003F082000CC005708A6
:10067000F0005808F1005908F2006708F300680814
:10068000F4006908F5004A30B5003508F6008A31F3
:100690008022823120004C086602031C502B512B13
:1006A0007E2B2100C401C40A27008E1B582B592B16
:1006B0005F2B97316A27823197315827823120008A
:1006C0005F08803AB50081303502031D692B4B303D
:1006D0005E0203186C2B6D2B732B1E302000DE077F
:1006E0000030DF3D762B2000DE01DF015F08F100E6
:1006F0005E08F0008831842082319B2B27008E1FFA
:10070000822B832B9B2B2100C4010030F000F100D1
:1007100088318420823197316E27823197315E276C
:1007200082319B2B8F309731A027823120006508C2
:100730009731AE278231C0309731A0278231200017
:1007400061080319A42BA52BB52B0A30A000983003
:10075000A1005408B500B6013508A2003608A30070
:100760004330843144248231C42B0A30A0009830B5
:10077000A1006308B500B6013508A2003608A30041
:1007800043308431442482314330883170208231B7
:10079000CD309731A0278231200060080319D12B7A
:1007A000D22BE22B1130A0009830A1005108B500E7
:1007B000B6013508A2003608A3004730843144242E
:1007C0008231F12B1130A0009830A1006208B500F1
:1007D000B6013508A2003608A3004730843144240E
:1007E0008231473088317020823120005A035B0407
:1007F000031DFB2BFC2B202C5C035D04031D012C33
:10080000022C072C81309731A0278231432C0230F3
:100810005C065D04031D0D2C0E2C132C84309731C7
:10082000A0278231432C03305C065D04031D192C84
:100830001A2C1F2C87309731A0278231432C432C50
:1008400002305A065B04031D262C272C2C2CC130A9
:100850009731A0278231432C03305A065B04031DD5
:10086000322C332C382CCF309731A0278231432CB7
:1008700004305A065B04031D3E2C3F2C432C8F3062
:100880009731A027823108002000B4002230A80050
:100890002808AC00C82D253033060319502C512CE4
:1008A0005D2C3308A80034088600870128088100E1
:1008B0000130A8002808B407C82DB101B201B00169
:1008C000662C30150130A0070030A13D20088400BF
:1008D000210885000008303A0319612C6F2C20088C
:1008E000840021088500000888314C208431031CD5
:1008F0007A2C7B2CAE2C2000B101B2010A30F00022
:100900000030F10020003208F3003108F200893194
:100910004721843171082000B2007008B10020081E
:100920008400210885000008D03EA800FF3003188D
:100930000030A9002808B1072908B23D0130A007FE
:100940000030A13D2008840021088500000888317E
:100950004C2084310318AD2CAE2C7E2C20002108B5
:10096000A9002008A800A00A0319A10A28088400E9
:10097000290885000008B300003A0319DC2D643A09
:100980000319C62C0D3A0319C62CC82D2C08860055
:100990008701403FAE00413FAF000230A800280869
:1009A000AC07AF1FD42CD52CDE2C0330A8002808B0
:1009B000B004AE09AF09AE0A0319AF0AB301B30A16
:1009C0003308A800A901A835A90D00302807840024
:1009D0009830293D8500003FAA00013FAB002B085D
:1009E0002F02031DF52C2A082E020318F82CF92CCF
:1009F000FA2C042D0130A8002808B307053033066F
:100A0000031D032D042DE02C310832040319092D98
:100A10000A2D142D3008033903190F2D102D142D14
:100A2000FF30B107FF30B23D3208803A803C031DF1
:100A30001B2D3108330203181E2D1F2D282D2000D9
:100A40003308A800A9012808B1022908B23B2B2DC0
:100A50002000B101B201301D2E2D2F2D5C2D30084C
:100A600003390319342D352D402D2D30A8003408BD
:100A700086008701280881000130A8002808B407F3
:100A8000310832040319452D462D882D3030A80039
:100A9000340886008701280881000130A800280852
:100AA000B407FF30B107FF30B23D31083204031DF7
:100AB0005A2D5B2D462D882D310832040319612DE6
:100AC000622D772D2030A800340886008701280881
:100AD00081000130A8002808B407FF30B107FF30BB
:100AE000B23D31083204031D762D772D622D30087A
:100AF000033903197C2D7D2D882D2D30A800340855
:100B000086008701280881000130A8002808B40762
:100B10003308A8002808AD00BF2D0A30F8000030C7
:100B2000F9002D08A800A901A835A90D0030280753
:100B300084009830293D8500003FF000013FF1001E
:100B40002F08F3002E08F2008A31E8228431710860
:100B5000FB007008FA008A31B42284317808303EF4
:100B60002000AA002A08B3003308A8003408860031
:100B70008701280881000130A8002808B407FF3049
:100B8000A8002808AD072D0A031DC72DC82D8D2DDF
:100B90002108A9002008A800A00A0319A10A280812
:100BA0008400290885000008AA002A08B300330839
:100BB000031DDB2DDC2D4B2C3408860087018101C1
:100BC00008008E31F3268531FA007A082000E30010
:100BD000003088315E2085317008FA007108FB0012
:100BE0000D30FB36FA0C890BF12D7A08FC007C08DD
:100BF0002000E2006308FA00FB016D087B06031D7C
:100C0000032E6C087A06031D062E072E142E62088A
:100C1000FA00FB016B087B06031D102E6A087A069A
:100C20000319132E142EC02E21004508FA00FB01D3
:100C30007A08F0007B08F1000530F2000030F30084
:100C40008931472185317008143EF6007030713DBE
:100C5000F70020005708FC007C08F80089312921A2
:100C6000853121004508FA00FB017A08F0007B0875
:100C7000F1000530F2000030F30089314721853161
:100C800070081C3EF6007030713DF70020005808D7
:100C9000FC007C08F80089312921853121004508B4
:100CA000FA00FB017A08F0007B08F1000530F20041
:100CB0000030F3008931472185317008243EF60069
:100CC0007030713DF70020005908FC007C08F800E6
:100CD00089312921853121004508FA00FB017A0874
:100CE000F0007B08F1000530F2000030F30089319C
:100CF0004721853170082C3EF6007030713DF700B9
:100D000020006308FC007C08F80089312921853126
:100D100021004508FA00FB017A08F0007B08F10089
:100D20000530F2000030F300893147218531700829
:100D3000343EF6007030713DF70020006208FC0080
:100D40007C08F8008931292185310130FA007A08C0
:100D50002100C507450847020318AF2EB02EB12E5B
:100D6000C50120006308FA00FB017A08EC007B084B
:100D7000ED006208FA00FB017A08EA007B08EB004C
:100D800041306506031DC52EC62EFE2E5108620297
:100D90000318CB2ECC2EE02E6008031DD02ED12EB2
:100DA000E02E5308031DD52ED62EDA2EFF30FA0082
:100DB0007A08E700D301D30AD201D20A1616E22E2E
:100DC000D3011612630854020318E72EE82EFC2EF6
:100DD0006108031DEC2EED2EFC2E5608031DF12E8E
:100DE000F22EF62EFF30FA007A08E700D601D60A76
:100DF000D501D50A9616FE2ED601961208000130AE
:100E0000FA007A082000D9073C305906031D092F43
:100E10000A2FB92F0130FA007A08D807D901083013
:100E2000F6007030F70021004708FA007A08F80051
:100E30008931292186311030F6007030F700210009
:100E40004608FA007A08F8008931292186311830DD
:100E5000F6007030F70020006608FA007A08F80003
:100E60008931292186312030F6007030F7002000CA
:100E70004D08FA007A08F800893129218631283096
:100E8000F6007030F70020004E08FA007A08F800EB
:100E90008931292186313030F6007030F70020008A
:100EA0004F08FA007A08F800893129218631383054
:100EB000F6007030F70020005408FA007A08F800B5
:100EC0008931292186314030F6007030F70020004A
:100ED0005108FA007A08F800893129218631483012
:100EE000F6007030F70020006508FA007A08F80074
:100EF0008931292186315030F6007030F70020000A
:100F00005708FA007A08F8008931292186315830CB
:100F1000F6007030F70020005808FA007A08F80050
:100F20008931292186316030F6007030F7002100C8
:100F30004508FA007A08F80089312921863168309D
:100F4000F6007030F70020004E084F0758074D0795
:100F50005407510757072100470746072000660737
:100F6000650721004507FA007A08F8008931292130
:100F700086313C3020005806031DBF2FC02FC52FDF
:100F80000130FA007A08D707D80118305706031D38
:100F9000CA2FCB2FCC2FD70141306506031DD12F8F
:100FA000D22FF42F4F085902031CD72FD82FF42F1C
:100FB0004E085802031CDD2FDE2FF42F4D08570278
:100FC000031CE32FE42FF42F5C085D04031DE92FBD
:100FD000EA2FF42FFF30FA007A08E700D001D00A98
:100FE0001930FA007A08CD000310961F0314031875
:100FF000FA2FFD2F20009617FF2F200096130800D0
:101000000800623031008D008F01910102309300A1
:10101000920108002100210830009B0021002008D7
:1010200030009A001E171E140000000030001C083B
:10103000080024000E1D1D281E2825280E107108EA
:101040008D0070088C000E14292871088D0070081E
:101050008C0008002400141D2E282F283628141078
:10106000710893007008920014143A2871089300D4
:1010700070089200080024001A1D3F2840284728C5
:101080001A1071089900700898001A144B287108FA
:101090009900700898000800F100F0013A307102E0
:1010A0000318532854285C2830307102031C592837
:1010B0005A285C28F001F00A700C0800F30073084D
:1010C00021009E009317131313140000210013181E
:1010D0006A286B2866280D08F1000C08F00008004B
:1010E000FB0076287A089731AE2788317B08860086
:1010F0008701FB0A0108F9007908FA007A08031D44
:1011000082288328722808007108F3007008F20012
:10111000F336F20CF336F20C720827008D007008DB
:101120000339F2000530F235FF3E031D9328723576
:101130008C0008002E00101021003C08F1003B0834
:10114000F000883119208831210039083A04031948
:10115000AA28AB28B0283A088A0039080A00883142
:1011600008002E00101120006F08F1006E08F0003A
:1011700088312A2088312100370838040319C12812
:10118000C228C72838088A0037080A0088310800B2
:101190002E00101221003608F1003508F0008831C9
:1011A0003B2088312100330834040319D828D9287A
:1011B000DE2834088A0033080A008831080022003B
:1011C0008E018F0190019101920193018D01210007
:1011D0009E019B0194019501960197019A01990145
:1011E000980180309300FF309D0008002100210805
:1011F000A3002008A200A336A20CA336A20C22084A
:1012000027008D00210020080339A2000530A235F7
:10121000FF3E031D0729223527008C0008000F30F0
:1012200023001005F0000830700603191829192949
:1012300022290F301005F0000B307006031D212904
:101240002229232991150F1C2629272923290C0837
:10125000080000308B1B0130F900770830009B003C
:1012600076089A0078089C001E171E158B135530BF
:101270009F00AA309F009E149E183F2940293C29B8
:101280001E11790C031C8B1303188B170800F40133
:10129000F501701C4C294D2951297208F407730877
:1012A000F53D0130F235F30D890B52290130F1364D
:1012B000F00C890B572970087104031D60296129FE
:1012C00049297508F1007408F000080024008F0116
:1012D00090010430910086308D00E8308C000D08BC
:1012E0002100BC0024000C082100BB002E001010BF
:1012F0001A1400302100A0000830A1009731822785
:101300008931053024008E000800240095019601E3
:1013100004309700E7309300C83092001308200093
:10132000EF00240012082000EE002E0010111A1504
:1013300002302100A0000030A100973188278931B8
:10134000053024009400080024009B019C01043017
:101350009D004A3099005C30980019082100B600C1
:10136000240018082100B5002E0010121A160330B0
:101370002100A0000030A10097318E27893115305F
:1013800024009A0008009731B62789318B31242335
:1013900089318831012089319731D72789318831C6
:1013A000DF2089318931852189318931A421893131
:1013B0009731F22789319731E427893189316621C4
:1013C0008931080000308B1B01302100A300210867
:1013D00030009B002100200830009A0021002208E4
:1013E00030009C001E171E158B1355309F00AA302D
:1013F0009F009E149E18FD29FE29FA291E11210026
:10140000230C031C8B1303188B1708002000E0012A
:10141000E00A8E1A0C2A0D2A232A01302100A0008E
:1014200020082000D10708305102031C182A192A6D
:101430001A2AD10121302100A0007630890B1E2A02
:10144000A00B1E2A0000033020005A065B0403197B
:101450002A2A2B2A092AE00108002000E101E10ADA
:101460008E1A332A342A4A2A01302100A00020088B
:101470002000D40733305402031C3F2A402A412A5B
:10148000D40121302100A0007630890B452AA00B21
:10149000452A0000023020005A065B040319512A35
:1014A000522A302AE101080020008E1A582A592AAF
:1014B000752A41306506031D5E2A5F2A662A61305F
:1014C0002100A00020082000E5006C2A4130210006
:1014D000A00020082000E50021302100A000763087
:1014E000890B702AA00B702A0000043020005A06D5
:1014F0005B0403197C2A7D2A542ADA01DB010800E7
:10150000872A0130F1023C30F7007708F2077508AE
:101510007202031C8C2A8D2A812A75087202F70038
:101520007608023E86008701770881009D2A0130F7
:10153000F0023C30F7007708F10774087102031CD1
:10154000A22AA32A972A74087102F700760A860055
:1015500087017708810073087002F700760886001B
:101560008701770881000800780879040319B92AEF
:10157000BA2AE32AFD01FD0AC62A0130F835F90D21
:10158000890BBE2A0130FC007C08FD07F91FC92A1F
:10159000CA2ABD2A79087B02031DD02A78087A025C
:1015A000031CD32AD42AD82A7808FA027908FB3BEC
:1015B0000130F936F80C890BD92A0130FD02031DE0
:1015C000E22AE32ACA2A7B08F9007A08F800080010
:1015D000F501F601700871040319EF2AF02A1F2B98
:1015E000F701F70AFC2A0130F035F10D890BF42AD6
:1015F0000130F4007408F707F11FFF2A002BF32ACB
:101600000130F535F60D890B012B71087302031DAE
:101610000B2B70087202031C0E2B0F2B142B70085F
:10162000F2027108F33B75140130F136F00C890BAE
:10163000152B0130F702031D1E2B1F2B002B7608E4
:10164000F1007508F000080020009A019901960148
:1016500097019801073095000F309100FF309200FC
:10166000FF309300FF309400FF303E00D900C730B8
:10167000CE00EF30C3000730E4004F30B800DA018D
:10168000E501C401B901CF01E601BA01C501D001EC
:10169000DB01FF30BB00FF30C600FF30D100FF3060
:1016A000DC000730E7000C303D0090001330C5002F
:1016B00014303E00A3001530A4000E309600143004
:1016C0003D00C600080020005A085B04031D692B7A
:1016D0006A2B7D2B5008031D6E2B6F2B792B550821
:1016E000031D732B742B792B52080319782B792B3C
:1016F0007D2BD001D501D201A52B5A035B04031920
:10170000822B832B872B0130DA070030DB3D5A0315
:101710005B04031D8C2B8D2BA52B0130DC070030C7
:10172000DD3D5D08803AF00080307002031D9A2B89
:1017300004305C02031C9D2B9E2BA52B2000DC019A
:10174000DD010130DA070030DB3D0800F1007108EF
:1017500023008C00901FAD2BAE2BAF2BF02B0F3046
:101760001005F000083070060319B72BB82BCE2BEC
:101770000F301005F0000B3070060319C02BC12B81
:10178000CE2B10162E000F1CC62BC72BC22B2300EE
:101790000F19CB2BCC2BF02B0F08F02B0F30100593
:1017A000F000083070060319D62BD72BE02B0F3032
:1017B0001005F0000B307006031DDF2BE02BF02B23
:1017C0000F18E32BE42BE02B0F0C890C0139F000F0
:1017D00011081F397004031DEE2BEF2BE42B1108A9
:1017E00008002100A30023000F0C890C01392100FF
:1017F000A200230011081F3921002204031D012C1F
:10180000022CF32B230011141118072C082C042C84
:1018100023000F0C890C01392100A20023001108BC
:101820001F3921002204031D162C172C082C4E30C2
:101830008C319C248B3123000F0C890C0139210041
:10184000A200230011081F3921002204031D292CA6
:101850002A2C1B2C23088C319C248B3123000F0C49
:10186000890C01392100A200230011081F39210031
:101870002204031D3C2C3D2C2E2C23001115111984
:10188000422C432C3F2C080020008E1A482C492C57
:10189000922C5C035D04031D4E2C4F2C5E2C1730E4
:1018A0004D02031C542C552C572CCD01892C013092
:1018B0002100A00020082000CD07892C02305C0602
:1018C0005D04031D642C652C742C3B304E06031DF7
:1018D0006A2C6B2C6D2CCE01892C01302100A000CC
:1018E00020082000CE07892C03305C065D04031D10
:1018F0007A2C7B2C892C3B304F06031D802C812CAD
:10190000832CCF01892C01302100A0002008200069
:10191000CF0721302100A0007630890B8D2CA00B41
:101920008D2C000020005A035B040319982C992C7D
:10193000442CDC01DD0108002100A1002108230066
:101940008C00901FA42CA52CA62CF52C0F30100574
:101950002100A000083020060319AF2CB02CC92CA0
:101960000F30230010052100A0000B3020060319C2
:10197000BA2CBB2CC92C230010162E000F1CC12C16
:10198000C22CBD2C23000F19C62CC72CF52C0F0818
:10199000F52C0F30230010052100A0000830200690
:1019A0000319D32CD42CDF2C0F3023001005210079
:1019B000A0000B302006031DDE2CDF2CF52C2300AD
:1019C0000F18E32CE42CDF2C23000F0C890C0139B9
:1019D0002100A000230011081F3921002004031D4D
:1019E000F22CF32CE42C2300110808001130210004
:1019F000A8003A30890BFA2CA80BFA2C00003030E2
:101A00008B31F1238C3134308B31F1238C312930FF
:101A1000890B082D003230308B31F1238C31FA30B4
:101A20000032890B102D30308B31F1238C31343062
:101A30008B31F1238C312930890B1C2D0032303051
:101A40008B31F1238C310830890B242D000030308C
:101A50008B31F1238C3134308B31F1238C312930AF
:101A6000890B302D003230308B31F1238C3108302E
:101A7000890B382D000020308B31F1238C3124303C
:101A80008B31F1238C312930890B442D00322030E9
:101A90008B31F1238C31FA300032890B4C2D21002F
:101AA000A20128308E311F268C312100A201063080
:101AB0008E311F268C312100A2010F308E311F265E
:101AC0008C312100A20101308E311F268C31A630CD
:101AD000890B682D00320800F5007508F039F30015
:101AE0007308F6007508F3000330F335FF3E031D5D
:101AF000752D7335F039F4007408F70023000F0CCE
:101B0000890C0139F30011081F397304031D892D55
:101B10008A2D7E2D111411188E2D8F2D8B2D0F0CCB
:101B2000890C0139F30011081F397304031D992D25
:101B30009A2D8F2D4E308B31A6238D3123000F0C23
:101B4000890C0139F30011081F397304031DA92DF5
:101B5000AA2D9E2D7608720408388B31A6238D316C
:101B600023000F0C890C0139F30011081F3973048D
:101B7000031DBB2DBC2DB02D760872040C388B31A3
:101B8000A6238D3123000F0C890C0139F3001108B5
:101B90001F397304031DCD2DCE2DC22D760872047E
:101BA00008388B31A6238D3123000F0C890C0139A5
:101BB000F30011081F397304031DDF2DE02DD42D10
:101BC0007708720408388B31A6238D3123000F0C5F
:101BD000890C0139F30011081F397304031DF12D1D
:101BE000F22DE62D770872040C388B31A6238D3147
:101BF00023000F0C890C0139F30011081F397304FD
:101C0000031D032E042EF82D7708720408388B313B
:101C1000A6238D3123000F0C890C0139F300110824
:101C20001F397304031D152E162E0A2E11151119B6
:101C30001A2E1B2E172E0430890B1C2E0800210093
:101C4000A5002508F039A3002308A6002508A30055
:101C50000330A335FF3E031D292E2335F039A400A0
:101C60002408A70023000F0C890C01392100A300D0
:101C7000230011081F3921002304031D402E412E8B
:101C8000322E230011141118462E472E432E230006
:101C90000F0C890C01392100A300230011081F3902
:101CA00021002304031D552E562E472E4E308C3115
:101CB0009C248E3123000F0C890C01392100A300D4
:101CC000230011081F3921002304031D682E692EEB
:101CD0005A2E2608220408388C319C248E31230089
:101CE0000F0C890C01392100A300230011081F39B2
:101CF00021002304031D7D2E7E2E6F2E2608220434
:101D00000C388C319C248E3123000F0C890C013946
:101D10002100A300230011081F3921002304031D03
:101D2000922E932E842E21002608220408388C310E
:101D30009C248E3123000F0C890C01392100A30053
:101D4000230011081F3921002304031DA82EA92EEA
:101D50009A2E2708220408388C319C248E312300C7
:101D60000F0C890C01392100A300230011081F3931
:101D700021002304031DBD2EBE2EAF2E27082204F2
:101D80000C388C319C248E3123000F0C890C0139C6
:101D90002100A300230011081F3921002304031D83
:101DA000D22ED32EC42E21002708220408388C31CD
:101DB0009C248E3123000F0C890C01392100A300D3
:101DC000230011081F3921002304031DE82EE92EEA
:101DD000DA2E230011151119EE2EEF2EEB2E043002
:101DE000890BF02E080023000F0C890C0139F2003A
:101DF00011081F397204031DFE2EFF2EF32E11143D
:101E00001118032F042F002F0F0C890C0139F20039
:101E100011081F397204031D0E2F0F2F042F9A3043
:101E20008B31A6238E3123000F0C890C0139F2006F
:101E300011081F397204031D1E2F1F2F132F01308D
:101E40008B31A6238E3123000F0C890C0139F2004F
:101E500011081F397204031D2E2F2F2F232F9114C9
:101E60009118332F342F302F0F0C890C0139F200C9
:101E700011081F397204031D3E2F3F2F342F9B3052
:101E80008B31A6238E3123000F0C890C0139F2000F
:101E900011081F397204031D4E2F4F2F432F893114
:101EA0000F218E31F2007208F30023000F0C890C11
:101EB0000139F20011081F397204031D602F612FD0
:101EC000552F91161116111A662F672F632F0F0CBD
:101ED000890C0139F20011081F397204031D712F9A
:101EE000722F672F11151119762F772F732F731FEC
:101EF0007A2F7B2FF32E0F0C890C0139F200110879
:101F00001F397204031D852F862F7B2F1114111882
:101F10008A2F8B2F872F0F0C890C0139F2001108A3
:101F20001F397204031D952F962F8B2F9A308B31FA
:101F3000A6238E3123000F0C890C0139F200110801
:101F40001F397204031DA52FA62F9A2F00308B3145
:101F5000A6238E3123000F0C890C0139F2001108E1
:101F60001F397204031DB52FB62FAA2F9114911893
:101F7000BA2FBB2FB72F0F0C890C0139F2001108B3
:101F80001F397204031DC52FC62FBB2F9B308B3109
:101F9000A6238E3123000F0C890C0139F2001108A1
:101FA0001F397204031DD52FD62FCA2F89310F2157
:101FB0008E31F2007208F30023000F0C890C0139F6
:101FC000F20011081F397204031DE72FE82FDC2FE0
:101FD00091161116111AED2FEE2FEA2F0F0C890C06
:101FE0000139F20011081F397204031DF82FF92F6F
:101FF000EE2F11151119FD2FFE2FFA2F730808006F
:1020000025343034323464343A3425343034323484
:0E20100064343A3425343034323464340034CD
:102EAE00080027008E17080025008E17080027003F
:102EBE008E13080025008E13080027008E130800BD
:102ECE0025008E13080097315B2797310800973144
:102EDE0061279731080097316727973108002E0038
:102EEE000C109731CA279731080021002108B20033
:102EFE002008B100080021002108BA002008B900FE
:102F0E00080021002108B8002008B70008002100A1
:102F1E002108B4002008B3000800640080010131CC
:102F2E00890B952F0034FE0012001E00FE0B9B2F06
:102F3E000034F800F20178088D316C2597310800C5
:102F4E00FF34FF34FF34FF34FF34FF34FF34F80016
:102F5E00F201F20A78088D316C25973108002F00A6
:102F6E0096019701980199019A019B01080023008F
:102F7E00901AC22FC32FC92F8F01283090009101B4
:102F8E0003308D0008002100310832040319D02FC0
:102F9E00D12FD62F32088A0031080A009731080047
:102FAE00803027008E00FF308D00C0308C00240052
:102FBE001F08F33904389F0008002E000C100B1068
:102FCE0057302100A0001730A10097317C27973190
:102FDE002E00161408000130250090008F0191017B
:102FEE00FF308D008C012E009010803025008E0059
:102FFE000800013400340A34003464340034E834F8
:10300E0003341034273425343034323464342034CD
:0E301E00433400344C34203425346434003400
:020000040001F9
:0A000E00EC3FFF3F9F3FFF3FFF3F25
:00000001FF
