:020000040000FA
:1000000080314028080008007E1480310B1F092829
:100010000A283E282E001A1E0E280F281728101E08
:100020001228132817288C319C2480313E281A1D51
:100030001A281B282328101D1E281F2823288C312E
:10004000852480313E281A1C262827282F28101C9A
:100050002A282B282F288C316E2480313E28991C89
:100060003228332838288F1C3628372838283E284D
:10007000191C3B283C283E280F083E287E1009000A
:1000800080314228C63084008B3085005F30860086
:10009000003087000C308B31852380318B30840019
:1000A0008B308500BA3086000030870006308B31F7
:1000B000852380314C3084000030850013308B3133
:1000C0007F238031B23084000030850008308B31CE
:1000D0007F2380317E1020008631CD2E20005208F3
:1000E00053040319742875288A280030A000903022
:1000F000A1006008A3005F08A2006208A5006108D3
:10010000A4006408A7006308A600373082310E22DD
:1001100080319E280030A0009030A1004D08A3003F
:100120004C08A2004F08A5004E08A4005108A700E3
:100130005008A600373082310E22803180308B315A
:100140009123803137308C314424803120006A087B
:100150000319AB28AC28B2298F308B319123803121
:1001600041308B319823803120006503031DB9286D
:10017000BA28C3288B308B319123803143308B31A7
:1001800098238031CB288B308B31912380312030E4
:100190008B319823803120006903031DD028D1289A
:1001A000DA288C308B319123803154308B31982375
:1001B0008031E2288C308B319123803120308B319B
:1001C0009823803120006703031DE728E828F128E1
:1001D0008D308B31912380314C308B31982380319D
:1001E000F9288D308B319123803120308B31982349
:1001F000803120006508031DFE28FF2809296908B1
:10020000031D032904290929670803190829092955
:10021000BA2921003A0A031D11293B0A031D11299D
:1002200012292A2920004D082100BB0020004C087B
:100230002100BA0020004F082100BD0020004E0818
:100240002100BC00200051082100BF002000500800
:100250002100BE00B23086000030870046308400A6
:100260000030850006302000B50016001A00B50BDE
:1002700035294C3086000030870070308400003013
:100280008500403F803F413F813F423F823F433FA7
:10029000833F443F843F453F853FBA30860000306E
:1002A00087007630840000308500403F803F413F2A
:1002B000813F423F823F433F833F443F843F453F2E
:1002C000853F4630B5003508FC008F31202780314E
:1002D00020004B08803AB50080303502031D72299A
:1002E00006304A02031875297629A02927008E1B9B
:1002F0007A297B2981298B31672380318B315523E2
:10030000803120005508803AB50084303502031D45
:100310008B290030540203188E298F299529C83063
:100320002000D4070030D53D98292000D401D50104
:100330005508F1005408F0008C3158248031BA2956
:1003400027008E1FA429A529BA290030F000F1004A
:100350008C31582480318B316B2380318B315B237E
:100360008031BA298F308B319123803161308B31CC
:1003700098238031C0308B31912380311930200097
:10038000A0009030A1005E08B500B6013508A200BB
:100390003608A3003F3082310E2280313F308C314D
:1003A00044248031CD308B319123803120302000A6
:1003B000A0009030A1005D08B500B6013508A2008C
:1003C0003608A300433082310E22803143308C3115
:1003D00044248031200052035304031DF029F129E5
:1003E000F62981308B31912380310D2A023052065B
:1003F0005304031DFC29FD29022A84308B319123EB
:1004000080310D2A033052065304031D082A092A9D
:100410000D2A87308B319123803108002000B300F2
:100420002230A8002808AC00922B2530340603198E
:100430001A2A1B2A272A3408A800330886008701B5
:10044000280881000130A8002808B307922BB101C9
:10045000B201B001302A30150130A0070030A13DB3
:1004600020088400210885000008303A03192B2A4F
:10047000392A200884002108850000088C312024B6
:100480008231031C442A452A782A2000B101B20196
:100490000A30F0000030F10020003208F30031088B
:1004A000F2008D310025823171082000B200700801
:1004B000B10020088400210885000008D03EA80073
:1004C000FF3003180030A9002808B1072908B23D01
:1004D0000130A0070030A13D2008840021088500DC
:1004E00000088C31202482310318772A782A482A80
:1004F00020002108A9002008A800A00A0319A10AC9
:1005000028088400290885000008B400003A03196F
:10051000A62B643A0319902A0D3A0319902A922BBC
:100520002C0886008701403FAE00413FAF000230FB
:10053000A8002808AC07AF1F9E2A9F2AA82A0330CC
:10054000A8002808B004AE09AF09AE0A0319AF0A23
:10055000B401B40A3408A800A901A835A90D0F30C8
:10056000280784009030293D8500003FAA00013F04
:10057000AB002B082F02031DBF2A2A082E020318E6
:10058000C22AC32AC42ACE2A0130A8002808B407E8
:1005900005303406031DCD2ACE2AAA2A310832049A
:1005A0000319D32AD42ADE2A300803390319D92A99
:1005B000DA2ADE2AFF30B107FF30B23D3208803A36
:1005C000803C031DE52A310834020318E82AE92A91
:1005D000F22A20003408A800A9012808B10229083D
:1005E000B23BF52A2000B101B201301DF82AF92AE8
:1005F000262B300803390319FE2AFF2A0A2B2D3037
:10060000A800330886008701280881000130A8006F
:100610002808B3073108320403190F2B102B522B73
:100620003030A80033088600870128088100013097
:10063000A8002808B307FF30B107FF30B23D3108EA
:100640003204031D242B252B102B522B310832048E
:1006500003192B2B2C2B412B2030A80033088600AC
:100660008701280881000130A8002808B307FF305F
:10067000B107FF30B23D31083204031D402B412B3E
:100680002C2B300803390319462B472B522B2D30C6
:10069000A800330886008701280881000130A800DF
:1006A0002808B3073408A8002808AD00892B0A30B1
:1006B000F8000030F9002D08A800A901A835A90DFF
:1006C0000F30280784009030293D8500003FF0005E
:1006D000013FF1002F08F3002E08F2008D31B02504
:1006E00082317108FB007008FA008D317C2582315F
:1006F0007808303E2000AA002A08B4003408A80078
:10070000330886008701280881000130A8002808E6
:10071000B307FF30A8002808AD072D0A031D912B51
:10072000922B572B2108A9002008A800A00A031922
:10073000A10A28088400290885000008AA002A08C0
:10074000B4003408031DA52BA62B152A33088600F8
:1007500087018101080023000F0C890C0139F20088
:1007600011081F397204031DB62BB72BAB2B1114C4
:100770001118BB2BBC2BB82B0F0C890C0139F200C4
:1007800011081F397204031DC62BC72BBC2B9A30CE
:100790008E312826833123000F0C890C0139F20099
:1007A00011081F397204031DD62BD72BCB2B013018
:1007B0008E312826833123000F0C890C0139F20079
:1007C00011081F397204031DE62BE72BDB2B911454
:1007D0009118EB2BEC2BE82B0F0C890C0139F20054
:1007E00011081F397204031DF62BF72BEC2B9B30DD
:1007F0008E312826833123000F0C890C0139F20039
:1008000011081F397204031D062C072CFB2B8C3199
:10081000CA248331F2007208F30023000F0C890C04
:100820000139F20011081F397204031D182C192C0C
:100830000D2C91161116111A1E2C1F2C1B2C0F0C8F
:10084000890C0139F20011081F397204031D292C8B
:100850002A2C1F2C111511192E2C2F2C2B2C731F09
:10086000322C332CAB2B0F0C890C0139F200110800
:100870001F397204031D3D2C3E2C332C111411180A
:10088000422C432C3F2C0F0C890C0139F20011082B
:100890001F397204031D4D2C4E2C432C9A308E317F
:1008A0002826833123000F0C890C0139F20011082E
:1008B0001F397204031D5D2C5E2C522C00308E31CA
:1008C0002826833123000F0C890C0139F20011080E
:1008D0001F397204031D6D2C6E2C622C911491181B
:1008E000722C732C6F2C0F0C890C0139F20011083B
:1008F0001F397204031D7D2C7E2C732C9B308E318E
:100900002826833123000F0C890C0139F2001108CD
:100910001F397204031D8D2C8E2C822C8C31CA241D
:100920008331F2007208F30023000F0C890C0139A7
:10093000F20011081F397204031D9F2CA02C942C67
:1009400091161116111AA52CA62CA22C0F0C890C8D
:100950000139F20011081F397204031DB02CB12CAB
:10096000A62C11151119B52CB62CB22C7308080041
:100970002100A5002508F039A3002308A6002508BA
:10098000A3000330A335FF3E031DC22C2335F039ED
:10099000A4002408A70023000F0C890C01392100B2
:1009A000A300230011081F3921002304031DD92CA3
:1009B000DA2CCB2C230011141118DF2CE02CDC2CAA
:1009C00023000F0C890C01392100A300230011081A
:1009D0001F3921002304031DEE2CEF2CE02C4E3098
:1009E0008E31C626843123000F0C890C0139210079
:1009F000A300230011081F3921002304031D012D2A
:100A0000022DF32C2608220408388E31C6268431A4
:100A100023000F0C890C01392100A30023001108C9
:100A20001F3921002304031D162D172D082D26081C
:100A300022040C388E31C626843123000F0C890C19
:100A400001392100A300230011081F3921002304CC
:100A5000031D2B2D2C2D1D2D2100260822040838C6
:100A60008E31C626843123000F0C890C01392100F8
:100A7000A300230011081F3921002304031D412D69
:100A8000422D332D2708220408388E31C6268431A2
:100A900023000F0C890C01392100A3002300110849
:100AA0001F3921002304031D562D572D482D2708DB
:100AB00022040C388E31C626843123000F0C890C99
:100AC00001392100A300230011081F39210023044C
:100AD000031D6B2D6C2D5D2D210027082204083885
:100AE0008E31C626843123000F0C890C0139210078
:100AF000A300230011081F3921002304031D812DA9
:100B0000822D732D230011151119872D882D842D09
:100B10000430890B892D0800F5007508F039F300C1
:100B20007308F6007508F3000330F335FF3E031D2C
:100B3000952D7335F039F4007408F70023000F0C7D
:100B4000890C0139F30011081F397304031DA92D05
:100B5000AA2D9E2D11141118AE2DAF2DAB2D0F0CFB
:100B6000890C0139F30011081F397304031DB92DD5
:100B7000BA2DAF2D4E308E312826853123000F0C33
:100B8000890C0139F30011081F397304031DC92DA5
:100B9000CA2DBE2D7608720408388E31282685317C
:100BA00023000F0C890C0139F30011081F3973045D
:100BB000031DDB2DDC2DD02D760872040C388E3110
:100BC0002826853123000F0C890C0139F300110808
:100BD0001F397304031DED2DEE2DE22D76087204EE
:100BE00008388E312826853123000F0C890C0139F5
:100BF000F30011081F397304031DFF2D002EF42D7F
:100C00007708720408388E312826853123000F0CAE
:100C1000890C0139F30011081F397304031D112ECB
:100C2000122E062E770872040C388E312826853154
:100C300023000F0C890C0139F30011081F397304CC
:100C4000031D232E242E182E7708720408388E31A7
:100C50002826853123000F0C890C0139F300110877
:100C60001F397304031D352E362E2A2E1115111926
:100C70003A2E3B2E372E0430890B3C2E08000130D3
:100C80002000D2000030D30020000D1A482E492E3B
:100C9000742E11302100A0003A30890B4D2EA00B8C
:100CA0004D2E000001302000D2070030D33D530804
:100CB000803A2100A00080302002031D622E043003
:100CC00020005202031C652E662E6F2E2000D201DA
:100CD000D30101302100B8070030B93DCC2E2000EF
:100CE0000D1E732E742E6F2E8E1A772E782E442E94
:100CF00052035304031D7D2E7E2E972E6008803AEA
:100D00002100A00080302002031D892E1730200012
:100D10005F02031C8C2E8D2E912E2000DF01E0013E
:100D2000C22E01302000DF070030E03DC22E02302D
:100D300052065304031D9D2E9E2EAD2E3B306106A0
:100D40006204031DA42EA52EA82EE101E201C22EED
:100D50000130E1070030E23DC22E03305206530459
:100D6000031DB32EB42EC22E3B3063066404031D54
:100D7000BA2EBB2EBE2EE301E401C22E0130E307E2
:100D80000030E43D11302100A0003A30890BC62E1E
:100D9000A00BC62E0000442E08008C31E4248631BE
:100DA0008B316F2386318B31612386318E30210068
:100DB000A0000F30A1008B31732386316E302100EB
:100DC000A0000030A1008B31B1238631EC3021002E
:100DD000A0000D30A1008B31792386318B31BA23ED
:100DE00086312000931513163E00CF154F1687311C
:100DF0004D2786318B170B1720000D1A002F012F5E
:100E0000342F11302100A9003A30890B052FA90B8E
:100E1000052F0000210038083904031D102F112F61
:100E2000252F20006508031D162F172F212F690875
:100E3000031D1B2F1C2F212F67080319202F212F83
:100E4000252FE501E901E7012A2F01302100B80033
:100E50000030B90020000D1E2E2F2F2F2A2F342FE7
:100E600086313F268631FC2E21003908003A0319CD
:100E70003A2FFC2E3808003A0319FC2E013A0319C8
:100E8000302F033A0319FC2E013A0319FC2E073ABE
:100E90000319FC2EFC2E8031402811302100A800BF
:100EA0003A30890B512FA80B512F000030308E3172
:100EB0007326873134308E31732687312930890B80
:100EC0005F2F003230308E3173268731FA30003296
:100ED000890B672F30308E317326873134308E3155
:100EE000732687312930890B732F003230308E31D1
:100EF000732687310830890B7B2F000030308E310C
:100F00007326873134308E31732687312930890B2F
:100F1000872F003230308E31732687310830890BAD
:100F20008F2F000020308E317326873124308E3190
:100F3000732687312930890B9B2F003220308E3168
:100F400073268731FA300032890BA32F2100A201CA
:100F500028308431B82487312100A2010630843141
:100F6000B82487312100A2010F308431B8248731A1
:100F70002100A20101308431B8248731A630890BC9
:100F8000BF2F0032080020009A01990196019701B5
:100F90009801073095000F309100FF309200FF302C
:100FA0009300FF309400FF303E00D900C730CE00E0
:100FB000EF30C3000730E4004F30B800DA01E5013C
:100FC000C401B901CF01E601BA01C501D001DB01BD
:100FD000FF30BB00FF30C600FF30D100FF30DC0027
:100FE0000730E70013303D00C50014303E00A30079
:100FF0001530A4000E30960014303D00C6000800E5
:1016A800080027008E17080025008E17080027005D
:1016B8008E13080025008E13080027008E130800DB
:1016C80025008E1308008B3158238B3108008B318D
:1016D8005E238B3108008B3164238B310800210095
:1016E8002108AF002008AE00080021002108AB0047
:1016F8002008AA000800640080010131890B802BB2
:101708000034FE0012001E00FE0B862B0034FF344E
:10171800FF34FF34FF34FF34FF34F800F201780857
:1017280085318C258B310800F800F201F20A78081F
:1017380085318C258B3108002F009601970198017F
:1017480099019A019B010800623031008D008F01D8
:101758009101023093009201080021002108200025
:10176800EC00210020082000EB0008002300901A5C
:10177800BE2BBF2BC52B8F01283090009101033061
:101788008D00080000340034013400340034003483
:101798000034043400341C34003401348030270011
:1017A8008E00FF308D00C0308C0024001F08F339F4
:1017B80004389F0008000130250090008F01910136
:1017C800FF308D008C012E009010803025008E0097
:1017D800080024000E1DF12BF22BF92B0E107108B6
:1017E8008D0070088C000E14FD2B71088D00700898
:1017F8008C0008002400141D022C032C0A2C141041
:10180800710893007008920014140E2C710893004C
:1018180070089200080024001A1D132C142C1B2C8D
:101828001A1071089900700898001A141F2C710872
:101838009900700898000800F100F0013A30710230
:101848000318272C282C302C30307102031C2D2C27
:101858002E2C302CF001F00A700C0800F3007308ED
:1018680021009E009317131313140000210013186E
:101878003E2C3F2C3A2C0D08F1000C08F000080013
:10188800FB004A2C7A088B3198238C317B08860020
:101898008701FB0A0108F9007908FA007A08031D94
:1018A800562C572C462C08007108F3007008F200DB
:1018B800F336F20CF336F20C720827008D0070082C
:1018C8000339F2000530F235FF3E031D672C7235EF
:1018D8008C0008002E00101021003108F10030089B
:1018E800F0008B31ED238C3121002E082F040319D1
:1018F8007E2C7F2C842C2F088A002E080A008C311D
:1019080008002E00101120006E08F1006D08F0008C
:101918008B31FE238C3120006B086C040319952C45
:10192800962C9B2C6C088A006B080A008C310800E6
:101938002E00101221002D08F1002C08F0008C3127
:101948000F248C3121002A082B040319AC2CAD2C50
:10195800B22C2B088A002A080A008C3108002200C1
:101968008E018F0190019101920193018D01210057
:101978009E019B0194019501960197019A01990195
:10198800980180309300FF309D0008000F3023003D
:101998001005F000083070060319D32CD42CDD2C68
:1019A8000F301005F0000B307006031DDC2CDD2C09
:1019B800DE2C91150F1CE12CE22CDE2C0C08080003
:1019C8008B31A0238C318731C3278C318B31A823ED
:1019D8008C318B31D2238C318C31B3248C318D31C5
:1019E8003E258C318B31DF238C318D315D258C3157
:1019F8008D311F258C310800F401F501701C052D6F
:101A0800062D0A2D7208F4077308F53D0130F235EA
:101A1800F30D890B0B2D0130F136F00C890B102DCD
:101A280070087104031D192D1A2D022D7508F10077
:101A38007408F000080024008F0190010430910020
:101A480086308D00E8308C000D082100B10024009C
:101A58000C082100B0002E0010101A145430210078
:101A6800A0000B30A1008B3173238D31013024008D
:101A78008E00080024009501960104309700E73095
:101A88009300C830920013082000EE0024001208CA
:101A98002000ED002E0010111A1502302100A000C0
:101AA8000030A1008B31B1238D3101302400940026
:101AB800080024009B019C0104309D004A309900D5
:101AC8005C30980019082100AD0024001808210096
:101AD800AC002E0010121A1603302100A0000030AE
:101AE800A1008B3179238D31113024009A00080030
:101AF800780879040319812D822DAB2DFD01FD0A8B
:101B08008E2D0130F835F90D890B862D0130FC003A
:101B18007C08FD07F91F912D922D852D79087B02F0
:101B2800031D982D78087A02031C9B2D9C2DA02D4F
:101B38007808FA027908FB3B0130F936F80C890B72
:101B4800A12D0130FD02031DAA2DAB2D922D7B087E
:101B5800F9007A08F8000800F501F6017008710428
:101B68000319B72DB82DE72DF701F70AC42D013059
:101B7800F035F10D890BBC2D0130F4007408F7071E
:101B8800F11FC72DC82DBB2D0130F535F60D890B7A
:101B9800C92D71087302031DD32D70087202031C2E
:101BA800D62DD72DDC2D7008F2027108F33B751481
:101BB8000130F136F00C890BDD2D0130F702031DE1
:101BC800E62DE72DC82D7608F1007508F00008000D
:101BD8008331AB238D31F40074082000DE0000301F
:101BE8008C3132248D317008F4007108F5000D3005
:101BF800F536F40C890BFC2D7408F60076082000E5
:101C0800DD0066085D0203180A2E0B2E152EFF3024
:101C18002100BA00FF30BB002000E701E70A1616D2
:101C2800162E16125E08680203181B2E1C2E262E6E
:101C3800FF302100BA00FF30BB002000E901E90AAB
:101C48009616272E96120800F100710823008C00C2
:101C5800901F2F2E302E312E722E0F301005F000CF
:101C6800083070060319392E3A2E502E0F30100501
:101C7800F0000B3070060319422E432E502E10161A
:101C88002E000F1C482E492E442E23000F194D2ECE
:101C98004E2E722E0F08722E0F301005F0000830ED
:101CA80070060319582E592E622E0F301005F000B9
:101CB8000B307006031D612E622E722E0F18652ED2
:101CC800662E622E0F0C890C0139F00011081F399D
:101CD8007004031D702E712E662E11080800210055
:101CE800A30023000F0C890C01392100A200230056
:101CF80011081F3921002204031D832E842E752EFE
:101D0800230011141118892E8A2E862E23000F0CF9
:101D1800890C01392100A200230011081F39210074
:101D28002204031D982E992E8A2E4E308E31C626F7
:101D38008E3123000F0C890C01392100A2002300E9
:101D480011081F3921002204031DAB2EAC2E9D2E35
:101D580023088E31C6268E3123000F0C890C0139D9
:101D68002100A200230011081F3921002204031DAD
:101D7800BE2EBF2EB02E230011151119C42EC52E4C
:101D8800C12E08002100A100210823008C00901F0B
:101D9800CE2ECF2ED02E1F2F0F3010052100A000E1
:101DA800083020060319D92EDA2EF32E0F3023001F
:101DB80010052100A0000B3020060319E42EE52EA3
:101DC800F32E230010162E000F1CEB2EEC2EE72E00
:101DD80023000F19F02EF12E1F2F0F081F2F0F3081
:101DE800230010052100A000083020060319FD2E4D
:101DF800FE2E092F0F30230010052100A0000B3004
:101E08002006031D082F092F1F2F23000F180D2F41
:101E18000E2F092F23000F0C890C01392100A00077
:101E2800230011081F3921002004031D1C2F1D2F1A
:101E38000E2F230011080800292FFF30F207FF306A
:101E4800F33D3C30F4070030F53D7508803A20003A
:101E5800A0007B08803A2002031D342F7A08740200
:101E6800031C372F382F212F0430763E8600870138
:101E78000430703E84008501403F00022000A0002D
:101E88000131413F003BA1007C08043E86008701E8
:101E98002008C03F2108C13F592FFF30F007FF300D
:101EA800F13D3C30F2070030F33D7308803A2000E2
:101EB800A0007908803A2002031D642F7808720276
:101EC800031C672F682F512F0230763E860087014A
:101ED8000230703E84008501403F00022000A000CF
:101EE8000131413F003BA1007C08023E860087018A
:101EF8002008C03F2108C13F76087002A00077087B
:101F0800713BA1007C08860087012008C03F21089A
:101F1800C13F080001302000D0070030D13D3C30DF
:101F280050065104031D992F9A2FA02F0130CE0778
:101F38000030CF3DD001D1013C304E064F04031D87
:101F4800A62FA72FAD2F0130CC070030CD3DCE01F5
:101F5800CF0118304C064D04031DB32FB42FB62FF4
:101F6800CC01CD016A03031DBA2FBB2FF32F5108F3
:101F7800803AF0006408803A7002031DC52F630898
:101F88005002031CC82FC92FF32F20004F08803A96
:101F9800F0006208803A7002031DD42F61084E02D7
:101FA800031CD72FD82FF32F20004D08803AF000BC
:101FB8006008803A7002031DE32F5F084C02031C7F
:101FC800E62FE72FF32FFF302100BA00FF30BB00C8
:101FD8002000E501E50A1930DF000030E0000310B9
:101FE8002000961F03140318FA2FFD2F20009617C0
:101FF800FF2F20009613080025343034323464341F
:102008003A3425343034323464343A342534303474
:10201800323464340034013400340A340034643413
:102028000034E8340334103427342534303432345F
:1020380064342034433400344C342034253464343C
:02204800003462
:020000040001F9
:0A000E00EC3FFF3F9F3FFF3FFF3F25
:00000001FF
