:020000040000FA
:1000000080314028080008007E1480310B1F092829
:100010000A283E282E001A1E0E280F281728101E08
:100020001228132817288D314D2580313E281A1D9E
:100030001A281B282328101D1E281F2823288D312D
:10004000362580313E281A1C262827282F28101CE8
:100050002A282B282F288D311F2580313E28991CD6
:100060003228332838288F1C3628372838283E284D
:10007000191C3B283C283E280F083E287E1009000A
:1000800080314228773084008C3085005B308600D8
:10009000003087000C308C312D24803133308400C7
:1000A0008C308500AF3086000030870006308C3100
:1000B0002D2480314C308400003085000F308C318D
:1000C000272480312100A901AA01AB01AC01AD01B7
:1000D000AE017E1020008E312D2E2000B300223084
:1000E000A8002808AC00F129253034060319792826
:1000F0007A2886283408A800330886008701280853
:1001000081000130A8002808B307F129B101B2012C
:10011000B0018F2830150130A0070030A13D200824
:100120008400210885000008303A03198A2898289D
:10013000200884002108850000088C31D1248031FA
:10014000031CA328A428D7282000B101B2010A303B
:10015000F0000030F10020003208F3003108F20016
:100160008D31B125803171082000B2007008B100D6
:1001700020088400210885000008D03EA800FF3038
:1001800003180030A9002808B1072908B23D013042
:10019000A0070030A13D2008840021088500000848
:1001A0008C31D12480310318D628D728A7282000E5
:1001B0002108A9002008A800A00A0319A10A2808FC
:1001C0008400290885000008B400003A0319052AB4
:1001D000643A0319EF280D3A0319EF28F1292C0886
:1001E00086008701403FAE00413FAF000230A800CB
:1001F0002808AC07AF1FFD28FE2807290330A800F8
:100200002808B004AE09AF09AE0A0319AF0AB40159
:10021000B40A3408A800A901A835A90D0F30280791
:1002200084009030293D8500003FAA00013FAB00CB
:100230002B082F02031D1E292A082E02031821292C
:10024000222923292D290130A8002808B4070530C8
:100250003406031D2C292D290929310832040319DC
:10026000322933293D29300803390319382939291E
:100270003D29FF30B107FF30B23D3208803A803C63
:10028000031D4429310834020318472948295129FC
:1002900020003408A800A9012808B1022908B23BAF
:1002A00054292000B101B201301D57295829852950
:1002B0003008033903195D295E2969292D30A8000A
:1002C000330886008701280881000130A80028082B
:1002D000B3073108320403196E296F29B129303070
:1002E000A800330886008701280881000130A80093
:1002F0002808B307FF30B107FF30B23D31083204A0
:10030000031D832984296F29B12931083204031977
:100310008A298B29A0292030A8003308860087016C
:10032000280881000130A8002808B307FF30B10772
:10033000FF30B23D31083204031D9F29A0298B29CB
:10034000300803390319A529A629B1292D30A800A1
:10035000330886008701280881000130A80028089A
:10036000B3073408A8002808AD00E8290A30F800CF
:100370000030F9002D08A800A901A835A90D0F30FB
:10038000280784009030293D8500003FF000013FA0
:10039000F1002F08F3002E08F2008E3190268031F4
:1003A0007108FB007008FA008E315C2680317808F5
:1003B000303E2000AA002A08B4003408A800330800
:1003C00086008701280881000130A8002808B307AB
:1003D000FF30A8002808AD072D0A031DF029F129D8
:1003E000B6292108A9002008A800A00A0319A10A1B
:1003F00028088400290885000008AA002A08B400FB
:100400003408031D042A052A74283308860087014E
:100410008101080000302000A0009030A1004D08AC
:10042000A3004C08A2004F08A5004E08A4005108E4
:10043000A7005008A600373080316D20823180300F
:100440008C313924823137308C31F52482312000CF
:10045000660803192C2A2D2A052B8F308C3139245C
:10046000823141308C314024823120006103031DF0
:100470003A2A3B2A432A8B308C313924823143304B
:100480008C314024823120006503031D482A492A0B
:10049000512A8C308C313924823154308C314024B3
:1004A000823120006303031D562A572A5F2A8D30AC
:1004B0008C31392482314C308C31402482312000FF
:1004C0006108031D642A652A6F2A6508031D692ACD
:1004D0006A2A6F2A630803196E2A6F2A0D2B2100DE
:1004E0002F0A031D772A300A031D772A782A902ABB
:1004F00020004D082100B00020004C082100AF0072
:1005000020004F082100B20020004E082100B10059
:10051000200051082100B400200050082100B30041
:10052000A930860000308700463084000030850006
:1005300006302000B50016001A00B50B9B2A4C307F
:100540008600003087007030840000308500403F16
:10055000803F413F813F423F823F433F833F443F93
:10056000843F453F853FAF308600003087007630BE
:10057000840000308500403F803F413F813F423F43
:10058000823F433F833F443F843F453F853F463062
:10059000B5003508FC0086314526823120004B0825
:1005A000803AB50080303502031DD82A06304A0251
:1005B0000318DB2ADC2AFE2A8C311D24823120001C
:1005C0005308803AB50084303502031DE92A003013
:1005D00052020318EC2AED2AF32AC8302000D20771
:1005E0000030D33DF62A2000D201D3015308F10098
:1005F0005208F0008D31092582310D2B0030F000BA
:10060000F1008D31092582310D2B8F308C31392449
:10061000823161308C3140248231C0308C313924B8
:10062000823119302000A0009030A1005A08B50096
:10063000B6013508A2003608A3003F3080316D2096
:1006400082313F308C31F5248231CD308C313924E8
:10065000823120302000A0009030A1005508A30076
:100660005408A200433080316D20823143308C31F8
:10067000F5248231080023000F0C890C0139F200A7
:1006800011081F397204031D462B472B3B2B1114F5
:1006900011184B2B4C2B482B0F0C890C0139F200F5
:1006A00011081F397204031D562B572B4C2B9A30FF
:1006B0008F310A27833123000F0C890C0139F20096
:1006C00011081F397204031D662B672B5B2B013049
:1006D0008F310A27833123000F0C890C0139F20076
:1006E00011081F397204031D762B772B6B2B911485
:1006F00091187B2B7C2B782B0F0C890C0139F20085
:1007000011081F397204031D862B872B7C2B9B300D
:100710008F310A27833123000F0C890C0139F20035
:1007200011081F397204031D962B972B8B2B8D31CB
:100730007B258331F2007208F30023000F0C890C33
:100740000139F20011081F397204031DA82BA92BCF
:100750009D2B91161116111AAE2BAF2BAB2B0F0C34
:10076000890C0139F20011081F397204031DB92BDD
:10077000BA2BAF2B11151119BE2BBF2BBB2B731F1F
:10078000C22BC32B3B2B0F0C890C0139F200110833
:100790001F397204031DCD2BCE2BC32B111411183E
:1007A000D22BD32BCF2B0F0C890C0139F20011085F
:1007B0001F397204031DDD2BDE2BD32B9A308F31B2
:1007C0000A27833123000F0C890C0139F20011082C
:1007D0001F397204031DED2BEE2BE22B00308F31FD
:1007E0000A27833123000F0C890C0139F20011080C
:1007F0001F397204031DFD2BFE2BF22B911491184F
:10080000022C032CFF2B0F0C890C0139F20011086C
:100810001F397204031D0D2C0E2C032C9B308F31BD
:100820000A27833123000F0C890C0139F2001108CB
:100830001F397204031D1D2C1E2C122C8D317B259B
:100840008331F2007208F30023000F0C890C013988
:10085000F20011081F397204031D2F2C302C242C98
:1008600091161116111A352C362C322C0F0C890CBE
:100870000139F20011081F397204031D402C412C6C
:10088000362C11151119452C462C422C73080800E2
:100890002100A5002508F039A3002308A60025089B
:1008A000A3000330A335FF3E031D522C2335F0393E
:1008B000A4002408A70023000F0C890C0139210093
:1008C000A300230011081F3921002304031D692CF4
:1008D0006A2C5B2C2300111411186F2C702C6C2CBB
:1008E00023000F0C890C01392100A30023001108FB
:1008F0001F3921002304031D7E2C7F2C702C4E30C9
:1009000087317C27843123000F0C890C01392100A9
:10091000A300230011081F3921002304031D912C7B
:10092000922C832C26082204083887317C278431B6
:1009300023000F0C890C01392100A30023001108AA
:100940001F3921002304031DA62CA72C982C260850
:1009500022040C3887317C27843123000F0C890C4A
:1009600001392100A300230011081F3921002304AD
:10097000031DBB2CBC2CAD2C2100260822040838FA
:1009800087317C27843123000F0C890C0139210029
:10099000A300230011081F3921002304031DD12CBB
:1009A000D22CC32C27082204083887317C278431B5
:1009B00023000F0C890C01392100A300230011082A
:1009C0001F3921002304031DE62CE72CD82C27080F
:1009D00022040C3887317C27843123000F0C890CCA
:1009E00001392100A300230011081F39210023042D
:1009F000031DFB2CFC2CED2C2100270822040838B9
:100A000087317C27843123000F0C890C01392100A8
:100A1000A300230011081F3921002304031D112DF9
:100A2000122D032D230011151119172D182D142D1A
:100A30000430890B192D0800F5007508F039F30012
:100A40007308F6007508F3000330F335FF3E031D0D
:100A5000252D7335F039F4007408F70023000F0CCE
:100A6000890C0139F30011081F397304031D392D56
:100A70003A2D2E2D111411183E2D3F2D3B2D0F0C0C
:100A8000890C0139F30011081F397304031D492D26
:100A90004A2D3F2D4E308F310A27853123000F0C10
:100AA000890C0139F30011081F397304031D592DF6
:100AB0005A2D4E2D7608720408388F310A27853159
:100AC00023000F0C890C0139F30011081F3973043E
:100AD000031D6B2D6C2D602D760872040C388F3140
:100AE0000A27853123000F0C890C0139F300110806
:100AF0001F397304031D7D2D7E2D722D760872041F
:100B000008388F310A27853123000F0C890C0139F1
:100B1000F30011081F397304031D8F2D902D842DB0
:100B20007708720408388F310A27853123000F0CAB
:100B3000890C0139F30011081F397304031DA12D1D
:100B4000A22D962D770872040C388F310A27853133
:100B500023000F0C890C0139F30011081F397304AD
:100B6000031DB32DB42DA82D7708720408388F31DA
:100B70000A27853123000F0C890C0139F300110875
:100B80001F397304031DC52DC62DBA2D111511195A
:100B9000CA2DCB2DC72D0430890BCC2D0800113068
:100BA0002100A8003A30890BD32DA80BD32D0000CB
:100BB00030308F315527853134308F31552785318D
:100BC0002930890BE12D003230308F3155278531A6
:100BD000FA300032890BE92D30308F3155278531BD
:100BE00034308F31552785312930890BF52D00326E
:100BF00030308F31552785310830890BFD2D0000AD
:100C000030308F315527853134308F31552785313C
:100C10002930890B092E003230308F31552785312C
:100C20000830890B112E000020308F315527853177
:100C300024308F31552785312930890B1D2E003204
:100C400020308F3155278531FA300032890B252E1F
:100C50002100A20128308431482485312100A201DD
:100C600006308431482485312100A2010F308431BF
:100C7000482485312100A201013084314824853186
:100C8000A630890B412E003208004E2EFF30F207AD
:100C9000FF30F33D3C30F4070030F53D7508803AF5
:100CA0002000A0007B08803A2002031D592E7A08FC
:100CB0007402031C5C2E5D2E462E0430763E8600A8
:100CC00087010430703E84008501403F000220000F
:100CD000A0000131413F003BA1007C08043E86009A
:100CE00087012008C03F2108C13F7E2EFF30F0075A
:100CF000FF30F13D3C30F2070030F33D7308803A9D
:100D00002000A0007908803A2002031D892E78086F
:100D10007202031C8C2E8D2E762E0230763E8600BB
:100D200087010230703E84008501403F00022000B0
:100D3000A0000131413F003BA1007C08023E86003B
:100D400087012008C03F2108C13F76087002A0003B
:100D50007708713BA1007C08860087012008C03F0E
:100D60002108C13F080001302000D0070030D13DEC
:100D70003C3050065104031DBE2EBF2EC52E01303F
:100D8000CE070030CF3DD001D1013C304E064F049C
:100D9000031DCB2ECC2ED22E0130CC070030CD3D02
:100DA000CE01CF0118304C064D04031DD82ED92E8C
:100DB000DB2ECC01CD016603031DDF2EE02E0F2FAD
:100DC0005108803AF0006008803A7002031DEA2E54
:100DD0005F085002031CED2EEE2E0F2F20004F084F
:100DE000803AF0005E08803A7002031DF92E5D081B
:100DF0004E02031CFC2EFD2E0F2F20004D08803AC2
:100E0000F0005C08803A7002031D082F5B084C025A
:100E1000031C0B2F0C2F0F2F2000E101E10A031000
:100E20002000961F03140318162F192F2000961761
:100E30001B2F2000961308002000A101F71F212F6F
:100E4000222F292FF609F709F60A0319F70AA1013B
:100E5000A10AF91F2C2F2D2F362FF809F909F80AAE
:100E60000319F90A0130FA007A08A106A201A301C8
:100E70007608770403193D2F3E2F6D2FA001A00A9D
:100E80004A2F0130F635F70D890B422F0130FA0059
:100E90007A08A007F71F4D2F4E2F412F0130A235A2
:100EA000A30D890B4F2F77087902031D592F760860
:100EB0007802031C5C2F5D2F622F7608F8027708FA
:100EC000F93B22140130F736F60C890B632F013001
:100ED000A002031D6C2F6D2F4E2F21080319712FB7
:100EE000722F772FA209A309A20A0319A30A2308C4
:100EF000F7002208F60008002100A10021082300C5
:100F00008C00901F842F852F862FD52F0F30100532
:100F10002100A0000830200603198F2F902FA92F41
:100F20000F30230010052100A0000B30200603190C
:100F30009A2F9B2FA92F230010162E000F1CA12FD4
:100F4000A22F9D2F23000F19A62FA72FD52F0F08F3
:100F5000D52F0F30230010052100A00008302006F7
:100F60000319B32FB42FBF2F0F302300100521001A
:100F7000A0000B302006031DBE2FBF2FD52F23004E
:100F80000F18C32FC42FBF2F23000F0C890C01395A
:100F90002100A000230011081F3921002004031D97
:100FA000D22FD32FC42F23001108080020002608B9
:100FB0002802F6002708293BF70026082402F00043
:100FC0002708253BF1002A082C02F2002B082D3BB4
:100FD000F3008D31B12587317108F9007008F800F0
:100FE00087311C27873120002A087607A4002B08A8
:100FF000773DA50008008C311A24873108000800CD
:10182E0025008E17080025008E1308008C31172412
:10183E008C31080021002108B6002008B5000800F0
:10184E00640080010131890B282C0034FE00120047
:10185E001E00FE0B2E2C0034FF34FF34FF34FF34F9
:10186E00FF34FF34F800F201780885311C258C31E5
:10187E000800F800F201F20A780885311C258C3137
:10188E0008002F0096019701980199019A019B017A
:10189E000800623031008D008F01910102309300FB
:1018AE0092010800210021082000EC0021002008F0
:1018BE002000EB000800210021082000E800210094
:1018CE0020082000E70008002300901A6F2C702CCF
:1018DE00762C8F0128309000910103308D00080086
:1018EE000034003401340034003400340034043445
:1018FE0000341C3400340134803027008E00FF3059
:10190E008D00C0308C0024001F08F33904389F006E
:10191E0008000130250090008F019101FF308D00ED
:10192E008C012E009010803025008E0008002400BF
:10193E000E1DA22CA32CAA2C0E1071088D0070085F
:10194E008C000E14AE2C71088D0070088C000800EF
:10195E002400141DB32CB42CBB2C1410710893004E
:10196E00700892001414BF2C710893007008920036
:10197E00080024001A1DC42CC52CCC2C1A1071087A
:10198E009900700898001A14D02C710899007008EC
:10199E0098000800F100F0013A3071020318D82CBB
:1019AE00D92CE12C30307102031CDE2CDF2CE12C03
:1019BE00F001F00A700C0800F300730821009E007D
:1019CE00931713131314000021001318EF2CF02C8F
:1019DE00EB2C0D08F1000C08F0000800FB00FB2CAE
:1019EE007A088C3140248C317B0886008701FB0AF3
:1019FE000108F9007908FA007A08031D072D082D51
:101A0E00F72C08007108F3007008F200F336F20CA0
:101A1E00F336F20C720827008D0070080339F200BD
:101A2E000530F235FF3E031D182D72358C0008006F
:101A3E002E00101021003808F1003708F0008C310C
:101A4E009E248D3121003508360403192F2D302D9B
:101A5E00352D36088A0035080A008D3108002E0013
:101A6E00101120006E08F1006D08F0008C31AF24CB
:101A7E008D3120006B086C040319462D472D4C2D1B
:101A8E006C088A006B080A008D3108002E001012B7
:101A9E0020006A08F1006908F0008C31C0248D31F5
:101AAE0020006708680403195D2D5E2D632D6808FC
:101ABE008A0067080A008D31080022008E018F010E
:101ACE0090019101920193018D0121009E019B01D4
:101ADE0094019501960197019A0199019801803020
:101AEE009300FF309D0008000F3023001005F0001A
:101AFE00083070060319842D852D8E2D0F3010059C
:101B0E00F0000B307006031D8D2D8E2D8F2D91152F
:101B1E000F1C922D932D8F2D0C0808008C3148240C
:101B2E008D318E31CC268D318C3150248D318C31CE
:101B3E0083248D318D3164258D318D31EF258D319D
:101B4E008E310E268D318C3190248D318D31D025F4
:101B5E008D310800F401F501701CB62DB72DBB2D8B
:101B6E007208F4077308F53D0130F235F30D890B59
:101B7E00BC2D0130F136F00C890BC12D70087104AB
:101B8E00031DCA2DCB2DB32D7508F1007408F0007E
:101B9E00080024008F0190010430910086308D00E2
:101BAE00E8308C000D082100B80024000C0821003C
:101BBE00B7002E0010101A1402302100A0000030C1
:101BCE00A1008C3121248D31013024008E000800BB
:101BDE0024009501960104309700E7309300C83039
:101BEE00920013082000EE00240012082000ED00E1
:101BFE002E0010111A1503302100A0000030A10094
:101C0E008C3159248D3101302400940008002400B9
:101C1E009B019C0104309D004A3099005C30980075
:101C2E0019082000EA00240018082000E9002E0000
:101C3E0010121A16FF302100A0000730A1008C31BF
:101C4E0062248E31113024009A0008008D319525C2
:101C5E008E318731FB278E31B3302100A000063044
:101C6E00A1008C3121248E310A302100A0000230D7
:101C7E00A1008C3159248E31A8302100A0000F30E4
:101C8E00A1008C3162248E318C316B248E31200078
:101C9E00931513163E00CF154F168531CF258E3175
:101CAE008B170B17592E80314028780879040319A9
:101CBE00612E622E8B2EFD01FD0A6E2E0130F8353F
:101CCE00F90D890B662E0130FC007C08FD07F91F0B
:101CDE00712E722E652E79087B02031D782E7808E0
:101CEE007A02031C7B2E7C2E802E7808FA0279084D
:101CFE00FB3B0130F936F80C890B812E0130FD02C9
:101D0E00031D8A2E8B2E722E7B08F9007A08F8009E
:101D1E000800F501F601700871040319972E982E2C
:101D2E00C72EF701F70AA42E0130F035F10D890BFD
:101D3E009C2E0130F4007408F707F11FA72EA82E71
:101D4E009B2E0130F535F60D890BA92E7108730205
:101D5E00031DB32E70087202031CB62EB72EBC2EB6
:101D6E007008F2027108F33B75140130F136F00C75
:101D7E00890BBD2E0130F702031DC62EC72EA82ECD
:101D8E007608F1007508F000080020009A0199010C
:101D9E00960197019801073095000F309100FF30A2
:101DAE009200FF309300FF309400FF303E00D900C8
:101DBE00C730CE00EF30C3000730E4004F30B8001C
:101DCE00DA01E501C4010130B900CF01E601BA0123
:101DDE00C501D001DB01FF30BB00FF30C600FF3074
:101DEE00D100FF30DC000730E70013303D00C500A6
:101DFE0014303E00A3001530A4000E3096001430AF
:101E0E003D00C6000800F100710823008C00901FF1
:101E1E00112F122F132F542F0F301005F0000830F2
:101E2E00700603191B2F1C2F322F0F301005F000D8
:101E3E000B3070060319242F252F322F10162E006B
:101E4E000F1C2A2F2B2F262F23000F192F2F302F49
:101E5E00542F0F08542F0F301005F0000830700665
:101E6E0003193A2F3B2F442F0F301005F0000B3083
:101E7E007006031D432F442F542F0F18472F482F42
:101E8E00442F0F0C890C0139F00011081F39700412
:101E9E00031D522F532F482F110808002100A300B5
:101EAE0023000F0C890C01392100A2002300110818
:101EBE001F3921002204031D652F662F572F230083
:101ECE00111411186B2F6C2F682F23000F0C890C17
:101EDE0001392100A200230011081F39210022041C
:101EEE00031D7A2F7B2F6C2F4E3087317C278F313D
:101EFE0023000F0C890C01392100A20023001108C8
:101F0E001F3921002204031D8D2F8E2F7F2F2308B2
:101F1E0087317C278F3123000F0C890C013921006A
:101F2E00A200230011081F3921002204031DA02F37
:101F3E00A12F922F230011151119A62FA72FA32F12
:101F4E00080083313B238F31FB007B082000DA0031
:101F5E0000308C31E3248F317008FB007108FC00D7
:101F6E007C0E0F39FB00FC017B08FD007D08200074
:101F7E00AE002E08FB00FC017B08A4007C08A50027
:101F8E000130A6000030A7000F30A8000030A900D5
:101F9E000030AA00AB000730AC000030AD00873136
:101FAE00D6278F3120002508D5002408D4005508E7
:101FBE00803AFB0080307B02031DE72F620854023B
:101FCE000318EA2FEB2FF02F2000E301E30A161679
:101FDE00F32F2000E30116125A0864020318F82F9B
:101FEE00F92FFD2FE501E50A9616FF2FE501961252
:101FFE00080025343034323464343A3425343034E5
:10200E00323464343A342534303432346434003467
:10201E00013400340A34003464340034E8340334B8
:10202E00103427342534303432346434203443347D
:0C203E0000344C34203425346434003469
:020000040001F9
:0A000E00EC3FFF3F9F3FFF3FFF3F25
:00000001FF
