:020000040000FA
:1000000080314C28080008007E1480312E00161C18
:100010000A280B2813280C1C0E280F2813289731A8
:10002000892780314A280B1F162817284A281A1EAC
:100030001A281B282328101E1E281F282328883131
:10004000DE2080314A281A1D262827282F28101D37
:100050002A282B282F288831C72080314A281A1CAB
:10006000322833283B28101C362837283B28883173
:10007000B02080314A28991C3E283F2844288F1CF4
:100080004228432844284A28191C472848284A2837
:100090000F084A287E10090080314E28BA308400AB
:1000A0009730850067308600003087000730973131
:1000B000AD2780314D308400003085001A309731F3
:1000C000A7278031BD308400003085000A30973189
:1000D000A72780317E10200080316E288931D921F8
:1000E000803100302100A000A10089310C21803135
:1000F00088310020803197317B278031FF3021000B
:10010000A0000E30A1009731952780316430210086
:10011000A0000230A10097319B278031D53021000B
:10012000A0000530A1009731A1278031FE302100C9
:10013000A0000A30A10097318F2780312100AC0147
:10014000AD01AD0AAE010030A0007030A1008831D1
:1001500020208031533A031DAE28AF28EE2821001D
:10016000AD010130AF000030B00021003008AA001E
:100170002F08A900A935AA0DA935AA0DA935AA0DE0
:100180002908003EA00070302A3DA10088312020BF
:1001900080312100AB002B08AC070130AF070030E5
:1001A000B03D3008803AA90080302902031DDA28CA
:1001B0000D302F02031CDD28DE28B5286830210011
:1001C000A0007030A10088312020803121002C0651
:1001D0000319EB28EC28EE28AE01AE0A21002D0809
:1001E000031DF328F428F9282E080319F828F92804
:1001F00091290030A0007030A1005330A9002908D7
:10020000A2008931F821803108302100A00070302F
:10021000A1001930A9002908A2008931F8218031F4
:1002200010302100A0007030A1000330A90029087F
:10023000A2008931F821803118302100A0007030EF
:10024000A1000530A9002908A2008931F8218031D8
:1002500020302100A0007030A1000C30A900290836
:10026000A2008931F821803128302100A0007030AF
:10027000A100A2018931F821803130302100A00095
:100280007030A100A2018931F8218031383021007D
:10029000A0007030A1001C30A9002908A2008931FB
:1002A000F821803140302100A0007030A1000430DE
:1002B000A9002908A2008931F821803148302100A5
:1002C000A0007030A1006130A9002908A200893186
:1002D000F821803150302100A0007030A100A2012F
:1002E0008931F821803158302100A0007030A10000
:1002F000A2018931F821803160302100A0007030E6
:10030000A100A2018931F821803168302100A000CC
:100310007030A100AE30A9002908A2008931F8216F
:10032000803108302100A0007030A10088312020E9
:1003300080312100A9002908C6001030A0007030CB
:10034000A1008831202080312100A9002908C500A2
:100350001830A0007030A1008831202080312100A9
:10036000A90029082000E60020302100A0007030FC
:10037000A1008831202080312100A9002908200017
:10038000CD0028302100A0007030A100883120204D
:1003900080312100A90029082000CE003030210042
:1003A000A0007030A1008831202080312100A900F8
:1003B00029082000CF0038302100A0007030A100B3
:1003C0008831202080312100A90029082000D40094
:1003D00040302100A0007030A10088312020803101
:1003E0002100A90029082000D10048302100A000E8
:1003F0007030A1008831202080312100A900290817
:100400002000E50050302100A0007030A1008831AC
:10041000202080312100A90029082000D700583071
:100420002100A0007030A1008831202080312100FF
:10043000A90029082000D80060302100A0007030F9
:10044000A1008831202080312100A9002908C400A2
:100450002000D501D601D201D301D0019731DA278E
:1004600080312000931513163E00CF154F168D31A5
:10047000022580318B170B1763004B2A63008C31E8
:10048000502480318A31432280318A311C228031CC
:100490008A316A22803120005B08003A0319512A10
:1004A0004B2A5A08003A03193E2A013A03193F2AF7
:1004B000033A0319422A013A0319452A073A031954
:1004C000482A4B2A80314C2820005C085D0403191F
:1004D0006A2A6B2A892A0030A0009030A1004D08BA
:1004E000B500B6013508A2003608A3004E08B700D3
:1004F000B8013708A4003808A5004F08B900BA01B0
:100500003908A6003A08A7003B30843138248231EC
:10051000A62A0030A0009030A1005708B500B6010F
:100520003508A2003608A3005808B700B8013708FC
:10053000A4003808A5005908B900BA013908A60076
:100540003A08A7003B30843138248231803097311B
:10055000B32782313B308831862082314130200000
:100560006506031DB42AB52A862B8F309731B32731
:100570008231200065089731C12782312000500365
:10058000031DC32AC42ACD2A8B309731B327823169
:1005900043309731C1278231D52A8B309731B32729
:1005A000823120309731C127823120005503031D4D
:1005B000DA2ADB2AE42A8C309731B327823154308F
:1005C0009731C1278231EC2A8C309731B3278231A1
:1005D00020309731C127823120005203031DF12AB8
:1005E000F22AFB2A8D309731B32782314C30973174
:1005F000C1278231032B8D309731B32782312030D0
:100600009731C127823120005008031D082B092B88
:10061000132B5508031D0D2B0E2B132B52080319FA
:10062000122B132B8F2B670A031D172B182B242B30
:100630005708B5003508E7005808B5003508E80048
:100640005908B5003508E90021003D082000CA001E
:1006500021003E082000CB0021003F082000CC00F4
:100660005708F0005808F1005908F2006708F30035
:100670006808F4006908F5004A30B5003508F6004E
:100680008A319622823120004C086602031C492BD5
:100690004A2B742B27008E1B4E2B4F2B552B97313B
:1006A0008127823197316F27823120005F08803A9D
:1006B000B50084303502031D5F2B00305E02031845
:1006C000622B632B692BC8302000DE070030DF3D32
:1006D0006C2B2000DE01DF015F08F1005E08F000F6
:1006E00088319A2082318F2B27008E1F782B792B0F
:1006F0008F2B0030F000F10088319A208231973141
:10070000852782319731752782318F2B8F30973132
:10071000B3278231200065089731C1278231C0306C
:100720009731B3278231200061080319982B992B48
:10073000A92B0A30A0009830A1005408B500B601DA
:100740003508A2003608A3004330843138248231B2
:10075000B82B0A30A0009830A1006308B500B6019C
:100760003508A2003608A300433084313824823192
:100770004330883186208231CD309731B3278231A2
:10078000200060080319C52BC62BD62B1130A00002
:100790009830A1005108B500B6013508A20036080E
:1007A000A3004730843138248231E52B1130A0007A
:1007B0009830A1006208B500B6013508A2003608DD
:1007C000A300473084313824823147308831862075
:1007D000823120005A035B04031DEF2BF02B142CF5
:1007E0005C035D04031DF52BF62BFB2B8130973149
:1007F000B3278231372C02305C065D04031D012CC7
:10080000022C072C84309731B3278231372C0330E8
:100810005C065D04031D0D2C0E2C132C87309731C4
:10082000B3278231372C372C02305A065B04031D64
:100830001A2C1B2C202CC1309731B3278231372C36
:1008400003305A065B04031D262C272C2C2CCF309A
:100850009731B3278231372C04305A065B04031DCD
:10086000322C332C372C8F309731B327823108004C
:100870002000B4002230A8002808AC00BC2D253090
:1008800033060319442C452C512C3308A800340896
:1008900086008701280881000130A8002808B407D5
:1008A000BC2DB101B201B0015A2C30150130A007A6
:1008B0000030A13D20088400210885000008303A5E
:1008C0000319552C632C200884002108850000089A
:1008D000883162208431031C6E2C6F2CA22C2000E6
:1008E000B101B2010A30F0000030F10020003208FE
:1008F000F3003108F20089315D2184317108200054
:10090000B2007008B10020088400210885000008AA
:10091000D03EA800FF3003180030A9002808B10716
:100920002908B23D0130A0070030A13D2008840015
:100930002108850000088831622084310318A12C29
:10094000A22C722C20002108A9002008A800A00ACF
:100950000319A10A28088400290885000008B300AB
:10096000003A0319D02D643A0319BA2C0D3A031931
:10097000BA2CBC2D2C0886008701403FAE00413FB9
:10098000AF000230A8002808AC07AF1FC82CC92C44
:10099000D22C0330A8002808B004AE09AF09AE0A73
:1009A0000319AF0AB301B30A3308A800A901A83597
:1009B000A90D0030280784009830293D8500003FAC
:1009C000AA00013FAB002B082F02031DE92C2A08C7
:1009D0002E020318EC2CED2CEE2CF82C0130A80084
:1009E0002808B30705303306031DF72CF82CD42C48
:1009F000310832040319FD2CFE2C082D3008033970
:100A00000319032D042D082DFF30B107FF30B23D2F
:100A10003208803A803C031D0F2D31083302031841
:100A2000122D132D1C2D20003308A800A901280821
:100A3000B1022908B23B1F2D2000B101B201301DC7
:100A4000222D232D502D300803390319282D292D4F
:100A5000342D2D30A8003408860087012808810035
:100A60000130A8002808B407310832040319392DD1
:100A70003A2D7C2D3030A8003408860087012808E4
:100A800081000130A8002808B407FF30B107FF300B
:100A9000B23D31083204031D4E2D4F2D3A2D7C2DD1
:100AA000310832040319552D562D6B2D2030A80026
:100AB000340886008701280881000130A800280832
:100AC000B407FF30B107FF30B23D31083204031DD7
:100AD0006A2D6B2D562D300803390319702D712D99
:100AE0007C2D2D30A800340886008701280881005D
:100AF0000130A8002808B4073308A8002808AD0072
:100B0000B32D0A30F8000030F9002D08A800A90123
:100B1000A835A90D0030280784009830293D8500AC
:100B2000003FF000013FF1002F08F3002E08F20013
:100B30008B31372384317108FB007008FA008A3149
:100B4000CA2284317808303E2000AA002A08B30067
:100B50003308A80034088600870128088100013086
:100B6000A8002808B407FF30A8002808AD072D0A00
:100B7000031DBB2DBC2D812D2108A9002008A80034
:100B8000A00A0319A10A2808840029088500000882
:100B9000AA002A08B3003308031DCF2DD02D3F2C07
:100BA000340886008701810108008631F3268531EB
:100BB000FA007A082000E300003088317420853183
:100BC0007008FA007108FB000D30FB36FA0C890B37
:100BD000E52D7A08FC007C082000E2006308FA009A
:100BE000FB016D087B06031DF72D6C087A06031DBB
:100BF000FA2DFB2D082E6208FA00FB016B087B061C
:100C0000031D042E6A087A060319072E082EB42E37
:100C100021004408FA00FB017A08F0007B08F1008B
:100C20000530F2000030F30089315D218531700814
:100C3000143EF6007030713DF70020005708FC00AC
:100C40007C08F80089313F21853121004408FA00F1
:100C5000FB017A08F0007B08F1000530F20000305B
:100C6000F30089315D21853170081C3EF60070303B
:100C7000713DF70020005808FC007C08F80089311D
:100C80003F21853121004408FA00FB017A08F00079
:100C90007B08F1000530F2000030F30089315D215E
:100CA00085317008243EF6007030713DF700200059
:100CB0005908FC007C08F80089313F21853121006A
:100CC0004408FA00FB017A08F0007B08F1000530C7
:100CD000F2000030F30089315D21853170082C3E2F
:100CE000F6007030713DF70020006308FC007C08BE
:100CF000F80089313F21853121004408FA00FB01C9
:100D00007A08F0007B08F1000530F2000030F300B3
:100D100089315D2185317008343EF6007030713DB7
:100D2000F70020006208FC007C08F80089313F21B0
:100D300085310130FA007A082100C40744084602D0
:100D40000318A32EA42EA52EC40120006308FA00C8
:100D5000FB017A08EC007B08ED006208FA00FB0159
:100D60007A08EA007B08EB0041306506031DB92EC6
:100D7000BA2EF22E510862020318BF2EC02ED42EB6
:100D80006008031DC42EC52ED42E5308031DC92E82
:100D9000CA2ECE2EFF30FA007A08E700D301D30A1C
:100DA000D201D20A1616D62ED301161263085402A7
:100DB0000318DB2EDC2EF02E6108031DE02EE12E41
:100DC000F02E5608031DE52EE62EEA2EFF30FA001F
:100DD0007A08E700D601D60AD501D50A9616F22E72
:100DE000D6019612080023000F0C890C0139F2007D
:100DF00011081F397204031DFE2EFF2EF32E11144D
:100E00001118032F042F002F0F0C890C0139F20049
:100E100011081F397204031D0E2F0F2F042F9A3053
:100E20008B31B223863123000F0C890C0139F2007B
:100E300011081F397204031D1E2F1F2F132F01309D
:100E40008B31B223863123000F0C890C0139F2005B
:100E500011081F397204031D2E2F2F2F232F9114D9
:100E60009118332F342F302F0F0C890C0139F200D9
:100E700011081F397204031D3E2F3F2F342F9B3062
:100E80008B31B223863123000F0C890C0139F2001B
:100E900011081F397204031D4E2F4F2F432F893124
:100EA00025218631F2007208F30023000F0C890C13
:100EB0000139F20011081F397204031D602F612FE0
:100EC000552F91161116111A662F672F632F0F0CCD
:100ED000890C0139F20011081F397204031D712FAA
:100EE000722F672F11151119762F772F732F731FFC
:100EF0007A2F7B2FF32E0F0C890C0139F200110889
:100F00001F397204031D852F862F7B2F1114111892
:100F10008A2F8B2F872F0F0C890C0139F2001108B3
:100F20001F397204031D952F962F8B2F9A308B310A
:100F3000B223863123000F0C890C0139F20011080D
:100F40001F397204031DA52FA62F9A2F00308B3155
:100F5000B223863123000F0C890C0139F2001108ED
:100F60001F397204031DB52FB62FAA2F91149118A3
:100F7000BA2FBB2FB72F0F0C890C0139F2001108C3
:100F80001F397204031DC52FC62FBB2F9B308B3119
:100F9000B223863123000F0C890C0139F2001108AD
:100FA0001F397204031DD52FD62FCA2F8931252151
:100FB0008631F2007208F30023000F0C890C01390E
:100FC000F20011081F397204031DE72FE82FDC2FF0
:100FD00091161116111AED2FEE2FEA2F0F0C890C16
:100FE0000139F20011081F397204031DF82FF92F7F
:100FF000EE2F11151119FD2FFE2FFA2F730808007F
:1010000097317E27883108002E000C100B106D30B0
:101010002100A0001730A10097318F2788312E00C2
:10102000161408000130250090008F019101FF3057
:101030008D008C012E009010803025008E0008005D
:101040002100210830009B002100200830009A0078
:101050001E171E140000000030001C0808002400A9
:101060000E1D332834283B280E1071088D0070089F
:101070008C000E143F2871088D0070088C00080049
:101080002400141D442845284C281410710893008E
:101090007008920014145028710893007008920090
:1010A000080024001A1D552856285D281A107108BA
:1010B0009900700898001A14612871089900700846
:1010C00098000800F100F0013A3071020318692815
:1010D0006A28722830307102031C6F287028722829
:1010E000F001F00A700C0800F300730821009E0064
:1010F000931713131314000021001318802881285C
:101100007C280D08F1000C08F0000800FB008C287A
:101110007A089731C12788317B0886008701FB0A4E
:101120000108F9007908FA007A08031D982899281F
:10113000882808007108F3007008F200F336F20CFA
:10114000F336F20C720827008D0070080339F200A4
:101150000530F235FF3E031DA92872358C000800CA
:101160002E00101021003C08F1003B08F0008831EF
:101170002F208831210039083A040319C028C128DA
:10118000C6283A088A0039080A00883108002E006B
:10119000101120006F08F1006E08F0008831402027
:1011A00088312100370838040319D728D828DD28CA
:1011B00038088A0037080A00883108002E0010120B
:1011C00021003608F1003508F000883151208831BF
:1011D0002100330834040319EE28EF28F4283408DA
:1011E0008A0033080A008831080022008E018F012E
:1011F00090019101920193018D0121009E019B01BB
:1012000094019501960197019A0199019801803006
:101210009300FF309D00080021002108A300200852
:10122000A200A336A20CA336A20C220827008D0030
:10123000210020080339A2000530A235FF3E031D1E
:101240001D29223527008C0008000F3023001005CF
:10125000F0000830700603192E292F2938290F3085
:101260001005F0000B307006031D37293829392985
:1012700091150F1C3C293D2939290C080800003024
:101280008B1B0130F900770830009B0076089A002C
:1012900078089C001E171E158B1355309F00AA302E
:1012A0009F009E149E185529562952291E11790C0B
:1012B000031C8B1303188B170800F401F501701C35
:1012C0006229632967297208F4077308F53D013024
:1012D000F235F30D890B68290130F136F00C890BDA
:1012E0006D2970087104031D762977295F29750817
:1012F000F1007408F000080024008F019001043010
:10130000910086308D00E8308C000D082100BC0073
:1013100024000C082100BB002E0010101A146E309F
:101320002100A0001730A1009731952789310530A1
:1013300024008E00080024009501960104309700D7
:10134000E7309300C830920013082000EF0024001B
:1013500012082000EE002E0010111A150230210094
:10136000A0000030A10097319B278931053024006F
:101370009400080024009B019C0104309D004A3029
:1013800099005C30980019082100B6002400180864
:101390002100B5002E0010121A1603302100A00003
:1013A0000030A1009731A1278931153024009A001F
:1013B00008009731C92789318B31732389319731DF
:1013C000D12789319731F32789318831F520893147
:1013D00089319B2189318931BA21893188311220A3
:1013E000893188310420893189317C218931080093
:1013F00000308B1B01302100A300210830009B002E
:101400002100200830009A002100220830009C00B2
:101410001E171E158B1355309F00AA309F009E1477
:101420009E18132A142A102A1E112100230C031CB3
:101430008B1303188B1708002000E001E00A8E1AB6
:10144000222A232A392A01302100A0002008200066
:10145000D10708305102031C2E2A2F2A302AD1012D
:1014600021302100A0007630890B342AA00B342AC9
:101470000000033020005A065B040319402A412A69
:101480001F2AE00108002000E101E10A8E1A492A22
:101490004A2A602A01302100A00020082000D40739
:1014A00033305402031C552A562A572AD4012130BE
:1014B0002100A0007630890B5B2AA00B5B2A00007C
:1014C000023020005A065B040319672A682A462A5C
:1014D000E101080020008E1A6E2A6F2A8B2A413003
:1014E0006506031D742A752A7C2A61302100A0003C
:1014F00020082000E500822A41302100A0002008B9
:101500002000E50021302100A0007630890B862ADA
:10151000A00B862A0000043020005A065B04031941
:10152000922A932A6A2ADA01DB0108009D2A0130F7
:10153000F1023C30F7007708F20775087202031CCD
:10154000A22AA32A972A75087202F7007608023E9B
:101550008600870177088100B32A0130F0023C3011
:10156000F7007708F10774087102031CB82AB92A3A
:10157000AD2A74087102F700760A860087017708A1
:10158000810073087002F7007608860087017708EB
:1015900081000800780879040319CF2AD02AF92A93
:1015A000FD01FD0ADC2A0130F835F90D890BD42A3A
:1015B0000130FC007C08FD07F91FDF2AE02AD32A4E
:1015C00079087B02031DE62A78087A02031CE92ABF
:1015D000EA2AEE2A7808FA027908FB3B0130F9364C
:1015E000F80C890BEF2A0130FD02031DF82AF92AB5
:1015F000E02A7B08F9007A08F800080020005A0861
:101600005B04031D042B052B182B5008031D092B0D
:101610000A2B142B5508031D0E2B0F2B142B5208CD
:101620000319132B142B182BD001D501D201362B03
:101630005A035B04031D1D2B1E2B322B0130DC07CC
:101640000030DD3D5D08803AF00080307002031DFF
:101650002B2B04305C02031C2E2B2F2B362B20004F
:10166000DC01DD010130DA070030DB3D0800F50167
:10167000F6017008710403193E2B3F2B6E2BF70106
:10168000F70A4B2B0130F035F10D890B432B01305C
:10169000F4007408F707F11F4E2B4F2B422B01303B
:1016A000F535F60D890B502B71087302031D5A2B6B
:1016B00070087202031C5D2B5E2B632B7008F20214
:1016C0007108F33B75140130F136F00C890B642B73
:1016D0000130F702031D6D2B6E2B4F2B7608F100A6
:1016E0007508F000080020009A0199019601970101
:1016F0009801073095000F309100FF309200FF30C5
:101700009300FF309400FF303E00D900C730CE0078
:10171000EF30C3000730E4004F30B800DA01E501D4
:10172000C401B901CF01E601BA01C501D001DB0155
:10173000FF30BB00FF30C600FF30D100FF30DC00BF
:101740000730E7000C303D0090001330C500143026
:101750003E00A3001530A4000E30960014303D006A
:10176000C6000800F100710823008C00901FB92BFF
:10177000BA2BBB2BFC2B0F301005F0000830700685
:101780000319C32BC42BDA2B0F301005F0000B30DC
:1017900070060319CC2BCD2BDA2B10162E000F1C44
:1017A000D22BD32BCE2B23000F19D72BD82BFC2BCE
:1017B0000F08FC2B0F301005F000083070060319DD
:1017C000E22BE32BEC2B0F301005F0000B307006F2
:1017D000031DEB2BEC2BFC2B0F18EF2BF02BEC2B22
:1017E0000F0C890C0139F00011081F397004031D1A
:1017F000FA2BFB2BF02B110808002100A30023007B
:101800000F0C890C01392100A200230011081F3997
:1018100021002204031D0D2C0E2CFF2B230011147C
:101820001118132C142C102C23000F0C890C0139C7
:101830002100A200230011081F3921002204031DEA
:10184000222C232C142C4E308C31A8248B312300D5
:101850000F0C890C01392100A200230011081F3947
:1018600021002204031D352C362C272C23088C3113
:10187000A8248B3123000F0C890C01392100A20010
:10188000230011081F3921002204031D482C492C74
:101890003A2C2300111511194E2C4F2C4B2C0800FB
:1018A00020008E1A542C552C9E2C5C035D04031DC5
:1018B0005A2C5B2C6A2C17304D02031C602C612CB7
:1018C000632CCD01952C01302100A00020082000C0
:1018D000CD07952C02305C065D04031D702C712C25
:1018E000802C3B304E06031D762C772C792CCE01B4
:1018F000952C01302100A00020082000CE07952C57
:1019000003305C065D04031D862C872C952C3B3030
:101910004F06031D8C2C8D2C8F2CCF01952C013064
:101920002100A00020082000CF0721302100A000C6
:101930007630890B992CA00B992C000020005A03BB
:101940005B040319A42CA52C502CDC01DD0108003C
:101950002100A100210823008C00901FB02CB12C85
:10196000B22C012D0F3010052100A00008302006F8
:101970000319BB2CBC2CD52C0F30230010052100E3
:10198000A0000B3020060319C62CC72CD52C230031
:1019900010162E000F1CCD2CCE2CC92C23000F1995
:1019A000D22CD32C012D0F08012D0F302300100550
:1019B0002100A000083020060319DF2CE02CEB2CBE
:1019C0000F30230010052100A0000B302006031D5E
:1019D000EA2CEB2C012D23000F18EF2CF02CEB2C14
:1019E00023000F0C890C01392100A00023001108ED
:1019F0001F3921002004031DFE2CFF2CF02C230096
:101A00001108080011302100A8003A30890B062D7A
:101A1000A80B062D000030308B31FD238D31343082
:101A20008B31FD238D312930890B142D003230305C
:101A30008B31FD238D31FA300032890B1C2D303073
:101A40008B31FD238D3134308B31FD238D312930A5
:101A5000890B282D003230308B31FD238D31083039
:101A6000890B302D000030308B31FD238D31343027
:101A70008B31FD238D312930890B3C2D00323030E4
:101A80008B31FD238D310830890B442D000020302F
:101A90008B31FD238D3124308B31FD238D31293065
:101AA000890B502D003220308B31FD238D31FA30DF
:101AB0000032890B582D2100A20128308E312B26AF
:101AC0008D312100A20106308E312B268D3121006F
:101AD000A2010F308E312B268D312100A201013061
:101AE0008E312B268D31A630890B742D00320800E3
:101AF000F5007508F039F3007308F6007508F30077
:101B00000330F335FF3E031D812D7335F039F400AA
:101B10007408F70023000F0C890C0139F300110839
:101B20001F397304031D952D962D8A2D111411183C
:101B30009A2D9B2D972D0F0C890C0139F30011085C
:101B40001F397304031DA52DA62D9B2D4E308B31FF
:101B5000B2238D3123000F0C890C0139F3001108D9
:101B60001F397304031DB52DB62DAA2D76087204F6
:101B700008388B31B2238D3123000F0C890C0139C9
:101B8000F30011081F397304031DC72DC82DBC2D88
:101B9000760872040C388B31B2238D3123000F0C80
:101BA000890C0139F30011081F397304031DD92D65
:101BB000DA2DCE2D7608720408388B31B2238D31A0
:101BC00023000F0C890C0139F30011081F3973042D
:101BD000031DEB2DEC2DE02D7708720408388B31B6
:101BE000B2238D3123000F0C890C0139F300110849
:101BF0001F397304031DFD2DFE2DF22D770872048D
:101C00000C388B31B2238D3123000F0C890C013934
:101C1000F30011081F397304031D0F2E102E042E1C
:101C20007708720408388B31B2238D3123000F0CF2
:101C3000890C0139F30011081F397304031D212E8B
:101C4000222E162E11151119262E272E232E043082
:101C5000890B282E08002100A5002508F039A300D3
:101C60002308A6002508A3000330A335FF3E031D6B
:101C7000352E2335F039A4002408A70023000F0CCB
:101C8000890C01392100A300230011081F3921000C
:101C90002304031D4C2E4D2E3E2E2300111411182B
:101CA000522E532E4F2E23000F0C890C0139210088
:101CB000A300230011081F3921002304031D612EF6
:101CC000622E532E4E308C31A8248E3123000F0CFF
:101CD000890C01392100A300230011081F392100BC
:101CE0002304031D742E752E662E26082204083840
:101CF0008C31A8248E3123000F0C890C013921006E
:101D0000A300230011081F3921002304031D892E7D
:101D10008A2E7B2E260822040C388C31A8248E3182
:101D200023000F0C890C01392100A30023001108A6
:101D30001F3921002304031D9E2E9F2E902E21006B
:101D40002608220408388C31A8248E3123000F0C79
:101D5000890C01392100A300230011081F3921003B
:101D60002304031DB42EB52EA62E270822040838FE
:101D70008C31A8248E3123000F0C890C01392100ED
:101D8000A300230011081F3921002304031DC92EBD
:101D9000CA2EBB2E270822040C388C31A8248E3181
:101DA00023000F0C890C01392100A3002300110826
:101DB0001F3921002304031DDE2EDF2ED02E21002B
:101DC0002708220408388C31A8248E3123000F0CF8
:101DD000890C01392100A300230011081F392100BB
:101DE0002304031DF42EF52EE62E230011151119E0
:101DF000FA2EFB2EF72E0430890BFC2E0800013042
:101E0000FA007A082000D9073C305906031D092F33
:101E10000A2FB92F0130FA007A08D807D901083003
:101E2000F6007030F70021004608FA007A08F80042
:101E300089313F218E311030F6007030F7002100DB
:101E40004508FA007A08F80089313F218E311830B0
:101E5000F6007030F70020006608FA007A08F800F3
:101E600089313F218E312030F6007030F70020009C
:101E70004D08FA007A08F80089313F218E31283068
:101E8000F6007030F70020004E08FA007A08F800DB
:101E900089313F218E313030F6007030F70020005C
:101EA0004F08FA007A08F80089313F218E31383026
:101EB000F6007030F70020005408FA007A08F800A5
:101EC00089313F218E314030F6007030F70020001C
:101ED0005108FA007A08F80089313F218E314830E4
:101EE000F6007030F70020006508FA007A08F80064
:101EF00089313F218E315030F6007030F7002000DC
:101F00005708FA007A08F80089313F218E3158309D
:101F1000F6007030F70020005808FA007A08F80040
:101F200089313F218E316030F6007030F70021009A
:101F30004408FA007A08F80089313F218E31683070
:101F4000F6007030F70020004E084F0758074D0785
:101F50005407510757072100460745072000660729
:101F6000650721004407FA007A08F80089313F210B
:101F70008E313C3020005806031DBF2FC02FC52FC7
:101F80000130FA007A08D707D80118305706031D28
:101F9000CA2FCB2FCC2FD70141306506031DD12F7F
:101FA000D22FF42F4F085902031CD72FD82FF42F0C
:101FB0004E085802031CDD2FDE2FF42F4D08570268
:101FC000031CE32FE42FF42F5C085D04031DE92FAD
:101FD000EA2FF42FFF30FA007A08E700D001D00A88
:101FE0001930FA007A08CD000310961F0314031865
:101FF000FA2FFD2F20009617FF2F200096130800C0
:1020000025343034323464343A3425343034323484
:0E20100064343A3425343034323464340034CD
:102EDA000800080027008E17080025008E17080032
:102EEA0027008E13080025008E13080027008E1372
:102EFA00080025008E1308009731722797310800C1
:102F0A0097317827973108002E000C109731E62761
:102F1A009731080021002108B2002008B1000800FA
:102F2A0021002108BA002008B90008002100210860
:102F3A00B8002008B700080021002108B4002008C2
:102F4A00B3000800640080010131890BA82F003406
:102F5A00FE0012001E00FE0BAE2F0034F800F20134
:102F6A0078088D31782597310800FF34FF34FF3413
:102F7A00FF34FF34FF34FF34F800F201F20A780814
:102F8A008D317825973108002F0096019701980115
:102F9A0099019A019B010800623031008D008F016E
:102FAA00910102309300920108002300901ADE2F4B
:102FBA00DF2FE52F8F0128309000910103308D001B
:102FCA0008002100310832040319EC2FED2FF22FEB
:102FDA0032088A0031080A00973108008030270039
:102FEA008E00FF308D00C0308C0024001F08F3399A
:102FFA0004389F000800013400340A340034643471
:10300A000034E8340334103427342534303432346D
:10301A0064342034433400344C342034253464344A
:02302A00003470
:020000040001F9
:0A000E00EC3FFF3F9F3FFF3FFF3F25
:00000001FF
