:020000040000FA
:1000000080314028080008007E1480310B1F092829
:100010000A283E282E001A1E0E280F281728101E08
:100020001228132817288C31182480313E281A1DD5
:100030001A281B282328101D1E281F2823288C312E
:10004000012480313E281A1C262827282F28101C1E
:100050002A282B282F288B31EA2380313E28991C0F
:100060003228332838288F1C3628372838283E284D
:10007000191C3B283C283E280F083E287E1009000A
:1000800080314228503084008B30850061308600FA
:10009000003087000C308B31182380311E308400F3
:1000A0008B308500BA3086000030870006308B31F7
:1000B000182380314C3084000030850015308B319E
:1000C000122380312100B401B501B601B701B80196
:1000D000B9017E1020008631F92E20005408550405
:1000E00003197328742889280030A0009030A100DB
:1000F0006208A3006108A2006408A5006308A400C8
:100100006608A7006508A6003730823135228031A5
:100110009D280030A0009030A1004D08A3004C089D
:10012000A2004F08A5004E08A4005108A7005008DF
:10013000A600373082313522803180308B31242344
:10014000803137308B31C023803120006C08031997
:10015000AA28AB28B1298F308B312423803141303C
:100160008B312B23803120006703031DB828B92869
:10017000C2288B308B312423803143308B312B23A9
:100180008031CA288B308B312423803120308B3151
:100190002B23803120006B03031DCF28D028D928C2
:1001A0008C308B312423803154308B312B238031A0
:1001B000E1288C308B312423803120308B312B236C
:1001C000803120006903031DE628E728F0288D30E0
:1001D0008B31242380314C308B312B238031F82814
:1001E0008D308B312423803120308B312B23803193
:1001F00020006708031DFD28FE2808296B08031D41
:100200000229032908296908031907290829B92996
:1002100021003A0A031D10293B0A031D1029112948
:10022000292920004D082100BB0020004C08210096
:10023000BA0020004F082100BD0020004E08210018
:10024000BC00200051082100BF0020005008210000
:10025000BE00B43086000030870046308400003095
:10026000850006302000B50016001A00B50B3429B1
:100270004C308600003087007030840000308500EC
:10028000403F803F413F813F423F823F433F833F6A
:10029000443F843F453F853FBA30860000308700A9
:1002A0007630840000308500403F803F413F813FF1
:1002B000423F823F433F833F443F843F453F853F2A
:1002C0004630B5003508FC008F311C2780312000F6
:1002D0004B08803AB50080303502031D7129063085
:1002E0004A020318742975299F2927008E1B792932
:1002F0007A2980298A31F42280318A31E2228031C0
:1003000020005708803AB50084303502031D8A2941
:100310000030560203188D298E299429C8302000F8
:10032000D6070030D73D97292000D601D7015708BE
:10033000F1005608F0008B31D4238031B929270011
:100340008E1FA329A429B9290030F000F1008B31B8
:10035000D42380318A31F82280318A31E8228031F9
:10036000B9298F308B312423803161308B312B239D
:100370008031C0308B312423803120005E08031986
:10038000C229C329D3291930A0009030A1006A08DE
:10039000B500B6013508A2003608A3003F3082310F
:1003A00035228031E2291930A0009030A100600888
:1003B000B500B6013508A2003608A3003F308231EF
:1003C000352280313F308B31C0238031CD308B31AD
:1003D0002423803120302000A0009030A1005F084D
:1003E000B500B6013508A2003608A30043308231BB
:1003F0003522803143308B31C023803120005203BD
:100400005304031D042A052A292A54035504031DF5
:100410000A2A0B2A102A81308B3124238031342A76
:10042000023054065504031D162A172A1C2A84304C
:100430008B3124238031342A033054065504031DA4
:10044000222A232A282A87308B3124238031342AF8
:10045000342A023052065304031D2F2A302A342A2C
:10046000C1308B312423803108002000B4002230B9
:10047000A8002808AC00B92B253033060319412AFF
:10048000422A4E2A3308A80034088600870128082B
:1004900081000130A8002808B407B92BB101B201CE
:1004A000B001572A30150130A0070030A13D2008C7
:1004B0008400210885000008303A0319522A602A76
:1004C000200884002108850000088B319C2382319C
:1004D000031C6B2A6C2A9F2A2000B101B2010A304A
:1004E000F0000030F10020003208F3003108F20083
:1004F0008C317C24823171082000B2007008B10078
:1005000020088400210885000008D03EA800FF30A4
:1005100003180030A9002808B1072908B23D0130AE
:10052000A0070030A13D20088400210885000008B4
:100530008B319C23823103189E2A9F2A6F2A200028
:100540002108A9002008A800A00A0319A10A280868
:100550008400290885000008B300003A0319CD2B58
:10056000643A0319B72A0D3A0319B72AB92B2C0894
:1005700086008701403FAE00413FAF000230A80037
:100580002808AC07AF1FC52AC62ACF2A0330A80007
:100590002808B004AE09AF09AE0A0319AF0AB301C7
:1005A000B30A3308A800A901A835A90D0F30280700
:1005B00084009030293D8500003FAA00013FAB0038
:1005C0002B082F02031DE62A2A082E020318E92A07
:1005D000EA2AEB2AF52A0130A8002808B3070530DB
:1005E0003306031DF42AF52AD12A310832040319EF
:1005F000FA2AFB2A052B300803390319002B012B9B
:10060000052BFF30B107FF30B23D3208803A803C05
:10061000031D0C2B3108330203180F2B102B192B41
:1006200020003308A800A9012808B1022908B23B1C
:100630001C2B2000B101B201301D1F2B202B4D2B94
:10064000300803390319252B262B312B2D30A80018
:10065000340886008701280881000130A800280896
:10066000B407310832040319362B372B792B30307D
:10067000A800340886008701280881000130A800FE
:100680002808B407FF30B107FF30B23D310832040B
:10069000031D4B2B4C2B372B792B310832040319BC
:1006A000522B532B682B2030A8003408860087017A
:1006B000280881000130A8002808B407FF30B107DE
:1006C000FF30B23D31083204031D672B682B532BDA
:1006D0003008033903196D2B6E2B792B2D30A800B0
:1006E000340886008701280881000130A800280806
:1006F000B4073308A8002808AD00B02B0A30F80072
:100700000030F9002D08A800A901A835A90D0F3067
:10071000280784009030293D8500003FF000013F0C
:10072000F1002F08F3002E08F2008D31652582318B
:100730007108FB007008FA008C31F82482317808C7
:10074000303E2000AA002A08B3003308A80034086D
:1007500086008701280881000130A8002808B40716
:10076000FF30A8002808AD072D0A031DB82BB92BB0
:100770007E2B2108A9002008A800A00A0319A10ABD
:1007800028088400290885000008AA002A08B30068
:100790003308031DCC2BCD2B3C2A3408860087015F
:1007A0008101080023000F0C890C0139F2001108A7
:1007B0001F397204031DDD2BDE2BD22B11141118EF
:1007C000E22BE32BDF2B0F0C890C0139F20011080F
:1007D0001F397204031DED2BEE2BE32B9A308E3163
:1007E0002426833123000F0C890C0139F2001108F3
:1007F0001F397204031DFD2BFE2BF22B01308E31AD
:100800002426833123000F0C890C0139F2001108D2
:100810001F397204031D0D2C0E2C022C91149118FB
:10082000122C132C0F2C0F0C890C0139F20011081B
:100830001F397204031D1D2C1E2C132C9B308E316E
:100840002426833123000F0C890C0139F200110892
:100850001F397204031D2D2C2E2C222C8C31462482
:100860008331F2007208F30023000F0C890C013968
:10087000F20011081F397204031D3F2C402C342C48
:1008800091161116111A452C462C422C0F0C890C6E
:100890000139F20011081F397204031D502C512C2C
:1008A000462C11151119552C562C522C731F592CEE
:1008B0005A2CD22B0F0C890C0139F20011081F3968
:1008C0007204031D642C652C5A2C11141118692C08
:1008D0006A2C662C0F0C890C0139F20011081F39A3
:1008E0007204031D742C752C6A2C9A308E312426C8
:1008F000833123000F0C890C0139F20011081F39D4
:100900007204031D842C852C792C00308E31242612
:10091000833123000F0C890C0139F20011081F39B3
:100920007204031D942C952C892C91149118992CE8
:100930009A2C962C0F0C890C0139F20011081F39E2
:100940007204031DA42CA52C9A2C9B308E312426D6
:10095000833123000F0C890C0139F20011081F3973
:100960007204031DB42CB52CA92C8C314624833180
:10097000F2007208F30023000F0C890C0139F20019
:1009800011081F397204031DC62CC72CBB2C9116ED
:100990001116111ACC2CCD2CC92C0F0C890C013935
:1009A000F20011081F397204031DD72CD82CCD2C4E
:1009B00011151119DC2CDD2CD92C7308080021002D
:1009C000AF002F08F039AD002D08B0002F08AD00A2
:1009D0000330AD35FF3E031DE92C2D35F039AE0057
:1009E0002E08B10023000F0C890C01392100AD0045
:1009F000230011081F3921002D04031D002D012D96
:100A0000F22C230011141118062D072D032D23009D
:100A10000F0C890C01392100AD00230011081F398A
:100A200021002D04031D152D162D072D4E308E315E
:100A3000C226843123000F0C890C01392100AD003E
:100A4000230011081F3921002D04031D282D292DF5
:100A50001A2D30082C0408388E31C2268431230028
:100A60000F0C890C01392100AD00230011081F393A
:100A700021002D04031D3D2D3E2D2F2D30082C046B
:100A80000C388E31C226843123000F0C890C0139B9
:100A90002100AD00230011081F3921002D04031D82
:100AA000522D532D442D210030082C0408388E314E
:100AB000C226843123000F0C890C01392100AD00BE
:100AC000230011081F3921002D04031D682D692DF5
:100AD0005A2D31082C0408388E31C2268431230067
:100AE0000F0C890C01392100AD00230011081F39BA
:100AF00021002D04031D7D2D7E2D6F2D31082C042A
:100B00000C388E31C226843123000F0C890C013938
:100B10002100AD00230011081F3921002D04031D01
:100B2000922D932D842D210031082C0408388E310C
:100B3000C226843123000F0C890C01392100AD003D
:100B4000230011081F3921002D04031DA82DA92DF4
:100B50009A2D230011151119AE2DAF2DAB2D043098
:100B6000890BB02D0800F5007508F039F300730803
:100B7000F6007508F3000330F335FF3E031DBC2D6E
:100B80007335F039F4007408F70023000F0C890C5A
:100B90000139F30011081F397304031DD02DD12D25
:100BA000C52D11141118D52DD62DD22D0F0C890C51
:100BB0000139F30011081F397304031DE02DE12DE5
:100BC000D62D4E308E312426853123000F0C890C12
:100BD0000139F30011081F397304031DF02DF12DA5
:100BE000E52D7608720408388E31242685312300DD
:100BF0000F0C890C0139F30011081F397304031D10
:100C0000022E032EF72D760872040C388E3124261E
:100C1000853123000F0C890C0139F30011081F39AD
:100C20007304031D142E152E092E7608720408383D
:100C30008E312426853123000F0C890C0139F300F5
:100C400011081F397304031D262E272E1B2E77082B
:100C5000720408388E312426853123000F0C890C4C
:100C60000139F30011081F397304031D382E392E82
:100C70002D2E770872040C388E31242685312300FE
:100C80000F0C890C0139F30011081F397304031D7F
:100C90004A2E4B2E3F2E7708720408388E312426B8
:100CA000853123000F0C890C0139F30011081F391D
:100CB0007304031D5C2E5D2E512E11151119612E2A
:100CC000622E5E2E0430890B632E08000130200056
:100CD000D4000030D500E101E201E301E401E501C7
:100CE000E60120000D1A752E762E9F2E1130210060
:100CF000AA003A30890B7A2EAA0B7A2E0000013016
:100D00002000D4070030D53D0D1E872E882E842E5E
:100D10005508803A2100AA0080302A02031D932E34
:100D2000043020005402031C962E972E9F2E200084
:100D3000D401D5010130D2070030D33DF82E200078
:100D40008E1AA32EA42E712E54035504031DA92E12
:100D5000AA2EC32E6208803A2100AA0080302A02FF
:100D6000031DB52E173020006102031CB82EB92ECA
:100D7000BD2E2000E101E201EE2E01302000E1074E
:100D80000030E23DEE2E023054065504031DC92EFC
:100D9000CA2ED92E3B3063066404031DD02ED12EFB
:100DA000D42EE301E401EE2E0130E3070030E43DF0
:100DB000EE2E033054065504031DDF2EE02EEE2EDA
:100DC0003B3065066604031DE62EE72EEA2EE5019C
:100DD000E601EE2E0130E5070030E63D113021003E
:100DE000AA003A30890BF22EAA0BF22E0000712EC7
:100DF00008008C31602486318A31FC2286318A31A8
:100E0000EE22863178302100AA000730AB008B310A
:100E1000002386316D302100AA000030AB008B31F9
:100E200006238631DE302100AA000D30AB008B3165
:100E30000C2386318B314423863120009315131601
:100E40003E00CF154F168F318A2786318B170B172F
:100E500020000D1A2C2F2D2F602F11302100B300F0
:100E60003A30890B312FB30B312F0000200052088C
:100E70005304031D3C2F3D2F502F6708031D412FA6
:100E8000422F4C2F6B08031D462F472F4C2F69080C
:100E900003194B2F4C2F502FE701EB01E901542F81
:100EA0000130D2000030D3000D1E572F582F542F81
:100EB000602F8631662686318D312C258631282F8C
:100EC0005308003A0319652F282F5208003A0319D6
:100ED000282F013A0319592F033A03195C2F013ABD
:100EE0000319282F073A0319282F282F803140286B
:100EF00001302000D0070030D13D3C305006510475
:100F0000031D832F842F8A2F0130CE070030CF3D61
:100F1000D001D1013C304E064F04031D902F912F7C
:100F2000972F0130CC070030CD3DCE01CF011830D6
:100F30004C064D04031D9D2F9E2FA02FCC01CD01EB
:100F40006C03031DA42FA52FE42F5108803AF00055
:100F50006608803A7002031DAF2F65085002031C1B
:100F6000B22FB32FE42F20004F08803AF00064081E
:100F7000803A7002031DBE2F63084E02031CC12F6E
:100F8000C22FE42F20004D08803AF0006208803A1A
:100F90007002031DCD2F61084C02031CD02FD12FEE
:100FA000E42F200054085504031DD72FD82FE42F19
:100FB000FF302100BA00FF30BB002000E701E70A44
:100FC0001930E1000030E20003102000961F0314E6
:100FD0000318EB2FEE2F20009617F02F200096130A
:100FE00008000130250090008F019101FF308D0035
:100FF0008C012E009010803025008E000800080023
:1015C40027008E17080025008E17080027008E13A9
:1015D400080025008E13080027008E13080025003C
:1015E4008E1308008A31E5228A3108008A31EB2201
:1015F4008A3108008A31F1228A31080021002B083F
:10160400A7002A08A600080021002B08A5002A0824
:10161400A400080021002B08A1002A08A00008004B
:10162400640080010131890B132B0034FE00120089
:101634001E00FE0B192B0034FF34FF34FF34FF343B
:10164400FF34FF34F800F20178088531B3258B317B
:101654000800F800F201F20A78088531B3258B31CD
:1016640008002F0096019701980199019A019B01A6
:101674000800623031008D008F0191010230930027
:10168400920108002300901A482B492B4F2B8F01FD
:1016940028309000910103308D000800013400349B
:1016A40000340034003400340034043400341C3476
:1016B40000340134803027008E00FF308D00C030AC
:1016C4008C0024001F08F33904389F00080024000C
:1016D4000E1D6D2B6E2B752B0E1071088D0070086E
:1016E4008C000E14792B71088D0070088C00080092
:1016F4002400141D7E2B7F2B862B1410710893005D
:101704007008920014148A2B7108930070089200D8
:10171400080024001A1D8F2B902B972B1A10710888
:101724009900700898001A149B2B7108990070088E
:1017340098000800F100F0013A3071020318A32B5D
:10174400A42BAC2B30307102031CA92BAA2BAC2B7D
:10175400F001F00A700C0800F300730821009E00E9
:10176400931713131314000021001318BA2BBB2B67
:10177400B62B0D08F1000C08F0000800FB00C62B86
:101784007A088B312B238B317B0886008701FB0A77
:101794000108F9007908FA007A08031DD22BD32B2B
:1017A400C22B08007108F3007008F200F336F20C43
:1017B400F336F20C720827008D0070080339F2002A
:1017C4000530F235FF3E031DE32B72358C00080013
:1017D4002E00101021002908F1002808F0008B3198
:1017E40069238B312100260827040319FA2BFB2BCC
:1017F400002C27088A0026080A008B3108002E00D6
:10180400101120006E08F1006D08F0008B317A236E
:101814008C312100240825040319112C122C172CB7
:1018240025088A0024080A008C3108002E001012B2
:1018340021002308F1002208F0008B318B238C3126
:101844002100200821040319282C292C2E2C2108DE
:101854008A0020080A008C31080022008E018F01C2
:1018640090019101920193018D0121009E019B0140
:1018740094019501960197019A019901980180308C
:101884009300FF309D0008000F3023001005F00086
:101894000830700603194F2C502C592C0F301005AA
:1018A400F0000B307006031D582C592C5A2C91153E
:1018B4000F1C5D2C5E2C5A2C0C0808008B31332332
:1018C4008C318D31A1258C318B313B238C318B3183
:1018D4005C238C318C312F248C318C31BA248C31A3
:1018E4008731F1278C318C31D9248C318C319B2474
:1018F4008C310800F401F501701C812C822C862C9B
:101904007208F4077308F53D0130F235F30D890BC5
:10191400872C0130F136F00C890B8C2C7008710483
:10192400031D952C962C7E2C7508F1007408F0008C
:10193400080024008F0190010430910086308D004E
:10194400E8308C000D082100A90024000C082100B7
:10195400A8002E0010101A1402302100AA00003032
:10196400AB008B3100238C31013024008E00080041
:1019740024009501960104309700E7309300C830A5
:10198400920013082000EE00240012082000ED004D
:101994002E0010111A1503302100AA000030AB00EC
:1019A4008B3106238C31013024009400080024007C
:1019B4009B019C0104309D004A3099005C309800E2
:1019C40019082100A300240018082100A2002E00F9
:1019D40010121A16FF302100AA000730AB008B3119
:1019E4000C238C31113024009A0008007808790403
:1019F4000319FD2CFE2C272DFD01FD0A0A2D0130B3
:101A0400F835F90D890B022D0130FC007C08FD0727
:101A1400F91F0D2D0E2D012D79087B02031D142DA8
:101A240078087A02031C172D182D1C2D7808FA0249
:101A34007908FB3B0130F936F80C890B1D2D013078
:101A4400FD02031D262D272D0E2D7B08F9007A0893
:101A5400F80008002000DE01DE0AEA0120000D1A69
:101A6400342D352D492D11302100AA003A30890B2F
:101A7400392DAA0B392D00002000DE010130D207D8
:101A84000030D33D0D1E472D482D442D642D8E1A54
:101A94004C2D4D2D302D01302100AA002A082000A4
:101AA400EA0733306A02031C582D592D5A2DEA01D6
:101AB40011302100AA003A30890B5E2DAA0B5E2D4D
:101AC4000000302D0800F501F601700871040319B7
:101AD4006C2D6D2D9C2DF701F70A792D0130F03511
:101AE400F10D890B712D0130F4007408F707F11F13
:101AF4007C2D7D2D702D0130F535F60D890B7E2D55
:101B040071087302031D882D70087202031C8B2D4B
:101B14008C2D912D7008F2027108F33B751401307D
:101B2400F136F00C890B922D0130F702031D9B2D29
:101B34009C2D7D2D7608F1007508F000080020002A
:101B44009A019901960197019801073095000F3089
:101B54009100FF309200FF309300FF309400FF307B
:101B64003E00D900C730CE00EF30C3000730E40098
:101B74004F30B800DA01E501C401B901CF01E60133
:101B8400BA01C501D001DB01FF30BB00FF30C60044
:101B9400FF30D100FF30DC000730E70013303D0098
:101BA400C50014303E00A3001530A4000E3096008A
:101BB40014303D00C60008008331D2238D31F40077
:101BC40074082000E00000308B31AE238D317008A2
:101BD400F4007108F5000D30F536F40C890BEE2D88
:101BE4007408F60076082000DF0068085F02031816
:101BF400FC2DFD2D0C2E5D08031D012E022E0C2E36
:101C0400FF302100BA00FF30BB002000E901E90ADF
:101C140016160D2E161260086A020318122E132EC1
:101C2400222E5E08031D172E182E222EFF302100AF
:101C3400BA00FF30BB002000EB01EB0A9616232EFE
:101C440096120800F100710823008C00901F2B2EBF
:101C54002C2E2D2E6E2E0F301005F000083070063D
:101C64000319352E362E4C2E0F301005F0000B3094
:101C7400700603193E2E3F2E4C2E10162E000F1CFC
:101C8400442E452E402E23000F19492E4A2E6E2E27
:101C94000F086E2E0F301005F0000830700603197F
:101CA400542E552E5E2E0F301005F0000B307006AA
:101CB400031D5D2E5E2E6E2E0F18612E622E5E2E7B
:101CC4000F0C890C0139F00011081F397004031D31
:101CD4006C2E6D2E622E110808002100AD00230029
:101CE4000F0C890C01392100AC00230011081F39A5
:101CF40021002C04031D7F2E802E712E230011142D
:101D04001118852E862E822E23000F0C890C013982
:101D14002100AC00230011081F3921002C04031DED
:101D2400942E952E862E4E308E31C2268E3123006F
:101D34000F0C890C01392100AC00230011081F3954
:101D440021002C04031DA72EA82E992E2D088E31B8
:101D5400C2268E3123000F0C890C01392100AC00FE
:101D6400230011081F3921002C04031DBA2EBB2E99
:101D7400AC2E230011151119C02EC12EBD2E080042
:101D84002100AB002B0823008C00901FCA2ECB2E01
:101D9400CC2E1B2F0F3010052100AA0008302A0674
:101DA4000319D52ED62EEF2E0F3023001005210057
:101DB400AA000B302A060319E02EE12EEF2E230091
:101DC40010162E000F1CE72EE82EE32E23000F1909
:101DD400EC2EED2E1B2F0F081B2F0F3023001005A8
:101DE4002100AA0008302A060319F92EFA2E052F1D
:101DF4000F30230010052100AA000B302A06031D12
:101E0400042F052F1B2F23000F18092F0A2F052F2E
:101E140023000F0C890C01392100AA0023001108AA
:101E24001F3921002A04031D182F192F0A2F2300FC
:101E340011080800252FFF30F207FF30F33D3C3036
:101E4400F4070030F53D7508803A2000A0007B08B7
:101E5400803A2002031D302F7A087402031C332FAA
:101E6400342F1D2F0430763E860087010430703EE7
:101E740084008501403F00022000A0000131413F61
:101E8400003BA1007C08043E860087012008C03F77
:101E94002108C13F552FFF30F007FF30F13D3C30A2
:101EA400F2070030F33D7308803A2000A00079085F
:101EB400803A2002031D602F78087202031C632FEE
:101EC400642F4D2F0230763E860087010230703E2B
:101ED40084008501403F00022000A0000131413F01
:101EE400003BA1007C08023E860087012008C03F19
:101EF4002108C13F76087002A0007708713BA10059
:101F04007C08860087012008C03F2108C13F0800E3
:101F140011302100B2003A30890B8E2FB20B8E2F74
:101F2400000030308E316F268F3134308E316F2681
:101F34008F312930890B9C2F003230308E316F263F
:101F44008F31FA300032890BA42F30308E316F2656
:101F54008F3134308E316F268F312930890BB02F79
:101F6400003230308E316F268F310830890BB82F14
:101F7400000030308E316F268F3134308E316F2631
:101F84008F312930890BC42F003230308E316F26C7
:101F94008F310830890BCC2F000020308E316F2612
:101FA4008F3124308E316F268F312930890BD82F11
:101FB400003220308E316F268F31FA300032890B97
:101FC400E02F2100AC0128308431DF248F3121003F
:101FD400AC0106308431DF248F312100AC010F3095
:101FE4008431DF248F312100AC0101308431DF24BE
:101FF4008F31A630890BFC2F003208002534303491
:10200400323464343A3425343034323464343A3437
:1020140025343034323464340034013400340A3426
:10202400003464340034E834033410342734253461
:102034003034323464342034433400344C34203467
:0620440025346434003471
:020000040001F9
:0A000E00EC3FFF3F9F3FFF3FFF3F25
:00000001FF
