:020000040000FA
:0400000080313428EF
:1000060008007E1480310B1F09280A2832282E008A
:100016001A1D0E280F281728101D12281328172816
:100026008D31D125803132281A1C1A281B28232805
:10003600101C1E281F2823288D31BA25803132280E
:10004600991C262827282C288F1C2A282B282C2860
:100056003228191C2F28302832280F0832287E1003
:1000660009008031362846308400003085000D3086
:100076008D311D2580317E1020008531202D2000F8
:10008600B3002230A8002808AC00C6292530340663
:1000960003194E284F285B283408A8003308860029
:1000A6008701280881000130A8002808B307C6295F
:1000B600B101B201B001642830150130A00700304B
:1000C600A13D20088400210885000008303A031964
:1000D6005F286D28200884002108850000088D31DE
:1000E60095258031031C78287928AC282000B10199
:1000F600B2010A30F0000030F10020003208F300AF
:100106003108F2008E313426803171082000B200A9
:100116007008B10020088400210885000008D03E40
:10012600A800FF3003180030A9002808B1072908E5
:10013600B23D0130A0070030A13D2008840021080F
:10014600850000088D31952580310318AB28AC2831
:100156007C2820002108A9002008A800A00A03196D
:10016600A10A28088400290885000008B400003A7E
:100176000319DA29643A0319C4280D3A0319C42865
:10018600C6292C0886008701403FAE00413FAF00DC
:100196000230A8002808AC07AF1FD228D328DC28D5
:1001A6000330A8002808B004AE09AF09AE0A031947
:1001B600AF0AB401B40A3408A800A901A835A90DEC
:1001C6000F30280784009030293D8500003FAA00A3
:1001D600013FAB002B082F02031DF3282A082E022D
:1001E6000318F628F728F82802290130A80028085D
:1001F600B40705303406031D01290229DE2831081B
:10020600320403190729082912293008033903196A
:100216000D290E291229FF30B107FF30B23D3208F1
:10022600803A803C031D19293108340203181C2921
:100236001D29262920003408A800A9012808B10292
:100246002908B23B29292000B101B201301D2C2911
:100256002D295A29300803390319322933293E2911
:100266002D30A80033088600870128088100013058
:10027600A8002808B3073108320403194329442982
:1002860086293030A80033088600870128088100B7
:100296000130A8002808B307FF30B107FF30B23D90
:1002A60031083204031D5829592944298629310861
:1002B600320403195F29602975292030A800330804
:1002C60086008701280881000130A8002808B307A6
:1002D600FF30B107FF30B23D31083204031D7429E7
:1002E600752960293008033903197A297B2986295B
:1002F6002D30A800330886008701280881000130C8
:10030600A8002808B3073408A8002808AD00BD29AE
:100316000A30F8000030F9002D08A800A901A83518
:10032600A90D0F30280784009030293D8500003F35
:10033600F000013FF1002F08F3002E08F2008E3185
:10034600EA2680317108FB007008FA008E31B62665
:1003560080317808303E2000AA002A08B40034080C
:10036600A800330886008701280881000130A8000C
:100376002808B307FF30A8002808AD072D0A031D7B
:10038600C529C6298B292108A9002008A800A00A8A
:100396000319A10A28088400290885000008AA0074
:1003A6002A08B4003408031DD929DA294928330854
:1003B600860087018101080023000F0C890C013992
:1003C600F20011081F397204031DEA29EB29DF29FF
:1003D60011141118EF29F029EC290F0C890C013999
:1003E600F20011081F397204031DFA29FB29F029AE
:1003F6009A308F316227813123000F0C890C013925
:10040600F20011081F397204031D0A2A0B2AFF295C
:1004160001308F316227813123000F0C890C01399D
:10042600F20011081F397204031D1A2A1B2A0F2A0B
:10043600911491181F2A202A1C2A0F0C890C0139A5
:10044600F20011081F397204031D2A2A2B2A202ABA
:100456009B308F316227813123000F0C890C0139C3
:10046600F20011081F397204031D3A2A3B2A2F2A6B
:100476008D31FF258131F2007208F30023000F0C45
:10048600890C0139F20011081F397204031D4C2A28
:100496004D2A412A91161116111A522A532A4F2A09
:1004A6000F0C890C0139F20011081F397204031D63
:1004B6005D2A5E2A532A11151119622A632A5F2AB8
:1004C600731F662A672ADF290F0C890C0139F2008F
:1004D60011081F397204031D712A722A672A111422
:1004E6001118762A772A732A0F0C890C0139F20023
:1004F60011081F397204031D812A822A772A9A302D
:100506008F316227813123000F0C890C0139F200EB
:1005160011081F397204031D912A922A862A003077
:100526008F316227813123000F0C890C0139F200CB
:1005360011081F397204031DA12AA22A962A9114B2
:100546009118A62AA72AA32A0F0C890C0139F200B2
:1005560011081F397204031DB12AB22AA72A9B303B
:100566008F316227813123000F0C890C0139F2008B
:1005760011081F397204031DC12AC22AB62A8D31F9
:10058600FF258131F2007208F30023000F0C890C5D
:100596000139F20011081F397204031DD32AD42A27
:1005A600C82A91161116111AD92ADA2AD62A0F0C38
:1005B600890C0139F20011081F397204031DE42A5F
:1005C600E52ADA2A11151119E92AEA2AE62A730810
:1005D60008002100A5002508F039A3002308A6007D
:1005E6002508A3000330A335FF3E031DF62A233555
:1005F600F039A4002408A70023000F0C890C013948
:100606002100A300230011081F3921002304031D24
:100616000D2B0E2BFF2A230011141118132B142B4C
:10062600102B23000F0C890C01392100A300230095
:1006360011081F3921002304031D222B232B142B01
:100646004E3087315627823123000F0C890C013931
:100656002100A300230011081F3921002304031DD4
:10066600352B362B272B26082204083887315627A8
:10067600823123000F0C890C01392100A3002300CD
:1006860011081F3921002304031D4A2B4B2B3C2B39
:10069600260822040C3887315627823123000F0C96
:1006A600890C01392100A300230011081F392100FC
:1006B6002304031D5F2B602B512B210026082204E7
:1006C600083887315627823123000F0C890C0139EF
:1006D6002100A300230011081F3921002304031D54
:1006E600752B762B672B2708220408388731562767
:1006F600823123000F0C890C01392100A30023004D
:1007060011081F3921002304031D8A2B8B2B7C2BF8
:10071600270822040C3887315627823123000F0C14
:10072600890C01392100A300230011081F3921007B
:100736002304031D9F2BA02B912B210027082204A5
:10074600083887315627823123000F0C890C01396E
:100756002100A300230011081F3921002304031DD3
:10076600B52BB62BA72B230011151119BB2BBC2BB0
:10077600B82B0430890BBD2B0800F5007508F0393D
:10078600F3007308F6007508F3000330F335FF3EF7
:10079600031DC92B7335F039F4007408F7002300E4
:1007A6000F0C890C0139F30011081F397304031D5E
:1007B600DD2BDE2BD22B11141118E22BE32BDF2BB2
:1007C6000F0C890C0139F30011081F397304031D3E
:1007D600ED2BEE2BE32B4E308F3162278331230036
:1007E6000F0C890C0139F30011081F397304031D1E
:1007F600FD2BFE2BF22B7608720408388F31622708
:10080600833123000F0C890C0139F30011081F39BD
:100816007304031D0F2C102C042C760872040C385C
:100826008F316227833123000F0C890C0139F300C5
:1008360011081F397304031D212C222C162C76084F
:10084600720408388F316227833123000F0C890C1C
:100856000139F30011081F397304031D332C342C9E
:10086600282C7708720408388F31622783312300D9
:100876000F0C890C0139F30011081F397304031D8D
:10088600452C462C3A2C770872040C388F31622797
:10089600833123000F0C890C0139F30011081F392D
:1008A6007304031D572C582C4C2C770872040838F7
:1008B6008F316227833123000F0C890C0139F30035
:1008C60011081F397304031D692C6A2C5E2C11153F
:1008D60011196E2C6F2C6B2C0430890B702C0800B0
:1008E6002100A80028080319792C7A2C8E2CA31F26
:1008F6007D2C7E2C8E2C2009AA002109AB00220912
:10090600AC002309AD00AA0A0319AB0A0319AC0A05
:100916000319AD0A962C2308AD002208AC00210865
:10092600AB002008AA002308220421042004031D8A
:100936009D2C9E2CA72C0030A3000030A200003076
:10094600A1000030A0001F2D9630A4002408A900A5
:10095600B72C0130A4002408A9070130AD36AC0C31
:10096600AB0CAA0C890BB12CFE302D05031DBC2C3B
:10097600BD2CAC2CD12C0130A4002408A9070130D1
:10098600AA070030AB3D0030AC3D0030AD3D013034
:10099600AD36AC0CAB0CAA0C890BCB2CFF302D055D
:1009A600031DD62CD72CBE2CE12C0130A902013018
:1009B600AA35AB0DAC0DAD0D890BDB2CAC1BE42CB5
:1009C600E52CEB2C023029020318EA2CEB2CD82C50
:1009D6002918EE2CEF2CF72CFF30AA05FF30AB05BB
:1009E6007F30AC05FF30AD050310A90C2908A40023
:1009F600A501A601A7011830A435A50DA60DA70DC2
:100A0600890BFF2C2408AA042508AB042608AC048D
:100A16002708AD0428080319112D122D172DA31F21
:100A2600152D162D172DAD172D08A3002C08A20085
:100A36002B08A1002A08A00008008D31A7258531C2
:100A4600F8302100A0000630A1008D314325853104
:100A560099302100A0000630A1008D314C2585314A
:100A66008D31552585312000931513163E00CF157F
:100A76004F168531C32585318B170B1720001616A7
:100A86000D0E01392100BA00BB01BC01BD013D08B4
:100A9600A3003C08A2003B08A1003A08A0000030D1
:100AA60084317324853121002308C1002208C00047
:100AB6002108BF002008BE000130C2000030C3007C
:100AC60020000D0E01392100BA00BB01BC01BD0199
:100AD6003D08A3003C08A2003B08A1003A08A0007C
:100AE600003084317324853121002308B1002208A7
:100AF600B0002108AF002008AE004108B50040084C
:100B0600B4003F08B3003E08B2008731B0278531F4
:100B160003188E2D8F2D632D210042034304031DE0
:100B2600952D962D9C2D200016122100C201C30181
:100B3600A32D2000161601302100C2000030C3008C
:100B460020000D0E01392100BA00BB01BC01BD0118
:100B56003D08A3003C08A2003B08A1003A08A000FB
:100B6600003084317324853121002308C100220816
:100B7600C0002108BF002008BE00632D8031342844
:100B860011302100A8003A30890BC72DA80BC72DBC
:100B9600000030308F31AD27853134308F31AD27AD
:100BA60085312930890BD52D003230308F31AD2774
:100BB6008531FA300032890BDD2D30308F31AD278B
:100BC600853134308F31AD2785312930890BE92DB8
:100BD600003230308F31AD2785310830890BF12D49
:100BE600000030308F31AD27853134308F31AD275D
:100BF60085312930890BFD2D003230308F31AD27FC
:100C060085310830890B052E000020308F31AD2745
:100C1600853124308F31AD2785312930890B112E4E
:100C2600003220308F31AD278531FA300032890B02
:100C3600192E2100A20128308231EC2285312100B3
:100C4600A20106308231EC2285312100A2010F304B
:100C56008231EC2285312100A20101308231EC2261
:100C66008531A630890B352E003208002000A101FF
:100C7600F71F3E2E3F2E462EF609F709F60A0319F0
:100C8600F70AA101A10AF91F492E4A2E532EF80987
:100C9600F909F80A0319F90A0130FA007A08A106D7
:100CA600A201A3017608770403195A2E5B2E8A2E19
:100CB600A001A00A672E0130F635F70D890B5F2ECD
:100CC6000130FA007A08A007F71F6A2E6B2E5E2EF7
:100CD6000130A235A30D890B6C2E77087902031D0E
:100CE600762E76087802031C792E7A2E7F2E7608C9
:100CF600F8027708F93B22140130F736F60C890B17
:100D0600802E0130A002031D892E8A2E6B2E21080B
:100D160003198E2E8F2E942EA209A309A20A031957
:100D2600A30A2308F7002208F60008000030200076
:100D3600A0009030A1004708A3004608A200490879
:100D4600A5004808A4004B08A7004A08A6003730AB
:100D560080314220863180308D31232586313730EF
:100D6600F9000030FA008E31192686318B308D312C
:100D7600232586312030F9009030FA008E3119266D
:100D86008631C0308D312325863119302000A000F0
:100D96009030A1005208B500B6013508A200360809
:100DA600A3003F308031422086313F30F9000030C9
:100DB600FA008E3119268631CD308D3123258631C4
:100DC60026302000A0009030A1004D08A3004C085A
:100DD600A20043308031422086314330F900003092
:100DE600FA008E311926863108008131DF218631DD
:100DF600FB007B082000D20000308D318325863130
:100E06007008FB007108FC007C0E0F39FB00FC012A
:100E16007B08FD007D082000AE002E08FB00FC01CB
:100E26007B08A4007C08A5000130A6000030A700BE
:100E36000F30A8000030A9000030AA00AB00073030
:100E4600AC000030AD008E31912686312000250899
:100E5600CD002408CC000130CA070030CB3D3C3021
:100E66004A064B04031D382F392F3F2F0130C80780
:100E76000030C93DCA01CB013C3048064904031D78
:100E8600452F462F4C2F0130C6070030C73DC801FD
:100E9600C901183046064704031D522F532F552FFC
:100EA600C601C70108002100A100210823008C000B
:100EB600901F5E2F5F2F602FAF2F0F301005210080
:100EC600A000083020060319692F6A2F832F0F30E0
:100ED600230010052100A0000B3020060319742FF3
:100EE600752F832F230010162E000F1C7B2F7C2FAF
:100EF600772F23000F19802F812FAF2F0F08AF2FC9
:100F06000F30230010052100A00008302006031929
:100F16008D2F8E2F992F0F30230010052100A00052
:100F26000B302006031D982F992FAF2F23000F1883
:100F36009D2F9E2F992F23000F0C890C013921001C
:100F4600A000230011081F3921002004031DAC2F27
:100F5600AD2F9E2F230011080800003021002E051A
:100F6600B60000302F05B70080303005B8007F305E
:100F76003105B9003908380437043604031DC42F77
:100F8600C52FCD2F0030B1000030B0000030AF00CB
:100F96000030AE0000303205B60000303305B70031
:100FA60080303405B8007F303505B900390838047B
:100FB60037043604031DE02FE12FE92F0030B5007A
:100FC6000030B4000030B3000030B20035083106FE
:100FD600031DF72F34083006031DF72F33082F069D
:100FE600031DF72F32082E060319FA2FFB2FFD2FAC
:0A0FF6000310FE2F0314080008008A
:101A3A00640080010131890B1E2D0034F800F20187
:101A4A0078088331C0238D310800F800F201F20AC8
:101A5A0078088331C0238D3108002F009601970141
:101A6A00980199019A019B010800623031008D00AA
:101A7A008F01910102309300920108002100210890
:101A8A002000D800210020082000D70008002100EB
:101A9A0021082000D400210020082000D3000800DB
:101AAA002300901A592D5A2D602D8F01283090004D
:101ABA00910103308D00080024000E1D652D662D4E
:101ACA006D2D0E1071088D0070088C000E14712D8A
:101ADA0071088D0070088C0008002400141D762DF2
:101AEA00772D7E2D1410710893007008920014143B
:101AFA00822D71089300700892000800F3007308A1
:101B0A0021009E00931713131314000021001318C9
:101B1A008F2D902D8B2D0D08F1000C08F000080078
:101B2A00F100F0013A30710203189C2D9D2DA52D6C
:101B3A0030307102031CA22DA32DA52DF001F00A4D
:101B4A00700C08008D3132258D318F3126278D3169
:101B5A008D313A258D318D31E8258D318E317226C0
:101B6A008D318E3153268D3108002E001010200041
:101B7A005A08F1005908F0008D3161258D31200095
:101B8A00570858040319CA2DCB2DD02D58088A009E
:101B9A0057080A008D3108002E001011200056083F
:101BAA00F1005508F0008D3172258D31200053085F
:101BBA0054040319E12DE22DE72D54088A00530835
:101BCA000A008D31080022008E018F0190019101D7
:101BDA00920193018D0121009E019B0194019501BF
:101BEA00960197019A019901980180309300FF307C
:101BFA009D0008000F3023001005F0000830700621
:101C0A000319082E092E122E0F301005F0000B3082
:101C1A007006031D112E122E132E91150F1C162E4F
:101C2A00172E132E0C0808001E2E20088D312A2587
:101C3A008E317A08FC007908FB00F90A0319FA0ABE
:101C4A007B0884007C0885000008FD007D082000D0
:101C5A00A0002008031D322E332E1A2E0800F4018C
:101C6A00F501701C392E3A2E3E2E7208F4077308BD
:101C7A00F53D0130F235F30D890B3F2E0130F13677
:101C8A00F00C890B442E70087104031D4D2E4E2E44
:101C9A00362E7508F1007408F000080024008F0140
:101CAA0090010430910086308D00E8308C000D08D8
:101CBA002000DA0024000C082000D9002E001010A1
:101CCA001A1403302100A0000030A1008D314325F1
:101CDA008E31013024008E000800240095019601FF
:101CEA0004309700E7309300C830920013082000B0
:101CFA00D600240012082000D5002E0010111A1553
:101D0A00FF302100A0000730A1008D314C258E3113
:101D1A000130240094000800200026082802F6005A
:101D2A002708293BF70026082402F0002708253B4C
:101D3A00F1002A082C02F2002B082D3BF3008E3109
:101D4A0034268E317108F9007008F8008631392678
:101D5A008E3120002A087607A4002B08773DA500BB
:101D6A000800780879040319BB2EBC2EE52EFD0164
:101D7A00FD0AC82E0130F835F90D890BC02E013045
:101D8A00FC007C08FD07F91FCB2ECC2EBF2E79084C
:101D9A007B02031DD22E78087A02031CD52ED62E7A
:101DAA00DA2E7808FA027908FB3B0130F936F80C8A
:101DBA00890BDB2E0130FD02031DE42EE52ECC2E0D
:101DCA007B08F9007A08F8000800F501F6017008A6
:101DDA0071040319F12EF22E212FF701F70AFE2EB4
:101DEA000130F035F10D890BF62E0130F40074083C
:101DFA00F707F11F012F022FF52E0130F535F60DE9
:101E0A00890B032F71087302031D0D2F70087202CC
:101E1A00031C102F112F162F7008F2027108F33BC2
:101E2A0075140130F136F00C890B172F0130F702C7
:101E3A00031D202F212F022F7608F1007508F000CC
:101E4A00080020009A01990196019701980107302C
:101E5A009500EF309100FF309200FF309300FF3081
:101E6A009400FF303E00D900E730CE00EF30C300C7
:101E7A000730E400EF30B800DA01E501C4010130AF
:101E8A00B900CF01E601BA01C501D001DB01FF307B
:101E9A00BB00FF30C600FF30D100FF30DC00073046
:101EAA00E70013303D00C50014303E00A300153092
:101EBA00A40014303D00C6000800F1007108230098
:101ECA008C00901F692F6A2F6B2FAC2F0F301005D3
:101EDA00F000083070060319732F742F8A2F0F3001
:101EEA001005F0000B30700603197C2F7D2F8A2F06
:101EFA0010162E000F1C822F832F7E2F23000F19FE
:101F0A00872F882FAC2F0F08AC2F0F301005F00049
:101F1A00083070060319922F932F9C2F0F3010054B
:101F2A00F0000B307006031D9B2F9C2FAC2F0F184F
:101F3A009F2FA02F9C2F0F0C890C0139F00011083C
:101F4A001F397004031DAA2FAB2FA02F11080800F8
:101F5A002100A30023000F0C890C01392100A200E3
:101F6A00230011081F3921002204031DBD2FBE2F93
:101F7A00AF2F230011141118C32FC42FC02F230011
:101F8A000F0C890C01392100A200230011081F3906
:101F9A0021002204031DD22FD32FC42F4E308731A4
:101FAA0056278F3123000F0C890C01392100A2001A
:101FBA00230011081F3921002204031DE52FE62FF3
:101FCA00D72F2308873156278F3123000F0C890C0E
:101FDA0001392100A200230011081F39210022041F
:101FEA00031DF82FF92FEA2F230011151119FE2FBF
:101FFA00FF2FFB2F080025343034323464343A344E
:10200A0025343034323464343A342534303432347A
:10201A0064340034013400340A3400346434003443
:10202A00E8340334103427342534303432346434F9
:10203A00203443340034433454344C3420343F3451
:0C204A0000344C3420342534643400345D
:020000040001F9
:0A000E00EC3FFF3F9F3FFF3FFF3F25
:00000001FF
