:020000040000FA
:0400000080314028E3
:1000060008007E1480310B1F09280A283E282E007E
:100016001A1E0E280F281728101E12281328172814
:100026008B311C2380313E281A1D1A281B282328B1
:10003600101D1E281F2823288B31052380313E28BA
:100046001A1C262827282F28101C2A282B282F2858
:100056008A31EE2280313E28991C322833283828EE
:100066008F1C3628372838283E28191C3B283C2860
:100076003E280F083E287E10090080314228B23003
:1000860084008A3085004D308600003087001230AB
:100096008A31172280315F308400003085000F30AE
:1000A6008A3111228031B430840000308500073057
:1000B6008A31112280317E1020008731692F20007D
:1000C6006608670403196828692887280030A00095
:1000D6009030A1004D08B500B6013508A2003608DB
:1000E600A3004E08B700B8013708A4003808A500D9
:1000F6004F08B900BA013908A6003A08A7003B30F4
:10010600823122228031A4280030A0009030A10044
:100116005F08B500B6013508A2003608A3006008DE
:10012600B700B8013708A4003808A5006108B9006F
:10013600BA013908A6003A08A7003B3082312222CC
:10014600803180308A311D2280313B308A31C42291
:10015600803120005E080319B128B22871298F303A
:100166008A311D22803141308A312422803120009B
:100176005003031DBF28C028C9288B308A311D2291
:10018600803143308A3124228031D1288B308A3124
:100196001D22803120308A312422803120005803EC
:1001A600031DD628D728E0288C308A311D228031BD
:1001B60054308A3124228031E8288C308A311D223D
:1001C600803120308A312422803120005503031DDE
:1001D600ED28EE28F7288D308A311D2280314C30EB
:1001E6008A3124228031FF288D308A311D228031C8
:1001F60020308A312422803120005008031D042932
:1002060005290F295808031D09290A290F29550808
:1002160003190E290F297929210034082000CA0064
:10022600210035082000CB00210036082000CC0034
:100236005F08F0006008F1006108F2005108F30061
:100246005208F4005308F5004A30B5003508F600A8
:100256008C3164248031063020004C020318342986
:1002660035295F2927008E1B39293A2940298931EA
:10027600F32180318931E121803120006908803AFB
:10028600B50084303502031D4A2900306802031880
:100296004D294E295429C8302000E8070030E93D91
:1002A60057292000E801E9016908F1006808F00013
:1002B6008A31D8228031792927008E1F6329642943
:1002C60079290030F000F1008A31D8228031893155
:1002D600F72180318931E721803179298F308A31C0
:1002E6001D22803161308A3124228031C0308A312A
:1002F6001D22803120006B08031982298329932946
:100306001930A0009030A1005708B500B601350895
:10031600A2003608A3004330823122228031A2296E
:100326001930A0009030A1006D08B500B60135085F
:10033600A2003608A30043308231222280314330A6
:100346008A31C4228031CD308A311D22803120008D
:100356006A080319AF29B029C0292030A0009030BF
:10036600A1005408B500B6013508A2003608A3005E
:100376004730823122228031CF292030A0009030B0
:10038600A1006C08B500B6013508A2003608A30026
:10039600473082312222803147308A31C42280316F
:1003A600200064036504031DD929DA29FE296603A2
:1003B6006704031DDF29E029E52981308A311D22E2
:1003C6008031212A023066066704031DEB29EC29D9
:1003D600F12984308A311D228031212A03306606B4
:1003E6006704031DF729F829FD2987308A311D2264
:1003F6008031212A212A023064066504031D042A5D
:10040600052A0A2AC1308A311D228031212A033069
:1004160064066504031D102A112A162ACF308A3174
:100426001D228031212A043064066504031D1C2A1E
:100436001D2A212A8F308A311D2280310800200092
:10044600B4002230A8002808AC00A62B25303306BD
:1004560003192E2A2F2A3B2A3308A80034088600BF
:100466008701280881000130A8002808B407A62BB8
:10047600B101B201B001442A30150130A0070030A5
:10048600A13D20088400210885000008303A0319A0
:100496003F2A4D2A200884002108850000088A3159
:1004A6008E228231031C582A592A8C2A2000B10137
:1004B600B2010A30F0000030F10020003208F300EB
:1004C6003108F2008B31B723823171082000B20067
:1004D6007008B10020088400210885000008D03E7D
:1004E600A800FF3003180030A9002808B107290822
:1004F600B23D0130A0070030A13D2008840021084C
:10050600850000088A318E22823103188B2A8C2AB4
:100516005C2A20002108A9002008A800A00A0319C7
:10052600A10A28088400290885000008B300003ABB
:100536000319BA2B643A0319A42A0D3A0319A42AFB
:10054600A62B2C0886008701403FAE00413FAF0036
:100556000230A8002808AC07AF1FB22AB32ABC2A6B
:100566000330A8002808B004AE09AF09AE0A031983
:10057600AF0AB301B30A3308A800A901A835A90D2B
:100586000F30280784009030293D8500003FAA00DF
:10059600013FAB002B082F02031DD32A2A082E0287
:1005A6000318D62AD72AD82AE22A0130A800280812
:1005B600B30705303306031DE12AE22ABE2A3108B5
:1005C60032040319E72AE82AF22A30080339031904
:1005D600ED2AEE2AF22AFF30B107FF30B23D32088B
:1005E600803A803C031DF92A310833020318FC2A9D
:1005F600FD2A062B20003308A800A9012808B1020D
:100606002908B23B092B2000B101B201301D0C2B89
:100616000D2B3A2B300803390319122B132B1E2BE3
:100626002D30A80034088600870128088100013093
:10063600A8002808B407310832040319232B242BF9
:10064600662B3030A8003408860087012808810010
:100656000130A8002808B407FF30B107FF30B23DCB
:1006660031083204031D382B392B242B662B310815
:10067600320403193F2B402B552B2030A800340899
:1006860086008701280881000130A8002808B407E1
:10069600FF30B107FF30B23D31083204031D542B41
:1006A600552B402B3008033903195A2B5B2B662B2D
:1006B6002D30A80034088600870128088100013003
:1006C600A8002808B4073308A8002808AD009D2B09
:1006D6000A30F8000030F9002D08A800A901A83555
:1006E600A90D0F30280784009030293D8500003F72
:1006F600F000013FF1002F08F3002E08F2008D31C3
:100706003E2582317108FB007008FA008C3198246E
:1007160082317808303E2000AA002A08B300330848
:10072600A800340886008701280881000130A80047
:100736002808B407FF30A8002808AD072D0A031DB6
:10074600A52BA62B6B2B2108A9002008A800A00A20
:100756000319A10A28088400290885000008AA00B0
:100766002A08B3003308031DB92BBA2B292A3408EB
:1007760086008701810108008431D5248331FA007F
:100786007A082000ED0000308A31A02283317008FB
:10079600FA007108FB000D30FB36FA0C890BCF2BE3
:1007A6007A08FC007C082000EC006D08FA00FB01CA
:1007B6005D087B06031DE12B5C087A06031DE42B0E
:1007C600E52BF22B6C08FA00FB015B087B06031D88
:1007D600EE2B5A087A060319F12BF22B972C630895
:1007E600F1006208F0002830F2000030F3008B318F
:1007F600B72383317008003EF6007030713DF70074
:1008060020005F08FA007A08F8008B3199238331BB
:1008160020006308F1006208F0002830F200003082
:10082600F3008B31B72383317008013EF600703038
:10083600713DF70020006008FA007A08F8008B3155
:100846009923833120006308F1006208F000283004
:10085600F2000030F3008B31B72383317008023E7B
:10086600F6007030713DF70020006108FA007A0842
:10087600F8008B319923833120006308F100620868
:10088600F0002830F2000030F3008B31B7238331BB
:100896007008033EF6007030713DF70020006D08C9
:1008A600FA007A08F8008B31992383312000630817
:1008B600F1006208F0002830F2000030F3008B31BE
:1008C600B72383317008043EF6007030713DF7009F
:1008D60020006C08FA007A08F8008B3199238331DE
:1008E60001302000E2070030E33D6308803AFA0059
:1008F60080307A02031D812C19306202031C842C7D
:10090600852C882C2000E201E30120006D08FA0006
:10091600FB017A08DC007B08DD006C08FA00FB01AD
:100926007A08DA007B08DB005E0803199B2C9C2CF6
:10093600D42C54086C020318A12CA22CB62C6A08DD
:10094600031DA62CA72CB62C5608031DAB2CAC2CCD
:10095600B02CFF30FA007A08D100D601D60AD501AC
:10096600D50A1616B82CD60116126D0857020318AA
:10097600BD2CBE2CD22C6B08031DC22CC32CD22C32
:100986005908031DC72CC82CCC2CFF30FA007A0856
:10099600D100D901D90AD801D80A9616D42CD90182
:1009A6009612080023000F0C890C0139F200110879
:1009B6001F397204031DE02CE12CD52C11141118DB
:1009C600E52CE62CE22C0F0C890C0139F2001108FB
:1009D6001F397204031DF02CF12CE62C9A308D3150
:1009E600B725843123000F0C890C0139F200110858
:1009F6001F397204031D002D012DF52C01308D3198
:100A0600B725843123000F0C890C0139F200110837
:100A16001F397204031D102D112D052D91149118E7
:100A2600152D162D122D0F0C890C0139F200110807
:100A36001F397204031D202D212D162D9B308D315B
:100A4600B725843123000F0C890C0139F2001108F7
:100A56001F397204031D302D312D252D8B31632353
:100A66008431F2007208F30023000F0C890C01395F
:100A7600F20011081F397204031D422D432D372D34
:100A860091161116111A482D492D452D0F0C890C5A
:100A96000139F20011081F397204031D532D542D1C
:100AA600492D11151119582D592D552D731F5C2DD2
:100AB6005D2DD52C0F0C890C0139F20011081F3958
:100AC6007204031D672D682D5D2D111411186C2DF0
:100AD6006D2D692D0F0C890C0139F20011081F3993
:100AE6007204031D772D782D6D2D9A308D31B72523
:100AF600843123000F0C890C0139F20011081F39CB
:100B06007204031D872D882D7C2D00308D31B7256D
:100B1600843123000F0C890C0139F20011081F39AA
:100B26007204031D972D982D8C2D911491189C2DD0
:100B36009D2D992D0F0C890C0139F20011081F39D2
:100B46007204031DA72DA82D9D2D9B308D31B72531
:100B5600843123000F0C890C0139F20011081F396A
:100B66007204031DB72DB82DAC2D8B316323843150
:100B7600F2007208F30023000F0C890C0139F20011
:100B860011081F397204031DC92DCA2DBE2D9116D9
:100B96001116111ACF2DD02DCC2D0F0C890C013921
:100BA600F20011081F397204031DDA2DDB2DD02D3A
:100BB60011151119DF2DE02DDC2D73080800210019
:100BC600AF002F08F039AD002D08B0002F08AD009A
:100BD6000330AD35FF3E031DEC2D2D35F039AE004B
:100BE6002E08B10023000F0C890C01392100AD003D
:100BF600230011081F3921002D04031D032E042E86
:100C0600F52D230011141118092E0A2E062E230085
:100C16000F0C890C01392100AD00230011081F3982
:100C260021002D04031D182E192E0A2E4E308E314A
:100C3600AA26853123000F0C890C01392100AD004D
:100C4600230011081F3921002D04031D2B2E2C2EE5
:100C56001D2E30082C0408388E31AA268531230033
:100C66000F0C890C01392100AD00230011081F3932
:100C760021002D04031D402E412E322E30082C0457
:100C86000C388E31AA26853123000F0C890C0139C8
:100C96002100AD00230011081F3921002D04031D7A
:100CA600552E562E472E210030082C0408388E313A
:100CB600AA26853123000F0C890C01392100AD00CD
:100CC600230011081F3921002D04031D6B2E6C2EE5
:100CD6005D2E31082C0408388E31AA268531230072
:100CE6000F0C890C01392100AD00230011081F39B2
:100CF60021002D04031D802E812E722E31082C0416
:100D06000C388E31AA26853123000F0C890C013947
:100D16002100AD00230011081F3921002D04031DF9
:100D2600952E962E872E210031082C0408388E31F8
:100D3600AA26853123000F0C890C01392100AD004C
:100D4600230011081F3921002D04031DAB2EAC2EE4
:100D56009D2E230011151119B12EB22EAE2E043080
:100D6600890BB32E0800F5007508F039F3007308F7
:100D7600F6007508F3000330F335FF3E031DBF2E62
:100D86007335F039F4007408F70023000F0C890C52
:100D96000139F30011081F397304031DD32ED42E15
:100DA600C82E11141118D82ED92ED52E0F0C890C39
:100DB6000139F30011081F397304031DE32EE42ED5
:100DC600D92E4E308D31B725863123000F0C890C74
:100DD6000139F30011081F397304031DF32EF42E95
:100DE600E82E7608720408388D31B725863123003F
:100DF6000F0C890C0139F30011081F397304031D08
:100E0600052F062FFA2E760872040C388D31B72579
:100E1600863123000F0C890C0139F30011081F39A4
:100E26007304031D172F182F0C2F76087204083829
:100E36008D31B725863123000F0C890C0139F3005B
:100E460011081F397304031D292F2A2F1E2F770817
:100E5600720408388D31B725863123000F0C890CB2
:100E66000139F30011081F397304031D3B2F3C2F72
:100E7600302F770872040C388D31B7258631230060
:100E86000F0C890C0139F30011081F397304031D77
:100E96004D2F4E2F422F7708720408388D31B72513
:100EA600863123000F0C890C0139F30011081F3914
:100EB6007304031D5F2F602F542F11151119642F12
:100EC600652F612F0430890B662F08008B317D2337
:100ED600873100302100AA00AB008B314A238731CD
:100EE6008931FB2187318931ED2187315530210048
:100EF600AA000E30AB008931FF2187316230210014
:100F0600AA000030AB008A3105228731BF302100AC
:100F1600AA000330AB008A310B2287318A31342292
:100F260087312000931513163E00CF154F168F31CB
:100F3600042787318B170B1720000D1AA32FA42F18
:100F4600DD2F11302100B3003A30890BA82FB30BE7
:100F5600A82F0000200064086504031DB32FB42FDA
:100F6600C72F5008031DB82FB92FC32F5808031DCC
:100F7600BD2FBE2FC32F55080319C22FC32FC72F4E
:100F8600D001D801D501CB2F0130E4000030E500B7
:100F96000D1ECE2FCF2FCB2FDD2F8F317A27873106
:100FA6008D31052587318C31CC2487318C31332422
:100FB60087319F2F6508003A0319E22F9F2F640897
:100FC600003A03199F2F013A0319D02F033A031948
:100FD600D32F013A0319D62F073A0319D92F9F2F7A
:100FE60080314028623031008D008F01910102303E
:0A0FF60093009201080008000800B3
:1013C20027008E17080025008E17080027008E13AD
:1013D200080025008E13080027008E130800250040
:1013E2008E1308008931E421893108008931EA210C
:1013F200893108008931F0218931080021002B0848
:10140200A7002A08A600080021002B08A5002A0828
:10141200A400080021002B08A1002A08A00008004F
:10142200640080010131890B122A0034FE0012008F
:101432001E00FE0B182A0034F800F20178088631EB
:10144200B6268A310800F800F201F20A78088631DD
:10145200B6268A3108002F0096019701980199015A
:101462009A019B0108002300901A382A392A3F2A40
:101472008F0128309000910103308D0008008030E8
:1014820027008E00FF308D00C0308C0024001F0822
:10149200F33904389F0008000130250090008F01C5
:1014A2009101FF308D008C012E00901080302500BC
:1014B2008E00080024000E1D5F2A602A672A0E1083
:1014C20071088D0070088C000E146B2A71088D0053
:1014D20070088C0008002400141D702A712A782AD2
:1014E2001410710893007008920014147C2A710879
:1014F200930070089200080024001A1D812A822A93
:10150200892A1A1071089900700898001A148D2AF5
:1015120071089900700898000800F100F0013A3053
:1015220071020318952A962A9E2A30307102031CF2
:101532009B2A9C2A9E2AF001F00A700C0800F300F4
:10154200730821009E009317131313140000210047
:101552001318AC2AAD2AA82A0D08F1000C08F000D5
:1015620008000134003400340034FF34FF34FF3407
:101572000434003400341C3400340034FF34FF34AB
:10158200FF34FF340134FB00CA2A7A088A3124224C
:101592008A317B0886008701FB0A0108F900790875
:1015A200FA007A08031DD62AD72AC62A080071082B
:1015B200F3007008F200F336F20CF336F20C720804
:1015C20027008D0070080339F2000530F235FF3E26
:1015D200031DE72A72358C0008002E00101021002E
:1015E2002908F1002808F0008A315B228A312100A3
:1015F200260827040319FE2AFF2A042B27088A003B
:1016020026080A008B3108002E00101120006F08F6
:10161200F1006E08F0008A316C228B31210024081F
:1016220025040319152B162B1B2B25088A002408C9
:101632000A008B3108002E00101221002308F1004D
:101642002208F0008A317D228B31210020082104FA
:1016520003192C2B2D2B322B21088A0020080A007B
:101662008B31080022008E018F01900191019201BD
:1016720093018D0121009E019B0194019501960128
:1016820097019A019901980180309300FF309D00E3
:10169200080021002B08AD002A08AC00AD36AC0CC6
:1016A200AD36AC0C2C0827008D0021002A08033926
:1016B200AC000530AC35FF3E031D5B2B2C352700FB
:1016C2008C0008000F3023001005F000083070066F
:1016D20003196C2B6D2B762B0F301005F0000B309D
:1016E2007006031D752B762B772B91150F1C7A2B09
:1016F2007B2B772B0C0808008A312C228B318D3101
:101702007A258B318731F5278B318A3140228B3113
:101712008B3133238B318B31F5238B318C31142474
:101722008B318A314D228B318B31D6238B3108009C
:1017320000308B1B0130F900770830009B007608DF
:101742009A0078089C001E171E158B1355309F00B7
:10175200AA309F009E149E18AF2BB02BAC2B1E11EB
:10176200790C031C8B1303188B170800F401F50185
:10177200701CBC2BBD2BC12B7208F4077308F53DFE
:101782000130F235F30D890BC22B0130F136F00C2A
:10179200890BC72B70087104031DD02BD12BB92BD9
:1017A2007508F1007408F000080024008F01900110
:1017B2000430910086308D00E8308C000D08210045
:1017C200A90024000C082100A8002E0010101A14F1
:1017D20003302100AA000030AB008931FF218B3198
:1017E200013024008E000800240095019601043087
:1017F2009700E7309300C830920013082000EF00F2
:10180200240012082000EE002E0010111A15FF30DD
:101812002100AA000730AB008A3105228B3101304A
:1018220024009400080024009B019C0104309D00C8
:101832004A3099005C30980019082100A300240066
:1018420018082100A2002E0010121A16FE302100E4
:10185200AA000730AB008A310B228C3111302400F0
:101862009A00080020000D1A372C382C492C113010
:101872002100AA003A30890B3C2CAA0B3C2C000018
:101882002000E401E5010D1E472C482C442C632C5A
:101892008E1A4C2C4D2C332C5E080319512C532CD0
:1018A2000130542C00302100AA002A082000DE005A
:1018B20021302100AA007630890B5D2CAA0B5D2C09
:1018C2000000332C08006B2C0130F1023C30F70091
:1018D2007708F20775087202031C702C712C652CB4
:1018E20075087202F7007608023E860087017708C3
:1018F2008100812C0130F0023C30F7007708F107BB
:1019020074087102031C862C872C7B2C74087102CC
:10191200F700760A86008701770881007308700253
:10192200F7007608860087017708810008007808AA
:10193200790403199D2C9E2CC72CFD01FD0AAA2CAB
:101942000130F835F90D890BA22C0130FC007C081E
:10195200FD07F91FAD2CAE2CA12C79087B02031DCB
:10196200B42C78087A02031CB72CB82CBC2C78084B
:10197200FA027908FB3B0130F936F80C890BBD2CD1
:101982000130FD02031DC62CC72CAE2C7B08F900CA
:101992007A08F80008002000EA01EA0AD4012000CF
:1019A2000D1AD42CD52CE92C11302100AA003A3082
:1019B200890BD92CAA0BD92C00002000EA01043093
:1019C200E4000030E5000D1EE72CE82CE42C042D89
:1019D2008E1AEC2CED2CD02C01302100AA002A0802
:1019E2002000D40708305402031CF82CF92CFA2CDE
:1019F200D40121302100AA007630890BFE2CAA0BDB
:101A0200FE2C0000D02C08002000EB01EB0AD701CD
:101A120020000D1A0D2D0E2D222D11302100AA00AD
:101A22003A30890B122DAA0B122D00002000EB0177
:101A32000330E4000030E5000D1E202D212D1D2D68
:101A42003D2D8E1A252D262D092D01302100AA00AB
:101A52002A082000D70733305702031C312D322DBC
:101A6200332DD70121302100AA007630890B372D82
:101A7200AA0B372D0000092D0800F501F6017008A8
:101A820071040319452D462D752DF701F70A522DC4
:101A92000130F035F10D890B4A2D0130F400740844
:101AA200F707F11F552D562D492D0130F535F60D4D
:101AB200890B572D71087302031D612D7008720284
:101AC200031C642D652D6A2D7008F2027108F33B28
:101AD20075140130F136F00C890B6B2D0130F702D1
:101AE200031D742D752D562D7608F1007508F00032
:101AF200080020009A019901960197019801073088
:101B020095000F309100FF309200FF309300FF30BC
:101B12009400FF303E00D900C730CE00EF30C30042
:101B22000730E4004F30B800DA01E501C401B90121
:101B3200CF01E601BA01C501D001DB01FF30BB00D4
:101B4200FF30C600FF30D100FF30DC000730E70075
:101B520013303D00C50014303E00A3001530A40030
:101B62000E30960014303D00C6000800F1007108E6
:101B720023008C00901FBE2DBF2DC02D012E0F30D3
:101B82001005F000083070060319C82DC92DDF2D8D
:101B92000F301005F0000B3070060319D12DD22D35
:101BA200DF2D10162E000F1CD72DD82DD32D23007C
:101BB2000F19DC2DDD2D012E0F08012E0F3010051F
:101BC200F000083070060319E72DE82DF12D0F30D3
:101BD2001005F0000B307006031DF02DF12D012EC3
:101BE2000F18F42DF52DF12D0F0C890C0139F00091
:101BF20011081F397004031DFF2D002EF52D110849
:101C020008002100AD0023000F0C890C01392100CE
:101C1200AC00230011081F3921002C04031D122ED1
:101C2200132E042E230011141118182E192E152EFE
:101C320023000F0C890C01392100AC00230011088C
:101C42001F3921002C04031D272E282E192E4E3059
:101C52008E31AA268E3123000F0C890C0139210006
:101C6200AC00230011081F3921002C04031D3A2E59
:101C72003B2E2C2E2D088E31AA268E3123000F0CDE
:101C8200890C01392100AC00230011081F39210001
:101C92002C04031D4D2E4E2E3F2E2300111511191B
:101CA200532E542E502E08000130F00070082000F0
:101CB200E1073C306106031D5F2E602E652E013068
:101CC200F0007008E007E1013C306006031D6A2E57
:101CD2006B2E702E0130F0007008DF07E001183023
:101CE2005F06031D752E762E772EDF015E0803191F
:101CF2007B2E7C2E9E2E4F086102031C812E822E8B
:101D02009E2E4E086002031C872E882E9E2E4D08A2
:101D12005F02031C8D2E8E2E9E2E66086704031D05
:101D2200932E942E9E2EFF30F0007008D100D00129
:101D3200D00A1930F0007008CD000310961F03146A
:101D42000318A42EA72E20009617A92E2000961362
:101D520008002100AB002B0823008C00901FB22E3C
:101D6200B32EB42E032F0F3010052100AA00083025
:101D72002A060319BD2EBE2ED72E0F3023001005C2
:101D82002100AA000B302A060319C82EC92ED72E0D
:101D9200230010162E000F1CCF2ED02ECB2E230088
:101DA2000F19D42ED52E032F0F08032F0F30230027
:101DB20010052100AA0008302A060319E12EE22E9E
:101DC200ED2E0F30230010052100AA000B302A0649
:101DD200031DEC2EED2E032F23000F18F12EF22EF1
:101DE200ED2E23000F0C890C01392100AA002300DB
:101DF20011081F3921002A04031D002F012FF22E82
:101E020023001108080011302100B2003A30890B7A
:101E1200082FB20B082F000030308E3102268F318E
:101E220034308E3102268F312930890B162F003241
:101E320030308E3102268F31FA300032890B1E2F5C
:101E420030308E3102268F3134308E3102268F317E
:101E52002930890B2A2F003230308E3102268F3101
:101E62000830890B322F000030308E3102268F313C
:101E720034308E3102268F312930890B3E2F0032C9
:101E820030308E3102268F310830890B462F000008
:101E920020308E3102268F3124308E3102268F314E
:101EA2002930890B522F003220308E3102268F3199
:101EB200FA300032890B5A2F2100AC0128308531CB
:101EC200E2258F312100AC0106308531E2258F31C8
:101ED2002100AC010F308531E2258F312100AC01A8
:101EE20001308531E2258F31A630890B762F003201
:101EF200080001302000E6000030E700CD01CE01ED
:101F0200CF0120000D1A862F872FB02F113021000C
:101F1200AA003A30890B8B2FAA0B8B2F00000130BD
:101F22002000E6070030E73D0D1E982F992F952FD0
:101F32006708803A2100AA0080302A02031DA42FDC
:101F4200043020006602031CA72FA82FB02F200008
:101F5200E601E7010230E4000030E500FF2F200037
:101F62008E1AB42FB52F822F66036704031DBA2F72
:101F7200BB2FCA2F17304D02031CC02FC12FC32FF6
:101F8200CD01F52F01302100AA002A082000CD073B
:101F9200F52F023066066704031DD02FD12FE02FE4
:101FA2003B304E06031DD62FD72FD92FCE01F52F4A
:101FB20001302100AA002A082000CE07F52F0330A5
:101FC20066066704031DE62FE72FF52F3B304F0609
:101FD200031DEC2FED2FEF2FCF01F52F0130210044
:101FE200AA002A082000CF0721302100AA0076305B
:101FF200890BF92FAA0BF92F0000822F0800253434
:102002003034323464343A34253430343234643443
:102012003A342534303432346434003401340034F8
:102022000A34003464340034E8340334103427347E
:1020320025343034323464342034433400344C3464
:0820420020342534643400341D
:020000040001F9
:0A000E00EC3FFF3F9F3FFF3FFF3F25
:00000001FF
